:020000040800F2
:1000000040BF00244D27000839CD010839270008DA
:1000100039270008392700083927000800000000A8
:100020000000000000000000000000000D28000893
:100030003927000800000000AD270008B94E00086D
:1000400089290008892900088929000889290008C8
:1000500089290008892900088929000889290008B8
:1000600089290008892900088929000889290008A8
:100070008929000889290008892900088929000898
:100298007BB972B90029BEBF00204FF0004106E0CB
:1002A80008BF00281CBF6FF000414FF0FF3000F07E
:1002B80057B8ADF1080C6DE904CE002909DB002B15
:1002C8001ADB00F069F8DDF804E0DDE9022304B088
:1002D8007047404261EB4101002B1BDB00F05CF8EA
:1002E800DDF804E0DDE9022304B0404261EB41019E
:1002F800524263EB43037047524263EB430300F0FF
:100308004BF8DDF804E0DDE9022304B0404261EB7C
:1003180041017047524263EB430300F03DF8DDF8BA
:1003280004E0DDE9022304B0524263EB4303704763
:1003380053B94AB9002908BF00281CBF4FF0FF3144
:100348004FF0FF3000F00CB8ADF1080C6DE904CEA9
:1003580000F022F8DDF804E0DDE9022304B070477C
:10036800704700BF10F8012B11F8013B012A28BF84
:100378009A42F7D0D01A7047034611F8012B03F8B8
:10038800012B002AF9D17047034613F8012B002AE4
:10039800FBD1181A013870472DE9F04786468C467C
:1003A8000846089E154674461946002B40F0C28040
:1003B8008542B2FA82F245D94AB1C2F1200300FA65
:1003C80002FC2EFA03F3954043EA0C0C94404FEAE2
:1003D800154EA8B2BCFBFEF8230C0EFB18CC08FB8C
:1003E80000F943EA0C43994528D9EB1808F1FF377F
:1003F80004D2994502D9A8F102072B44A3EB0903BB
:10040800A4B2B3FBFEFC0EFB1C330CFB00F044EA69
:100418000344A04214D92C190CF1FF3304D2A04292
:1004280002D9ACF102032C44241A43EA07401EB156
:10043800D440002334607360BDE8F0874746DDE7A9
:100448006346F1E792BB431B01214FEA154EAFB259
:10045800B3FBFEFC200C0EFB1C330CFB07F840EA38
:100468000343984562D9EB180CF1FF3004D2984544
:1004780002D9ACF102002B44A3EB0803A4B2B3FBEE
:10048800FEFC0EFB1C330CFB07F744EA0344A742AF
:100498004ED92C190CF1FF3304D2A74202D9ACF182
:1004A80002032C44E41B43EA0040C0E7C2F12003E6
:1004B80020FA03F1954090402EFA03F303434FEAE4
:1004C800154EAFB2B1FBFEFC0EFB1C10190C0CFB59
:1004D80007F841EA0041884504FA02F422D969186C
:1004E8000CF1FF3004D2884502D9ACF1020029444E
:1004F800A1EB08019BB2B1FBFEFC0EFB1C110CFB2F
:1005080007F743EA01439F420ED9EB180CF1FF317C
:1005180004D29F4202D9ACF102012B44DB1B41EA11
:10052800004192E76046E3E76146F7E76046A3E7E4
:100538006346B7E7834206D916B9002108467BE728
:10054800C6E900E0F9E7B3FA83F78FB9834201D32C
:10055800724508D8BEEB020460EB030301209C46F9
:100568001EB9002168E73846FAE7C6E9004CF8E703
:10057800C7F1200CBB4022FA0CF41C432EFA0CF1F4
:1005880020FA0CF3B84001434FEA14490EFA07F574
:10059800B3FBF9F81FFA84FE09FB18300B0C08FBB3
:1005A8000EFA43EA00439A4502FA07F240D9E318E3
:1005B80008F1FF3004D29A4502D9A8F10200234479
:1005C800A3EB0A0389B2B3FBF9F809FB183308FB5C
:1005D8000EFE41EA03418E452CD9611808F1FF331C
:1005E80004D28E4502D9A8F10203214443EA00400F
:1005F800A0FB0298A1EB0E014145CE46434602D32B
:1006080006D14D4504D2B9EB020E68EB040301385C
:10061800002EA6D0B5EB0E0261EB030101FA0CFC2B
:1006280022FA07F34CEA0303F940C6E9003198E7D8
:100638004046C5E74346D9E7124B30B51A7889B02A
:1006480002F0FF04E2B9012580211D700E4B1868E5
:100658001EF093FA0D4B294618681EF052FA002234
:1006680000230B490B480494CDE9062305234FF4D6
:100678000062CDE90243CDE90044074B1AF04AFB7A
:1006880009B030BD62910024608C0024648C002481
:100698008091002488030024A50600082DE9F04F66
:1006A800ADF5237D6D4909A8FFF766FE00238DF897
:1006B80084300124DFF8A8814FF0FF324FF0FF3378
:1006C80009A9684834F045FA2346674A602109A811
:1006D8001BF0E0F80023E5B28DF884304FF0FF32CC
:1006E8004FF0FF3309A95F4834F033FA5F4B01AA92
:1006F80003F108071868083353F8041C1646BB4270
:1007080003C63246F6D1186899889B793060B18063
:10071800B3718DF807503E358DF81250D8F808504F
:100728002B6823B122A9404698470028F8D0052015
:1007380001AD1BF060FB0026D8F8087015F8011B06
:1007480001367B68404698470F2EF7D114201BF0DE
:1007580052FB64201BF04FFB34F0BEFB0A2200233F
:100768004FF0FF35FFF7E4FD10F5C8792F464FF03D
:10077800000641F1000A34F0AFFB0A220023FFF71C
:10078800D7FD484571EB0A014EDAB6F5007F1CD15A
:100798003246214636481BF079FE2346354A602109
:1007A80009A81BF077F801238DF884304FF0FF3249
:1007B8004FF0FF3309A92B4834F0CBF92E4B002218
:1007C8001A700DF5237DBDE8F08FD8F808301B6846
:1007D800A3B10DF103014046984778B99DF803206D
:1007E80022AB06F1010B9A5534F076FB0A2200235E
:1007F8005E46FFF79DFD05460F46BCE701201BF04E
:10080800FAFAB7F1FF3F08BFB5F1FF3FB3D034F0B4
:1008180063FB0A220023FFF78BFD401B61EB0701F6
:100828001E2871F10001A6DB0B2EB1DC7EB9214632
:1008380012481BF02BFE0134FA201BF0DCFA412C85
:100848007FF442AF0E4909A8FFF796FDABE73246A1
:1008580021460C481BF01AFEEDE700BF267A030874
:10086800C85303082C030024327A0308CC5B03081E
:10087800467A0308707A030862910024877A03088D
:10088800BB7A03089A7A03082DE9F0419CB0774FA8
:10089800384634F018F928B975481CB0BDE8F0415D
:1008A8001BF0F4BD734C204634F00DF908B97248BA
:1008B800F3E74FF49642714BCDE90323A368DB6855
:1008C80023B1204603A99847044608B16C48E4E7D9
:1008D80007F0A2FD04F072FF6A4A054611461FF0B0
:1008E8002CFB28462246214621F010FA28462246AB
:1008F800214621F012FA28462246214621F0F8F92D
:1009080022462846214621F0FAF9284601212CF0F2
:100918007AF9022328461A4619462CF080F922460D
:100928001821284621F000FA284615F007FA06464D
:10093800554931F0CDFC304652491FF0D0FA3046C7
:100948002246022121F02AFA22465049304621F057
:100958001EFA4F4E284612F03BFF60224D49306088
:100968001FF0EBFA22461221306821F01EFA4A489D
:10097800D6F800802DF048FAC0F307238DF804005C
:10098800C0F3074022468DF805308DF80600404632
:10099800019921F0D0F94148D6F800802DF034FAB9
:1009A800C0F307238DF80800C0F3074022468DF8EE
:1009B80009308DF80A004046029921F0D2F9224602
:1009C8000321306821F0DCF923460A2234493068D3
:1009D8001FF0F6F8306815F0B1F98046314931F06A
:1009E80077FC22462949404621F0D1F940461FF0BC
:1009F80048FE28462C4D15F0A1F9012128601EF06B
:100A0800CEFA204928681FF06AFA2246022128688F
:100A180021F0C4F922461D49286821F0B8F90321BC
:100A2800286815F03FFDBB685B680BB138469847EE
:100A38001E4C0FF053FC0022002303A9204619F096
:100A480095FE28B10FF04AFC0A201BF0D4F9F2E712
:100A580003A9286831F03CFC9DF86C30002BEAD0E3
:100A6800802130681EF093F8E5E700BF485403087A
:100A7800D67A0308C8530308E97A0308010103007A
:100A8800FA7A030864000020127B0308A0670308B1
:100A9800608C00245A000020D0660F00A64E0A0081
:100AA800410600082C7B0308648C00242C030024D6
:100AB8002DE9F04F91B0840705460E46009302F0E9
:100AC8000403DDF868800293C2F3C203039203F1C2
:100AD8000103059340F0BA81041D30B1072909D8F4
:100AE8006FF01B0011B0BDE8F08F01F00706344429
:100AF800C6F10806009B4FF000094FF0040A591E82
:100B08004FF0FF334F46CB4601935346CDF8109034
:100B18000DB1009A22600598002800F3E8809848F3
:100B2800009A824203D397488242C0F0E080039A39
:100B3800A4EB050E92074FEA9E0000F103810F2FE8
:100B480000F2B180002D00F0058107F140020DEBA5
:100B5800020C019A0CF8200C0CF8102C04980130A7
:100B68000490E7E07A285DD84B280ED8472859D852
:100B780029282DD8252852D054D820287AD023388F
:100B8800D0F1000B4BEB000B74E04C382E2849D801
:100B9800DFE800F07048484848484848484848480E
:100BA8004B484848484848484859484B4B59595970
:100BB800704B6D487048184B184848827F4B48481E
:100BC8004B487F0000204FF0000B4FF0040A38E03C
:100BD8002A380122C0B202FA00F010EA0E0F49D1F9
:100BE80010F0625C2FD110EA020B43D06046013C42
:100BF8005444B4FBFAF40AFB04F4002D61D0A3EBCF
:100C0800050CA444B4453FF66BAF002868D1042B0B
:100C180047D158F8043B2360043404232AE0019A9E
:100C2800013A01924FF0000B24E011F8010C6C28F6
:100C380034D111F8023C00206C2B8346C5D14FF00B
:100C4800080A5346D3E708F10708073428F00708CD
:100C580024F00704F8E802AB35B106982044B04206
:100C68003FF63EAFC4E900AB08344FF0000B4FF03D
:100C7800080A534611F8010F002878D0BBF1000F7D
:100C88007FF470AF2528F5D1019B4FF0010B01339C
:100C980001934FF0040AECE7584694E70020834696
:100CA800A5E7082B02D06FF015001BE708F107082D
:100CB80028F00708F8E80223C4E9002308340823C9
:100CC800D8E768B9042B02D108F10408A4E7082B77
:100CD800E9D108F1070828F0070808F10808EDE746
:100CE800059A013A059258F8042B009210E7039AE6
:100CF800900720D5A4EB050E4FF0010C4FEA9E009B
:100D0800BEF5007FCFD20F2FCDD8F5B107F1400245
:100D1800C0B20DEB020E019A0EF8200C0EF8102C42
:100D2800BCF1000F3FF41AAF60F07F0009F1010930
:100D38000EF8200C0137C5F1080204344FF6DA7EAC
:100D4800069297E74FF0000CDAE7BCF1000F01D0EC
:100D58000136EFE7029802360028EBD10098CDE97A
:100D68000631FFF711FB0644DDE90631E2E7631BB4
:100D7800B3F5806F97D23DB9A6F10804E018B1E643
:100D8800B05003089C0C04089B08029A28602B703A
:100D98009DF81030C2B1EB7085F80290B9F1000FE0
:100DA80005D008A80022C5F1010C97420ED1C5F163
:100DB80001030DF120084FF0000A0DF1300B0193EB
:100DC800574512D1601B8DE66B70E5E710F8013BC3
:100DD800190608D50CEB040E03F07F03B6453FF661
:100DE8007FAE04F8013B0132DFE7B9F1000F03D011
:100DF80098F90020002A17DB029BD3B11AF80B20C0
:100E080004F8012B0022019B18191044B0423FF648
:100E180067AE98F80000009904F8010B2046039289
:100E280034F08CF8039A14440AF1010A08F1010815
:100E3800C6E798F8002055F822300093029B0098E6
:100E480045F82230FFF7A0FA421CDCE76FF00D00EE
:100E580048E600BF2DE9F04F97B00446894600AF39
:100E680090F802A0D7F880B03B62CBF3C003FA62D7
:100E7800BB6141B9457800780AEB800020444D45B4
:100E880017D8A0EB0409E378FB61BAF1000F02D090
:100E98001BF0010F16D1FB6953BBFB6A1BB13A6A01
:100EA8004946204698474D4628465C37BD46BDE82A
:100EB800F08F461C09F101093046FFF765FA013049
:100EC8003044DCE72378626899007A62FA6A7961CB
:100ED80004EB8301002A40F000814D460E4601EBE9
:100EE8000A094FF000084E454CD101EB0A0610E004
:100EF8001BF0020FD1D023789A0004EB83017A61AA
:100F080062687A62FA6A002A77D14D4601EB0A06CE
:100F180090461BF0050F0CBF02230123FB62FB69FF
:100F280006EB430A0BF00203BB625645BCD016F829
:100F3800021B16F8013C54F82390994B994502D3AB
:100F4800984B994536D3BB69002B40D0786A1BF083
:100F580076FA00283BD0E9468AB06A46924B53613C
:100F68007B6AC2E906314FF4007313848F4B42F851
:100F7800103F00234FF412518D48023D00F074FCDD
:100F8800CD46D2E716F8013BF96254F82300FFF783
:100F9800FBF9D7F884300130F96A4BB1D7F88830BB
:100FA80098453EBFD7F8843023F8180008F10108A7
:100FB800054498E7BB6923B1786A1BF040FA00281A
:100FC800C9D11BF0010F05D1FB6AED1AADE7BB6A69
:100FD800002BAAD04846FFF7D7F9D7F8843053B189
:100FE800D7F8883098453FBF431CD7F8842022F8AB
:100FF800183008F10108054497E7BAF1000F72D0DC
:101008001BF0040672D0D046002607F1480052466D
:101018003B61B96233F092FFB96A3B6901EB0A029E
:10102800F969BA62FA695200FA60BA6A02EB4102D7
:101038003A610BF00202BA603A69B96A8A4257D13A
:101048001BF0020F62780CBF4FEA580100217A6248
:101058001BF0010F3244D2B240F09F801BF0040F06
:1010680014BF40460020BB616270A0702046E1704A
:101078003A6A7969FB6A9847051EFFF615AFBB699E
:1010880041463A6A07F1480023707B6A84F802A057
:101098006370FB69E370FB6A9847B0F10008C0F21F
:1010A800BB807B69A9EB0A013A6AC91AFB68C91AAD
:1010B800D7E90A0398470028C0F2B080A8444FF047
:1010C800000B07F1380A08EB0005B34572D300217D
:1010D8003A6AFB6A08469847E6E656464FF0000823
:1010E80007F1380093E75646D04697E7B04695E7AC
:1010F800BA6A12F8021B12F8015CBA6254F82500A9
:10110800274A904202D3274A90421ED3BA6932B185
:10111800786A7B601BF093F97B6800288CD1BA68E9
:1011280002BB08F1280207F1300C08F1010008F1B0
:101138000208944407F158025FFA88F852FA80F0DE
:101148000CF8101C00F8105C76E7BA693AB1786AB6
:101158007B601BF074F97B6800287FF46DAF1BF08F
:10116800010F09D006F1280207F13000711C16188A
:1011780006F8205CCEB25FE71BF0040F3FF45CAFCB
:1011880008F1280207F1300008F1010102EB00081C
:1011980008F8105C5FFA81F84EE7002063E700BFAB
:1011A800B05003089C0C04083D7B030804000001B0
:1011B800D85A03081BF80A3054F8239087F83730B8
:1011C800D7F884302BB3D7F888309B4521D2D7F88D
:1011D800843033F81B803A6A012107F13700FB6A33
:1011E800984700281ADB0544B8F1000F06D1484695
:1011F800FFF7CAF800F101081FFA88F83A6A414671
:101208004846FB6A9847002808DB05440BF1010BA8
:101218005BE74FF00008DEE7454645E6054643E64E
:10122800014B1860704700BF0000002480B50546D8
:101238000E461746984619F0BFFFDFF82090034680
:1012480033F028FF0446424649F800303946304614
:10125800A84754F8090001F08FFA00BF0800000001
:10126800054B00205A6822F002025A605A6822F0A0
:1012780001025A60704700BF0010005C164B82B034
:10128800D3F8E02042F00072C3F8E020D3F8E02061
:1012980002F000720192019AD3F8F42042F002029F
:1012A800C3F8F420D3F8F42002F002020092009A66
:1012B8000A4AD2F80423D20706D503F50053D3F817
:1012C8009030002002B07047D3F8A02042F0080206
:1012D800C3F8A020F5E700BF0044025800040058F6
:1012E80008B501F0A5FB01F05DFB0C4B0C4A1A6038
:1012F8000C4AD36823F03F0343F00403D3600A4B3E
:101308001A6841F20303B3EB124F06D1074AD2F829
:10131800083143F00103C2F8083108BDB0010024C8
:101328000090D003004802580010005C0080005173
:101338002DE9F047044607464FF00109DFF85080D1
:1013480014B93846BDE8F08794FAA4F5B5FA85F5DE
:1013580009FA05F32E0108EB05156FEA030A24EADA
:1013680003042B7B002BEBD058F806301B694BB9D4
:1013780046440422284607EA0A07736819681BF0DE
:101388004AFBDDE7284698470028D9D1F0E700BF97
:10139800885B030830B5002289B00F490F4833F045
:1013A8009DFD0022002300240D4D0E49284600947F
:1013B800CDE906230E234FF44072CDE90334CDE97D
:1013C8000144094B19F0A6FC0849284633F051FCA2
:1013D800204609B030BD00BFF9130008900800246A
:1013E80008040024C099002415170008327C03085B
:1013F800014819F01DBA00BF740300242DE9F04715
:10140800804620480F461BF0DEFA0646002832D0F8
:1014180000252846BDE8F087237B83B12368DB6875
:101428000BB120469847636883F8069023681B69C8
:10143800CBB963680422204619681BF0ECFA013620
:1014480010345445E8D3B8F1000FE2D0002DDFD0B6
:101458002846FFF76DFF0546002FF7D000216420CE
:1014680033F09DFCF2E7204698470028E1D009FABE
:1014780006F31D43E3E7044C0546DFF810A04FF0E0
:101488000109DEE7788C0024885B0308985B030871
:10149800014B53F820007047345C030808B5034635
:1014A80008462BB1044A136000F074FC002008BD04
:1014B8006FF01500FBE700BF0400002410B5044CD2
:1014C800237813B9034819F0B3F90123237010BD29
:1014D800639100247403002410B504460B481BF0E4
:1014E80072FA5CB10A4BBFF35B8F53E8001F0139F6
:1014F80043E80012002AF8D1BFF35B8F054833F0A8
:10150800F9FC0548BDE8104019F092B9708C002428
:10151800748C002490080024740300240020064BD7
:10152800BFF35B8F014653E8000F43E80012002A1F
:10153800F9D1BFF35B8F7047708C002470B5FFF74B
:10154800EDFF084C0546084EB44200D370BD6368F1
:101558005B792BB123685B6813B12946204698470D
:101568001034F1E7885B0308985B030810B5044C56
:10157800044920461BF09AF8034B1C6010BD00BFBD
:1015880064020024205C0308688C002400230D4AB0
:101598004FF47A710C4810B513700C4A13600C4A5A
:1015A8001360FFF77BFFFFF7E1FF0A4B0A49184674
:1015B8008B4200D310BD1A1A5C6810331211013225
:1015C8002271F5E764910024E9C90108708C0024B0
:1015D800748C0024885B0308985B0308014600228A
:1015E800002301481BF083B86402002401481BF063
:1015F8001CB900BF64020024024B014618681BF0A6
:1016080068B900BF688C002401481BF09DB900BF71
:1016180064020024264B70B51878002846D0FFF7DE
:10162800E5FF054600283ED1224B234C1B68002BC2
:1016380012DD33F051FC0A220023FEF779FED4E9CB
:101648000032C01A40F2E93361EB0201984271F1AD
:10165800000101D3FFF772FFD4E9003213F57A7362
:1016680042F10002C4E90032BDE87040FFF7CCBF88
:1016780063685B7923B12368294620461B6898472D
:101688001034B442F4D32846FFF7B6FF0B4BBFF330
:101698005B8F53E8001F013943E80012002AF8D194
:1016A800BFF35B8FC0E7064C064EEAE770BD00BF8C
:1016B80063910024708C002488080024748C002412
:1016C800885B0308985B030870B50D4D297861B9EC
:1016D8000C4C01200C4EFFF791FEB44206D3FFF7E5
:1016E80099FF0028FBD101232B7070BD63685B79DB
:1016F8001BB1236820469B6898471034EDE700BF6C
:1017080064910024885B0308985B030800212DE995
:10171800F0470846FFF772FE044658B34FF4FA78CC
:101728004FF000091C4B33F0B5FC1C4A1B581360E2
:1017380033B11B4B1B68092B02DD1A4819F078F8E6
:101748000025194FDFF85CA044B12046FFF7F0FDF3
:10175800044618B94FF0FF384FF0FF39FFF75AFF2A
:10176800064628B9B5B942464B46504619F094F892
:101778003546E9E74FF0FF384FF0FF39D2E72B68DD
:101788009B691BB100222846114698471035BD4277
:10179800F5D3E8E7054DFAE7080000006C8C002453
:1017A800748C002474030024985B0308885B030886
:1017B80013B518481BF007F9174B1B7873B1EFF3F3
:1017C8001184102383F31288BFF36F8FFFF722FF72
:1017D80084F31188BFF36F8F02B010BD0F4B1B68E5
:1017E800002BF9D050B9002200230D48CDE9002381
:1017F80042F21072002319F0F7FFEDE70928EBD148
:10180800074833F077FB074802B0BDE8104019F0ED
:101818000FB800BF748C0024649100246C8C0024E1
:101828009008002474030024064B10B504461B6876
:1018380098472146A06004481AF0D8FFBDE8104038
:10184800FFF7B6BF0400002464020024044A054BD5
:101858009B1AB1EBD30F34BF52F831000020704708
:10186800D85A0308885B03082DE9F04F8FB0C1F3FD
:101878004A280D46914604AF0C0DB8607B60B8F15C
:10188800000F63D0002607F114034FF0040B4FF04C
:101898000A0AC7F80C8032467E624846C7E90766DE
:1018A800019307F11C03CDF808B0CDF800A0F96842
:1018B800FFF7D0FAB0F5006F03461CD36C468AB028
:1018C800D9F8041004AB26481A46C3E9050140F2CA
:1018D800FF71D9614FF400711984224B42F8103F0F
:1018E8004FF4125133462048FFF7BEFFA5462C3768
:1018F800BD46BDE8F08FC0F30A0804F117003B604D
:10190800184468F3532520F007008008FFF766FEA7
:10191800044690B13B6800F11001144A4846F96149
:10192800C7E9083607F11403CDF808B0CDE900A3DC
:1019380007F11C03F968FFF78DFA68F353257B68F4
:10194800B96820462A461BF086F8D0E704F117004C
:1019580020F007008008FFF741FE0446EDE700BFCE
:10196800477C030804000001305B030831CA010802
:101978002DE9F04F87B00446934698460391DDE978
:101988001279DDE9105ABFB13B46524610210020BA
:10199800CDF80090CDF81490FFF78AF8B0F5006FF5
:1019A80006460AD340F2FF73174A0221174807B0C8
:1019B800BDE8F04F1BF0A8B83E4604F0070405F157
:1019C80017000BF0070BE400304444EA8B1420F0B6
:1019D800070044EA4624800844EA0554FFF7FEFD60
:1019E800054640B13FB13B46524631461030CDF82E
:1019F8000090FFF75DF8434622460399284607B052
:101A0800BDE8F04F1BF027B8867C0308305B03085D
:101A1800406820B1034BC01A40F3CF0070474FF025
:101A2800FF307047D85A03080EB403B503AB01461C
:101A3800054853F8042B019301F088F902B05DF8CA
:101A480004EB03B0704700BF73CB0108CA0605D486
:101A58008B064CBF02490349FFF7E6BF704700BF3A
:101A6800BF7C0308BE7C03082DE9F04F89B09B4674
:101A780004460D46149B90469DF84CA00693159B72
:101A8800179E0593169B0493BAF1000F00F09D80F2
:101A980006F4807306F0020907931AF0BAFF0246AB
:101AA80000283ED091492046FFF7BEFF0746B9F10E
:101AB800000F08D016F0440F35D12A468C4920462D
:101AC800FFF7B2FF074406F0010353B1894B2046E4
:101AD800894953F82A20894B002A08BF1A46FFF77C
:101AE800A3FF06F48073002B49D006F00803002BEF
:101AF80063D1B8F1000F66D0424681492046FFF70E
:101B080093FF0546069B3D44002B6DD1049B002B9B
:101B180073D1F30700F1E48031462046FFF796FFC2
:101B2800D8E00746C3E7774B18680028CAD0764B39
:101B38004FF47A794FF03C0C1B68B5FBF3F5B5FB15
:101B4800F0F100FB11554FF4616309FB05F5B1FB9A
:101B5800F3F2B5FBF0FE03FB121100FB1E55B1FBBF
:101B6800FCF309FB05F50CFB1311B5FBF0F500912F
:101B780020466649CDE901E5FFF756FFA2E706F0E2
:101B88000803EBB1624B2046624953F82A20FFF75D
:101B98004BFF0546B8F1000F05D04246584920468C
:101BA800FFF742FF0544BBF1000FABD05A465A4934
:101BB8002046FFF739FF0544A4E74FF0000BE1E7A3
:101BC80006F00805E6E745469CE7BBF1010F069BD2
:101BD80006D1002B64D1049B002B7BD000250CE0A0
:101BE800002BF8D04D485CE04D48069B22464D49F5
:101BF8001AF0F4FB049B002B68D0DFF82C81DFF887
:101C08002C91049F4FF0000B31462046102F28BF1F
:101C18001027FFF71BFF5D4545DC059B4FF0010BC7
:101C2800494620461A78FFF7FFFE1BF0070F03D13D
:101C380041462046FFF7F8FE5F453BD9059B4946DC
:101C4800204613F80B20FFF7EFFE0BF1010BBBF159
:101C5800100FEAD14FF0000B35492046FFF7E4FE9C
:101C68005A46059B20469A5CA2F120015F2931491A
:101C780028BF2E22FFF7D8FE0BF1010BBBF1100F86
:101C88001DD01BF0070F03D141462046FFF7CCFEBD
:101C98005F455A46E5D841462046FFF7C5FEEBE7C3
:101CA8001F485546A1E7414620460BF1010BFFF7B7
:101CB800BBFEB0E720492046FFF7B6FEC5E7059B07
:101CC8003B440593049BDB1B04939AD1BAF1000FA4
:101CD8007FF41FAF204609B0BDE8F04F1AF038BFB7
:101CE800064A20460449FFF79FFE15E7C67C03080D
:101CF800CA7C0308445C030890050408C17C0308F7
:101D0800EF7C0308808C00247C8C0024D37C03089F
:101D1800585C0308F37C0308F97C0308A9CB010885
:101D280073CB0108552D0008067D0308FE7C0308C7
:101D3800087D03080A7D0308047D030842F20F7337
:101D4800114A8B4273B5044628BF0B460568052126
:101D5800684619F09FFD636806460B2228465B68B3
:101D68000A491AF0E7FE63683246694628465B6806
:101D78001AF0E0FE63681B2205495B6828461AF0E2
:101D8800D9FE02B070BD00BF708C0308297D03081E
:101D98000D7D030800210123064A904206D8064A11
:101DA80001B901231360054B1860704740080121F1
:101DB8005B00F2E740420F007C8C0024808C0024FA
:101DC800F8B50D4604464618054FB44201D12846D9
:101DD800F8BD14F8011BBB6801485B689847F4E735
:101DE800E8530308014B036002207047A05C030816
:101DF800F8B504690B464668906A04F12401C507E2
:101E080008D46FF085053B4A01213B481AF073FE60
:101E18002846F8BD636205234FF4007CA362936AE9
:101E280098074FF0000056BF83F004030223C3F362
:101E3800800323635368636340F6FF73C4E90E03AA
:101E4800D4E9275013696B43B3FBF0F3E364D36819
:101E58006B43B3FBF0F32365176953683B44D768BA
:101E68003B4497683B444FF400676B434FF400557D
:101E7800B3FBF0F363652046136AA365D369E36592
:101E88009369236653696366936AC3F3C023DB03CC
:101E9800A3664FF48053C4E91D534FF48063C4E92B
:101EA8001F734FF48073C4E921C303F0D3F90546C7
:101EB80030B10246114910486D421AF030FFA7E7C9
:101EC80020461BF085FE054610B102460C49F2E794
:101ED800326B002A9CDB014620461BF091FF04462A
:101EE800002895D002460749034865421AF017FFB3
:101EF8008EE700BF8E7D0308E85A0308B17D03080A
:101F0800D37D0308EF7D03087FB5144612780D468C
:101F18000069152A32D017D8062A1BD00BD8032AF5
:101F28000BD0052A2AD0244824491AF0F8FE6FF06D
:101F3800850004B070BD132AF5D1A668E168012EAA
:101F48000B782FD149781EE0292A30D0392A21D0A0
:101F5800232AF1E7656902952379CDE900232A460A
:101F680023691BF0CEFE02462069002AE1D0124800
:101F780013491AF0D4FE6FF00400DAE7A168237958
:101F880009B1E1680978009129461BF048FE02462C
:101F9800A068EAE7E368019323790093A3681BF03C
:101FA8004FFEF4E78CBFB1F801100021EBE7E368BE
:101FB8005D1C01951B78F0E7E85A0308187E0308B2
:101FC800367E030873B545680646286832F07BFDFF
:101FD80048B96FF01204654A012165481AF08BFD73
:101FE800204602B070BD294651F80C0B83681B6867
:101FF80043B19847041E08DA22465E495C481AF045
:102008008EFEEDE76FF05704F6E7D5E90101836826
:10201800DB6803B19847756836696A6A012A0AD08D
:10202800022A1BD06FF08504534951481AF077FEF5
:1020380022465249E2E700232946F36006F1A0024E
:1020480051F81C0B8368DB6853B19847044650B1BC
:1020580022464B4946481AF062FEE9E70123EBE7BE
:102068006FF05704F4E7D6F8A0304FF47A72294697
:10207800B3FBF2F3C6F8A03051F8140B8368DB68A1
:1020880033B101AA9847044628B122463D49E1E701
:102098006FF05704F9E7D6F89420019B3A49B060ED
:1020A800B3FBF2F3D6F890205343D6F8982023F0E8
:1020B8000043D3404FF4FA52B3FBF2F28B42C6F816
:1020C8009C201FD9022344F620600133092B05D137
:1020D8002E4A022126481AF00EFD05E0B2FBF3F461
:1020E80084421946F1D8B16006F19001304602F0F9
:1020F800ABFF044640B1024625491D4864421AF028
:102108000EFE95E70221EEE7F16939B1304603F09A
:10211800D3F9044610B102461E49EEE7316A39B1D7
:1021280030461BF012FD044610B102461A49E4E796
:10213800042130461BF0F5FC044610B1024617494D
:10214800DBE7E96A39B130461BF077FE044610B187
:1021580002461349D1E7A96A30461BF072FC0446CF
:1021680000283FF43DAF02460E49C6E74C7E0308FF
:10217800E85A03086B7E0308947E0308D97F030896
:10218800BC7E0308D97E03087F0E1313F47E030870
:10219800127F0308287F03084B7F03086C7F03081E
:1021A800907F0308B47F03082DE9F047064600AF87
:1021B8000C46002936D0E9468AB0A3686D46D1E9B5
:1021C800001221484FF0050AA846C5E90501C5E9EE
:1021D800072348F810AF002342464FF421511B480B
:1021E800FFF742FBCD466369AD46D4E903121848B0
:1021F800C5F810A0C5E90501C5E907230023424633
:102208004FF421511148FFF72FFBCD46E369114ADE
:1022180001210E481AF078FCA3690F4A01210B48E6
:102228001AF072FC012E07D1EFF305830B4A103B1D
:10223800314606481AF068FC2146304618F098F8EE
:10224800BD46BDE8F08700BF10800308685B03083F
:102258003F8003086E8003087D800308AB80030875
:1022680030BFFFF7FDBF00BF2DE9F0410B4E05461B
:10227800DFF82C80324606EB0807CC1B09492046BC
:1022880032F05CFEA019083C4246002132F07EFE86
:1022980007F108002C67BDE8F08100BF00000000CE
:1022A80004000000A45B0308054B5A699B689A4226
:1022B80004D0044A536843F080535360704700BF0A
:1022C8002891002400ED00E070B5294C06460D4623
:1022D800284829491AF033FDA36AD9043CD5254872
:1022E80026491AF02CFD1720A36A1A0504D521489F
:1022F80023491AF024FD18201D4CA36A9B0512D50A
:102308001C4820491AF01BFDA36BA26A100409D5CA
:102318001D4A012117481AF0F7FB1EB1A36A23F4DE
:102328000043A3621920124CA36A590504D5114829
:1023380016491AF004FD1A20A36ADA050ED50D48CD
:1023480013491AF0FCFC1B20094A936A43F47F43A3
:10235800936200232B7070BD1620C5E7A36A9B0407
:10236800F2D504480B491AF0EAFC1C20ECE700BF40
:1023780000ED00E0685B0308BE800308D480030812
:10238800E5800308F8800308118103082681030803
:10239800418103085981030810B5204C2049214880
:1023A8001AF0CDFCA36A990136D51E481E491AF0C9
:1023B800C6FC1E20A36ADA0104D51A481B491AF084
:1023C800BEFC1F20154CA36A1B0304D515481849E9
:1023D8001AF0B5FC2120A36A590304D51148154900
:1023E8001AF0ADFC22200D4CA36A9A0304D50D48BF
:1023F80011491AF0A4FC2320A36ADB0304D5094879
:102408000E491AF09CFC2420044A936A6FEA03439D
:102418006FEA1343936210BD1D20CBE700ED00E087
:1024280088810308685B0308A0810308B381030857
:10243800CD810308EB810308108203082A82030870
:102448002DE9F843364D80468946364836491746C1
:102458001AF075FCAB6ADE0627D5112433493148DA
:102468001AF06DFCAB6A1D0704D5122430492D48BB
:102478001AF065FC2A4DAB6A980718D52D492948EA
:102488001AF05DFC6E6BAB6A190646D52A4A3346CC
:10249800012124481AF038FBB9F1000F03D0AB6AC8
:1024A80023F08003AB62132403E01024DAE76FF013
:1024B80015061B4DAB6ADA0704D514241F491948C1
:1024C8001AF03DFCAB6A9B0604D515241C49154837
:1024D8001AF035FC124B9A6AD50602D49A6A90070C
:1024E8000AD55B68190507D54146304600F002FA5F
:1024F80010B180F309880224094B9A6A920603D521
:102508005A6A22F400525A629A6A204642F0FF023E
:102518009A6200233B70BDE8F8836FF01506C2E7A6
:1025280000ED00E0685B0308558203086B8203082E
:10253800E58003089E820308B6820308CC8203085C
:10254800598103082DE9F041664B8AB004460026FC
:10255800D3F8048000AFC8F3080586F31188BFF3E9
:102568006F8F02F07F43B3F17F4F07D102F00C0366
:10257800082B12D15C495D481AF0E1FB002634466D
:102588000023FB71EB1E092B00F28B80DFE803F0C0
:102598000A81847D89898989898710074CBF0C46FF
:1025A8000126EDE7524951481AF0C9FB4D4D002369
:1025B800FB71EB6A9A0705D54E494C481AF0BFFBE8
:1025C800002332E0EB6A002B01DA4B49F5E7EB6AAE
:1025D8005B00F5D5494945481AF0B1FB6B69A2691A
:1025E80043F480736B61BFF34F8FBFF36F8F6B69D9
:1025F80032F8022C23F480736B61BFF34F8FBFF363
:102608006F8F4DF602739A4208D0AB6ADBB27BB388
:10261800FA1D01212046FFF713FF38E02368384AE6
:10262800012132481AF070FA2368FA79E2B907F101
:10263800080504F1200C2068083454F8041C2A46C4
:10264800644503C21546F6D17A6A002E45D0C2F316
:10265800080121B96FEA52226FEA42227A6207F131
:1026680008011846FFF7A0FD2837BD46BDE8F081F0
:10267800AB6A13F47F4F04D0F91D0120FFF724FE45
:1026880005E0AB6AB3F5803F9AD3FFF785FE0346B2
:10269800CBE7FA1D0021BDE7F91D0020EEE7194937
:1026A8008BE718F4F87F184AE8468AB0174B18BF2A
:1026B80013466A461649103DC2E905134FF40073E4
:1026C800D5611384134B42F8103F00234FF4115186
:1026D8000648FFF7C9F8C54672E722F4FF7222F0F0
:1026E8000102BBE700ED00E019830308685B0308FB
:1026F800448303085B8303087C8303088A830308F5
:10270800A9830308C583030800830308EB82030831
:10271800E983030804000001044B5A6942F01002DF
:102728005A615A6922F008025A61704700ED00E0C8
:10273800EFF30880EFF3098101B57246FFF702FF56
:1027480001BD00BF0A4880F30888102080F3118873
:1027580008484FF40461401880F30988EFF31480A7
:102768000221084380F31488BFF36F8F00F08EF8BE
:1027780040BF002480A50024084B9B6883420BD1EE
:10278800EFF3058343B1064B5A6842F080525A6012
:102798005A6A22F400425A6218F014BD28910024A3
:1027A80000ED00E014498A684FF030001044EFF360
:1027B800098C80E8F01F102080F31288BFF36F8F18
:1027C8000E4F4FF000664A698A603E60106F0C4CED
:1027D8002060506F0023536780F3118804B51046BA
:1027E80000F04CF9BDE8044002F1300090E8F01F19
:1027F8008CF30988704700002891002404ED00E05C
:10280800A88C00241EF0040F0CBFEFF30880EFF330
:102818000980816911F8021C0229FFD001B57246AE
:102828001AF082FA01BD00BF00B2002807DB0123BD
:10283800410900F01F00024A834042F821307047E6
:1028480000E100E000B2013100284FEA0111C9B2ED
:1028580006DB00F1604000F5614080F80013704726
:1028680000F00F00014B1954704700BF14ED00E051
:10287800044B054A23F07F039360BFF34F8FBFF3E8
:102888006F8F70470000000800ED00E008B5FFF703
:10289800EFFF0C4AD2F8883023F47003C2F888306E
:1028A800EFF3148323F0040383F31488BFF36F8FCB
:1028B80017F04AFE18F0BEFD00F056F81AF05EFA5E
:1028C80017F086FE00ED00E042F8203C203A009B1D
:1028D80007495360019B21F001019360029B9161BC
:1028E800D3604FF08073D36100230265436770475C
:1028F80035120008094A0346906870B113F1160FA3
:10290800006E05D0A0F140029A4205D8834203D256
:10291800814228BF0020704700207047289100247A
:1029280015460C4A0E4608B50B4B9060026F1A60AC
:1029380000F0A4F82C4686F309880020034B98473A
:102948002046002100220023014C20475DCD0108CC
:102958003512000828910024A88C0024014B10226D
:102968001A61704700ED00E0002304481021C218E6
:102978000133962B82F80013F9D1704700E100E08B
:1029880008B5EFF30583064A103B02EBC30152F882
:10299800330049688847BDE80840FFF785BC00BF99
:1029A800E8540308154A70B5536913F4803323D1EA
:1029B800C2F88430BFF34F8FD2F8803043F6E0740A
:1029C800C3F3C900C3F34E335B0103EA04060146AF
:1029D80046EA81750139C2F86052F9D2203B13F1F9
:1029E800200FF2D1BFF34F8F536943F48033536103
:1029F800BFF34F8FBFF36F8F70BD00BF00ED00E0D6
:102A0800002910DD00F01F030B44BFF34F8F074967
:102A18000344C1F8680220301A1A002AF9DCBFF30F
:102A28004F8FBFF36F8F0020704700BF00ED00E0AD
:102A38000B4B5A6912F4003211D1BFF34F8FBFF319
:102A48006F8FC3F85022BFF34F8FBFF36F8F5A6950
:102A580042F400325A61BFF34F8FBFF36F8F704754
:102A680000ED00E0024B0121024A034800F08AB859
:102A78000000082400000024F45C0308026E4021D2
:102A8800044B403A18461A60034AC3E9011201216F
:102A980000F082B8AC8C002400000B1508B5034682
:102AA8001048D0F89020C2F30722013A934207D980
:102AB8000D4801210D4A1AF027F86FF0150008BDDE
:102AC800C0F898300A6822F01F021A4342F0100238
:102AD800C0F89C208A6842F00102C0F8A02018467D
:102AE800EDE700BF00ED00E0585B03080084030831
:102AF800F0B50E4685B01F4604460025B5420DDAEE
:102B0800606810B397B1431E18420AD0104A2B468A
:102B18000121104819F0F8FF6FF01502104605B0B2
:102B2800F0BD1F28F2D921680B42EFD1236801A913
:102B380001931AF024F9A3680343D0B20393FFF773
:102B4800ADFF10F1160FE7D0421C01350C34D5E764
:102B580026840308585B0308044B0522C3F8942015
:102B6800BFF34F8FBFF36F8F704700BF00ED00E0DA
:102B7800BFF35F8F024B0022C3F89420704700BF59
:102B880000ED00E010B5034C01232278FFF7B0FFF9
:102B9800207010BD669100240B4A08B500231278F6
:102BA800FFF7A6FF10F1160F07D0084A0021D2F848
:102BB8009030C3F30723984200DB08BDC2F89800A1
:102BC8000130C2F8A010F2E76691002400ED00E0A1
:102BD800584859492DE9F043D0F8903085B00D6830
:102BE800C3F307239D4200F2A180FFF7C1FF4968A4
:102BF8000022954201F10C011AD1504C6846504F01
:102C08002570FFF7EFF800250646DFF83881DFF872
:102C18003891AE421FD1237800204649D1F8902040
:102C2800C2F3072293427BDB0020FFF795FF4CE0BD
:102C3800C0F8982051F80C3C23F01F0313430132CD
:102C480043F01003C0F89C3051F8043C43F00103F2
:102C5800C0F8A030CDE700984FEA051C00EB05113D
:102C6800CB683B40B3F5000F44D00AD8B3F5001F3A
:102C78002ED0B3F5800F34D0B3F5801F10D00135B6
:102C8800C7E7B3F1807F3ED0B3F1007FF7D150F8AA
:102C98000C3088681AF073F84A6840F4802009E01C
:102CA80050F80C3088681AF06AF840F088504A6882
:102CB80040F43020039001A92078CDE90123FFF7E3
:102CC800EDFE002828DA6FF0150005B0BDE8F083A6
:102CD80050F80C3088681AF052F84A6840EA080040
:102CE800E8E750F80C3088681AF049F84A6840EA72
:102CF8000900DFE750F80C3088681AF040F84A6895
:102D080040F08270D6E750F80C3088681AF037F82F
:102D18004A6840F08870CDE7237801332370AEE726
:102D2800C1F898300133C1F8A00077E74FF0FF30C1
:102D3800CBE700BF00ED00E0DC5B030866910024F0
:102D48000000F0FF0000081100000206F0B587B08F
:102D580007460E4614460021102268461D4632F0EA
:102D680015F902232A4621468DF802306846044B9D
:102D7800CDE90476019318F0B7FD07B0F0BD00BFA8
:102D8800A7CD010808B5024B1B689847002008BD6D
:102D9800B88C0024034B044A1860937843F002036C
:102DA80093707047B88C0024B40000240649074883
:102DB80021F00701C1F1105208B502F5002219F0FF
:102DC800B5FA002008BD00BFAFCD0124BC8C00249B
:102DD800F0B5114D85B0114E114F4FF0FF334FF044
:102DE800FF3201A9284617F0C1FC034690B1012122
:102DF8003A460C4819F088FEEFE7236813B1019AA8
:102E0800934203D101A8D4E9013198470C34B44264
:102E1800F3D3E2E7044CFAE7DC020024A45B0308DE
:102E280049840308285B0308985B0308F0B585B05C
:102E380017461E4601909DF828008DF809108DF858
:102E48000800ADF80A700396DDE90C5423462C43BC
:102E58002A460AD00D4932F01DF9D1F880400C49B4
:102E680009588C4204BF002213460A4801A931F0D0
:102E780070FE041E07DA084A0221084819F03BFED2
:102E8800204605B0F0BD0024FAE700BF208B0024DF
:102E980008000000DC0200245E840308285B0308A5
:102EA800044B03EB40000023013320F8022B994226
:102EB800FADC7047100200242DE9F84306464FF06B
:102EC8000009114F4FF00108347854FA89F5284663
:102ED80000F036F970B1284600F062F957F835303D
:102EE80043B14C4407EBC50504F01F04696808FAB0
:102EF80004F0984709F1010972785FFA89F39A4258
:102F0800E2D2BDE8F88300BFC88C00244FF48013D8
:102F1800094A0A4910B5D2F8A40088420BD0581CB7
:102F2800F9D0013BF7D183F31188BFF36F8F0424E5
:102F3800204602DFEFE710BD00640258000300805E
:102F4800034680B1B0FA80F2C2F11F02D2B207493B
:102F580031F912004FF0B042D2F880100B43C2F89A
:102F68008030FFF761BCFF22F1E700BF10020024A8
:102F780038B50D460446FFF7C9FF032D0DD8DFE825
:102F880005F0021116204FF0B0431A6822EA040235
:102F98001A605A6822EA04025A600E4B4FF44072D3
:102FA8005A6238BD4FF0B0431A682243F0E74FF039
:102FB800B0435A6822435A601A6822EA04021A6027
:102FC800EBE74FF0B0431A6822431A605A6814437B
:102FD8005C60E2E70064025830B5B0B1B0FA80F343
:102FE800C3F11F03DBB20B4850F833408C4204D1C5
:102FF80000EBC3056D68954205D044B940F833101D
:1030080000EBC3004260002030BDFF23EBE76FF008
:103018000F00F9E7C88C002460B1B0FA80F3C3F15F
:103028001F03DBB2044A002142F8331002EBC3024B
:1030380051607047FF23F5E7C88C002438B500F0CD
:1030480003030F250C4604339B009D4045EA900579
:10305800FFF75CFF05F003032A0C92FAA2F29B002B
:10306800B2FA82F203F1B04302F01F02D3F8081457
:1030780094404FF4407221EA15410C43C3F80844C8
:10308800014B5A6238BD00BF0064025800F00302C9
:103098000F23043292009340094A43EA900000F05B
:1030A8000303023352F82320030C93FAA3F3B3FA71
:1030B80083F302EA104003F01F03D840704700BFB3
:1030C800000400584FF48013094A0A4910B5D2F891
:1030D800A40088420BD0581CF9D0013BF7D183F3E8
:1030E8001188BFF36F8F0424204602DFEFE710BD7D
:1030F800006402580003008013B50E4C204631F0DE
:10310800E2FC40B90C4801210C4A19F0F4FC6FF0BC
:10311800120002B010BD0223F422CDE90023A368F7
:103128001B681BB1694620469847F2E76FF05700C5
:10313800EFE700BFC8510308F05A0308A484030846
:103148005F2838B5054607D9124A034601211248B7
:1031580019F0DAFC002038BD00F01F0301249C4060
:10316800FFF7B0FF1F2D4FF0B0430AD8D3F88830CF
:103178009C434FF44072094B0CBF012000205A6257
:10318800E9E73F2D02D8D3F89830F1E7D3F8A83013
:10319800EEE700BFC3840308F05A0308006402582E
:1031A80038B5012100F01F055F28044601FA05F52E
:1031B80007D90F4A03460F4819F0A6FC6FF015000F
:1031C80038BDFFF77FFF1F2C4FF0B04307D8C3F877
:1031D8008850094B4FF4407200205A62F0E73F2CA8
:1031E80002D8C3F89850F4E7C3F8A850F1E700BF35
:1031F800C3840308F05A030800640258064B1B698D
:1032080003F03803102B05D0182B044818BF0020F2
:10321800400870470248FBE7004402580084D7176B
:1032280040787D01374B10B518680B88C3F30B0342
:10323800132B37D813B96FF0850032E0013B122BFE
:10324800F9D801A454F823F0D93200089D320008B7
:103258003F320008FB320008DF3200083F32000826
:103268003F320008E3320008E7320008E332000882
:10327800EB320008EF320008DF320008F3320008B2
:10328800F3320008F73200083F320008D132000854
:10329800D1320008002010600B68B3F5805F2AD295
:1032A800002010BDD42B0FD003F62873C3F30B03F3
:1032B8001C2BC0D8012404FA03F3134C234205D174
:1032C80040F211142342B6D04008E4E78008E2E750
:1032D800FFF794FFDFE70D48DDE70D48DBE70D4812
:1032E800D9E70D48D7E70D48D5E70D48D3E70D488E
:1032F800D1E70D48CFE7C3F313330133B0FBF3F045
:103308001060CDE7B001002400101111006CDC0240
:103318000084D71700C2EB0B001C4E0E000E2707C7
:103328008066AB13E09DA30140787D014FF48013C4
:10333800094A0A4910B5D2F88C0088420BD0581CAB
:10334800F9D0013BF7D183F31188BFF36F8F0424C1
:10335800204602DFEFE710BD00640258000300803A
:1033680010B50B880C4603F62C73C3F30B03202B04
:1033780013D8FFF7DBFF238861680020C3F30B0332
:1033880003F1B04303F511331A6822EA01021A6007
:103398004FF44072024BDA6010BD6FF08500FBE716
:1033A8000064025813B50B880C4603F62C73C3F35C
:1033B8000B03202B1DD8FFF7B9FF23886168002075
:1033C800C3F30B0303F1B04303F511331A680A433F
:1033D8001A604FF440722388C3F30B0303F1B04320
:1033E80003F511331B680193019B034BDA6002B0AC
:1033F80010BD6FF08500FAE70064025873B5A94C58
:10340800D4F8E03043F00073C4F8E030D4F8E0308A
:1034180003F000730193019BFFF788FF236823F4EF
:1034280080232360236843F4803323602368980350
:10343800FCD523689B4A43F480532360136899049E
:10344800FCD5994B9A6942F440429A619A69920470
:10345800FCD5944B1A6902F03802182A16D11A685A
:10346800560706D41A6842F001021A601A6855070E
:10347800FCD58C4B1A6922F007021A611A6912F0FE
:10348800380FFBD19A6922F00F029A61854B1A68AE
:1034980022F080721A601A6822F080621A601A6834
:1034A80022F080521A609A6A22F0030242F0020265
:1034B8009A629A6A22F47C7242F050029A62DA6A3C
:1034C80022F00C0242F00802DA62DA6A22F0020202
:1034D800DA621A6B22F4FF7222F0010242F09F02B4
:1034E8001A63DA6A22F00102DA621A6B22F47E4267
:1034F80042F400721A63DA6A42F48032DA621A6BB2
:1035080022F4FE0242F440321A63DA6A42F40032CC
:10351800DA621A6B22F0FE4242F080721A63DA6AAB
:1035280042F48022DA621A6842F080721A601A68DD
:103538009401FCD59A6A22F47C3242F4A0429A6241
:10354800DA6A22F0C00242F08002DA62DA6A22F015
:103558002002DA629A6B22F4FF7222F0010242F032
:103568005F029A63DA6A22F01002DA629A6B22F436
:103578007E4242F400729A63DA6A42F40022DA6206
:103588009A6B22F4FE0242F440329A63DA6A42F4F9
:103598008012DA629A6B22F0FE4242F010629A635D
:1035A800DA6A42F40012DA621A6842F080621A603B
:1035B8003C4B1A681001FCD59A6A3A4C22F07C728E
:1035C80042F4A0029A62DA6A22F4406242F400628B
:1035D800DA62DA6A22F40072DA621A6C22F4FF7292
:1035E80022F0010242F083021A64DA6A22F480723D
:1035F800DA621A6C22F47E4242F400721A64DA6AC1
:1036080042F48002DA621A6C22F4FE0242F480323A
:103618001A64DA6A42F40002DA621A6C22F0FE4294
:1036280042F0B8521A64DA6A42F08072DA621A68B2
:1036380042F080521A6023689900FCD51B4EFFF7B0
:10364800DDFD0546B04202D8194802F009F8A36921
:10365800144A23F47063A361A36923F00F0343F0B2
:103668000803A361E36923F0700343F04003E361B7
:10367800E36923F4E06343F48063E361A36923F01F
:10368800700343F04003A361236A23F0700343F0FF
:1036980040032362236923F0070343F003032361F4
:1036A80008E000BF0044025800480258FFC1EB0B75
:1036B80000C2EB0B136903F03803182BFAD1B5429B
:1036C80002D90E4801F0CCFF0D4B9A6942F44042F2
:1036D8009A619A699204FCD50A4B4FF44072002013
:1036E800DA60094A136923F40043136102F1404286
:1036F800064BA2F52B121A6002B070BD00C2EB0B8C
:10370800004802580064025800440258B0010024DE
:10371800132808D8054BC34013F0010F14BF00202D
:103728006FF0850070476FF08500704732FF0D001D
:1037380010B508880C46C0F30B00FFF7E9FF002816
:1037480026DB4B68FF2B22D0FFF7F0FD626893B2AF
:10375800C2F38450C2F3054203F1B04300FA02F207
:1037680003F51133196821EA02021A6061688BB205
:10377800CA0EC1F3054103F1B0438A4003F5113382
:10378800186802431A604FF44072024BDA60002056
:1037980010BD00BF0064025808B5074831F093F91E
:1037A80038B10648FFF7F6FA0448FDF739FD00205E
:1037B80008BD6FF01200FBE7E8530308C93700089B
:1037C8000A2838B50446074D04D1AB680D212846B0
:1037D8005B689847AB68E1B202485B689847204647
:1037E80038BD00BFE853030898B5406800AF046BC4
:1037F8000369DCB133BB204631F065F9034640BBB1
:1038080021686C4688B06A461548C2E905014FF43C
:1038180000719183134942F8101F13484FF4E25185
:10382800FEF722F86FF01200A54602E01BB96FF010
:103838005700BD4698BD0121103019F02DFB00EA54
:10384800E070F6E70121103019F026FB0028D2DAE3
:10385800EFE7A3685B68002BE9D020469847E8E7C4
:103868001085030803000001E05A03080A4370B5F5
:10387800049E4568046910D19A8829688A420CD147
:10388800D8886968884208D11B89934205D1D4F841
:10389800B8309E4209D1002006E012480121124AA0
:1038A80019F029F96FF0850070BD04F1BC052846B0
:1038B80017F018F823680122C4F8B460DA632268A4
:1038C800536B43F0010353634FF0FF324FF0FF3364
:1038D800284616F0E1FF2268536B23F00103536377
:1038E800D9E700BFE05A03082C850308F8B54568F6
:1038F80007460669AB6873B14FF4D01105F10800AB
:1039080019F0AFFA041E06DA2E4A01212E4819F0E2
:10391800F2F82046F8BD2B694BB14FF4B01105F110
:10392800100019F09EFA041E01DA284AEDE7284C27
:10393800204631F0C8F838B9264A012122486FF0EC
:10394800120419F0D8F8E4E7A368A9691B682BB139
:1039580020469847041E04DA1F4AD6E76FF057043A
:10396800FAE7D5E908018368DB6803B198474FF4A3
:103978008163A6F8A8300122002106F1BC0031F0CD
:10398800EFF8EB6A38469847144A3046136823F034
:103998000D0313601AF005FB04460028B9D102464E
:1039A80006F1380130461AF05AFB04460028B0D117
:1039B8003268D2F8043123F00103C2F80431084B0D
:1039C8001864A6E759850308E05A03088D8503089B
:1039D800C85103084C7E0308C48503080040005200
:1039E8000010005098B5406800AF046B0369DCB163
:1039F80033BB204631F067F8034640BB21686C466C
:103A080088B06A461548C2E905014FF400719183F0
:103A1800134942F8101F13484FF4E251FDF724FFF1
:103A28006FF01200A54602E01BB96FF05700BD46C3
:103A380098BD2146103019F02FFA00EAE070F6E739
:103A48000021103019F028FA0028D2DAEFE7A3682D
:103A58001B68002BE9D020469847E8E71085030843
:103A680003000001E05A030808B5044A012104488C
:103A780019F041F86FF0850008BD00BF1A860308E9
:103A8800605B030837B50D46009313460A46817EEE
:103A9800006819F01FF9041E09DA064A2B460121AD
:103AA8000548009419F03AF8204603B030BD0024C8
:103AB800FAE700BF35860308605B030870B5054662
:103AC8004068C3682BB100210C3019F0B7FA0446DE
:103AD80038B90023686828211A46BDE87040FFF706
:103AE800D1BF0346034A0121034819F0CFFA204603
:103AF80070BD00BF5B860308605B030870B50546B0
:103B08004068C3682BB101210C3019F097FA0446BC
:103B180038B90023686829211A46BDE87040FFF7C4
:103B2800B1BF0346034A0121034819F0AFFA204602
:103B380070BD00BF7A860308605B03082DE9F04179
:103B48004668054607698EB0706860B306F10408D8
:103B580030F0B9FF50B96FF01204734A012173486D
:103B680018F0C9FF20460EB0BDE8F0814FF4B0113F
:103B7800404619F048FA041E06DA23466C4A012129
:103B88006A4819F083FAEDE7142019F081FA012147
:103B9800404619F053FA041E02DA2346654AEEE756
:103BA800C82019F075FAB38B002B29D1F28A7A80D4
:103BB800328BBA807B70337D03AA8DF80C3040F6C7
:103BC80003030D933B78102B14BF002303230C939E
:103BD8007B8804932223CDE9053302230793BB880E
:103BE80008939623CDE9093378230B933068B17E87
:103BF80083681B689847041E1BDA23464E4ABEE7B3
:103C08005A2B05D1338B7B80F38ABB800123D1E704
:103C1800B42B05D1F38A7B80338BBB800223C9E7A1
:103C2800B3F5877FC7D1338B7B80F38ABB800323AF
:103C3800C0E7686800230124DB228DF80B300DF102
:103C48000B03817E0094006819F02AF8A0420AD07C
:103C580021466FF004040346384A344819F016FA2E
:103C68002346374A8BE79DF80B30802B09D08022FA
:103C780001462E486FF015040092324A18F04EFFA4
:103C8800EEE74FF4D01106F10C0019F0BCF9041E50
:103C980002DA23462C4A72E718222C4928462E6954
:103CA80019F005FA041E2EDBC82019F0F1F9737813
:103CB80003225BBB2649284619F0F9F90028044677
:103CC80021DB0023112168681A46FFF7DBFE041E7A
:103CD80019DB142019F0DCF933780DF10B023A21C5
:103CE800102B686814BF772355238DF80B300123F8
:103CF800FFF7C8FE041E06DB06221649284619F0FF
:103D0800D6F9044620B12346134A38E71349D2E7C7
:103D18002846FFF7F3FE0446034608B1104A2EE78B
:103D2800104A03212CE700BF98860308605B03084C
:103D3800B8860308D3860308EF8603080C870308B0
:103D48003C87030823870308588703082E8803083D
:103D580019880308DA8703087587030804880308A5
:103D680094870308B68703082DE9F843D0F8048040
:103D78001746D0F810900D46D8F808001E4619F0DE
:103D880062F8B7F5001F044616D1D8F8084028464F
:103D9800FFF77CF984420CD1294619F054F80446FF
:103DA80019F056F82046FFF737F900212046FFF7AB
:103DB800DFF80020BDE8F883B7F5800F20D0B6F112
:103DC800806F19D0B6F1C06F18D0B6F1007F1AD144
:103DD80002264A460F492046FFF7FEF8B0B9D8F840
:103DE80008102846FFF72AF920463146FFF7C0F8A1
:103DF8002046FFF7A5F8DCE70126EAE70326E8E70F
:103E08006FF08500D6E76FF01500D3E76FF00F006D
:103E1800D0E700BF45D201084FF48013094A0A4988
:103E280010B5D2F8A00088420BD0581CF9D0013B3D
:103E3800F7D183F31188BFF36F8F0424204602DF84
:103E4800EFE710BD006402580003008038B54368EE
:103E58000C465D68FFF7E0FF4FF4407200206B6985
:103E680063406B61014B1A6238BD00BF00640258A1
:103E780070B543680D4614465E68FFF7CDFF4FF4F2
:103E88004072002073695C402C405C40014B7461B7
:103E98001A6270BD006402582DE9F8431646456859
:103EA8000124884602F0300799468C40FFF7B4FF9A
:103EB8006A68C6F38013C6F3C111C6F3412622EA25
:103EC800040203FA08F3202F43EA020304FA08F273
:103ED8006B6002EB4200D5F808C002FB01F102FB5F
:103EE80006F66FEA00032CEA000C41EA0C01A9600F
:103EF800E96821EA000146EA0106EE600FD1B8F14F
:103F0800070F18D802FA08F1286A01FA08F1C1EB7C
:103F1800011401FB09F120EA040001432962296820
:103F28003F090B4057434FF440721F43094B2F6022
:103F38001A62BDE8F883240A696A64436443C4EBDF
:103F4800041004FB09F921EA000141EA0901696248
:103F5800E5E700BF0064025838B5036904465860B5
:103F68000A4D284630F0AFFD60B1AB6861681B6848
:103F78000C3123B12846984700EAE07038BD6FF04D
:103F88005700F9E76FF01200F8E700BFC8510308BF
:103F980008B5044A0121044818F0ADFD6FF004008B
:103FA80008BD00BF74890308105B030898B5426810
:103FB80000AF0369D26883F84E1029B9136823F457
:103FC80040131360BD4698BD6C468AB003686A46C4
:103FD8000848D161C2E905034FF400731384064B06
:103FE80042F8103F00234FF411510448FDF73CFC00
:103FF800A546E7E79289030804000001105B03085F
:10400800F7B50446436806690F461C480022DD6878
:10401800596883680192DB684BB96FF00404184A49
:104028000121184818F067FD204603B0F0BD01AA29
:1040380098470028F1DB376206F110074FF0FF328E
:104048004FF0FF33384616F027FC2B68204623F044
:1040580001032B6096F84E10FFF7A8FF2046019940
:1040680000F004F996F84D3004461BB12B6843F074
:1040780001032B60384616F0DBFBD5E7C85103086F
:10408800A6890308105B030870B5044646680569ED
:104098004FF0FF320021284630F062FD3368204699
:1040A8009847002385F84C3085F84E30012205F1F9
:1040B8001000114630F054FD224830F004FD40B99C
:1040C8006FF01204204A0121204818F014FD204600
:1040D80070BD204600F048F833691D4A934224D049
:1040E80018D81C4A934222D01B4A934221D001215E
:1040F8001A4A164818F0FFFC0021204641F010012A
:10410800FFF77EFF041E18DA154A01210F4818F040
:10411800F2FCDCE7134A93420DD002F5C31202F514
:1041280020629342E3D10A21E7E70621E5E702216D
:10413800E3E70421E1E70821DFE70123002485F80C
:104148004C30C4E7C85103084C7E0308105B0308D1
:1041580040420F00A0860100801A0600D489030897
:10416800EF89030840E1330037B5456801AA00210B
:10417800686919F042FB041E07DB019B00221979CC
:10418800186800F075FB041E08DA0D4A2346012161
:104198000C4818F0B9FC204603B030BD0A486968DD
:1041A80083681B683BB9094A012106486FF004047B
:1041B80018F0A1FCEFE7984704460028EBD0F2E797
:1041C800238A0308185B0308C8510308418A0308B7
:1041D80030B504694068C0684568ED0107D5436893
:1041E8004A6823F47F0343EA0243436030BD246AEC
:1041F8001D4D14F0010F44682AD044F40064446053
:1042080044682C40234343600B7A9C0728D43AB374
:1042180013785B0724D4436843F080734360436892
:10422800039A23F000734360436823F480631343C5
:10423800436043684A6823F47F0343EA02434360C8
:10424800036843F001030360436843F40053CCE779
:1042580024F40064446044682C4044EA4303D2E7F1
:10426800436823F08073D9E700FCFFFF2DE9F84F7E
:1042780047680C46D0F810900025D7F80C80474ABC
:10428800474BF969A9420FD8D9F82030C3F3420344
:10429800012B45D0022B72D0424A4348012118F025
:1042A8002AFC6FF0150028E00C26D7F818B03F4814
:1042B8006E430BEB060ADAF80410814226D01ED8AA
:1042C8003B48814224D03B48814223D001213648D3
:1042D80018F011FC0021314A314BD9F82000C0F305
:1042E8004200B0EB510F19D15BF80610A14215D16D
:1042F800DAF808300020C8F81030BDE8F88F2E48EA
:10430800814209D09942E1D10A21E6E70621E4E792
:104318000221E2E70421E0E70821DEE70135B0E702
:1043280041F25C2C4FF47A6740F2E2464FF4FA759A
:104338000221224B4A1EB4FBF2F2B3FBF2F2B7FBA6
:10434800F2F00138FF2823D8BCFBF2FE0EF1FF3E45
:10435800BEF1FF0F1CD8B5FBF2F9B9F10F0F17D852
:10436800B6FBF2F2013A0F2A12D802394EEA094393
:1043780043EA017343EA025343EA0023BAE740F2EF
:10438800145C4FF416774FF4FA7640F27715CFE7BE
:1043980001311129CED10A4A7FE700BFD489030829
:1043A800404B4C00718A0308205B030840420F0011
:1043B800A0860100801A060040E1330000CA9A3B3B
:1043C800EC8A03082DE9F04350F8045C87B0012417
:1043D8000227D5F804800DF111032E690DF11202A0
:1043E800D8F80C00B8F8101000948DF8127019F075
:1043F80036F900284DDB9DF8113003F00F038DF8D6
:1044080011305BB30323D8F80C00B8F810100DF185
:1044180013028DF813300423009305AB19F01FF92C
:10442800002836DB9DF814109DF8162009029DF827
:104438001530100202F00F0201F4706100F4706090
:104448000F2A43EA01039DF8171041EA00010AD137
:10445800194A00913946194818F060FB96F820303F
:10446800D3B9002413E04FF0FF384FF0FF391A4654
:104478002846CDE9008919F02DF923464FF4A57295
:10448800214628460094CDE90289FEF7CFFC86F83C
:10449800204007B0BDE8F0834FF0FF324FF0FF3304
:1044A80001212846CDE90223009100234FF4A5728B
:1044B800FEF7BCFCD5E700BF1F8B0308F85A0308BA
:1044C800F8B5456804460669E86830F0FCFA40B972
:1044D8003A4A6FF012040121394818F00CFB2046C3
:1044E800F8BD3046374940F8044B30F084FB6B691F
:1044F80003B34FF4D01105F1140019F08CF8041E21
:1045080005DA314A01212E4818F0F5FAE7E70021CB
:10451800322030F044FC2B7E686901219940036900
:104528001B68194283680CBF1B69DB689847002821
:104538000446D4DB05F11C04E86930F0C4FA08B974
:10454800224AC6E720464FF4803119F064F8041E69
:1045580001DA1F4AD6E7E86995F8201082680369EE
:10456800946984B101271B6807FA01F21A424FF0D7
:10457800A07214BF4FF000734FF08063A047041E71
:1045880004DA144ABEE76FF05704FAE795F82030CA
:1045980006F11401104A07FA03F3C6E90623E8698D
:1045A8008368DB692BB13A469847041E04DA0B4A44
:1045B800A8E76FF05704FAE7002490E73E8B03085A
:1045C800F85A0308CD4300085E8B03087A8B03086A
:1045D800A58B0308CC8B03085FD60108FA8B030868
:1045E8000346F0B553F8186D85B005467268D16872
:1045F80092685C1A154BE4105C430C236343D7188C
:10460800D058397919F047F8031E08DA104A012101
:10461800009323460F4818F081FA05B0F0BD15F94C
:10462800082C9A42F9D04FF0FF304FF0FF3105F8CF
:10463800083C003B3A8918BF0123CDE9020101215A
:1046480030460091FEF7F2FBE7E700BF398EE3380A
:10465800278C0308005B03082DE9F04F85B04FF065
:104668000009466802AFF568786018353D607368E0
:104678004B4505DC337D002B40F09F80002423E070
:104688000C23D6F808A003FB09F80AEB08045AF82B
:10469800080030F018FA0346D8B95AF808206C46D2
:1046A80088B0116802AA4948C2E905014FF40071AF
:1046B8009183474942F8101F4FF4E2514548FDF7EE
:1046C800D3F8A5466FF0120420460C37BD46BDE866
:1046D800F08FE3885AF80800217943F480324FF0CC
:1046E800010C046913F0010FD0F808E023680CFAF4
:1046F80001FC14BF4CEA030323EA0C032360DEF831
:1047080000309847044638B1334A4B46009001219F
:10471800304818F003FAD7E77B68284645F8183C74
:10472800316930F094FA337D002B42D1D6F808A0D5
:104738000123A5F114010AEB080B9BF8042003FAE6
:1047480002F2264B45E904325AF808008268D46917
:1047580064B10122A047041E0BDA214A01211D4839
:1047680018F0C9F91F4A4B460094D0E76FF0570478
:10477800F3E79BF804105AF8080018F08CFF05F8C6
:10478800080C5AF808009BF8041083689C696CB1FF
:104798004FF0C0634FF0A072A047041E09DA124A16
:1047A800234601210B4818F0AFF9DBE76FF05704F7
:1047B800F5E709F10109483559E732680A233868ED
:1047C800A2FB032316F052FA58E700BF438C0308F4
:1047D80003000001005B0308538C0308C7D60108D7
:1047E800FA8B0308738C03087A8C030837B545687D
:1047F80001AA0021E86819F000F8041E07DB019BF4
:1048080000221979186800F033F8041E06DA134AF2
:1048180023460121124818F077F90BE0114C204685
:1048280030F051F948B96FF012040F4A01210C48D1
:1048380018F061F9204603B030BDA36869681B68A9
:1048480033B120469847041E05DA084A2346E0E7B4
:104858006FF05704F9E70024ECE700BFA78C0308C2
:10486800485B0308C85103084C7E0308C58C03083D
:104878002DE9F047044600EBC10600251C4FB44261
:1048880001D1002014E02068C30600F01F0911D4EC
:10489800656845F02005C0F3481AC0F3442019287C
:1048A80023D857F82080B8F1000F0DD16FF012000F
:1048B800BDE8F087B9F1100F04D0B9F1110FEAD1B2
:1048C8006568E8E73025E6E7404630F0FCF8002860
:1048D800ECD04B462A460AF00F01404618F0C4FCBB
:1048E800002804F10804CADAE2E76FF01500DFE7F0
:1048F800146103082DE9F04182B080460D464368F3
:1049080000AF02691E68002936D01068D96883682C
:10491800DB686BB13A1D9847041E0CDA1A4A01216C
:104928001A4818F0E8F820460837BD46BDE8F08177
:104938006FF05704F2E7336823F4004333607B6871
:1049480003EB5503B3FBF5F30F2B18D86C468AB06D
:10495800D8F800306A460E49D561C2E905134FF40C
:10496800007313840B4B42F8103F00234FF411518E
:104978000648FCF779FFA5466FF01504D3E79BB20C
:104988000024F360CFE700BFA6890308805B030813
:10499800318D030804000001F8B50C46036941682D
:1049A8005D682379012B15D09F1E7E427E41B60299
:1049B8006279022A96BF464F4FF4005737F81270B3
:1049C800A279022A09D0042A30D0003B18BF01235B
:1049D8001B0306E04FF4C066EAE7B3FA83F35B090A
:1049E8001B07E2790968012A14BF4FF0000C4FF445
:1049F800407CA5421DD10A6822F0805222F4B052B0
:104A080032431A430A604B6823F440533B434B60DC
:104A180043681A68936823F4407343EA0C0393606D
:104A28002968FFF767FF00EAE070F8BD4FF480538C
:104A3800D7E7D1F800E00EF4C06E764506D0D1F87D
:104A480000E02EF4C06E4EEA06060E6041680E685D
:104A5800716801F440518F4204D0716821F44051CB
:104A68003943716041680E68316801F010218B424A
:104A780004D0316821F010210B4333604368196872
:104A88008B6803F440739C4505D08B6823F440730E
:104A980043EA0C038B6043681B689968490405D591
:104AA800032A09D09A6822F4804204E0032A03D139
:104AB8009A6842F480429A6021682B68994205D02E
:104AC800FFF718FF0028B0DB23682B600020ACE755
:104AD800487703082DE9F04182B006464568046925
:104AE80000AF6E4820602FF0EEFF38B96C4A012104
:104AF8006C486FF0120417F0FEFF0BE02068E968BD
:104B080083681B685BB96FF05704674A01216548E1
:104B180017F0F1FF20460837BD46BDE8F0819847F9
:104B28000446E8B93A1D0021286A18F066FE041EFA
:104B3800F0DB7B68002219791868FFF799FE041EDC
:104B4800E8DB756833692C68D3F80480236823F0A0
:104B58000103236068682FF0B6FF48B9534AC6E7D7
:104B6800514A01214F4817F0C6FF002CD2DBD9E784
:104B7800D5E901018368DB6803B1984754E8003F31
:104B880043F00C0344E80032002AF7D1414630468E
:104B9800FFF702FF002802DA6FF01504BAE72B7D51
:104BA8001BB1A36843F00803A3606B7D1BB1636866
:104BB80043F400436360AB7D1BB1636843F4803307
:104BC8006360EB7D1BB1636843F4003363602B7E45
:104BD800002B50D0364B9C4233D0A3F54C439C421B
:104BE8002FD003F580639C422BD003F580639C4251
:104BF80027D003F580639C4223D003F544439C42AD
:104C08001FD0A3F51C439C421BD003F580639C4234
:104C180017D0284B9C4214D06C4688B033686A463B
:104C28002549C2E905134FF400739383234B42F8D7
:104C3800103F00234FF4E2511A48FCF715FEA54631
:104C4800AAE773681A68936843F4804393602368FB
:104C58006A7E23F0787343EA425323602368AA7E6E
:104C680023F4F81343EA02432360EB7E1BB1A368E5
:104C780043F40043A3602B7F1BB1236843F0005328
:104C88002360236843F001032360E3699A02FCD59B
:104C9800E3695B02FCD500243CE700BFC851030868
:104CA8004C7E0308805B0308488D0308688D030861
:104CB80000100140000C0058838D03080300000118
:104CC800F8B5436802460E4691F805E01C6803698A
:104CD80008795D6801288B7913D1BEF1020F6CD970
:104CE800022B1F464FF4C0614FF4005C7DD0042BAB
:104CF80076D000287ED0C31E012B73D86FF08500B4
:104D0800F8BD02280AD1BEF1020F62D9022B1F4654
:104D18004FF480610BD04FF4005CE8E7BEF1020F5E
:104D28005AD9022B1F4659D100286ED00021C31E24
:104D3800012BE3D90020022703237345DED118F0A5
:104D4800A8FDB842DAD1F3791BB3012B65D1344BF6
:104D58009C421ED0A3F54C439C421AD003F58063B5
:104D68009C4216D003F580639C4212D003F5806301
:104D78009C420ED003F544439C420AD0A3F51C4341
:104D88009C4206D003F580639C4202D0254B9C428E
:104D9800B4D123683146104623F001032360FFF79E
:104DA800FBFD0028AADB236843F00103236096E893
:104DB800030085E803000020A2E74FF4C0611A4F02
:104DC800022B37F81EC01F4691D170B94FF08050A2
:104DD80010E04FF48061F2E70021F0E700219AE744
:104DE80000288BD14FF4805004E0C31E012B85D9D5
:104DF80002270020BCF5805F0BD0BCF5405F0AD0CD
:104E0800BCF1000F98D1012397E701464FF080507D
:104E180092E7002391E702238FE7032B97D06DE7F2
:104E280000100140000C0058487703084FF0E023B9
:104E38000F4910B59C691A6908689B6902F48032A9
:104E48000C4934B993B903464AB90A681044C01AE0
:104E580010BD002B08BF03460AB9A342F5D90A685A
:104E680002440A604FF0E0221269EEE70446F3E7D5
:104E78009C8E0024988E00240A4B1022002083F870
:104E8800232049F64042084B1A6049F63F42074B37
:104E980018604FF0E0235A6198611A6942F00702DE
:104EA8001A61704700ED00E09C8E0024988E002463
:104EB800684620F007018D4619B5FFF7B7FF11497D
:104EC800114B0868D3E90042001942F10002C3E916
:104ED80000020E4A00230B6049F64043D2E9004124
:104EE800001BB0FBF3F043431B1941F10001C2E979
:104EF800003116F079FBFDF7D7F9BDE81940854672
:104F0800704700BF988E0024980900249009002457
:104F18002DE9F041DFF8E08099B1421C0BD14FF048
:104F2800E022136923F0010313614FF07F43C8F8AF
:104F38000030BDE8F081D8F80060012807DC0027C0
:104F48000BE0431CD8F80060F7D14FF4D17040F261
:104F5800A3139842A8BF1846471EEFF311851023E4
:104F680083F31288BFF36F8FFFF760FF234C4FF076
:104F7800E0239969D4E9002380184FF0000243F137
:104F88000003C4E900031E4B1A601E4B1A68831AFB
:104F98002ED449F6404C0CFB073303F51C433F3332
:104FA800B3FBFCF7131A40F6C4120CFB0733934209
:104FB80038BF1346144A934228BF1346C8F8003036
:104FC8004FF0E022013B90695361002381429361D5
:104FD800A1EB0003D4E9001238BF9B195B1842F11A
:104FE8000002C4E9003285F31188BFF36F8FA0E790
:104FF80040F6C413E2E700BF9C8E00249809002401
:10500800988E0024900900248020FF0038B5EFF323
:105018001185102383F31288BFF36F8F084B1C6828
:10502800084B1B68E41AFFF701FF85F31188BFF3EB
:105038006F8F49F640432044B0FBF3F038BD00BF02
:1050480098090024900900247FB50D4604460028DD
:1050580000F0FB80437C0BB918F062FD0323226843
:10506800637400230093D2F8303443F08073C2F89D
:1050780030342368D3F8303403F080730093009BF6
:1050880017F07CFC06462268D2F80C34D90477D590
:10509800D2F8303423F45E3323F4FE73C2F830348C
:1050A8002268D5E90003D2F83014DB0243EA800312
:1050B800A86843EA004301200B43C2F830340023B8
:1050C80022680193D2F8303443F00103C2F8303437
:1050D8002368D3F8303403F001030193019B17F0E0
:1050E80055FC17F04BFC06462368D3F80C24D20570
:1050F8004FD5002202925A6842F001025A60236892
:105108005A6802F001020292029A9A6822F0FF029B
:105118009A602268A16893680B4393602268D2F86A
:10512800A03043F00203C2F8A0302268D2F8A030C1
:1051380043F00403C2F8A0302268D2F8A43023F068
:105148000303C2F8A4302268E168D2F8A4300B4304
:10515800C2F8A43017F012FC23680646D3F8A4302E
:105168009B0726D02368D3F8B03003F09403942B20
:1051780026D017F003FC801BB0F57A7FF2D915E032
:1051880017F0FCFB801BB0F57A7F7FF67CAF03201D
:1051980059E017F0F3FB801BB0F57A7FA4D9F6E746
:1051A80017F0ECFB801BB0F57A7F02D9002323743B
:1051B800EDE72368D3F8B03003F01403142BEFD1D4
:1051C8006B6846F2A811224A0020012B38BF012340
:1051D8005343AA6802F0030293402A684A432168AD
:1051E800B3FBF2F3D1F8182422F03F02C1F81824D7
:1051F8002168D1F818241343C1F818342368C3F878
:10520800C4002368C3F8C80022680390A0615368EB
:1052180023F00103536023685A6802F001020392E5
:10522800039AD3F8942022F00302C3F8942022684A
:105238006168D2F894300B4343F00103C2F894300C
:1052480001236061637404B070BD0120FBE700BFF7
:1052580000093D0030B5027C0346012A00F0248194
:10526800012202740068426B22F00102426318684E
:10527800D0F8002422F00102C0F800241868826BDC
:1052880022F0030282631868CC68826B224382632F
:105298001868C26B22F47F5222F03F02C26318687A
:1052A8000C69C26B2243814CC2631868026C2240AD
:1052B800026418684D69026C2A4302641868426CDB
:1052C800224042641868426C8C6922434264186820
:1052D800C26822F00302C26018680C68C2682243E0
:1052E800C2601868426922F0070242611868D1E971
:1052F800085244692A43CD692A4322434261186807
:10530800026922F00F02026118684C6802692243A0
:1053180002611868D0F8002422F00E02C0F80024B8
:1053280018684C68D0F8002442EA4402C0F8002407
:105338004A68032A09D11868026922F48072026156
:1053480018688C680269224302611868584C826C9C
:105358002240826418688D6A826C2A4382641868C5
:10536800C26C2240C2641868CC6AC26C2243C26410
:105378001868026D22F4FF4222F07F020265186865
:105388000C6B026D224302651C684A48626D02403C
:1053980062651C684D6B626D2A4362651C68A26D6C
:1053A8000240A2651C68A26D8D6B2A43A2651C6829
:1053B800E26D0240E2651868CC6BC26D2243C2659B
:1053C8001868026E22F47F5222F03F0202661868C3
:1053D8000C6C026E224302661868826B22F400424B
:1053E800826318684C6C826B2243826318688269F6
:1053F80022F47F02826118688C6C826942EA044256
:1054080082611868826922F0FF0282611868CC6C98
:105418008269224382611868826B22F40052826397
:1054280018680C6D826B224382631868826B22F4C1
:105438008052826318684C6D826B224382631868BD
:10544800826B22F40062826318688C6D826B22433F
:1054580082631868826B22F4806282631868826BA8
:10546800CC6D224382631868826B22F400728263D7
:1054780018680C6E826B224382631868826B22F470
:105488008072826318684C6E826B2243826318684C
:10549800826B22F4804282631868896E826B0A43A9
:1054A80082630020187430BD0220FCE700E0FFFF93
:1054B80000F0FFFF00FCFFFF30B5027C0346012A25
:1054C8006ED0012202740068826822F47F428260F2
:1054D80018680C68826842EA042282601868826F41
:1054E80092B2826718684C68826F42EA0442826707
:1054F8001C682C4AA06F1040A0671C688D68A06FBC
:105508002843A0671C68E06F1040E0671C68CD68FE
:10551800E06F2843E0671C68D4F880001040C4F8A6
:1055280080001C680D69D4F880002843C4F8800006
:105538001C68D4F884001040C4F884001C684D69C5
:10554800D4F884002843C4F884001C68D4F8840084
:1055580020F08070C4F884001C688D69D4F8840039
:105568002843C4F884001C68D4F888001040C4F8A4
:1055780088001C68CD69D4F888002843C4F88800DE
:105588001C68D4F88C000240C4F88C201868096A9A
:10559800D0F88C200A43C0F88C200020187430BD45
:1055A8000220FCE70000FFFF38B50D460446F0B1C5
:1055B80090F82C3003F0FF021BB980F82D2018F06A
:1055C8009CFD0223211D206884F82C3000F014F87B
:1055D80062682946206818F0C8FD064A002013684A
:1055E80043F000431360012384F82C3038BD0120B8
:1055F800FCE700BF0040005230B50A684D6AD1E9A7
:1056080007342343154C92B902682B4322401343B5
:105618004A6813438A681343CA6813430A691343E1
:105628004A6913438A6913430360002030BD026846
:105638002B4322F4F8421343036043684A6823402B
:1056480013438A681343CA6813430A6913434A69B0
:1056580013438A6913434360E7E700BF0080FFFFF5
:10566800002854D02B4A936903F44043B3F5404FC4
:105678001FD1294B294A0344934242D9284B294A2E
:10568800034493423FD9284B984240D80020274AE8
:10569800136823F00F0303431360136803F00F0329
:1056A800984232D0136803F00F03C01A18BF0120C4
:1056B8007047936903F44043B3F5004F0ED11C4A79
:1056C8001C4B02449A421AD91B4A02449A4218D9DE
:1056D8001A4A02449A4216D90133D5E7184A194B97
:1056E80002449A4209D9184A02449A4207D9174AE9
:1056F80002449A4205D9164AEBE70420C7E703207B
:10570800C5E70220C3E70120C1E70346CDE7012032
:10571800704700BF00480258FFC4A7F7FFE0F5052F
:105728007FE2D3FB7F1D2C04801D2C040020005237
:10573800BF4C2AF6BF3B47037F8871F93FC4B8FCCA
:10574800FF6A45F53FA5AE023F10F4F77FB5A2FA10
:10575800BF5A51FD2021014828F072BFD48E002481
:10576800014B186C704700BFA08E002410B504468A
:10577800064A074918F073FD63692BB120B9204622
:105788000121BDE81040184710BD00BFA5E7020879
:1057980099E7020810B504460649074A18F05FFD64
:1057A8006369014623B118B92046BDE8104018477F
:1057B80010BD00BF9FE70208ADE702080146054893
:1057C80010B500F009F8044608B119F082FC20462B
:1057D80010BD00BF1862030870B52C4A06460D4676
:1057E80020B1036A1A4212D0C3F30F100AF046FE22
:1057F800044648B1C0E900657DBB02F0FBFC0646E3
:1058080038B920460AF04CFE0024204670BD0068D6
:10581800E6E7D0F8BC0208B9C6F8D852D6F8D812CC
:10582800013189000AF046FE0028EAD0D6F8D832BD
:105838000025C6F8BC025A1CC6F8D82240F82340F6
:105848002846C4E9055502F0E5FC0138E061284620
:1058580002F0F0FC01382062D7E7AB6813B928469C
:1058680019F0E7FBAA68138E01331386AE68318EF0
:10587800306889000AF01EFE3060AA68138E12682C
:1058880003F18043013B42F82340BEE7F0FF0F00DD
:1058980030B589B0002864D000230391CDE90432E3
:1058A8009DF81C3023F00703CDE9010001A88DF80D
:1058B8001C300AF021FA06F0BFFC30B19DF81C300C
:1058C80013F0020446D1D80745D4019B9D6805B161
:1058D8000835012201A9284628F069FC0128044658
:1058E80039D19DF81C0010F0020033D101A91AF03B
:1058F80051F9012804462ED19DF81C2012F002020D
:1059080028D101A9284628F052FC0128044622D1B2
:105918009DF81C3099071DD401981CF095FA04468F
:10592800C0B19DF81C305A0714D4039B2B3B012BA4
:105938000ED94FF48041019819F037F950B1039B03
:10594800163B1E2B04D8084A22FA03F3DB0701D4BE
:105958000194B0E7012401A80AF0D6F9204609B05D
:1059680030BD0124FAE700BFF19F78588268531EC2
:10597800032B05D9192A05D8034BD340DB0701D5DA
:1059880028F0B1BC0020704700DF3B0337B50B4956
:10599800054619F010F9044610B1002003B030BDD7
:1059A80028461CF051FA0028F7D0162221461BF091
:1059B800BDFC80B2003818BF0120EFE701000600E7
:1059C80007B5064B00223421CDE900236A46FFF7CC
:1059D8005FFF009803B05DF804FB00BF010000E022
:1059E80007B50023054A3421CDE900236A46FFF7AD
:1059F8004FFF019803B05DF804FB00BF010000E011
:105A08002DE9F04F87B08146FFF7C0FF0546002813
:105A180040F01A8148461CF017FA082229468246A7
:105A280048461BF083FC0922059004468346294614
:105A380048461BF07BFC064605900090BAF1000F23
:105A480007D102462146484607B0BDE8F04F1AF094
:105A5800D3BC50461AF0F4FA804650461AF000FBC0
:105A680004F0C0430746B3F1005F1FD124F0C044DF
:105A78006FF060439C4219D00122294650461BF022
:105A880055FC6FF040430590984200F09680B4F1C1
:105A9800805F4FF0640BA2BFC4F17F6404F57F24DC
:105AA80004F6FF7404FB08F494FBFBFB06F0C04308
:105AB800B3F1005F1DD126F0C0446FF060439C42F3
:105AC80017D00222002150461BF030FC6FF04043F3
:105AD8000590984273D0B4F1805F05DBC4F17F6410
:105AE80004F57F2404F6FF747C43642394FBF3F3EA
:105AF800009309F114046C22002148461BF016FC9F
:105B08006D22002105900390064648461BF00EFCC6
:105B18000590CDE90100204628F082F80546204688
:105B280028F083F8039B044603F0C040B0F1005FFF
:105B3800DDE9011213D123F0C0436FF060408342C6
:105B48000DD0B3F1805F4FF06406A2BFC3F17F634D
:105B580003F57F2303F6FF736B4393FBF6F602F01E
:105B6800C043B3F1005F13D122F0C0426FF060432D
:105B78009A420DD0B2F1805F4FF06403A2BFC2F128
:105B88007F6202F57F2202F6FF72624392FBF3F115
:105B98005E44DDF800B00A2248468B4400211BF021
:105BA800C5FB059010F0FF000BD150461AF054F8D1
:105BB800012825D1A8EB050521E0AB4676E70024AE
:105BC80092E7023807281BD801A353F820F000BF3A
:105BD800F95B0008BD5B00081F5C00080F5C00084B
:105BE800255C0008315C00082B5C0008415C00085B
:105BF80005EBD57508EBD8786D10C5EB68052E4414
:105C08005A4631461FE705EBD57508EBD8786D1075
:105C1800C5EB68052E443C1BA344F1E7A8EB05053A
:105C2800F8E7A8EB05052E4404EBD47407EBD77707
:105C38006410C4EB6704EFE705EBD57508EBD8787B
:105C48006D10C5EB6805EEE707B0BDE8F08F00BF43
:105C58002DE9F04F90F82B3091B0044603F00C0377
:105C68000C2B03D1002011B0BDE8F08F1CF0ECF82C
:105C780006460028F6D094F82B1004F1140311F00E
:105C88000801019365D0184627F0CAFF94F82B1035
:105C9800074611F0040100F0B381019827F0C5FF11
:105CA8000546019827F0BCFF874200F09082204605
:105CB8001AF08BFB63690CA930460893A369099312
:105CC800E3690A93236A0B931AF0DAF900220CA904
:105CD80008A827F003FD804610B930461BF0A2F94A
:105CE800A36920461D44013D256219F0B5FF01282E
