:020000040800F2
:10000000C0110024C10B000895360008AD0B000894
:10001000AD0B0008AD0B0008AD0B000800000000A0
:10002000000000000000000000000000810C00083B
:10003000AD0B000800000000210C00086D21000835
:10004000FD0D0008FD0D0008FD0D0008FD0D000868
:10005000FD0D0008FD0D0008FD0D0008FD0D000858
:10006000FD0D0008FD0D0008FD0D0008FD0D000848
:10007000FD0D0008FD0D0008FD0D0008FD0D000838
:1002980053B94AB9002908BF00281CBF4FF0FF31E5
:1002A8004FF0FF3000F00CB8ADF1080C6DE904CE4A
:1002B80000F008F8DDF804E0DDE9022304B0704737
:1002C800704700BF2DE9F04786468C460846089ED1
:1002D800154674461946002B40F0C2808542B2FA92
:1002E80082F245D94AB1C2F1200300FA02FC2EFA83
:1002F80003F3954043EA0C0C94404FEA154EA8B21C
:10030800BCFBFEF8230C0EFB18CC08FB00F943EAF3
:100318000C43994528D9EB1808F1FF3704D29945C1
:1003280002D9A8F102072B44A3EB0903A4B2B3FB3B
:10033800FEFC0EFB1C330CFB00F044EA0344A04215
:1003480014D92C190CF1FF3304D2A04202D9ACF114
:1003580002032C44241A43EA07401EB1D440002368
:1003680034607360BDE8F0874746DDE76346F1E730
:1003780092BB431B01214FEA154EAFB2B3FBFEFC03
:10038800200C0EFB1C330CFB07F840EA034398458E
:1003980062D9EB180CF1FF3004D2984502D9ACF1C0
:1003A80002002B44A3EB0803A4B2B3FBFEFC0EFB34
:1003B8001C330CFB07F744EA0344A7424ED92C1917
:1003C8000CF1FF3304D2A74202D9ACF102032C444A
:1003D800E41B43EA0040C0E7C2F1200320FA03F11E
:1003E800954090402EFA03F303434FEA154EAFB2FF
:1003F800B1FBFEFC0EFB1C10190C0CFB07F841EAC4
:100408000041884504FA02F422D969180CF1FF303A
:1004180004D2884502D9ACF102002944A1EB0801B5
:100428009BB2B1FBFEFC0EFB1C110CFB07F743EA69
:1004380001439F420ED9EB180CF1FF3104D29F42C1
:1004480002D9ACF102012B44DB1B41EA004192E7DF
:100458006046E3E76146F7E76046A3E76346B7E728
:10046800834206D916B9002108467BE7C6E900E0B1
:10047800F9E7B3FA83F78FB9834201D3724508D8F5
:10048800BEEB020460EB030301209C461EB9002169
:1004980068E73846FAE7C6E9004CF8E7C7F1200CE8
:1004A800BB4022FA0CF41C432EFA0CF120FA0CF390
:1004B800B84001434FEA14490EFA07F5B3FBF9F8BF
:1004C8001FFA84FE09FB18300B0C08FB0EFA43EAEE
:1004D80000439A4502FA07F240D9E31808F1FF30C1
:1004E80004D29A4502D9A8F102002344A3EB0A03D7
:1004F80089B2B3FBF9F809FB183308FB0EFE41EA91
:1005080003418E452CD9611808F1FF3304D28E457A
:1005180002D9A8F10203214443EA0040A0FB029853
:10052800A1EB0E014145CE46434602D306D14D45C7
:1005380004D2B9EB020E68EB04030138002EA6D0F2
:10054800B5EB0E0261EB030101FA0CFC22FA07F38A
:100558004CEA0303F940C6E9003198E74046C5E78D
:100568004346D9E710B5064C064803F07DF800214C
:1005780042F2107003F094FB204603F075F8F6E79A
:100588006A48000842480008014B1B68184700BF2A
:1005980000000024014B1860704700BF00000024D1
:1005A80030B585B004460D4610220021684603F098
:1005B800F0FB02232A4621468DF802306846034B99
:1005C800019302F011FD05B030BD00BF9105000890
:1005D80080B505460E461746984602F081FADFF8C0
:1005E8002090034603F040FC0446424649F8003098
:1005F80039463046A84754F8090000F0F7FA00BF1A
:1006080008000000054B00205A6822F002025A60D8
:100618005A6822F001025A60704700BF0010005C5F
:10062800164B82B0D3F8E02042F00072C3F8E02005
:10063800D3F8E02002F000720192019AD3F8F42076
:1006480042F00202C3F8F420D3F8F42002F00202C8
:100658000092009A0A4AD2F80423D20706D503F575
:100668000053D3F89030002002B07047D3F8A02090
:1006780042F00802C3F8A020F5E700BF0044025882
:100688000004005808B500F0F5FB00F0C5FB0C4B62
:100698000C4A1A600C4AD36823F03F0343F0040362
:1006A800D3600A4B1A6841F20303B3EB124F06D129
:1006B800074AD2F8083143F00103C2F8083108BDEF
:1006C800240000240090D003004802580010005C69
:1006D80000800051014B0360022070476446000807
:1006E80038B505460C4699B11048D1E90123096887
:1006F80002F0BAFFE1680E48D4E9042302F0B4FF1F
:10070800E1690C4802F0B0FFA1690B4802F0ACFFA8
:10071800012D05D1EFF305810848103902F0A4FF37
:1007280021462846BDE8384001F062BEBF480008AF
:10073800EF4800081F4900082F4900085E490008D3
:1007480030BFFFF7FDBF00BF2DE9F0410B4E054656
:10075800DFF82C80324606EB0807CC1B09492046F7
:1007680003F009FBA019083C4246002103F011FBE5
:1007780007F108002C67BDE8F08100BF0000000009
:100788000400000020460008054B5A699B689A42FD
:1007980004D0044A536843F080535360704700BF45
:1007A800AC03002400ED00E02DE9F843324D80460B
:1007B80032488946174602F057FFAB6ADE0622D553
:1007C80011242F4802F050FFAB6A1D0703D51224ED
:1007D8002C4802F049FF284DAB6A980715D52A48DE
:1007E80002F042FF6E6BAB6A190642D531462748C4
:1007F80002F03AFFB9F1000F03D0AB6A23F080038F
:10080800AB62132403E01024DEE76FF015061A4DDF
:10081800AB6ADA0703D514241D4802F025FFAB6A3A
:100828009B0603D515241B4802F01EFF124B9A6A3B
:10083800D50602D49A6A90070AD55B68190507D5C8
:100848004146304600F090FA10B180F3098802243E
:10085800094B9A6A920603D55A6A22F400525A62E0
:100868009A6A204642F0FF029A6200233B70BDE874
:10087800F8836FF01506C4E700ED00E07249000840
:1008880089490008BD490008D1490008EA4900081B
:10089800014A0008214A000810B51D4C1D4802F005
:1008A800E3FEA36A990130D51B4802F0DDFE1E2045
:1008B800A36ADA0103D5194802F0D6FE1F20144CAA
:1008C800A36A1B0303D5164802F0CEFE2120A36AB3
:1008D800590303D5134802F0C7FE22200C4CA36A23
:1008E8009A0303D5104802F0BFFE2320A36ADB0356
:1008F80003D50E4802F0B8FE2420054A936A6FEA31
:1009080003436FEA1343936210BD1D20D0E700BF75
:1009180000ED00E0514A00086A4A00087E4A0008D3
:10092800994A0008B84A0008DE4A0008F94A00084F
:1009380070B5244C064624480D4602F095FEA36A7D
:10094800D90435D5214802F08FFE1720A36A1A056D
:1009580003D51F4802F088FE18201A4CA36A9B058D
:100968000FD51C4802F080FEA16BA36A180407D5B6
:10097800194802F079FE1EB1A36A23F40043A3626A
:100988001920104CA36A590503D5144802F06CFECF
:100998001A20A36ADA050DD5114802F065FE1B205E
:1009A800084A936A43F47F43936200232B7070BD17
:1009B8001620CBE7A36A9B04F2D50A4802F054FE3E
:1009C8001C20EDE700ED00E0254B00083C4B00083B
:1009D800BD4900084E4B0008684B00087E4B0008D4
:1009E8009A4B0008214A00085D4B2DE9F0415F68E9
:1009F8008AB004460025C7F3080685F31188BFF3BB
:100A08006F8F02F07F43B3F17F4F06D102F00C03E2
:100A1800082B13D1534802F027FE00252C464FF02F
:100A28000008F31E8DF80780092B00F28780DFE8A5
:100A380003F00A7B7F7785858585858310074CBF02
:100A48000C460125EBE7464E474802F00DFE8DF8AF
:100A58000780F36A9A0704D5444802F005FE00238C
:100A680030E0F36A002B01DA4148F6E7F36A5B00ED
:100A7800F5D5404802F0F8FD7369A26943F4807324
:100A88007361BFF34F8FBFF36F8F736932F8022C16
:100A980023F480737361BFF34F8FBFF36F8F4DF6ED
:100AA80002739A4209D0B36ADBB25BB30DF1070255
:100AB80001212046FFF778FE34E021682E4802F035
:100AC800D3FD23689DF80720CAB902AE04F12007B8
:100AD8002068083454F8041C3246BC4203C2164647
:100AE800F6D1099AB5B3C2F3080121B96FEA5222C7
:100AF8006FEA4222099202A91846FFF7F1FD0AB0EF
:100B0800BDE8F081B36A13F47F4F05D00DF10701FA
:100B18000120FFF70DFF05E0B36AB3F5803F9ED3D0
:100B2800FFF7BAFE0346CDE70DF107020021C0E743
:100B38000DF107010020ECE710488EE717F4F87F65
:100B48000F4B1049A6F1100218BF19460E4802F0C3
:100B58008BFD84E722F4FF7222F00102CAE700BF8E
:100B680000ED00E0E14B00080D4C0008254C0008A2
:100B7800474C0008564C0008764C0008934C000877
:100B8800C84B0008B34B0008B84C0008044B5A691E
:100B980042F010025A615A6922F008025A617047FD
:100BA80000ED00E0EFF30880EFF3098101B572462C
:100BB800FFF71AFF01BD00BF0A4880F3088810201C
:100BC80080F3118808484FF40461401880F30988BD
:100BD800EFF314800221084380F31488BFF36F8F6A
:100BE80000F08EF8C011002400040024084B9B6814
:100BF80083420BD1EFF3058343B1064B5A6842F0A9
:100C080080525A605A6A22F400425A6201F06EBF5A
:100C1800AC03002400ED00E014498A684FF030006E
:100C28001044EFF3098C80E8F01F102080F312883D
:100C3800BFF36F8F0E4F4FF000664A698A603E60BF
:100C4800106F0C4C2060506F0023536780F311889D
:100C580004B5104600F034F9BDE8044002F1300054
:100C680090E8F01F8CF3098870470000AC0300245B
:100C780004ED00E0280200241EF0040F0CBFEFF37F
:100C88000880EFF30980816911F8021C0229FFD05E
:100C980001B5724602F0F6FC01BD00BF00B20028A3
:100CA80007DB0123410900F01F00024A834042F894
:100CB8002130704700E100E000B2013100284FEA1E
:100CC8000111C9B206DB00F1604000F5614080F80F
:100CD8000013704700F00F00014B1954704700BF14
:100CE80014ED00E0044B054A23F07F039360BFF343
:100CF8004F8FBFF36F8F70470000000800ED00E0D2
:100D080008B5FFF7EFFF0C4AD2F8883023F47003D8
:100D1800C2F88830EFF3148323F0040383F31488B4
:100D2800BFF36F8F01F0F4FB02F006F800F056F8FD
:100D380002F0CEFC01F030FC00ED00E042F8203C6F
:100D4800203A009B07495360019B21F00101936001
:100D5800029B9161D3604FF08073D36100230265D9
:100D680043677047D9050008094A0346906870B17F
:100D780013F1160F006E05D0A0F140029A4205D873
:100D8800834203D2814228BF002070470020704769
:100D9800AC03002415460C4A0E4608B50B4B906070
:100DA800026F1A6000F08CF82C4686F30988002040
:100DB800034B98472046002100220023014C20477E
:100DC800B1360008D9050008AC0300242802002425
:100DD800014B10221A61704700ED00E0002304481F
:100DE8001021C2180133962B82F80013F9D17047ED
:100DF80000E100E008B5EFF30583064A103B02EB7B
:100E0800C30152F8330049688847BDE80840FFF736
:100E1800BBBC00BF0C410008154A70B5536913F4F8
:100E2800803323D1C2F88430BFF34F8FD2F880309B
:100E380043F6E074C3F3C900C3F34E335B0103EA1E
:100E48000406014646EA81750139C2F86052F9D2B2
:100E5800203B13F1200FF2D1BFF34F8F536943F4B6
:100E680080335361BFF34F8FBFF36F8F70BD00BFE7
:100E780000ED00E00B4B5A6912F4003211D1BFF3B8
:100E88004F8FBFF36F8FC3F85022BFF34F8FBFF35D
:100E98006F8F5A6942F400325A61BFF34F8FBFF324
:100EA8006F8F704700ED00E0024B0121024A0348B2
:100EB80000F076B8000008240000002484460008EA
:100EC800026E4021044B403A18461A60034AC3E9AF
:100ED8000112012100F06EB82C02002400000B154D
:100EE800084AC2F898000B6823F01F03034343F035
:100EF8001003C2F89C308B6843F00103C2F8A0309D
:100F0800704700BF00ED00E02DE9F0430E4685B0C4
:100F18001F4604464FF00009DFF85480B14523DA34
:100F28006068D8B13FB1411E08421BD11F2819D9AA
:100F38002368194216D12368019302F0CAFBA368FB
:100F48000343D0B20393D8F89050C5F30725013D69
:100F5800A84207D801A9FFF7C3FF421C09F10109FC
:100F68000C34DBE76FF01502104605B0BDE8F083DE
:100F780000ED00E0044B0522C3F89420BFF34F8F27
:100F8800BFF36F8F704700BF00ED00E0BFF35F8FC6
:100F9800024B0022C3F89420704700BF00ED00E028
:100FA80010B5034C01232278FFF7AEFF207010BD67
:100FB800D80300240B4A08B500231278FFF7A4FFD2
:100FC80010F1160F07D0084A0021D2F89030C3F369
:100FD8000723984200DB08BDC2F898000130C2F828
:100FE800A010F2E7D803002400ED00E0544B2DE9EF
:100FF800F043544C85B0D3F890302568C3F30723E9
:101008009D4200F29A8000200C26FFF7BFFF854220
:101018001AD14D4C68464D4F2570FFF75BFB0025F4
:101028000646DFF81C81DFF82891AE4213D12378F9
:1010380000204349D1F89020C2F30722934276DB7F
:101048000020FFF797FF42E0616806FB0011FFF7F9
:1010580047FF0130DBE700984FEA051C00EB05115C
:10106800CB683B40B3F5000F48D00AD8B3F5001F52
:1010780030D0B3F5800F36D0B3F5801F10D00135CE
:10108800D3E7B3F1807F42D0B3F1007FF7D150F8B6
:101098000C30886802F01DFB4A6840F4802009E0A3
:1010A80050F80C30886802F014FB40F088504A6809
:1010B80040F4302003902078CDE90123D8F890300F
:1010C800C3F30723013B98422AD96FF0150005B0F6
:1010D800BDE8F08350F80C30886802F0FAFA4A68E4
:1010E80040EA0900E6E750F80C30886802F0F1FAA7
:1010F80040F0C0604A6840F40030DBE750F80C303C
:10110800886802F0E6FA4A6840F08270D2E750F840
:101118000C30886802F0DDFA4A6840F08870C9E748
:1011280001A9FFF7DDFE237801332370A7E7C1F893
:1011380098300133C1F8A0007CE74FF0FF30C6E7D4
:1011480000ED00E020460008D80300240000F0FF6E
:101158000000081108B5024B1B689847002008BD1D
:1011680038020024034B044A1860937843F00203C2
:101178009370704738020024040000240649074889
:1011880021F00701C1F1105208B502F5002202F062
:1011980011FA002008BD00BF071200243C020024F9
:1011A800044B03EB40000023013320F8022B994243
:1011B800FADC7047340000242DE9F84306464FF066
:1011C8000009114F4FF00108347854FA89F5284680
:1011D80000F02CF970B1284600F04EF957F8353078
:1011E80043B14C4407EBC50504F01F04696808FACD
:1011F80004F0984709F1010972785FFA89F39A4275
:10120800E2D2BDE8F88300BF480200244FF48013FF
:10121800094A0A4910B5D2F8A40088420BD0581CD4
:10122800F9D0013BF7D183F31188BFF36F8F042402
:10123800204602DFEFE710BD00640258000300807B
:10124800034680B1B0FA80F2C2F11F02D2B2074958
:1012580031F912004FF0B042D2F880100B43C2F8B7
:101268008030FFF71BBDFF22F1E700BF34000024E8
:1012780038B50D460446FFF7C9FF032D0DD8DFE842
:1012880005F0021116204FF0B0431A6822EA040252
:101298001A605A6822EA04025A600E4B4FF44072F0
:1012A8005A6238BD4FF0B0431A682243F0E74FF056
:1012B800B0435A6822435A601A6822EA04021A6044
:1012C800EBE74FF0B0431A6822431A605A68144398
:1012D8005C60E2E70064025830B5B0B1B0FA80F360
:1012E800C3F11F03DBB20B4850F833408C4204D1E2
:1012F80000EBC3056D68954205D044B940F833103A
:1013080000EBC3004260002030BDFF23EBE76FF025
:101318000F00F9E74802002460B1B0FA80F3C3F186
:101328001F03DBB2044A002142F8331002EBC30268
:1013380051607047FF23F5E74802002438B500F0F4
:1013480003030F250C4604339B009D4045EA900596
:10135800FFF75CFF05F003032A0C92FAA2F29B0048
:10136800B2FA82F203F1B04302F01F02D3F8081474
:1013780094404FF4407221EA15410C43C3F80844E5
:10138800014B5A6238BD00BF0064025800F00302E6
:101398000F23043292009340094A43EA900000F078
:1013A8000303023352F82320030C93FAA3F3B3FA8E
:1013B80083F302EA104003F01F03D840704700BFD0
:1013C800000400584FF48013094A0A4910B5D2F8AE
:1013D800A40088420BD0581CF9D0013BF7D183F305
:1013E8001188BFF36F8F0424204602DFEFE710BD9A
:1013F800006402580003008013B50B4C204602F02D
:10140800D1FB58B10223F422CDE90023A3681B685D
:101418003BB169462046984702B010BD6FF01200F4
:10142800FAE76FF05700F7E72C3F00085F2838B558
:1014380005461CD800F01F0301249C40FFF7C2FF9B
:101448001F2D4FF0B0430AD8D3F888309C434FF48F
:101458004072084B0CBF012000205A6238BD3F2D56
:1014680002D8D3F89830F1E7D3F8A830EEE7002097
:10147800F4E700BF0064025838B55F2800F01F0386
:101488004FF00105044605FA03F515D8FFF79AFF52
:101498001F2C4FF0B04307D8C3F88850084B4FF4BF
:1014A800407200205A6238BD3F2C02D8C3F89850C9
:1014B800F4E7C3F8A850F1E76FF01500F3E700BFB1
:1014C80000640258064B1B6903F03803102B05D043
:1014D800182B044818BF0020400870470248FBE753
:1014E800004402580084D71740787D01354B10B569
:1014F80018680B88C3F30B03132B37D813B96FF095
:10150800850032E0013B122BF9D801A454F823F0EE
:10151800A11500086515000807150008BB15000887
:10152800A71500080715000807150008AB150008DF
:10153800AF150008AB150008B3150008B71500086B
:10154800A715000807150008071500080715000863
:101558000715000899150008991500080020106063
:101568000B68B3F5805F26D2002010BDD42B0FD0B6
:1015780003F62873C3F30B031C2BC0D8012404FA09
:1015880003F3114C234205D140F211142342B6D083
:101598004008E4E78008E2E7FFF794FFDFE70B483D
:1015A800DDE70B48DBE70B48D9E70B48D7E70B48E3
:1015B800D5E70B48D3E7C3F313330133B0FBF3F09C
:1015C8001060D1E72400002400101111006CDC0227
:1015D8000084D71700C2EB0B001C4E0E000E270725
:1015E80040787D014FF48013094A0A4910B5D2F8B2
:1015F8008C0088420BD0581CF9D0013BF7D183F3FB
:101608001188BFF36F8F0424204602DFEFE710BD77
:10161800006402580003008010B50B880C4603F6DE
:101628002C73C3F30B03202B13D8FFF7DBFF23889E
:1016380061680020C3F30B0303F1B04303F51133D2
:101648001A6822EA01021A604FF44072024BDA600B
:1016580010BD6FF08500FBE70064025813B50B88D6
:101668000C4603F62C73C3F30B03202B1DD8FFF78E
:10167800B9FF238861680020C3F30B0303F1B0436B
:1016880003F511331A680A431A604FF4407223882D
:10169800C3F30B0303F1B04303F511331B68019344
:1016A800019B034BDA6002B010BD6FF08500FAE7CA
:1016B8000064025873B5994CD4F8E03043F00073D5
:1016C800C4F8E030D4F8E03003F000730193019BD4
:1016D800FFF788FF236823F480232360236843F4FB
:1016E8008033236023689A03FCD523688B4A43F42C
:1016F8008053236013689B04FCD5894B9A6942F494
:1017080040429A619A699604FCD5844B1A6902F0A2
:101718003802182A16D11A68550706D41A6842F0F2
:1017280001021A601A685407FCD57C4B1A6922F02A
:1017380007021A611A6912F0380FFBD19A6922F070
:101748000F029A61754B1A6822F080721A601A6843
:1017580022F080621A601A6822F080521A609A6A2F
:1017680022F0030242F002029A629A6A22F47C7220
:1017780042F050029A62DA6A22F00C0242F0080241
:10178800DA62DA6A22F00202DA621A6B22F4FF7273
:1017980022F0010242F09F021A63DA6A22F0010283
:1017A800DA621A6B22F47E4242F400721A63DA6A31
:1017B80042F48032DA621A6B22F4FE0242F44032BA
:1017C8001A63DA6A42F40032DA621A6B22F0FE42D5
:1017D80042F080721A63DA6A42F48022DA621A6886
:1017E80042F080721A601A689001FCD59A6A4B4CD4
:1017F80022F47C3242F4A0429A62DA6A22F0C002F1
:1018080042F08002DA62DA6A22F02002DA629A6B27
:1018180022F4FF7222F0010242F05F029A63DA6A50
:1018280022F01002DA629A6B22F47E4242F40072CD
:101838009A63DA6A42F40022DA629A6B22F4FE02B0
:1018480042F440329A63DA6A42F48012DA629A6B9E
:1018580022F0FE4242F010629A63DA6A42F4001201
:10186800DA621A6842F080621A6023681901FCD5AE
:101878002C4EFFF727FE0546B04202D82A4800F052
:101888003DFDA369254A23F47063A361A36923F08E
:101898000F0343F00803A361E36923F0700343F0E7
:1018A8004003E361E36923F4E06343F48063E361A5
:1018B800A36923F0700343F04003A361236A23F074
:1018C800700343F040032362236923F0070343F0C6
:1018D80003032361136903F03803182BFAD1B542C7
:1018E80002D9114800F00AFD0D4B9A6942F44042B2
:1018F8009A619A699204FCD50C4B4FF4407200200F
:10190800DA60064A136923F40043136102F1404286
:10191800074BA2F52B121A6002B070BD00440258A2
:1019280000480258FFC1EB0B00C2EB0B00640258E1
:1019380024000024132808D8054BC34013F0010FD6
:1019480014BF00206FF0850070476FF08500704766
:10195800323F0C0010B508880C46C0F30B00FFF7A7
:10196800E9FF002826DB4B68FF2B22D0FFF73AFE61
:10197800626893B2C2F38450C2F3054203F1B043E4
:1019880000FA02F203F51133196821EA02021A601B
:1019980061688BB2CA0EC1F3054103F1B0438A40B6
:1019A80003F51133186802431A604FF44072024B72
:1019B800DA60002010BD00BF0064025808B507486F
:1019C80002F0F0F838B10648FFF7CCFB0448FEF700
:1019D800E1FD002008BD6FF01200FBE7EC400008B5
:1019E800ED1900080A2838B50446074D04D1AB683C
:1019F8000D2128465B689847AB68E1B202485B68EE
:101A08009847204638BD00BFEC4000082DE9F84350
:101A1800D0F804801746D0F810900D46D8F8080082
:101A28001E4601F0B4FEB7F5001F044616D1D8F8DB
:101A380008402846FFF7AAFC84420CD1294601F049
:101A4800A6FE044601F0A8FE2046FFF765FC00212B
:101A58002046FFF70DFC0020BDE8F883B7F5800F9E
:101A680020D0B6F1806F19D0B6F1C06F18D0B6F19A
:101A7800007F1AD102264A460F492046FFF72CFC60
:101A8800B0B9D8F808102846FFF758FC2046314668
:101A9800FFF7EEFB2046FFF7D3FBDCE70126EAE77A
:101AA8000326E8E76FF08500D6E76FF01500D3E767
:101AB8006FF00F00D0E700BFFF3800084FF4801325
:101AC800094A0A4910B5D2F8A00088420BD0581C20
:101AD800F9D0013BF7D183F31188BFF36F8F04244A
:101AE800204602DFEFE710BD0064025800030080C3
:101AF80038B543680C465D68FFF7E0FF4FF4407265
:101B080000206B6963406B61014B1A6238BD00BFEE
:101B18000064025870B543680D4614465E68FFF7C6
:101B2800CDFF4FF44072002073695C402C405C404C
:101B3800014B74611A6270BD006402582DE9F843C4
:101B4800164645680124884602F0300799468C40BD
:101B5800FFF7B4FF6A68C6F38013C6F3C111C6F372
:101B6800412622EA040203FA08F3202F43EA02037B
:101B780004FA08F26B6002EB4200D5F808C002FBD9
:101B880001F102FB06F66FEA00032CEA000C41EAB9
:101B98000C01A960E96821EA000146EA0106EE6045
:101BA8000FD1B8F1070F18D802FA08F1286A01FA1C
:101BB80008F1C1EB011401FB09F120EA040001431B
:101BC800296229683F090B4057434FF440721F436D
:101BD800094B2F601A62BDE8F883240A696A6443D6
:101BE8006443C4EB041004FB09F921EA000141EA4B
:101BF80009016962E5E700BF0064025838B5036966
:101C0800044658600A4D284601F0CCFF60B1AB6825
:101C180061681B680C3123B12846984700EAE070D8
:101C280038BD6FF05700F9E76FF01200F8E700BF12
:101C38002C3F00082DE9F047044600EBC1060025BB
:101C48001C4FB44201D1002014E02068C30600F004
:101C58001F0911D4656845F02005C0F3481AC0F380
:101C68004420192823D857F82080B8F1000F0DD147
:101C78006FF01200BDE8F087B9F1100F04D0B9F188
:101C8800110FEAD16568E8E73025E6E7404601F03C
:101C980089FF0028ECD04B462A460AF00F0140463F
:101CA80001F03FFE002804F10804CADAE2E76FF009
:101CB8001500DFE76C470008F8B50C460369416872
:101CC8005D682379012B15D09F1E7E427E41B602A6
:101CD8006279022A96BF464F4FF4005737F81270C0
:101CE800A279022A09D0042A30D0003B18BF012368
:101CF8001B0306E04FF4C066EAE7B3FA83F35B0917
:101D08001B07E2790968012A14BF4FF0000C4FF451
:101D1800407CA5421DD10A6822F0805222F4B052BC
:101D280032431A430A604B6823F440533B434B60E9
:101D380043681A68936823F4407343EA0C0393607A
:101D4800296801F094FE00EAE070F8BD4FF4805372
:101D5800D7E7D1F800E00EF4C06E764506D0D1F88A
:101D680000E02EF4C06E4EEA06060E6041680E686A
:101D7800716801F440518F4204D0716821F44051D8
:101D88003943716041680E68316801F010218B4257
:101D980004D0316821F010210B433360436819687F
:101DA8008B6803F440739C4505D08B6823F440731B
:101DB80043EA0C038B6043681B689968490405D59E
:101DC800032A09D09A6822F4804204E0032A03D146
:101DD8009A6842F480429A6021682B68994205D03B
:101DE80001F045FE0028B0DB23682B600020ACE73B
:101DF8003C480008F7B50646446805695A48286013
:101E080001F0D0FE002800F0A8802868E168836807
:101E18001B68002B00F0A4809847002832DB01AA39
:101E28000021206A01F095FD00282BDB019B002290
:101E380019791868FFF7FEFE002823DB75683369F7
:101E48002C685F68236823F001032360686801F049
:101E5800A9FE002800F08180D5E901018368DB68CC
:101E680003B1984754E8003F43F00C0344E80032BC
:101E7800002AF7D139463046FFF71EFF002803DA5B
:101E88006FF0150003B0F0BD2B7D1BB1A36843F0C4
:101E98000803A3606B7D1BB1636843F40043636070
:101EA800AB7D1BB1636843F480336360EB7D1BB18A
:101EB800636843F4003363602B7E002B3BD02B4BCD
:101EC8009C421ED0A3F54C439C421AD003F5806374
:101ED8009C4216D003F580639C4212D003F58063C0
:101EE8009C420ED003F544439C420AD0A3F51C4300
:101EF8009C4206D003F580639C4202D01C4B9C4256
:101F0800BED173681A68936843F48043936023686A
:101F18006A7E23F0787343EA425323602368AA7EDB
:101F280023F4F81343EA02432360EB7E1BB1A36852
:101F380043F40043A3602B7F1BB1236843F0005395
:101F48002360236843F001032360E3699A02FCD508
:101F5800E3695B02FCD5002094E76FF0120091E77B
:101F68006FF057008EE700BF2C3F000800100140BB
:101F7800000C0058F8B5436802460E4691F805E093
:101F88001C68036908795D6801288B7913D1BEF153
:101F9800020F6CD9022B1F464FF4C0614FF4005C4E
:101FA8007DD0042B76D000287ED0C31E012B73D899
:101FB8006FF08500F8BD02280AD1BEF1020F62D980
:101FC800022B1F464FF480610BD04FF4005CE8E70A
:101FD800BEF1020F5AD9022B1F4659D100286ED0E4
:101FE8000021C31E012BE3D90020022703237345D8
:101FF800DED101F0FAFCB842DAD1F3791BB3012B38
:1020080065D1344B9C421ED0A3F54C439C421AD058
:1020180003F580639C4216D003F580639C4212D07E
:1020280003F580639C420ED003F544439C420AD0DA
:10203800A3F51C439C4206D003F580639C4202D062
:10204800254B9C42B4D123683146104623F0010346
:102058002360FFF731FE0028AADB236843F0010361
:10206800236096E8030085E803000020A2E74FF408
:10207800C0611A4F022B37F81EC01F4691D170B9A4
:102088004FF0805010E04FF48061F2E70021F0E754
:1020980000219AE700288BD14FF4805004E0C31E3A
:1020A800012B85D902270020BCF5805F0BD0BCF539
:1020B800405F0AD0BCF1000F98D1012397E7014691
:1020C8004FF0805092E7002391E702238FE7032B1C
:1020D80097D06DE700100140000C00583C480008FC
:1020E8004FF0E0230F4910B59C691A6908689B698D
:1020F80002F480320C4934B993B903464AB90A68E4
:102108001044C01A10BD002B08BF03460AB9A342E9
:10211800F5D90A6802440A604FF0E0221269EEE736
:102128000446F3E7A8030024A40300240A4B102262
:10213800002083F8232049F64042084B1A6049F6EC
:102148003F42074B18604FF0E0235A6198611A69C3
:1021580042F007021A61704700ED00E0A80300246E
:10216800A4030024684620F007018D4619B5FFF73F
:10217800B7FF1149114B0868D3E90042001942F131
:102188000002C3E900020E4A00230B6049F64043EF
:10219800D2E90041001BB0FBF3F043431B1941F1A6
:1021A8000001C2E9003100F0A1FEFEF7EDFABDE83A
:1021B80019408546704700BFA4030024800000240E
:1021C800780000242DE9F041DFF8E08099B1421C45
:1021D8000BD14FF0E022136923F0010313614FF094
:1021E8007F43C8F80030BDE8F081D8F800600128C6
:1021F80007DC00270BE0431CD8F80060F7D14FF448
:10220800D17040F2A3139842A8BF1846471EEFF3B7
:102218001185102383F31288BFF36F8FFFF760FFD8
:10222800234C4FF0E0239969D4E9002380184FF03C
:10223800000243F10003C4E900031E4B1A601E4B61
:102248001A68831A2ED449F6404C0CFB073303F561
:102258001C433F33B3FBFCF7131A40F6C4120CFBC4
:102268000733934238BF1346144A934228BF134694
:10227800C8F800304FF0E022013B90695361002319
:1022880081429361A1EB0003D4E9001238BF9B1986
:102298005B1842F10002C4E9003285F31188BFF3EC
:1022A8006F8FA0E740F6C413E2E700BFA80300243D
:1022B80080000024A4030024780000248020FF006C
:1022C80038B5EFF31185102383F31288BFF36F8FAE
:1022D800084B1C68084B1B68E41AFFF701FF85F3DD
:1022E8001188BFF36F8F49F640432044B0FBF3F0E9
:1022F80038BD00BF8000002478000024002854D096
:102308002B4A936903F44043B3F5404F1FD1294B3F
:10231800294A0344934242D9284B294A0344934209
:102328003FD9284B984240D80020274A136823F009
:102338000F0303431360136803F00F03984232D06E
:10234800136803F00F03C01A18BF01207047936980
:1023580003F44043B3F5004F0ED11C4A1C4B024412
:102368009A421AD91B4A02449A4218D91A4A024474
:102378009A4216D90133D5E7184A194B02449A42B2
:1023880009D9184A02449A4207D9174A02449A427C
:1023980005D9164AEBE70420C7E70320C5E7022062
:1023A800C3E70120C1E70346CDE70120704700BF1E
:1023B80000480258FFC4A7F7FFE0F5057FE2D3FB0A
:1023C8007F1D2C04801D2C0400200052BF4C2AF6CF
:1023D800BF3B47037F8871F93FC4B8FCFF6A45F5E6
:1023E8003FA5AE023F10F4F77FB5A2FABF5A51FDE0
:1023F80038B5EFF31185102383F31288BFF36F8F7D
:10240800064B9C6801F0E1FB85F31188BFF36F8FE1
:102418002046BDE83840FEF7E9BB00BFAC03002406
:1024280038B50A4B53F82040013053F82050A542E4
:1024380000D838BD606830B1037FDB0701D401F0F4
:10244800C7FB0834F3E723689847FAE724480008ED
:102458002A4B0122032070B5294C86B0294D1A70E9
:10246800FFF7DEFF00F0BAFD0420FFF7D9FF26468C
:102478003034AE4210D3224C00F03EFA224EAC4229
:1024880026D300F04DFAFEF76DF8204A137B23F0AF
:102498000103137306B070BD54F80C3C059354F84F
:1024A800103C049354F8143C039354F8183C0293DA
:1024B80054F81C3C019354F8203C009354E90A2337
:1024C80054E90C0100F0CCF854F8303C5E65CEE7D6
:1024D800D4E90A23B3F1FF3F08BFB2F1FF3F05D0AB
:1024E80052EA0301206803D100F0D6FA3034C6E777
:1024F8003146183000F06AFCF8E700BFD903002421
:10250800BC450008BC450008A13C0008080100249F
:1025180003480021034A08B5121A01F070FB08BDF0
:1025280078000024DC03002470B5002386B0012263
:10253800144E01930446144D06EBC0161349CDE919
:1025480004230F22CDE9023214234FF4A07203FBB7
:1025580000554FF4C0700E4B00FB04113046009537
:1025680000F07EF8737B0B4A23F00403EE602C74B2
:1025780073734FF4046304FB033313446B6006B0B6
:1025880070BD00BF88000024AC030024400C002468
:102598000F3C000800040024BFB50020FFF740FFEF
:1025A800274B83F30888274D0024F023264F85F80E
:1025B8002230EC772C766C76AC7685F820406B6A06
:1025C80043F4E0236B62FEF7E1FAFEF701FC4FF0FB
:1025D800FF33AB62EB62FEF709FD1C4DFEF764FCAE
:1025E8001B4800F08BF801F0DCFAFEF74BF80120ED
:1025F800FFF716FF0220FFF713FF00F0C5F9154B90
:1026080015494FF480625D612846144B0094059388
:102618000123CDE90144CDE903433B4600F020F80E
:102628006A7B0646284622F004026A7301F008FB1A
:102638002046FFF779FF3A4631462846FEF7AAFBBF
:10264800400C002400ED00E0592400080801002493
:1026580088010024AC030024C00D0024C04D0008EC
:1026680007322DE9F04322F0070285B00E461F46D7
:10267800109900F158037F3204460173042122F0B7
:102688003F0206F1400941733F2AA2F14008C0E920
:1026980016334FF0000383600F98E373A073C4E907
:1026A800063305D883F31188BFF36F8F084602DF1E
:1026B800B51820462946FEF747F807300E9B3146E5
:1026C80020F00700C4E91898A0662D1A0293204646
:1026D8000D9B2A4601930C9B00933B46FEF72EFB6D
:1026E80000236365044B9B6803B1DB6E2846E366F1
:1026F80005B0BDE8F08300BFAC03002440F201132D
:1027080083810023C0E91833C366014B9860704782
:10271800AC030024094A6FF00A01936899670849D5
:1027280058674B6843F080534B60002383F311884C
:10273800BFF36F8F9368986F704700BFAC03002496
:1027480000ED00E070B590F90D20437B002A36DBE0
:10275800D90634D11B4C63F07F0322464373E169E9
:1027680052F8183F934207D1C0E900210860E061A0
:1027780011E09942F8D01B68002BF5D090F90E5063
:1027880093F90E60B542F4D0AE42F2DD5968C0E963
:10279800003108605860A569954200D005B9E56820
:1027A800A3685A7BD20604D1DA897F2A01D9AA699B
:1027B80032B1AB4202D0284600F066FA656170BDBE
:1027C8006361FCE7AC03002438B590F90D2001469D
:1027D800437B002A04DA03F07F03437301F01EFAF7
:1027E8000D4D2A46AB6852F8184F944200D004B9F0
:1027F800EC688B4207D05A7BD20604D1DA897F2A4B
:1028080001D9A2692AB1A34202D0204600F03CFABD
:1028180023466B6138BD00BFAC03002470B590F946
:102828000D200146437B002A04DA03F07F0343733B
:1028380001F0F4F94B7B1C4C63F07F0322464B7389
:1028480052F8183FE069934207D1C1E900200160BE
:10285800E16111E09842F8D01B68002BF5D091F99E
:102868000E5093F90E60B542F4D0AE42F2DD5868CE
:10287800C1E9003001605960A569A368954200D09C
:1028880005B9E5688B4207D05A7BD20604D1DA89AC
:102898007F2A01D9AA692AB1AB4202D0284600F0A2
:1028A800F3F92B46636170BDAC03002449B9EFF31B
:1028B800058030B9054B5A699B689A4201D0FFF7E9
:1028C80029BF81F31188BFF36F8F7047AC030024D1
:1028D800034648B9EFF3058232B9064A516992684E
:1028E800914201D0FFF716BF83F31188BFF36F8FB2
:1028F800704700BFAC030024EFF31181102383F36A
:102908001288BFF36F8F054B9A68D37B013BD37353
:1029180081F31188BFF36F8F704700BFAC030024A9
:1029280070B5EFF31186102383F31288BFF36F8F0E
:10293800144DAB68DA7B0132DA732A4652F8184F25
:10294800944200D004B9EC685A7BD20604D1DA89E3
:102958007F2A01D9A2692AB1A34202D0204600F0F9
:1029680093F923466B6186F31188BFF36F8FEFF3FA
:102978001180102383F31288BFF36F8FBDE8704076
:10298800FFF7A6BFAC030024024B03F11802C3E90A
:1029980006227047AC03002470B5EFF311861023AC
:1029A80083F31288BFF36F8F1B4CA168E0690B6833
:1029B800814214BF1A46002249680B605960A36817
:1029C800E1692AB9154AC3E900210B60E3610CE00B
:1029D80093F90E0092F90E50A84218D0854216DDE0
:1029E8005168C3E900210B605360A5690B4B9D42F8
:1029F80000D005B9E568A3689D4202D0284600F0DA
:102A080043F930466561BDE87040FFF783BE8A42EE
:102A1800D8D01268D5E700BFAC030024C403002453
:102A2800F8B550EA010306460C4603D1FFF7B4FF98
:102A38000020F8BDEFF31187102383F31288BFF34A
:102A48006F8F124D124BA8681860FFF7BDFEA8687B
:102A5800234632460F49183000F0B8F9AA680446F0
:102A68003846537B43F004035373FFF753FEAB68B8
:102A7800D3E90A23B3F1004F08BF002AD8D101F0E7
:102A880076F9201A20EAE070D3E700BFAC030024EF
:102A9800CC030024A13C000838B50446EFF31185A7
:102AA800102383F31288BFF36F8F437B5B070FD527
:102AB800183001F034F9637B204623F00403637374
:102AC800FFF740FE29460548BDE83840FFF7EEBE4F
:102AD80085F31188BFF36F8F38BD00BFDA03002478
:102AE800014B9868704700BFAC0300242DE9F843F8
:102AF8000446077BEFF31185102383F31288BFF395
:102B08006F8F437B190705D585F31188BFF36F8F46
:102B1800BDE8F883D90943F008025DD14273A36880
:102B280013B1204601F082F804F1180004F15808A6
:102B380001F0F5F8A66DB04511D04FF0000976B157
:102B4800304601F073F806F1180001F0E8F8304655
:102B5800C6F87890FFF7F6FDA66DB045EFD1DFF81F
:102B6800C080D8F808309C423ED1EFF30589B9F10E
:102B7800000918BF4FF00109D8F81860294A964291
:102B880000D00EB9D8F80C60B34202D0304600F03D
:102B98007BF82046C8F8146000F083FDB9F1000FF7
:102BA80002D02148FFF7AAFDD8F808309C4231D15D
:102BB800EFF3058373BB227BD20718D42846FFF7AF
:102BC800A9FDFB07A4D5002383F31188BFF36F8FFA
:102BD8000423184602DF9BE703F07F0343F0080352
:102BE800437301F01BF89AE74FF00009C4E785F337
:102BF8001188BFF36F8F83F31188BFF36F8F04239E
:102C0800184602DFEFF31180102383F31288BFF315
:102C18006F8FD4E785F31188BFF36F8FD1E700BFBB
:102C2800AC030024C403002488010024044B0122BF
:102C3800C01A044BC0105843034B1A54704700BFC6
:102C480008020024ABAAAAAADA030024C3897F2BAE
:102C580012D80A4B1B6863B1094B90F90E201B6808
:102C68009A4209DB437BDB0606D1064BC31A18BF21
:102C7800012303F0010070470023FAE7280000242D
:102C8800D0030024880000240E4B70B51E7C054636
:102C98000D4C06EB460304EBC304204601F03FF855
:102CA8000A4B002228469A55FFF7D0FF48B1084B37
:102CB800204608491A68013ABDE87040D31700F069
:102CC80085B870BDAC03002408020024DA03002490
:102CD80028000024352C000838B5EFF3118510239F
:102CE80083F31288BFF36F8F104B114A9C681068EA
:102CF800A04206D1FFF7C8FF85F31188BFF36F8F95
:102D080038BD00211B7C11600A4AD35C002BF3D02C
:102D18002046FFF79BFF0028EED0637BDB0602D13D
:102D28002046FFF77BFD2046E4E700BFAC03002404
:102D3800CC030024DA0300240748084A0849121A79
:102D480008B500F05EFF0748074A0849121ABDE8AF
:102D5800084000F056BF00BF0000002474000024A3
:102D6800104E00080000002400000024104E000847
:102D7800024B1868984208BF002070472C000024B6
:102D8800034B1B680BB9FFF79BBA0020704700BFC5
:102D9800D403002430B570B10B4B5B6898420AD05D
:102DA800036843B1D3E90421D0E90445121941EB82
:102DB8000501C3E90421D0E9003213605A600023F9
:102DC800C0E9003330BD00BF2C000024B3F1FF3F41
:102DD80008BFB2F1FF3F2DE9F84F04469946154662
:102DE8001F467AD08160EFF31188102383F312888D
:102DF800BFF36F8FB9F1000FDFF8E4A020DBFFF716
:102E0800BFFF0135064649F100092D18DAE9002708
:102E180049EBE0734FF00109C4E90453AD1843EBE3
:102E28000707FFF7A5FFDFF8BCE00346DEF804A0BC
:102E3800EBB9C4E900EACAF80040CEF8044028E03B
:102E4800DAE900126FF001035B1A4FF0FF3161EB12
:102E580002025B1B62EB0902012B4FF0000972F1C1
:102E68000001BCBF01230022C0E90432D9E7D3E93D
:102E7800041CD4E904208A4270EB0C0B24DA891A6A
:102E88005A686CEB0000C3E90410C4E9003214600E
:102E98005C60FFF76DFF84420ED1134B1B685BB972
:102EA800B9F1000F02D1FFF76BFF0646304600F07C
:102EB8001FFF0021FFF786F988F31188BFF36F8F92
:102EC80028463946BDE8F88F521A60EB0C009A453F
:102ED800C4E90420ADD01B68AAE700252F46EFE718
:102EE800200200242C000024D40300242DE9F047FC
:102EF800EFF31185102383F31288BFF36F8FDFF888
:102F0800A4900026DFF8A0800027C9F80000FFF78A
:102F18002FFFD9F80030D8E900ECD91750B1D0E923
:102F28000442A34271EB020A1CDAE41A62EB0102C2
:102F3800C0E9044213EB0E034FF000044CEB01010F
:102F48002046C9F80040C8E9003100F0D1FE21460A
:102F5800FFF738F985F31188BFF36F8FBDE8F047A5
:102F6800FFF7BABE14EB0E024CEBE473C0E904673A
:102F7800C8E90023FFF70EFF85F31188BFF36F8FB1
:102F880083689847EFF31185102383F31288BFF302
:102F98006F8FD9F800301B1BC9F80030FFF7E8FE27
:102FA800B7E700BFD40300242002002410B5EFF3D4
:102FB8001184102383F31288BFF36F8FFFF7E0FEAD
:102FC800054A0346D2E90001181841EBE37184F37E
:102FD8001188BFF36F8F10BD20020024014800F054
:102FE80043BB00BFC54D00082DE9F04F8DB04368C5
:102FF8000293837815469A07804640F10D81002494
:103008000E78002E00F00A81252E0BD04B1C03935E
:103018000134029B4146304698470028C0F2F680AA
:103028000399EDE74E788B1C252E0393F0D00027EB
:10303800B946BB46BBF11F0F38D8A6F12003102BA9
:103048000AD8DFE803F02A09093009090921090922
:103058000928092D09091F00A6F13003092B33D9C6
:103068002A2E37D11BF0400F55F8043B40F08280E0
:10307800002BA7BF4BF0200B9946C3F100094BF07A
:10308800280B01E04BF0010B039B13F8016B039332
:10309800002ECFD130E04BF0020B4BF0040BF3E7DE
:1030A8004BF0080BF0E74BF0100BEDE7BBF17F0F8F
:1030B80019D8A6F13003092BD2D81BF0400F03D042
:1030C8000A2101FB0737DFE70A2101FB09394BF029
:1030D800200BD9E72E2E06D11BF0400F40F09E8022
:1030E8004BF0400BD0E76C2E31D02BD8682E36D061
:1030F8006A2E3CD04C2E3AD0002F46F02003B8BFA1
:103108002BF04002A3F16501BCBF1FFA82FB002728
:10311800022901D9612B2FD1073525F00705DFF8E2
:10312800ACA2083507271BF0080F66D00AEB070B7F
:1031380056465E4563D1A4EB0A0A06EB0A02A9EBE0
:1031480007096FE1742E9FD07A2E9DD0D4E71BF02B
:10315800800F18BF4BF4007B4BF0800B94E71BF4F7
:10316800807F18BF4BF4007B4BF4807B8CE74BF4DB
:10317800207B89E71F4687E7A6F16301122900F241
:10318800F080DFE811F013004F00EE00EE00EE00D3
:10319800EE004F00EE00EE00EE00EE00EE00FE0046
:1031A800E900EE00EE001B00EE00AF0055F8043B0E
:1031B8008DF8183001270DF1180AB4E755F804AB5B
:1031C800834BBAF1000F08BF9A461BF0400F14BF9B
:1031D80039464FF0FF31504600F0E3FD0746A2E7BD
:1031E800029B41462020984700280FDB013EB7424A
:1031F800F6D34C44A41BB14698E74E46F7E716F8B9
:10320800010B029B41469847002892DA98F8023051
:1032180043F0040388F802304FF0FF3420460DB025
:10322800BDE8F08F1BF0800F34D01BF4007F2CD04A
:10323800073525F00705AA4669685AF8080B2BF0E8
:1032480010050029ADB237DA404261EB410145F47F
:1032580080650DF1180B0A235A4600F0AEFDA0EB6D
:103268000B0301936B0662D5019B25F001019F4278
:1032780089B240F3A180002E00F0998015F0100269
:1032880040F09C80BB460D4623E0AA465AF8040B42
:10329800C117D4E7AA461BF4807F5AF8041B01D152
:1032A8000846F5E71BF4007F15BF48B208B241F3A2
:1032B800C01141F3C031C2E750EA0103C9D11BF084
:1032C800400FC6D0002FC4D12BF0110295B2BB46D7
:1032D800019740F2064115EA01021CBF0BF1010BF0
:1032E80000222CE02BF010021FFA82FB0A231BF0AD
:1032F800800C49D01BF400711DBF073525F0070568
:10330800AA46AA461ABF5AF8080B69685AF8040B65
:1033180050EA010545D12BF016051BF0400FADB260
:1033280042D0002F40D12BF0170295B2019715F02B
:10333800100248D0019B002E42D103F1010B29074E
:103348005AD4EB0706D5D9456FDD0199A9EB0B03D4
:103358005F18CB465B4649E04BF0100B10237826EC
:10336800C5E7782B04D1C6F1780343F01003BEE714
:10337800029B4146252098470028FFF647AF0234B4
:1033880047E608230026B2E7AA461BF480715AF8DC
:10339800040BBDD01BF400711ABFC0B2614680B2E5
:1033A800B6E72BF0060295B20DF1180B54E725F09D
:1033B8001105ADB2BB468CE70D46B8E73B460D4656
:1033C80003F1020BBBE7DDF804B082E7074E000803
:1033D800004E0008CDE904324146029B2020984760
:1033E8000028FFF613AF049B059A01339945F1DCD9
:1033F800A4EB0B01CC189B460AB3029B4146302034
:1034080098470028FFF602AF8EB901342744019B84
:10341800391B994224DC1D465DBB019AA9EB0B09B7
:10342800224455461446914435E0019F92E7023400
:1034380041463046029B98470028E7DAE6E640F224
:1034480006410D42E2D015F0020F14BF2B202020B8
:1034580015F4806F04F10104414618BF2D20E9E7F7
:10346800029B414630209847002804F10104CEDA37
:10347800CCE606AB013D4146585D029B98470028C3
:10348800CADAC3E6029B414620209847002804F187
:103498000104FFF6BBAEA9EB0403002BF2DCBFE589
:1034A8007047836800EBC101B3F5004F2CBF51F89A
:1034B800220031F81200704700EBC1018068B0F5B6
:1034C800004F2CBF41F8223021F8123070470122FA
:1034D80008B5FFF7E6FFD04008BD836800EBC101DF
:1034E800B3F5004F08D34B681AB143F001034B60A2
:1034F800704723F00103FAE74B881AB143F0010340
:103508004B80704723F00103FAE753000122FFF7CD
:10351800D3BFB0F5004F01F1010034BF04230823E5
:103528000833A0EBD300B0FA80F0C0F11F00704759
:103538002DE9F04186680D460446FFF7C8FFB6F549
:10354800004F014601D3012832D03046FFF7E1FF92
:1035580004EB80010E6996B90122E3688240204697
:1035680013430222E3602B460D612946FFF7A4FFAF
:10357800032229462046BDE8F041FFF79DBF0222FD
:1035880031462046FFF78DFF294603460746204669
:10359800FFF792FF0322334629462046FFF78CFFA8
:1035A80039462B462046FFF787FF02223146E1E7DE
:1035B800BDE8F081B2F5802F2CBF08230423D21A6E
:1035C8002DE9F0418C18CD1D002625F0070524F0C3
:1035D8000704641B0560EE60E40821462046AC60E1
:1035E800FFF797FF421D013031464FEA820205F18D
:1035F800100002F10707A2F11002B8BF3246FF0817
:1036080000F0C7FB31463A462846FFF77EFFA4EB99
:1036180007083346324631462846FFF74DFF28460D
:1036280031460122FFF759FF42463946FFF76DFF41
:103638003B46324639462846FFF73EFF2146284694
:10364800FFF763FF4346324621462846FFF734FF1B
:10365800214628460122FFF740FF3946BDE8F041E0
:10366800FFF766BF002070470FB407B504A951F8EB
:10367800040B0191FCF794FF03B05DF804EB04B070
:103688007047704701460068FDF72AB808B5FDF78E
:1036980057F8BDE80840FDF777B800210120FDF78D
:1036A8001FB86FF08500704761B662B680F3118865
:1036B800BFF36F8F704772B6002383F31188BFF38F
:1036C8006F8FBFF34F8F30BF62B6BFF36F8F7047F6
:1036D8007047202809D9B0F1004F08D80138B0FA4E
:1036E80080F0C0F11F0040007047082070473E205E
:1036F800704708B5FDF72EFD002008BD08B5062265
:1037080001210020FDF74CFD002206201146FDF79F
:10371800D3FA012107220846FDF742FD00220720BF
:103728001146FDF7C9FA082201210220FDF738FDEC
:10373800002208201146FDF7BFFA092201210320C3
:10374800FDF72EFD002209201146FDF7B5FA0A22E1
:1037580001210420FDF724FD00220A201146FDF76F
:10376800ABFA052117220846FDF71AFD002217209B
:103778001146FDF7A1FA282206210A20FDF710FDBF
:10378800002228201146FDF797FA002008BD01F015
:103798001F010120884070474FF0B042D2F88030B6
:1037A80023EA0003C2F880307047436800205B6852
:1037B8001B690B607047436800205B68996170471C
:1037C8004368090400205B689961704710B5036974
:1037D8009868F8B1884219D1DC680868A1429860F5
:1037E80000D1D860002008602AB19A680A60DA68B7
:1037F800996002B9D960002010E0814206D10868BA
:103808002060D8688142EDD1DC60EBE704460068AF
:103818000028F2D1002AE8D16FF0150010BD12F48B
:10382800003CF8B505460C4613461DD0960714D53E
:1038380050075DD55022D90611D542F4007203F421
:10384800C061B1F5806F42D0B1F5C06F19D0B1F544
:10385800007F18D142F0800215E01022EBE79F06A6
:10386800EDD542F48062EAE7D60305D5D00605D443
:10387800C2F340129202E2E73022E0E74FF400720E
:10388800DDE742F4C07213F440372E6908D030697E
:1038980020FA04F1C9075FBF0121A140014331614A
:1038A800BCF1000F06D0180314D5696801234968D4
:1038B800A3408B61002321466868FEF73FF927B9CA
:1038C800336923FA04F2D2070CD40020F8BD42F47D
:1038D8008072D8E75903EDD501212846A140FFF7AA
:1038E8006FFFE7E70122A24023EA02033361ECE716
:1038F8006FF08500EAE770B50B468968054611B197
:103908005E680C6801B970BD8A682A4002D04B68AD
:10391800304698471CB1236821461C46F2E72346E7
:10392800FAE7F8B51F46044640680E461546FEF706
:1039380005F9112F07D101212B0501FA06F104D54C
:1039480063685B6899610020F8BD2046FFF738FF7F
:10395800F9E730B5036813600579046804EBC5041A
:10396800A34202D36FF0010030BD5C798C4201D0D4
:103978000833F0E70020F7E74368C1F34B1001F084
:103988001F011B68C05801238B4003424FF0000001
:1039980014BF012300231370704710B54368C1F3A7
:1039A8004B1001F01F011A68012384588B402343F0
:1039B8008350002010BD10B54368C1F34B14012299
:1039C80001F01F0118688A40235823EA0203235094
:1039D800002010BD38B504460D46FFF7DEFF294626
:1039E8002046FFF7E8FF002038BDB0F5805F07D01C
:1039F800B0F1805F09D1002914BF0120022070476F
:103A0800002914BF032004207047002914BF022096
:103A18000320704743681B68D869DA69C0F3C0009F
:103A2800D107DA6948BF40F002009207DA6948BF57
:103A380040F004005107DA6948BF40F02000D20581
:103A480004D54FF4807240F008001A62C10701D50E
:103A580008221A62820701D501221A62410701D59C
:103A680002221A62820601D504221A62704737B50B
:103A780043680C4602691D6819B96FF0150003B058
:103A880030BD1068D9688368DB6893B101AA98478C
:103A98000028F4DB2B6823F400432B60019B03EB25
:103AA8005403B3FBF4F10F29E7D989B20020E96088
:103AB800E5E76FF05700E2E710B5436810201B6890
:103AC800DA691206FCD5EFF3118280F31288BFF38E
:103AD8006F8FDC69240604D482F31188BFF36F8FDB
:103AE800EEE7996282F31188BFF36F8F10BD4368C8
:103AF8001B68DA69100701D508221A62DA6992068A
:103B080003D55B6A00200B7070474FF0FF30704799
:103B180010B5026904460B46526812680A6042688A
:103B28001268126802F4C062B2F5806F33D0A2F551
:103B3800C060424242411A7162681268526802F4D7
:103B48004052B2F5805F28D0B2F5405F27D0002AF6
:103B58000CBF012203225A7162681268106811684A
:103B680000F0102001F4C061FFF73FFF9871626810
:103B780000201268926802F44072A2F540714A422D
:103B88004A41DA7161680968896811F4804F18BF81
:103B98000322DA7110BD0222CDE70022DBE7022200
:103BA800D9E7704740B1C368587810F001001EBFCC
:103BB8001878B0FA80F040097047EFF311831023AA
:103BC80083F31288BFF36F8FFEE708B5FFF7F5FFA1
:103BD80010B54369044633B90020E268537843F0CE
:103BE8000103537010BD98470028F5D00028E368FA
:103BF800B8BF4042FF28A8BFFF201870EDE700F0CB
:103C0800C8B800F0B8B8102408B5EFF3118384F3EE
:103C18001288BFF36F8FFFF74EFDF6E7D0E9003249
:103C280013605A600023C0E90033704708B5FFF7F6
:103C3800F5FF437B23F0020343730023836008BD31
:103C480010B5EFF31184102383F31288BFF36F8F3D
:103C5800FEF778FD84F31188BFF36F8F10BD01461E
:103C680010B5EFF31184102383F31288BFF36F8F1D
:103C7800437B13F0280F0AD183680BB1FFF7D6FFF7
:103C88004B7B084623F004034B73FEF75BFD84F37C
:103C98001188BFF36F8F10BD01211838FFF7DFBF00
:103CA80038B504460D46FEF7BBFE0346B5F1FF3FA7
:103CB80008BFB4F1FF3F204614D013F109004FEAC2
:103CC800E37141F100010A2871F100030BD36FF091
:103CD8000A0383424FF004038B4106D30A220023D0
:103CE800FCF7D6FA38BD0020FCE76FF00040F9E792
:103CF80008B50246FFF73CF870B1D0E904319B1AC9
:103D080061EBE272B3F1004F72F1000104DA002AAC
:103D1800ACBF1846002008BD6FF00040FBE7024624
:103D280038B5EFF31185102383F31288BFF36F8F33
:103D38000368CBB1FFF71CF804461046FFF72AF8D2
:103D480000224FF000438442C0E9042306D1FFF764
:103D580017F8FFF7CDFF0021FEF734FA002085F3AE
:103D68001188BFF36F8F38BD6FF01500F7E708B5FE
:103D7800FFF71CF908BD0A44914200F1FF3300D156
:103D8800704710B511F8014B03F8014F9142F9D172
:103D980010BD02440346934200D1704703F8011B4B
:103DA800F9E710B5024601448A42134603D01C784D
:103DB8000132002CF8D1181A10BDF0B5C3F137073D
:103DC8000446FFB203F01F031046082BE6B233D0B7
:103DD800102B3ED06508A40844EA817445EAC175F1
:103DE8002D194FEA910242EB5102290941EA027169
:103DF8006D1842EB1212290A41EA02616D1842EB72
:103E08001222290C41EA02416D1842EB1242AD1808
:103E180042F10002EC0844EA4274D10804EB84023F
:103E2800A6EB4205EDB2092D0CD90134A5F10A051E
:103E380041F10001EDB212E0E40844EA417406F0F1
:103E48000705C908303554EA010200F8015BBCD106
:103E5800F0BD240944EA017406F00F050909092D8B
:103E680084BFED19EDB2EDE7014800687047000026
:043E780028020024F8
:083E7C0050C4FF7F01000000AB
:103E8400000000002C3F00080D06000800000000A0
:103E9400000000004C3F0008000000008C400008B7
:103EA400000000008C3F000800000000CC3F000828
:103EB400000000006C3F000800000000CC40000837
:103EC40000000000AC400008000000006C40000846
:103ED400000000004C400008000000002C400008D6
:103EE400000000000C40000800000000EC3F000847
:103EF40000000000AC3F0008053700080000000087
:103F040000000000EC400008C51900080000000093
:103F140035210008000000008511000800000000A1
:083F240029060008000000005E
:103F2C00F84C000800000000F04500085600002482
:103F3C0000000000BD16000800000000000000009A
:103F4C009F4D0008D4470008E04500086E0000248F
:103F5C000000000000000000000000000000000055
:103F6C00DA4C00080000000000000000540000249F
:103F7C000000000001140008000000000000000018
:103F8C00054D000890460008BC4500085800002468
:103F9C00C8020024051C00080000000000000000FE
:103FAC00134D0008A4460008BC4500085A00002424
:103FBC00DC020024051C00080000000000000000CA
:103FCC00214D0008B8460008BC4500085C000024E0
:103FDC00F0020024051C0008000000000000000096
:103FEC002F4D0008CC460008BC4500085E0000249C
:103FFC0004030024051C0008000000000000000061
:10400C003D4D0008E0460008BC4500086000002457
:10401C0018030024051C000800000000000000002C
:10402C004B4D0008F4460008BC4500086200002413
:10403C002C030024051C00080000000000000000F8
:10404C00594D000808470008BC45000864000024CE
:10405C0040030024051C00080000000000000000C4
:10406C00674D00081C470008BC450008660000248A
:10407C0054030024051C0008000000000000000090
:10408C00754D000830470008BC4500086800002446
:10409C0068030024051C000800000000000000005C
:1040AC00834D000844470008BC4500086A00002402
:1040BC007C030024051C0008000000000000000028
:1040CC00914D000858470008BC4500086C000024BE
:1040DC0090030024051C00080000000000000000F4
:1040EC00B04D0008D84700080C46000870000024AA
:1040FC0014000024FD1D000800000000000000005A
:10410C0000000000A336000800000000A3360008E1
:10411C0000000000A336000800000000A3360008D1
:10412C0000000000A336000800000000A3360008C1
:10413C00D84C0008C1110008D64C0008C111000869
:10414C00D44C0008C1110008D24C0008C111000861
:10415C00D04C0008C111000800000000A336000874
:10416C0000000000A336000800000000A336000881
:10417C0000000000A336000800000000A336000871
:10418C0000000000A336000800000000A336000861
:10419C0000000000A336000800000000A336000851
:1041AC0000000000A336000800000000A336000841
:1041BC0000000000A3360008CE4C0008C111000816
:1041CC0000000000A336000800000000A336000821
:1041DC0000000000A336000800000000A336000811
:1041EC0000000000A336000800000000A336000801
:1041FC0000000000A336000800000000A3360008F1
:10420C0000000000A336000800000000A3360008E0
:10421C0000000000A336000800000000A3360008D0
:10422C0000000000A336000800000000A3360008C0
:10423C0000000000A336000800000000A3360008B0
:10424C00CC4C0008C111000800000000A336000887
:10425C0000000000A336000800000000A336000890
:10426C0000000000A336000800000000A336000880
:10427C0000000000A336000800000000A336000870
:10428C0000000000A336000800000000A336000860
:10429C0000000000A336000800000000A336000850
:1042AC0000000000A336000800000000A336000840
:1042BC0000000000A336000800000000A336000830
:1042CC0000000000A336000800000000A336000820
:1042DC0000000000A336000800000000A336000810
:1042EC0000000000A336000800000000A336000800
:1042FC0000000000A336000800000000A3360008F0
:10430C0000000000A336000800000000A3360008DF
:10431C0000000000A336000800000000A3360008CF
:10432C0000000000A336000800000000A3360008BF
:10433C0000000000A336000800000000A3360008AF
:10434C0000000000A336000800000000A33600089F
:10435C0000000000A336000800000000A33600088F
:10436C0000000000A336000800000000A33600087F
:10437C0000000000A336000800000000A33600086F
:10438C0000000000A336000800000000A33600085F
:10439C0000000000A336000800000000A33600084F
:1043AC0000000000A336000800000000A33600083F
:1043BC0000000000A336000800000000A33600082F
:1043CC0000000000A336000800000000A33600081F
:1043DC0000000000A336000800000000A33600080F
:1043EC0000000000A336000800000000A3360008FF
:1043FC0000000000A336000800000000A3360008EF
:10440C0000000000A336000800000000A3360008DE
:10441C0000000000A336000800000000A3360008CE
:10442C0000000000A336000800000000A3360008BE
:10443C0000000000A336000800000000A3360008AE
:10444C0000000000A336000800000000A33600089E
:10445C0000000000A336000800000000A33600088E
:10446C0000000000A336000800000000A33600087E
:10447C0000000000A336000800000000A33600086E
:10448C0000000000A336000800000000A33600085E
:10449C0000000000A336000800000000A33600084E
:1044AC0000000000A336000800000000A33600083E
:1044BC0000000000A336000800000000A33600082E
:1044CC0000000000A336000800000000A33600081E
:1044DC0000000000A336000800000000A33600080E
:1044EC0000000000A336000800000000A3360008FE
:1044FC0000000000A336000800000000A3360008EE
:10450C0000000000A336000800000000A3360008DD
:10451C0000000000A336000800000000A3360008CD
:10452C0000000000A336000800000000A3360008BD
:10453C0000000000A336000800000000A3360008AD
:10454C0000000000A336000800000000A33600089D
:10455C0000000000A336000800000000A33600088D
:10456C0000000000A336000800000000A33600087D
:10457C0000000000A336000800000000A33600086D
:10458C0000000000A336000800000000A33600085D
:10459C0000000000A336000800000000A33600084D
:1045AC0000000000A336000800000000A33600083D
:1045BC0027380008B33700081D1B0008BF37000858
:1045CC00C9370008F91A0008151A0008D537000871
:0445DC0000000000DB
:1045E00081390008A3390008BF390008DD39000807
:1045F000651600082116000800000000F5140008E8
:0C46000000000000000000005D19000830
:10460C00F73A0008C13A00081D3A00087D1F00085F
:04461C00193B00083E
:104620000500000028460008000000087348000844
:1046300026000206000000247948000824000B111F
:104640000000F01F7E480008240004110000043020
:10465000854800081A00081100000430924800083C
:104660000E000401A04800080000009000000004B3
:1046700000000001B0480008000000D00000000267
:1046800000001000000000240000000000000B06E5
:10469000FFFF0000002802580A000000E0000000B0
:1046A00000040000FFFF0000002402580900000081
:1046B000E000000000020000FFFF000000200258A0
:1046C00008000000E000000000010000FFFF000003
:1046D000001C025807000000E000000080000000FD
:1046E000FFFF00000018025806000000E000000074
:1046F00040000000FFFF0000001402580500000009
:10470000E000000020000000FFFF00000010025841
:1047100004000000E000000010000000FFFF0000A7
:10472000000C025803000000E00000000800000038
:10473000FFFF00000008025802000000E000000037
:1047400004000000FFFF0000000402580100000008
:10475000E000000002000000FFFF0000000002581F
:1047600000000000E000000001000000CC40000854
:10477000AC4000088C4000086C4000084C40000829
:104780002C4000080C400008EC3F0008CC3F00081B
:10479000AC3F00088C3F0008000000000000000053
:1047A0000000000000000000000000000000000009
:1047B00000000000000000000000000000000000F9
:1047C00000000000000000000000000000000000E9
:1047D0000000000000440258001001404C3F000857
:1047E00004130000FC470008010000000000000066
:1047F000000000000000000004480008F000000075
:10480000100000000C4800080100000014480008D7
:104810000200000027010000000200004701000024
:1048200000000000843E0008843E0008143F000899
:104830001C3F00082C3F00082C3F0008001000001F
:10484000003048656C6C6F2066726F6D2052533477
:1048500038352070726F6A656374206F6E20535410
:104860004D333248373437210A005469636B2E2E9A
:104870002E0A00464C415348005352414D005359B3
:104880005354454D005352414D5F4554485F425586
:1048900046005352414D5F4554485F4445534300E1
:1048A0006D656D6F727940393030303030303000A6
:1048B000736472616D40643030303030303000727B
:1048C000302F61313A20203078253038782020721E
:1048D000312F61323A20203078253038782020720C
:1048E000322F61333A20203078253038780A007230
:1048F000332F61343A2020307825303878207231D7
:10490000322F69703A202030782530387820723183
:10491000342F6C723A20203078253038780A002005
:10492000787073723A20203078253038780A004643
:1049300061756C74696E6720696E737472756374E7
:10494000696F6E20616464726573732028723135FB
:104950002F7063293A203078253038780A00556E58
:1049600068616E646C6564204952516E3A2025641A
:104970000A002A2A2A2A2A204D5055204641554C01
:1049800054202A2A2A2A2A0A002020537461636BA1
:10499000696E67206572726F722028636F6E74652E
:1049A00078742061726561206D6967687420626542
:1049B000206E6F742076616C6964290A002020558E
:1049C0006E737461636B696E67206572726F720AD1
:1049D0000020204461746120416363657373205635
:1049E000696F6C6174696F6E0A0020204D4D4641FD
:1049F0005220416464726573733A20307825780AD6
:104A0000002020496E737472756374696F6E204163
:104A100063636573732056696F6C6174696F6E0AA6
:104A2000002020466C6F6174696E672D706F696E2F
:104A300074206C617A79207374617465207072657A
:104A4000736572766174696F6E206572726F720A37
:104A5000002A2A2A2A2A20555341474520464155F3
:104A60004C54202A2A2A2A2A0A00202044697669DE
:104A700073696F6E206279207A65726F0A00202058
:104A8000556E616C69676E6564206D656D6F7279D6
:104A9000206163636573730A0020204E6F20636F8B
:104AA00070726F636573736F7220696E7374727561
:104AB0006374696F6E730A002020496C6C656761CE
:104AC0006C206C6F6164206F66204558435F5245CF
:104AD0005455524E20696E746F2050430A002020B6
:104AE000496C6C6567616C20757365206F66207416
:104AF000686520455053520A002020417474656D4A
:104B0000707420746F206578656375746520756EA8
:104B1000646566696E656420696E7374727563742A
:104B2000696F6E0A002A2A2A2A2A204255532046F3
:104B300041554C54202A2A2A2A2A0A00202053743C
:104B400061636B696E67206572726F720A00202064
:104B50005072656369736520646174612062757366
:104B6000206572726F720A00202042464152204135
:104B70006464726573733A20307825780A002020C7
:104B8000496D707265636973652064617461206248
:104B90007573206572726F720A002020496E7374FB
:104BA00072756374696F6E20627573206572726FBF
:104BB000720A005265736572766564204578636594
:104BC0007074696F6E20280053707572696F757309
:104BD00020696E7465727275707420284952512074
:104BE00000535053454C20696E20746872656164AF
:104BF000206D6F646520646F6573206E6F7420692B
:104C00006E646963617465205053500A002A2A2A31
:104C10002A2A2048415244204641554C54202A2AF1
:104C20002A2A2A0A002020427573206661756C7456
:104C3000206F6E20766563746F72207461626C659C
:104C400020726561640A00202044656275672065F2
:104C500076656E740A0020204661756C7420657359
:104C600063616C6174696F6E20287365652062658D
:104C70006C6F77290A00415243485F4558434550BD
:104C800054207769746820726561736F6E2025788F
:104C90000A0A002A2A2A2A2A204465627567206D9A
:104CA0006F6E69746F7220657863657074696F6E7A
:104CB000202A2A2A2A2A0A002A2A2A2A2A2025736E
:104CC00020256429202A2A2A2A2A0A000A060505FC
:104CD00004010301020101010001696E7465727231
:104CE0007570742D636F6E74726F6C6C6572403585
:104CF0003830303030303000726363403538303215
:104D000034343030006770696F40353830323238B3
:104D10003030006770696F403538303232343030AF
:104D2000006770696F40353830323230303000679C
:104D300070696F4035383032314330300067706908
:104D40006F403538303231383030006770696F402D
:104D50003538303231343030006770696F40353863
:104D6000303231303030006770696F403538303262
:104D700030433030006770696F403538303230383A
:104D80003030006770696F40353830323034303041
:104D9000006770696F403538303230303030007223
:104DA000657365742D636F6E74726F6C6C657200E1
:104DB00073657269616C40343030313130303000AD
:104DC0006D61696E002A2A2A20426F6F74696E67CE
:104DD000205A6570687972204F53206275696C643F
:104DE0002076342E322E302D323230322D6730374D
:104DF00031623537316261343031202A2A2A0A0083
:104E0000286E756C6C29002A666C6F61742A00002C
:104E10006D36000800000000FB36000800000000AE
:104E200000000000000000001C00002400C201007F
:104E3000000103000090D003C80000002C000024F3
:104E40002C000024FF00FF00FF00FF00FF00FF0018
:104E5000FF00FF00FF00FF00FF00FF00FF00FF005A
:044E6000FF00FF0050
:104E6400000000000000000000000000000000003E
:104E7400000000000000000000000000000000002E
:044E840015E015E040
:0400000508000BC123
:00000001FF
