:020000040800F2
:1000000000910024A9530008BB060308955300087B
:100010009553000895530008955300080000000010
:100020000000000000000000000000007D540008F7
:100030009553000800000000195400085D7F000877
:100040000556000805560008055600080556000824
:100050000556000805560008055600080556000814
:100060000556000805560008055600080556000804
:1000700005560008055600080556000805560008F4
:100298007BB972B90029BEBF00204FF0004106E0CB
:1002A80008BF00281CBF6FF000414FF0FF3000F07E
:1002B80057B8ADF1080C6DE904CE002909DB002B15
:1002C8001ADB00F069F8DDF804E0DDE9022304B088
:1002D8007047404261EB4101002B1BDB00F05CF8EA
:1002E800DDF804E0DDE9022304B0404261EB41019E
:1002F800524263EB43037047524263EB430300F0FF
:100308004BF8DDF804E0DDE9022304B0404261EB7C
:1003180041017047524263EB430300F03DF8DDF8BA
:1003280004E0DDE9022304B0524263EB4303704763
:1003380053B94AB9002908BF00281CBF4FF0FF3144
:100348004FF0FF3000F00CB8ADF1080C6DE904CEA9
:1003580000F022F8DDF804E0DDE9022304B070477C
:10036800704700BF10F8012B11F8013B012A28BF84
:100378009A42F7D0D01A7047034611F8012B03F8B8
:10038800012B002AF9D17047034613F8012B002AE4
:10039800FBD1181A013870472DE9F04786468C467C
:1003A8000846089E154674461946002B40F0C28040
:1003B8008542B2FA82F245D94AB1C2F1200300FA65
:1003C80002FC2EFA03F3954043EA0C0C94404FEAE2
:1003D800154EA8B2BCFBFEF8230C0EFB18CC08FB8C
:1003E80000F943EA0C43994528D9EB1808F1FF377F
:1003F80004D2994502D9A8F102072B44A3EB0903BB
:10040800A4B2B3FBFEFC0EFB1C330CFB00F044EA69
:100418000344A04214D92C190CF1FF3304D2A04292
:1004280002D9ACF102032C44241A43EA07401EB156
:10043800D440002334607360BDE8F0874746DDE7A9
:100448006346F1E792BB431B01214FEA154EAFB259
:10045800B3FBFEFC200C0EFB1C330CFB07F840EA38
:100468000343984562D9EB180CF1FF3004D2984544
:1004780002D9ACF102002B44A3EB0803A4B2B3FBEE
:10048800FEFC0EFB1C330CFB07F744EA0344A742AF
:100498004ED92C190CF1FF3304D2A74202D9ACF182
:1004A80002032C44E41B43EA0040C0E7C2F12003E6
:1004B80020FA03F1954090402EFA03F303434FEAE4
:1004C800154EAFB2B1FBFEFC0EFB1C10190C0CFB59
:1004D80007F841EA0041884504FA02F422D969186C
:1004E8000CF1FF3004D2884502D9ACF1020029444E
:1004F800A1EB08019BB2B1FBFEFC0EFB1C110CFB2F
:1005080007F743EA01439F420ED9EB180CF1FF317C
:1005180004D29F4202D9ACF102012B44DB1B41EA11
:10052800004192E76046E3E76146F7E76046A3E7E4
:100538006346B7E7834206D916B9002108467BE728
:10054800C6E900E0F9E7B3FA83F78FB9834201D32C
:10055800724508D8BEEB020460EB030301209C46F9
:100568001EB9002168E73846FAE7C6E9004CF8E703
:10057800C7F1200CBB4022FA0CF41C432EFA0CF1F4
:1005880020FA0CF3B84001434FEA14490EFA07F574
:10059800B3FBF9F81FFA84FE09FB18300B0C08FBB3
:1005A8000EFA43EA00439A4502FA07F240D9E318E3
:1005B80008F1FF3004D29A4502D9A8F10200234479
:1005C800A3EB0A0389B2B3FBF9F809FB183308FB5C
:1005D8000EFE41EA03418E452CD9611808F1FF331C
:1005E80004D28E4502D9A8F10203214443EA00400F
:1005F800A0FB0298A1EB0E014145CE46434602D32B
:1006080006D14D4504D2B9EB020E68EB040301385C
:10061800002EA6D0B5EB0E0261EB030101FA0CFC2B
:1006280022FA07F34CEA0303F940C6E9003198E7D8
:100638004046C5E74346D9E72DE9F047044688B068
:10064800884617463FF07DF80A220023FFF770FE20
:10065800B8F1010F06460D4607D102460B46204663
:1006680027492EF013FF002011E07F6825483946FE
:10067800FFF778FE70B139462348FFF773FE48B19B
:1006880020463A4621492EF01DFF6FF0040008B0BD
:10069800BDE8F0873046294617A3D3E90023FFF7C2
:1006A800F7FD06460D4610461946194A0023FFF77E
:1006B800EFFD80460F46104619464EF6602200238D
:1006C800FFF7E6FD82468946104619464FF47A72CE
:1006D8000023FFF7DDFDCDE902A9CDE90623CDE929
:1006E800040132462B460B492046CDE900872EF0FF
:1006F800CDFEB8E7AFF30080005C260500000000DF
:100708006E2B04087F2B0408822B04088B2B04080B
:1007180080EE3600A32B0408124B30B51A7889B046
:1007280002F0FF04E2B9012580211D700E4B186804
:1007380008F0D4F90D4B2946186808F06BFA002226
:1007480000230B490B480494CDE9062305234FF4F5
:100758000062CDE90243CDE90044074B2CF09CF937
:1007680009B030BD9E5A00249052002494520024AF
:10077800005B00242804002485070008F0B593B026
:100788001E4901A8FFF7F8FD00238DF84430012425
:100798001B4F1C4E4FF0FF324FF0FF3301A9194891
:1007A8003EF0D5FD002523463A46402101A82DF00C
:1007B8000BF98DF844504FF0FF324FF0FF3301A989
:1007C80030463EF0C4FD01344FF4167000213EF06F
:1007D800F8FE412CE6D10C4901A8FFF7CDFD012315
:1007E8008DF844304FF0FF324FF0FF3301A9054830
:1007F8003EF0ADFD054B1D7013B0F0BDCA260408D0
:10080800D6260408D0030024EA2604089E5A0024A9
:10081800F0B595B06B4E30463EF04AFD28B96A48AF
:1008280015B0BDE8F0402DF0E3BF0CF06DFE08F008
:100838002FF9664A0446114608F01CFE002220469D
:10084800114634F0CCFC00222046114634F0CEFC90
:1008580000222046114634F0B4FC002220461146FE
:1008680034F0B6FC2046012139F0C7F802232046AF
:100878001A46194639F0CDF800221821204634F0DE
:10088800BCFC204625F01AFB0546514925F086FF99
:1008980028464E4908F08EFD28460022022134F0F1
:1008A800E6FC00224B49284634F0DAFC4A4D204643
:1008B80021F094FD60224949286008F0DBFD002200
:1008C8001221286834F0DAFC45482F6839F0F1FE27
:1008D800C0F307238DF80400C0F3074000228DF809
:1008E80005308DF806003846019934F08DFC3D48F6
:1008F8002F6839F0DEFEC0F307238DF80800C0F337
:10090800074000228DF809308DF80A003846029910
:1009180034F090FC00220321286834F09AFC00236C
:100928000A223149286808F0FFFB286825F0C6FA32
:1009380007462E4925F032FF00222649384634F072
:100948008FFC384633F078FA2046294C25F0B6FA61
:100958000121206008F018FA1C49206808F02AFDD7
:1009680000220221206834F082FC00221949206804
:1009780034F076FC0321206826F006F8B3685B683B
:100988000BB1304698471B4E1DF018FD002200237E
:1009980003A930462BF028FD30B11DF00FFD0021D2
:1009A80064203EF00EFEF1E703A9206825F0F6FE6C
:1009B8009DF84C30002BE9D08021286808F0B8F861
:1009C800E4E700BF40FE03080E2704086400002087
:1009D8002127040870130408905200245A000020AC
:1009E800D0660F00A64E0A00210700083B2704081E
:1009F80094520024D00300242DE9F04F046885B0F8
:100A080066488946A268214604F10C0A0026B2F518
:100A1800004F02F101054FF0010B2CBF08230423FE
:100A28000833A5EBD305B5FA85F5C5F120052B46A6
:100A38002DF0DEFE5A482DF0DBFE5AF8043F63B372
:100A480000271946B8462046039302912DF042FE2E
:100A5800804502994FF0030207F1010738BF80462D
:100A680020462DF02CFE039B01468342EBD1A36860
:100A78000BFA06F24B48B3F5004F02F1FF324FEA8A
:100A8800C80334BF042108210831CDE9008302EBF3
:100A9800D1023B4631462DF0ABFE0136B542CCD1F2
:100AA800B9F1000F36D00025DFF8FC803F482DF063
:100AB8009FFE0122294620462DF001FE07462946C1
:100AC80020462DF007FEFB0706461FD4A368B3F5A2
:100AD800004F1DD3012814BF2D272E270022294699
:100AE80020462DF0ECFDAB19281A3A460193294609
:100AF8003346009040462DF07BFEA3689D4209D006
:100B0800294620462DF0E6FD0544D2E72A27E5E7E9
:100B18002D27E3E70026002120462DF0DBFD374690
:100B28000546D4F8088045451FD3B8F5004F07EBB4
:100B380006034FF47A7034BF0421082101EBC80181
:100B4800CB1A4A0800FB03220A20B2FBF1F2B2FBDF
:100B5800F0F100FB11221648CDE900123246394661
:100B68002DF046FE05B0BDE8F08F0122294620464B
:100B78002DF0A5FD8146294620462DF0ABFD19F044
:100B8800010F03D006EBC0060544CCE7B8F5004FCB
:100B980001D30128F8D007EBC007F5E74C27040874
:100BA80079270408342804085C2804084E28040817
:100BB8008A2804082DE9F04F91B0840705460E46AF
:100BC800009302F00403DDF868800293C2F3C203C5
:100BD800039203F10103059340F0BA81041D30B17B
:100BE800072909D86FF01B0011B0BDE8F08F01F09C
:100BF80007063444C6F10806009B4FF000094FF081
:100C0800040A591E4FF0FF334F46CB460193534613
:100C1800CDF810900DB1009A22600598002800F3D5
:100C2800E8809848009A824203D397488242C0F0ED
:100C3800E080039AA4EB050E92074FEA9E0000F1AC
:100C480003810F2F00F2B180002D00F0058107F11C
:100C580040020DEB020C019A0CF8200C0CF8102C39
:100C6800049801300490E7E07A285DD84B280ED824
:100C7800472859D829282DD8252852D054D8202893
:100C88007AD02338D0F1000B4BEB000B74E04C38D2
:100C98002E2849D8DFE800F07048484848484848B6
:100CA800484848484B484848484848484859484BA5
:100CB8004B595959704B6D487048184B1848488221
:100CC8007F4B48484B487F0000204FF0000B4FF007
:100CD800040A38E02A380122C0B202FA00F010EA09
:100CE8000E0F49D110F0625C2FD110EA020B43D0ED
:100CF8006046013C5444B4FBFAF40AFB04F4002DAA
:100D080061D0A3EB050CA444B4453FF66BAF0028B3
:100D180068D1042B47D158F8043B236004340423DA
:100D28002AE0019A013A01924FF0000B24E011F8F1
:100D3800010C6C2834D111F8023C00206C2B83463E
:100D4800C5D14FF0080A5346D3E708F1070807341E
:100D580028F0070824F00704F8E802AB35B1069834
:100D68002044B0423FF63EAFC4E900AB08344FF030
:100D7800000B4FF0080A534611F8010F002878D0ED
:100D8800BBF1000F7FF470AF2528F5D1019B4FF020
:100D9800010B013301934FF0040AECE7584694E73E
:100DA80000208346A5E7082B02D06FF015001BE74B
:100DB80008F1070828F00708F8E80223C4E9002327
:100DC80008340823D8E768B9042B02D108F10408CD
:100DD800A4E7082BE9D108F1070828F0070808F16B
:100DE8000808EDE7059A013A059258F8042B009295
:100DF80010E7039A900720D5A4EB050E4FF0010CDD
:100E08004FEA9E00BEF5007FCFD20F2FCDD8F5B1A7
:100E180007F14002C0B20DEB020E019A0EF8200C49
:100E28000EF8102CBCF1000F3FF41AAF60F07F00F1
:100E380009F101090EF8200C0137C5F10802043444
:100E48004FF6DA7E069297E74FF0000CDAE7BCF12E
:100E5800000F01D00136EFE7029802360028EBD1E7
:100E68000098CDE90631FFF78FFA0644DDE906312F
:100E7800E2E7631BB3F5806F97D23DB9A6F108048A
:100E8800E018B1E67CFA030810D404089B08029A1B
:100E980028602B709DF81030C2B1EB7085F8029075
:100EA800B9F1000F05D008A80022C5F1010C97423E
:100EB8000ED1C5F101030DF120084FF0000A0DF124
:100EC800300B0193574512D1601B8DE66B70E5E737
:100ED80010F8013B190608D50CEB040E03F07F034C
:100EE800B6453FF67FAE04F8013B0132DFE7B9F1C2
:100EF800000F03D098F90020002A17DB029BD3B11A
:100F08001AF80B2004F8012B0022019B1819104431
:100F1800B0423FF667AE98F80000009904F8010B5C
:100F2800204603923EF0A7FC039A14440AF1010AF2
:100F380008F10108C6E798F8002055F82230009318
:100F4800029B009845F82230FFF71EFA421CDCE7A6
:100F58006FF00D0048E600BF2DE9F04F97B004464A
:100F6800894600AF90F802A0D7F880B03B62CBF377
:100F7800C003FA62BB6141B9457800780AEB80008A
:100F880020444D4517D8A0EB0409E378FB61BAF17A
:100F9800000F02D01BF0010F16D1FB6953BBFB6A8F
:100FA8001BB13A6A4946204698474D4628465C3761
:100FB800BD46BDE8F08F461C09F101093046FFF730
:100FC800E3F901303044DCE72378626899007A62FB
:100FD800FA6A796104EB8301002A40F004814D46E6
:100FE8000E4601EB0A094FF000084E4550D101EBBF
:100FF8000A0610E01BF0020FD1D023789A0004EB08
:1010080083017A6162687A62FA6A002A7BD14D4666
:1010180001EB0A0690461BF0050F0CBF02230123C3
:10102800FB62FB6906EB430A0BF00203BB62564501
:10103800BCD016F8021B16F8013C54F823909B4BC1
:10104800994502D39A4B99453AD3BB69002B44D0B2
:10105800786A2DF076FB00283FD09648036813F095
:10106800060F13D0E9468AB06A46934B53617B6AF0
:10107800C2E906314FF400731384904B42F8103FD5
:1010880000234FF4125100F0B7FECD46023DCEE7E3
:1010980016F8013BF96254F82300FFF775F9D7F801
:1010A80084300130F96A4BB1D7F8883098453EBF93
:1010B800D7F8843023F8180008F10108054494E7AC
:1010C800BB6923B1786A2DF03CFB0028C5D11BF021
:1010D800010F05D1FB6AED1AA9E7BB6A002BA6D060
:1010E8004846FFF751F9D7F8843053B1D7F888301C
:1010F80098453FBF431CD7F8842022F8183008F1E0
:101108000108054493E7BAF1000F72D01BF00406FA
:1011180072D0D046002607F1480052463B61B962BA
:101128003EF0A9FBB96A3B6901EB0A02F969BA62A8
:10113800FA695200FA60BA6A02EB41023A610BF0AE
:101148000202BA603A69B96A8A4257D11BF0020FA3
:1011580062780CBF4FEA580100217A621BF0010F38
:101168003244D2B240F09F801BF0040F14BF4046B7
:101178000020BB616270A0702046E1703A6A79690C
:10118800FB6A9847051EFFF611AFBB6941463A6AEC
:1011980007F1480023707B6A84F802A06370FB693A
:1011A800E370FB6A9847B0F10008C0F2BB807B6926
:1011B800A9EB0A013A6AC91AFB68C91AD7E90A03EE
:1011C80098470028C0F2B080A8444FF0000B07F100
:1011D800380A08EB0005B34572D300213A6AFB6A66
:1011E80008469847E2E656464FF0000807F13800EF
:1011F80093E75646D04697E7B04695E7BA6A12F89D
:10120800021B12F8015CBA6254F82500274A904282
:1012180002D3274A90421ED3BA6932B1786A7B60FA
:101228002DF08FFA7B6800288CD1BA6802BB08F1D0
:10123800280207F1300C08F1010008F10208944473
:1012480007F158025FFA88F852FA80F00CF8101C7F
:1012580000F8105C76E7BA693AB1786A7B602DF0DD
:1012680070FA7B6800287FF46DAF1BF0010F09D07E
:1012780006F1280207F13000711C161806F8205CE8
:10128800CEB25FE71BF0040F3FF45CAF08F1280211
:1012980007F1300008F1010102EB000808F8105CC2
:1012A8005FFA81F84EE7002063E700BF7CFA030885
:1012B80010D40408E0020024D22804080400000125
:1012C8001BF80A3054F8239087F83730D7F8843061
:1012D8002BB3D7F888309B4521D2D7F8843033F820
:1012E8001B803A6A012107F13700FB6A98470028FA
:1012F8001ADB0544B8F1000F06D14846FFF744F859
:1013080000F101081FFA88F83A6A41464846FB6A24
:101318009847002808DB05440BF1010B5BE74FF009
:101328000008DEE7454641E605463FE6214B70B535
:1013380082689A4215DD0133D0E9001692FBF3F377
:1013480001294FEAE37476F1000520DAC91844EB65
:101358000604C0E90014184901FB03238360012037
:1013680070BD002AFBDAB2F1004F1BBF9B1A13496C
:101378000323B3FBF1F3D0E90041DE1700290FDAAC
:1013880001F100459C42B5410ADA0020E8E7CD4367
:101398009D426FF00045A5EB0605A541D6DAF4E7B6
:1013A800E41A61EB0601C0E90041044901FB03228C
:1013B8008260D4E7FFC99A3B003665C400CA9A3BED
:1013C80030B50446EFF31185102383F31288BFF379
:1013D8006F8F044B0FCB84E80F0085F31188BFF3A0
:1013E8006F8F30BDE804002401281FB50C4605D0D6
:1013F80004281DD06FF0150004B010BD3EF0A1F90F
:1014080042F210720023FEF793FF104B5A43C4E9CF
:101418000001A2606846FFF7D3FF694620462DF019
:10142800B5F918B90A4B0FCB84E80F000020E3E7A1
:101438003EF087F942F210720023FEF779FF034B62
:101448005A43C4E90001A260F0E700BFA08601008A
:101458008807040801287FB50D462DD18A68184BE6
:101468009A4229D83EF06DF942F2107200236C4678
:10147800FEF75EFF4042134B61EB41015343CDE958
:10148800000120460293FFF751FF294620462DF020
:101498007DF9EFF31186102383F31288BFF36F8F62
:1014A800094D94E80F0085E80F0086F31188BFF313
:1014B8006F8F002004B070BD6FF01500FAE700BF11
:1014C800FFC99A3B6079FEFFE8040024014B1860CD
:1014D800704700BF0000002480B505460E46174639
:1014E80098462BF0C3FDDFF8209003463EF0B8FA8B
:1014F8000446424649F8003039463046A84754F871
:10150800090003F06FFF00BF080000002DE9F84351
:1015180040F26C73446905690646E117E41805F161
:101528000105C76841F10001022D07F1FF378CBFA3
:1015380000230123E41A61F1000100294EDA6FF457
:10154800C7704FF4C8720023201861F10001FEF73C
:101558009FFE254B4FF03C0E022D03FB0044024634
:101568008CBF6FF002000920D6E90083B6680544F5
:101578004FEAE37C99469920634645430520C6FB1C
:101588000E93A9FB0EC602350EFB0366A30840F2B4
:101598006D1E1CEB080C0EFB043346EBE8763B444F
:1015A8006427B4FBF7F4B5FBF0F51B1B0F4C2B4479
:1015B800A2FB042004FB010198180D4A41F1000325
:1015C80080180C4A63F10003A0FB020102FB03111F
:1015D80010EB0C0041EB0601BDE8F8834FF4C8722C
:1015E80000232046B3E700BF70FEFFFFB13A0200B8
:1015F8009405F5FF8051010010B5FFF787FF00241F
:1016080002460B4603493EF02BFA44501046194651
:1016180010BD00BF0C000000054B00205A6822F0E6
:1016280002025A605A6822F001025A60704700BFED
:101638000010005C164B82B0D3F8E02042F0007234
:10164800C3F8E020D3F8E02002F000720192019A7A
:10165800D3F8F42042F00202C3F8F420D3F8F420BF
:1016680002F002020092009A0A4AD2F80423D20732
:1016780006D503F50053D3F89030002002B0704728
:10168800D3F8A02042F00802C3F8A020F5E700BF75
:10169800004402580004005808B504F007F803F0A5
:1016A800BFFF0C4B0C4A1A600C4AD36823F03F0367
:1016B80043F00403D3600A4B1A6841F20303B3EB07
:1016C800124F06D1074AD2F8083143F00103C2F895
:1016D800083108BDF40100240090D00300480258E6
:1016E8000010005C008000512DE9F04704460746D1
:1016F8004FF00109DFF8508014B93846BDE8F0878B
:1017080094FAA4F5B5FA85F509FA05F32E0108EB64
:1017180005156FEA030A24EA03042B7B002BEBD0A0
:1017280058F806301B694BB946440422284607EA94
:101738000A07736819682DF0B9FBDDE72846984752
:101748000028D9D1F0E700BFE805040830B5002229
:1017580089B00F490F483DF0F6FF0022002300240E
:101768000D4D0E4928460094CDE906230E234FF46B
:101778004072CDE90334CDE90144094B2BF08CF9D3
:10178800084928462BF0B8F8204609B030BD00BFFC
:10179800B1170008C0090024F8040024406300249D
:1017A800F91A0008C729040801482AF081BE00BFB9
:1017B800180400242DE9F047804620480F462DF0F4
:1017C80045FB0646002832D000252846BDE8F087AC
:1017D800237B83B12368DB680BB120469847636895
:1017E80083F8069023681B69CBB9636804222046F6
:1017F80019682DF05BFB013610345445E8D3B8F175
:10180800000FE2D0002DDFD02846FFF76DFF054618
:10181800002FF7D0002164203DF0D3FEF2E72046E8
:1018280098470028E1D009FA06F31D43E3E7044C82
:101838000546DFF810A04FF00109DEE7A8520024A2
:10184800E8050408F805040808B5034608462BB15E
:10185800044A136000F072FD002008BD6FF0150007
:10186800FBE700BF0400002410B5044C237813B92B
:1018780003482AF01DFE0123237010BD9F5A00243F
:101888001804002410B504460B482DF0DFFA5CB1AB
:101898000A4BBFF35B8F53E8001F013943E800127E
:1018A800002AF8D1BFF35B8F05483DF058FF054883
:1018B800BDE810402AF0FCBDA0520024A452002428
:1018C800C0090024180400240020064BBFF35B8FD6
:1018D800014653E8000F43E80012002AF9D1BFF38C
:1018E8005B8F7047A052002470B5FFF7EDFF084CDE
:1018F8000546084EB44200D370BD63685B792BB1CE
:1019080023685B6813B12946204698471034F1E7ED
:10191800E8050408F805040810B5044C04492046F5
:101928002DF076F8034B1C6010BD00BFA402002404
:10193800440804089852002400230E4A4FF47A7190
:101948000D4810B513700D4A13600D4A1360FFF768
:101958007BFFFFF7E1FF00F079F90A4B0A491846C7
:101968008B4200D310BD1A1A5C6810331211013271
:101978002271F5E7A05A00246FEE0208A052002455
:10198800A4520024E8050408F805040801460022CA
:10199800002301482DF05DB8A402002401482DF071
:1019A800F6B800BFA4020024024B014618682DF0C7
:1019B80042B900BF9852002401482DF077B900BF02
:1019C800A4020024334B2DE9F041187800285FD099
:1019D800FFF7E4FF0446002856D12F4B2F4C1B6815
:1019E800002B12DD3DF0ADFE0A220023FEF7A0FC1D
:1019F800D4E90032C01A40F2E93361EB020198429F
:101A080071F1000101D3FFF76FFFD4E9003213F53C
:101A18007A7342F10002C4E90032BDE8F041FFF7F1
:101A2800CBBF6B685B793BB121784B0717D52B6827
:101A3800214628461B68984710354545F1D320466E
:101A4800FFF7B2FF164BBFF35B8F53E8001F013956
:101A580043E80012002AF8D1BFF35B8FBDE7268860
:101A68002046C1F3C20700F0A7FAC6F38216024661
:101A7800002EDCD00028DADB01233946284600F0A6
:101A880095F9B042D8D3D2E7064DDFF81C80D4E7E9
:101A9800BDE8F0819F5A0024A0520024B809002410
:101AA800A4520024E8050408F805040870B50D4D93
:101AB800297861B90C4C01200C4EFFF77BFEB4422B
:101AC80006D3FFF77FFF0028FBD101232B7070BDE1
:101AD80063685B791BB1236820469B68984710347C
:101AE800EDE700BFA05A0024E8050408F80504083B
:101AF80000212DE9F0470846FFF75CFE044658B37D
:101B08004FF4FA784FF000091C4B3DF0A9FF1C4A2E
:101B18001B58136033B11B4B1B68092B02DD1A4895
:101B28002AF0C6FC0025194FDFF85CA044B1204616
:101B3800FFF7DAFD044618B94FF0FF384FF0FF39C8
:101B4800FFF740FF064628B9B5B942464B4650460E
:101B58002AF0E2FC3546E9E74FF0FF384FF0FF394D
:101B6800D2E72B689B691BB100222846114698478B
:101B78001035BD42F5D3E8E7054DFAE70800000047
:101B88009C520024A452002418040024F8050408D8
:101B9800E805040813B518482DF058F9174B1B78B9
:101BA80073B1EFF31184102383F31288BFF36F8F9F
:101BB800FFF708FF84F31188BFF36F8F02B010BDE1
:101BC8000F4B1B68002BF9D050B9002200230D4899
:101BD800CDE9002342F2107200232BF0C3FDEDE79C
:101BE8000928EBD107483DF0BAFD074802B0BDE827
:101BF80010402AF05DBC00BFA4520024A05A002463
:101C08009C520024C009002418040024064B10B577
:101C180004461B6898472146A06004482CF098FFAA
:101C2800BDE81040FFF7B6BF04000024A40200245A
:101C3800044A054B9B1AB1EBD30F34BF52F831005D
:101C48000020704720050408E80504080B48002117
:101C58000B4B1B1A043030B5DB080A4C994200D1F3
:101C680030BD10F831200131256802F0070225F057
:101C780007052A4344F8042BF0E700BF20050408B1
:101C8800E8050408E0020024F8B50B4F06460B4DA2
:101C98000024ED1BED08AC4203D14FF0FF34204681
:101CA800F8BD57F8340020B13146FEF75BFB002839
:101CB800F5D00134EFE700BF20050408E805040863
:101CC80000282DE9F047884615461F461DDADFF83B
:101CD80098904FF0000A254E5446A6EB090636099F
:101CE800B24509F1100902D12046BDE8F08759F83C
:101CF8000C0C3B462A46414600790AF1010AFFF7D7
:101D0800DFFF844238BF0446EAE7194B194AD21A62
:101D1800B5EBD20F25D203EBC5031C79BC4228BF13
:101D28003C46C0B20722144E002100EB400056F892
:101D38002530824023EA020304F00702824013435D
:101D4800032223FA02F0033200F00700814238BF71
:101D580001461E2AF5D123F007030B4346F8253028
:101D6800C2E70024DDE700BFE8050408F805040819
:101D780020050408E8050408E0020024F8B5094D28
:101D88000646094B0F460024ED1AED08AC4200D375
:101D9800F8BD22B201343B4600213046A4B22DF0F2
:101DA8007DF8F3E7E80504082005040870B14168E8
:101DB800097973B1002A17DBCBB20C4903EB430353
:101DC80051F82200D84000F0070070474FF0FF316B
:101DD800EFE707490748401AB2EBD00F3ABF01EBCB
:101DE800C20108791846704704207047E0020024B1
:101DF80020050408E80504082DE9F04F8FB0C1F369
:101E08004A280D46914604AF0C0DB8607B60B8F1C6
:101E1800000F67D0002607F114034FF0040B4FF0B2
:101E28000A0AC7F80C8032467E624846C7E9076648
:101E3800019307F11C03CDF808B0CDF800A0F968AC
:101E4800FFF78AF8B0F5006F034620D32A480368E5
:101E580013F0060F17D06C468AB0D9F8041004ABFB
:101E6800264D1A46C3E9055140F2FF71D9614FF476
:101E780000711984224B42F8103F4FF41251334637
:101E8800FFF7BAFFA5462C37BD46BDE8F08FC0F373
:101E98000A0804F117003B60184468F3532520F042
:101EA80007008008FFF772FD044690B13B6800F117
:101EB8001001144A4846F961C7E9083607F11403C6
:101EC800CDF808B0CDE900A307F11C03F968FFF7C6
:101ED80043F868F353257B68B96820462A462DF0F5
:101EE80019F8D0E704F1170020F007008008FFF781
:101EF8004DFD0446EDE700BF10030024DC2904086B
:101F080004000001EFEE02082DE9F04F87B0044607
:101F1800934698460391DDE91279DDE9105ADFB15D
:101F28003B46524610210020CDF80090CDF8149081
:101F3800FEF740FEB0F5006F06460ED31C48036856
:101F480013F0060F30D040F2FF731A4A022107B08F
:101F5800BDE8F04F2DF037B83E4604F0070405F110
:101F680017000BF0070BE400304444EA8B1420F010
:101F7800070044EA4624800844EA0554FFF706FDB2
:101F8800054640B13FB13B46524631461030CDF888
:101F98000090FEF70FFE434622460399284607B0F5
:101FA800BDE8F04F2CF0B6BF07B0BDE8F08F00BF1A
:101FB800100300241B2A0408406820B1034BC01AF0
:101FC80040F38F0070474FF0FF307047E002002465
:101FD8000EB403B503AB0146054853F8042B01932F
:101FE80003F0FAFC02B05DF804EB03B0704700BFE1
:101FF80031F00208CA0605D48B064CBF02490349D2
:10200800FFF7E6BF704700BF402E0408532A0408B4
:102018002DE9F04F89B09B4604460D46149B904627
:102028009DF84CA00693159B179E0593169B049349
:10203800BAF1000F00F09D8006F4807306F00209E3
:1020480007932CF029FF024600283ED091492046EC
:10205800FFF7BEFF0746B9F1000F08D016F0440F8E
:1020680035D12A468C492046FFF7B2FF074406F0CF
:10207800010353B1894B2046894953F82A20894BDB
:10208800002A08BF1A46FFF7A3FF06F48073002B47
:1020980049D006F00803002B63D1B8F1000F66D0D1
:1020A800424681492046FFF793FF0546069B3D447B
:1020B800002B6DD1049B002B73D1F30700F1E48052
:1020C80031462046FFF796FFD8E00746C3E7774B2F
:1020D80018680028CAD0764B4FF47A794FF03C0C38
:1020E8001B68B5FBF3F5B5FBF0F100FB11554FF498
:1020F800616309FB05F5B1FBF3F2B5FBF0FE03FBE9
:10210800121100FB1E55B1FBFCF309FB05F50CFB96
:102118001311B5FBF0F5009120466649CDE901E5BC
:10212800FFF756FFA2E706F00803EBB1624B204623
:10213800624953F82A20FFF74BFF0546B8F1000F14
:1021480005D0424658492046FFF742FF0544BBF1F7
:10215800000FABD05A465A492046FFF739FF0544CD
:10216800A4E74FF0000BE1E706F00805E6E745466F
:102178009CE7BBF1010F069B06D1002B64D1049BA1
:10218800002B7BD000250CE0002BF8D04D485CE0FC
:102198004D48069B22464D492CF0A2FA049B002B81
:1021A80068D0DFF82C81DFF82C91049F4FF0000BEA
:1021B80031462046102F28BF1027FFF71BFF5D452B
:1021C80045DC059B4FF0010B494620461A78FFF77E
:1021D800FFFE1BF0070F03D141462046FFF7F8FE2C
:1021E8005F453BD9059B4946204613F80B20FFF76E
:1021F800EFFE0BF1010BBBF1100FEAD14FF0000B12
:1022080035492046FFF7E4FE5A46059B20469A5C6E
:10221800A2F120015F29314928BF2E22FFF7D8FEFD
:102228000BF1010BBBF1100F1DD01BF0070F03D1F1
:1022380041462046FFF7CCFE5F455A46E5D8414661
:102248002046FFF7C5FEEBE71F485546A1E7414684
:1022580020460BF1010BFFF7BBFEB0E720492046F3
:10226800FFF7B6FEC5E7059B3B440593049BDB1BC4
:1022780004939AD1BAF1000F7FF41FAF204609B03A
:10228800BDE8F04F2CF0C3BE064A20460449FFF7CC
:102298009FFE15E7353804085B2A04085808040827
:1022A800EC300408562A0408802A0408B052002496
:1022B800AC520024642A04086C080408842A040820
:1022C8008A2A040867F0020831F00208E159000878
:1022D800972A04088F2A0408992A04081938040838
:1022E800952A040842F20F73114A8B4273B50446CB
:1022F80028BF0B460568052168462BF065FB636817
:1023080006460B2228465B680A492CF072FE636871
:102318003246694628465B682CF06BFE63681B22D0
:1023280005495B6828462CF064FE02B070BD00BF0A
:10233800F85E0408B72A04089B2A04080021012330
:10234800064A904206D8064A01B901231360054B94
:1023580018607047400801215B00F2E740420F0017
:10236800AC520024B0520024014B03600220704795
:102378008008040810B5044605F0B8FE0349024673
:1023880020462DF083F8002010BD00BF192B04084B
:1023980037B51346002205460A21019201AA58685A
:1023A80001F0ACFD019C4CB920EAE0700A2180FBE9
:1023B80001013DF006F9204603B030BD224603492D
:1023C80028462DF07FF8019CF5E700BF452B04084F
:1023D800034A044908B52DF059F8002008BD00BF8C
:1023E800352C04083C2C0408F7B51746002305468D
:1023F80001AA0A21B868019301F080FD1749C6B205
:1024080028462DF051F8019C44B12246144928462B
:102418002DF058F8019C204603B0F0BD042E09D9D0
:1024280032461049284601242DF04CF828462DF054
:102438007EF8F0E77868FFF727FC021E07DA7A686B
:10244800284609496FF015042DF03CF8E3E73346B8
:1024580012B2214620462CF021FDDCE7672C040847
:10246800CD2C0408F42C04080B2D0408002307B510
:102478000090694604488DF804302AF059FF9DF809
:10248800040003B05DF804FBEFF0020810B5044641
:1024980005F00EFE0749024620462CF0F7FF2046BD
:1024A80005492CF0F3FF214604482AF05BFF002081
:1024B80010BD00BF632D0408822D0408C92400083C
:1024C80070B58EB004460D46D0F8A8603CF0CFFF3A
:1024D800224A03463DF0C4FA1058214A2149002BEC
:1024E80018BF1A46234600921F4A844218BF0A465C
:1024F80028461E492CF0CAFF28461D49D4E90A235C
:10250800CDE9002394F90E30227B2CF0BFFF06A9F9
:10251800202220462AF000FA236F02461549284651
:102528002CF0B4FF05A920463CF0AFFF024628B1C5
:10253800114928462CF0AAFF0EB070BD059B6422F5
:102548002846F11A4A4300910C49B2FBF6F2CDE94C
:10255800016232462CF09AFFEEE700BF0800000047
:102568008C2D0408972A0408974404088F2D040822
:102578009B2D0408C72D0408DE2D04080B2E040823
:10258800F0B591B0002504461C2208AF294609A8D9
:10259800144E3DF098F91A22202138463DF093F95F
:1025A800214611482AF0DEFE07AA4FF400613046A2
:1025B8003CF05FFF079A64232046C2F5006100974C
:1025C8004B43DB0A05934FF40063CDE90313CDE9D0
:1025D800013206492B46A6F140022CF057FF284647
:1025E80011B0F0BD80770024F9250008572E0408A3
:1025F80070B5044688B00D46D0F8A86007A93CF02D
:1026080044FF024628B10F4928462CF03FFF08B086
:1026180070BD20463CF02BFF079B64220096F11A00
:102628004A43B2FBF6F2CDE90131074B07490028CE
:1026380018BF03462846CDE9036222462CF026FF40
:10264800E5E700BFDE2D04088C2D0408A02E040841
:1026580038B5134605461022002158682BF054FA65
:102668000446FFF703FF38B922460E4928462CF0E6
:1026780029FF6FF0150038BD0B4B3DF0F1F91B58E1
:102688009C4204D1094928462CF01CFFF1E720465A
:102698002AF01AFB2846224605492CF0F7FE0020AE
:1026A800E9E700BF042F0408080000001F2F0408F2
:1026B800472F040838B513460546102200215868EC
:1026C8002BF022FA0446FFF7D1FE38B922460E490C
:1026D80028462CF0F7FE6FF0150038BD0B4B3DF087
:1026E800BFF91B589C4204D1094928462CF0EAFE40
:1026F800F1E720462AF094FB2846224605492CF0AB
:10270800C5FE0020E9E700BF042F04080800000008
:10271800862F0408AC2F040838B513460546102246
:10272800002158682BF0F0F90446FFF79FFE38B9EE
:1027380022460E4928462CF0C5FE6FF0150038BD1C
:102748000B4B3DF08DF91B589C4204D10949284692
:102758002CF0B8FEF1E7204602F044FE2846224657
:1027680005492CF093FE0020E9E700BF042F040878
:1027780008000000E72F04080C30040810B50C46C8
:1027880000212DF062F900B100680023024A2060A0
:10279800E360C4E9012310BD2C31040810B50C46D0
:1027A80000212DF056F900B100680023024A20608C
:1027B800E360C4E9012310BD2C31040870B5064656
:1027C800506815462DF049F9044640B96FF01204D7
:1027D8006A680F4930462CF075FE204670BD3CF003
:1027E80067FD30B16A680B49304600242CF040FE82
:1027F800F3E720463CF08AFD044630B103466A6898
:10280800054930462CF05EFEE7E76A680349EBE7C6
:1028180044300408593004087B300408A830040800
:102828002DE9F04F8FB004460F46904601A829F0D5
:10283800A3FB2422019B082102FB003B2B4A2046D4
:102848002CF009FE019D5D4503D300200FB0BDE8C3
:10285800F08F2E680EB1337833B902AE2B46244A76
:10286800302102A82BF0B0F8022F07D1D8F80410B5
:1028780030463DF07FF808B92435E4E733461D4A71
:10288800082120462CF0E7FD28463CF011FD1A4AA5
:102898001A4B0821002808BF1346194A20462CF075
:1028A800DAFD2B6A002BE7D01E68002EE4D03368CF
:1028B800002BE1D0B2464FF00009124A0821204609
:1028C8002CF0C9FD3368104A4B4505D80F4A08213A
:1028D80020462CF0C0FDCFE75AF8043F08212046D7
:1028E80009F101092CF0B7FDECE700BFDB30040863
:1028F800E5300408EA300408D2300408CC30040873
:1029080052300408EF300408EB300408402E040865
:102918001FB50C68D1E9043203944C68013302F204
:102928006C7202948C680194C968009102492CF079
:10293800ADFD04B010BD00BF76310408F7B51378BB
:1029480006460F4615463A2B14D1541C23783A2BC9
:1029580028D101340A2201A920462BF05FF8019AF8
:1029680003463860A24217D01078A8B93C2B15D975
:1029780015490EE00A2201A928462BF04FF8019CC0
:10298800B860AC4208D023783A2B05D1172807D96C
:102998000E4930462CF096FD6FF0150003B0F0BDDF
:1029A8000134D3E70A2201A920462BF037F8019B0E
:1029B8007860A342F0D01A783A2AEDD13B2801D9A1
:1029C8000349E6E75C1CC5E7B531040897310408FC
:1029D800A53104082DE9F04190B00D4604460120C8
:1029E80002A91746FEF700FD07A902A82AF03EFF34
:1029F800032D55D17D680A2201A928462BF00EF82F
:102A0800019E8046B54215D032782D2A12D1013662
:102A18000A2201A930462BF001F8019B9E4209D0F9
:102A28001A782D2A06D1451E0B2D0CD92849204687
:102A38002CF048FD20462CF07AFD6FF0150528464D
:102A480010B0BDE8F0815E1C0A2201A930462AF0C8
:102A5800E5FF019B9E42EDD01B78002BEAD1431E77
:102A68001E2B01D91B49E2E7A8F26C73BA680A90D9
:102A7800CDE90B5307A92046FFF760FF0028D9D1FD
:102A880007A8FEF7B9FDB1F1FF3F08BFB0F1FF3F5E
:102A9800CDE9020108D1104920462CF013FDCCE7FE
:102AA800022DC7D17A68E5E700230493012002A923
:102AB800FEF7D0FC054628B10246084920462CF00E
:102AC80001FDBAE707A92046FFF722FFB7E700BFD5
:102AD800C5310408D4310408E13104080A32040875
:102AE8002DE9F04114468846074610220021606807
:102AF8002BF00AF8B8F1020F064607D82023254A1A
:102B0800082138462CF0A7FC336816E00A22002179
:102B1800A0682AF0F9FF1F4AC5B2082138462B469B
:102B28002CF099FCB8F1030F1AD1102D0CD0202DE0
:102B3800EAD0082D0BD13378DBB2174A0821384682
:102B48002CF089FC002009E033889BB2F5E7384671
:102B5800124A08212CF07FFC6FF01500BDE8F081C7
:102B680010220021E0682AF0CFFF0D4A03460446F0
:102B7800082138462CF06FFC102D06D0202D07D0E8
:102B8800082DE4D1E4B23470DCE7A4B23480D9E78C
:102B98003460D7E74F3204087A32040864320408F4
:102BA8008B3204082DE9F04F002387B04FF0FF3532
:102BB800914601930122504B20262C46DFF83CA178
:102BC800074688461A6002F049FF49465246404681
:102BD80002F068FF411C06D16A1C41D148493846B9
:102BE8002CF070FC17E073281AD0772828D06128B9
:102BF80011D1DFF810B101AA1021DBF8000001F0B3
:102C08007DF9019B0546002BDFD0DBF800203E490B
:102C180038462CF057FC6FF0150007B0BDE8F08F70
:102C2800DFF8E0B001AA0021DBF8000001F066F946
:102C3800019B0446002BC8D0DBF800203349E7E7A6
:102C4800DFF8C0B001AA0021DBF8000001F056F956
:102C5800019B0646002BB8D0DBF800202C49D7E7AB
:102C6800631C01D12B49BAE75FFA86F8C6F3C4069C
:102C7800002C3FD002AB2946A6EB050C1A460CE007
:102C8800B8F1100F1DD0B8F1200F20D0B8F1080FFF
:102C98002AD10878187031443344A64203D80CEB83
:102CA80001001028ECD9102CA1462946384628BF27
:102CB8004FF0100910354B46A4EB090401F004F855
:102CC800D6E7088880B21870000A5870E3E70868E9
:102CD8004FEA102E187083F801E04FEA104E000EEC
:102CE80083F802E0D870D6E70B4A082138462CF062
:102CF800B2FB90E7204690E708010024D932040887
:102D0800E0320408DC5500249F320408B23204087B
:102D1800C5320408FD3204086432040870B50F4E49
:102D280004460D46337871B123B10D49BDE87040B2
:102D38002CF0C8BB012333700A4920462CF0A6FBAF
:102D48000123337004E083F001033370002BF3D1C7
:102D580029462046BDE870402CF003BCA15A002447
:102D6800173304085233040870B504463B48037807
:102D7800182B02D10B78112B31D0013A0B468D1844
:102D8800AB4225D18B5C0A780370A2F13003344C36
:102D9800092B04D922F02003413B052B04D82368D2
:102DA8003049CA54013323602368022B33D11022DF
:102DB80000212C482AF0A8FE2B4A136803F8010BBF
:102DC80013602A4A1368013313600023236022E04A
:102DD80013F8016B182ED3D11E78112ED0D1234DA4
:102DE800204623492A682CF051FB20460021FFF792
:102DF80095FF204B187870B91F4A2B681168042B6F
:102E08000ADC08B111602B6013F003010BD11268C2
:102E180013681BBA136070BD0868043B00BA41F818
:102E2800040B0120EBE75B4203F0030358BF594250
:102E3800022904D1126813885BBA9BB2EAE7032916
:102E4800E9D1106802681104C2F3074302F47F4213
:102E580001F47F010B4313430360DCE7A25A00240B
:102E6800B4520024A45A0024C0520024B8520024AA
:102E78007C330408A35A0024BC5200242DE9F84FDF
:102E880000230C462A490646DFF8A88015460B6041
:102E9800DFF8A4902949DFF8A8B088F800300B6063
:102EA800012C2F4655F804AF1ED902224946504638
:102EB8003CF032FD80B99AF80220003A18BF01228E
:102EC80092442049022250463CF026FD30B90123A5
:102ED80088F80030013CE3E70022F1E74946504614
:102EE800FDF740FAA8B904370022786811462AF09D
:102EF8000BFE0022144B1146186078682AF004FE75
:102F0800124B134918603046FFF708FF0020BDE850
:102F1800F88F9AF800202D2AE6D19AF80120002A85
:102F2800E2D05246594630462CF0B0FAD2E700BFFC
:102F3800B4520024A35A002496330408B85200243B
:102F48009C33040899330408C0520024BC5200245E
:102F5800712D000807B50A483CF0AAF960B10423AE
:102F6800084A0749009301231268074800F012FF36
:102F7800002003B05DF804FB6FF01200F9E700BF12
:102F8800D4FD0308BC0904080406040810B5446805
:102F9800A360C4E9001242684021134653F8404B2D
:102FA800516302F1380153620023C2E90413082176
:102FB8001363C2F8B8301162C2E90A33C2E90633B2
:102FC800A36823B19B6C13B1044920469847A368B2
:102FD8009B6A0BB120469847002010BDE92F0008D6
:102FE8002DE9F34705460C4683685B6C03B19847A7
:102FF800AB685B6B73BB4FF0000904F1240704F165
:103008002808218E3846238D626B5B1A41469BB295
:10301800D31A934228BF134601AA2BF060FE8246BA
:10302800002844D0AB6801999B69002B33D0024635
:1030380028469847064688B33246414638464FF0F8
:1030480001092BF082FE5645DBD0D4E9013100207E
:10305800984703E0284698470028CCD1AB685B6ABC
:10306800002B37D1628B04F11007E38A04F11A08A8
:1030780038469B1A226A41469BB2934228BF1346A0
:1030880001AA2BF02CFE064658BB28462CF053F814
:10309800C4F8B86031E06FF05706CDE70246414604
:1030A80038462BF052FEB9F1000FD7D0CDE71748BC
:1030B800036813F0060F03D0154A02212BF07AFF9C
:1030C800AB689B69002BEED001220DF10301284665
:1030D8009847E8E7284698470028C3D102B0BDE8DA
:1030E800F087AB6801995B6963B102462846984747
:1030F8000246414638462BF028FE0120D4E901312A
:103108009847EBE76FF05702F3E700BF340300245A
:103118000335040810B581680446183101F080F9B8
:10312800A1682046024A1831BDE8104001F010B9E4
:103138004535040838B583680446D3F87832DB0788
:103148001DD4C0692CF0CEFF606803685B6898479F
:10315800054620B9E0682DF092F9A3681D75A368AB
:103168005B6C13B1294620469847A36800223CF0BF
:1031780077FCC3F89822034B185802F033F96FF024
:103188000F05ECE70800000001492CF05AB800BF11
:10319800402E04082DE9F04FA7B004465422002120
:1031A80011A83CF090FB00232046CDE90533A36825
:1031B800563302932CF06CFD20462CF0B1FC10B96C
:1031C8006069FFF7E1FFA06814220021002618308B
:1031D8004FF0FF383CF077FB20462CF0FCFBA16851
:1031E800E068B246B1F8502011AF5631B3463546C3
:1031F800B1462DF050F920462DF0DFF90396DDE9B0
:103208000532012A6CD0132B6DD8B8F1000F2BD1E1
:10321800BBF1000F0AD020462DF0F0F9A268142364
:1032280011A956320DEB03002CF054FAB9F1000F36
:103238000CD099F81130FE2B08D1059B26AA02EB79
:10324800830252F8542C0AB101330593A068059DF6
:10325800436A002B40F0B580C6B1C3699E422BD0AB
:1032680000F118050D9622E00223029A394606A8B5
:103278002CF030FA7A6806990346029231B1012996
:103288000AD148B1694A20462CF0B0FD6FF0070515
:10329800284627B0BDE8F08F059B002B32D0386850
:1032A80001F0F0F898B166B1A5680D9618350CAE26
:1032B8000FCE0FC533682B6020460125FFF72AFF84
:1032C800E6E75B4A012120462CF090FDDEE7059BEE
:1032D800C3B13A682946204601F078FA022809D194
:1032E800059B132B94D9069B022B91D1514B01219D
:1032F800514AC8E7032805D0059B4FF0010B01335D
:1033080005937CE7039B2BB907AA396848462CF03C
:10331800D8FA0546043708F1FF38A5B3EB68BBF1C6
:10332800000F08D0FBB120462CF0B2FC20462CF050
:103338000EFC424AC6E7B3B1A368AE46DDF814A056
:1033480003F1180CBEE80F00ACE80F00DEF80030FF
:10335800CCF80030AB6833B96B7CFE2B04BF95F812
:10336800108008F1FF38D5F804C0BCF1000F08D070
:10337800AE460CAEBEE80F000FC6DEF80030336074
:103388006646A94603E0059B63B101230393069BA8
:10339800B8F1000F02D1022B7FF431AF059B013346
:1033A80005932CE7A368DB6A13B1DB68002BECD12B
:1033B800234B0121234A20460093119B2CF016FD34
:1033C800E3E790F82830A5EB0A05BBB190F829107F
:1033D8004FF6FF72FF2918BF0A469D4202D31344D5
:1033E8009D420BD983690121174A20462CF0FEFC27
:1033F80020466FF01505FFF78DFE49E701212BF0F8
:1034080063FFA0682BF054FFA36811AA29465B6AE2
:10341800204602EB8A0298470546A0682BF04CFF2D
:103428000021A0682BF050FF32E700BF5335040895
:1034380067350408C8350408262D040885350408AE
:10344800B4350408B0380408EC350408F7B5044668
:1034580080680D46D0F878325A0705D500212BF040
:103468003EFFE0682CF0DDFFE368DB6873B9002DF0
:103478003BD0A66806F1560738462BF0EFFE002829
:1034880035D0394606F5AB70FCF776FFA2680DF12A
:1034980006032946E06856322CF0C6FF58B9A068E2
:1034A80000F5AB715630FCF767FFA06856302BF07B
:1034B800D5FEADF8060020462CF0E3FBA368D3F850
:1034C80074329B0603D50B4960692BF0BAFE20467F
:1034D80000F07AFDA268BDF806302046A2F8523006
:1034E800A268A2F850302CF032FB03B0F0BD86F889
:1034F8005601CBE7C007040810B5022283680446CA
:103508001A7583689B6CBBB92BF072FE8368D3F87D
:103518007832DB040BD50321084B094A2CF066FCF2
:10352800A0686FF4805100F51E702BF07BFE2046DA
:10353800BDE8104000F0CEBE10BD00BF073604083D
:10354800EC3004082DE9F04F04468068B1B0012141
:1035580000F51E702BF057FEA3681B7D022B20D1AF
:1035680000230993A36860689E6C03681D6909AB12
:103578000EB310221BA9A847099B93B10121A0688B
:103588002BF0A2FE099A1BA92046B0470021A0688B
:103598002BF09AFEA3689B6C002BE3D12046FFF723
:1035A800ABFFA0686FF0010100F51E7031B0BDE8F7
:1035B800F04F2BF037BE01220DF12301A847099BDC
:1035C800002BEED09DF923209DF82330002AA06817
:1035D800C8DB427D032A00F2F482DFE812F004001F
:1035E80075028C02F2020D2B67D00A2B43D0B0F87B
:1035F8007822092B6FF3CA02A0F8782272D029D852
:10360800002B00F00381082BA06800F0E981024636
:10361800D2F87412890740F1F980013B162B00F2A9
:10362800F580DFE813F0B702FA01FE01F601B102F6
:103638001002F300F300F300F30014021802F30081
:103648002D02F3003202F300F300F300F30034021A
:10365800F30049021B2BA06841D07F2B00F0CC81DE
:10366800A3F1200102465E29D2D801212BF037FEB2
:103678009DF82310B8E0D0F87822C2F3C7022AB127
:10368800D0F87822C2F3C7020A2AC0D1B0F878224B
:1036980063F3CA02A0F87822A568B5F85010C1B93A
:1036A80028462BF01CFEE0682CF0BBFE6069FFF793
:1036B8006BFD2046FFF720FF54E7D0F87822C2F3CD
:1036C800C702002AE2D0D0F87822C2F3C7020D2A36
:1036D800DBE72046FFF75EFDC5F89C02E9E701231A
:1036E800437593E0A068D0F874329B0740F18E8050
:1036F80001212BF0F4FDA068B0F85030FF2B00F04A
:103708008580B0F8522000F1560100F5AB70002515
:103718003CF0B1F8A3681BA90BA8B3F852201344D6
:1037280083F856511423A26802F5AB722BF0D2FF2E
:103738000B9914296AD830AB03EB810343F8545C26
:10374800A368B3F85220002A52D0134493F8553096
:10375800202B02D0093B042B4AD800294BD1002545
:103768000A9530AA0A9B002602EB8303B346B046AB
:1037780053F854AC374650462BF070FD814616AAD4
:103788003946284600F080FB0346002842D1012E26
:1037980068D130AA0A9B02EB830353F8540C2BF030
:1037A8005DFDA268064641461832284600F06CFBCB
:1037B800056828462BF052FD864205D0821BA919C0
:1037C800204692B22CF059FBA068B0F8523003445E
:1037D80093F85630202B34D0093B042B31D9D0F83C
:1037E8007432DF0732D42021204600F03BFD0DE083
:1037F8000129B4D9013900200CAB1BAA00930AABEC
:1038080001902CF08AF805460028AAD160692BF0AF
:10381800AEFEA7E61B684A465146184603933CF09D
:103828007BF860B9039B1846FCF7AEFD584538BFD6
:103838005846002E08BFB84601361FFA80FB0137EC
:103848009DE7012120462CF0B6F9DFE700212BF097
:1038580050FD2021204600F005FD0121A0682BF035
:1038680048FDD3E70490D1D930AB0A9AC14603EB9F
:10387800820252F8543C184603932BF0EFFC049B49
:10388800A2680590A2F840300496A26849462846E6
:1038980009F10109183200F0F7FA039BD0F800A0EB
:1038A8004BB1BAF1000F06D0059A194650463CF0C4
:1038B80033F80028E9D1A168BAF1000F4ED1A1F878
:1038C80040A0049B013B0493DFD1606908F1010A21
:1038D800FFF75AFC204600F0FDFC30AA0A9B02EBD9
:1038E800830353F8540C2BF0B9FC414611AA8146C6
:1038F800284600F0C9FA0746A068FF22396800F593
:10390800AB703CF01BF83B684FF6FF770393B84663
:1039180016AA514628460AF1010B00F0B5FA00280C
:1039280052D0A1680022036801F2551111F801EF85
:10393800985C704503D110B101324245F6D1B9F116
:10394800000F01D04A4507DBBA4206F1FF36A8BF8F
:103958003A46012E97B237D0DA46D9E79A48069107
:103968002BF07CFC069900EB0B074A8FBFB207913E
:10397800121A504692FBF7F292B206922BF06EFCA6
:1039880007993F1A069AB1F84000BFB200F1010C3E
:10399800A1F840C0B0FBF2F102FB110080B260B99F
:1039A800894B0621894A2046CDF800A02CF01EFA42
:1039B8003946204600F0F2FA83E75346844A062146
:1039C80020462CF013FAF3E7002F3FF41FAFA7EBC4
:1039D80009020399204692B249442CF04EFA15E7A1
:1039E800D0F874329E077FF511AF01212BF077FCD8
:1039F80020462CF063FA09E7D0F874329D077FF56A
:103A080005AF01212BF06BFCA368D3F874321807BB
:103A1800EED420462CF033FAF8E620462CF041F993
:103A2800F4E620462CF034F920462CF079F810B949
:103A38006069FFF7A9FBA06801212BF050FC204624
:103A4800FFF75AFDE2E620462CF034F9DEE6204680
:103A58002CF03BF9DAE6D2F874329F0603D55D49BB
:103A680060692BF0EEFBA368D3F874329E0603D589
:103A7800594960692BF0E5FB204600F02BFCC5E6B0
:103A880000212046FFF7E2FCC0E60121F9E72046C5
:103A98002CF0F7F820462BF0ABFB0121A0682BF0A7
:103AA8001EFCA368D3F874329D067FF5AFAE4B4970
:103AB80060692BF0C6FBA9E6204600F0FFFA012159
:103AC800A0682BF00CFCA1E65B2B01D1022307E6D2
:103AD800D0F87422900706D5622B08D14FF0FF3139
:103AE80020462CF090F8A36800225A758EE6662BC3
:103AF800F9D10121F4E700224275A268D2F87412C4
:103B080089077FF52FAD313B1B2B3FF67FAE01A117
:103B180051F823F0993B0008A53B0008B93B000881
:103B28008D3B0008153800081538000815380008BE
:103B38001538000815380008153800081538000829
:103B48001538000815380008153800081538000819
:103B580015380008933A0008893A00084F3A0008D7
:103B6800233A000815380008913B0008153800086A
:103B78009D3B00081538000815380008153800085E
:103B8800A93B00080323537520462CF081F83DE635
:103B98000323537520462CF074F837E60323537536
:103BA800A068D0F8741201F0010181F0010156E615
:103BB80003235375A368D3F874329B077FF526AEA9
:103BC80027E700238CE500BF962A04084B36040833
:103BD800EC300408C5070408CA070408C00704082D
:103BE8002DE9F34104468068154600F51E7000294A
:103BF8003AD04FF480412BF006FBA3680021DD6426
:103C0800606803689B68984798BB20462BF0AFFB19
:103C180078BB4FF0FF364FF0FF37174DDFF85C8069
:103C2800A06800F51F7000220721CDE900673BF06E
:103C380017FEA0682BF040FB2A46042120462BF0F3
:103C48007AFB4246012120462BF075FB20460C4AA0
:103C580002212BF070FB606803685B6903B1984729
:103C6800A0682BF025FBDBE76FF480412BF0DAFA34
:103C7800C3E702B0BDE8F0813D3100084D350008CA
:103C880071F2020810B504460A492BF0FFFB0A49F5
:103C980020462BF0FBFB204608492BF0F7FB20467B
:103CA80007492BF0F3FB2046064A002100F050FBA1
:103CB800002010BD513604088F360408EE3604087B
:103CC80042370408DC370408F8B51E4617460A468A
:103CD800294904462BF0DAFB3EB301253A782749F7
:103CE80020462BF0D3FB6A0703D1254920462BF049
:103CF800CDFBAE421ED97A5D204620492BF0C6FB8B
:103D08000135102DEFD11F4920462BF0BFFBB6B966
:103D180001251B4920462BF0B9FBAE422B4610D893
:103D2800174920462BF0B2FB15E00125164920461D
:103D38002BF0ACFB144920462BF0A8FBE0E700254C
:103D48002B46FA5C20461149A2F120035F2B28BFBD
:103D58002E222BF09BFB0135102D06D06B07DCD1F2
:103D6800074920462BF092FBD7E720460849BDE8D3
:103D7800F8402BF08BBB00BFF23704088F2A0408E9
:103D8800972A0408992A0408952A04081938040867
:103D9800F93704082DE9F0410446806888B0884660
:103DA800D0F8986215461F46002E52D14FF428725B
:103DB80031463BF088FDE0682CF0E5FBA06800F593
:103DC8001F703BF041FDA06800F52270012266F3E8
:103DD800820511463BF0C2FAA36902211E60A06861
:103DE80000F51E702BF00FFAA368502220465A8760
:103DF8001822A3681A8721682BF072FBA368164A59
:103E08004146C3F87452606803681D682346A84792
:103E18000546D0B9A36801221A75D4E90A0100221F
:103E2800002304950094CDE906230E234FF4006285
:103E380003930E9BCDE90173084B28F02DFEA36870
:103E4800C3F89802616A28F057FD284608B0BDE813
:103E5800F0816FF07705F8E72BF30208E93B0008DB
:103E680010B5044613460A460146064801F0B4FD5B
:103E780023691B7923B12046BDE810402BF077BB9E
:103E880010BD00BF8FF5020838B50B46154648B976
:103E98001449154A521AB3EB920F05D251F8235020
:103EA800284638BD84680CB90025F9E70F4A9442C2
:103EB8000AD30F4A944207D21846226829469047E7
:103EC8002B68002BECD1EFE70A4A944202D30A4A46
:103ED800944205D3246814225343E518E358F0E7C5
:103EE8000133F8E734060408640604087C0704086C
:103EF80084070408640604087C070408F7B50378F7
:103F0800044616462D2B05D16FF0150300203360AB
:103F180003B0F0BD00230C4F3BF0A2FD0546C35192
:103F28000A46204601A929F0EFFDEB59222B02D1C0
:103F38006FF02103EAE7002BE6D1019BA342E3D00F
:103F48001B78002BE4D0DFE70C0000008368D3F86F
:103F580074329B0603D5024940692BF0C2BD7047F5
:103F6800D007040801492BF0BCBD00BF402E04084F
:103F78000A1E0DDC0ED042238168D1F8741289061E
:103F880008D5002A04494069B8BF52422BF0A9BDA0
:103F98004123F1E7704700BF153804080A1E0DDCFD
:103FA8000ED044238168D1F87412890608D5002AF6
:103FB80004494069B8BF52422BF093BD4323F1E74F
:103FC800704700BF153804082DE9F0478568044696
:103FD800DFF8649005F15600FCF7D6F9002386B2A5
:103FE80095F83C709846A268558FED1BB54209DBE1
:103FF800002E1FDD5633606910491A44BDE8F047AA
:104008002BF06FBD1D44563349462A4492F856A0FA
:1040180082F85680A26860691A442BF062FDA36892
:104028002B4483F856A0A3685B8FDB1B0027F61A86
:104038002B46D8E7BDE8F087262D0408EC300408A5
:1040480008290A4617D8836893F83E10914212D07F
:1040580083F83E20082A8368D3F8743205D099067D
:1040680009D5054940692BF03CBD9B0603D503499A
:1040780040692BF036BD70471C380408D507040882
:1040880038B50D4609780446FFF7DAFF6A78072A3B
:1040980011D8A36893F83F1091420CD083F83F20C1
:1040A800A368D3F874329B0605D560690249BDE858
:1040B80038402BF016BD38BD25380408F8B583689C
:1040C8000446B3F85020002A55D0B3F852100029FE
:1040D80051D0553103F156050B441846A84206D372
:1040E800014611F80169202E3CD0A8423CD286B284
:1040F800471C9DB2AB1B9BB2591CD21A01443846CF
:104108003BF0C7FBA268711B2046B2F8503013FA87
:1041180081F309B2A2F85030A368B3F850201344D1
:10412800002283F856202BF046FDA368D3F874329A
:104138009A0603D5104960692BF0D3FC3B460F4A19
:10414800082120462BF052FE2046FFF7FFFEA36809
:10415800D3F874329B060ED560690949BDE8F8406A
:104168002BF0BFBC0846B9E7014611F80169202EBB
:10417800BDD00846B9E7F8BDDA070408EC300408F2
:10418800DE0704082DE9F84F04460F4690460AB1A9
:10419800FFF7DCFEA668D6F87432B6F852505B0713
:1041A80024D505F1560030442B4EFCF7EDF80546B2
:1041B800B5B9A368B3F85020A3F85220A0682BF033
:1041C8009DFC30B1B8F1000F00D017B16069FFF75E
:1041D800C9FE7942204609B2BDE8F84F2BF0EBBC86
:1041E80031466069013D2BF07CFCE1E73046AA4688
:1041F800FCF7CAF8B6F85090738F19FA80F915FAD7
:1042080080F0B0FBF3F2B9FBF3F39A421BD0134DE5
:104218004845A368CDDA5A8F461CB0FBF2F302FB7F
:10422800130313B96069FFF79DFEA3680AF1010B38
:1042380020462A4653440821DA4693F856302BF094
:10424800D5FD3046E4E75635054A0821204673195E
:104258002BF0CCFDADE700BF9744040819380408DB
:10426800EC30040813B5836804468DF80710D3F8BA
:104278007422D00725D5B3F85210B3F850208A42DB
:104288001FD0481C9DF80720A3F852000B4483F860
:104298005620A368D3F87412890710D5D3F874325E
:1042A800606913F0040F0A4918BF2A222BF019FC81
:1042B80020462BF035FC10B16069FFF753FE02B0C1
:1042C80010BD01220DF1070120462BF09CFDF6E7F9
:1042D8001938040810B504468368094A02212BF0EE
:1042E80085FDA368D3F874329B0707D52046FFF7EE
:1042F8006BFE2046BDE810402BF038BC10BD00BF57
:10430800EC30040801492BF062BF00BF402E0408BE
:10431800F8B50F465168044615461E4611B11A46AF
:104328002BF062FFAB6883B131462046FFF736FEBB
:1043380020463B46054A08212BF058FDF21DA96886
:104348002046BDE8F8402BF04FBFF8BD2E380408D2
:104358002DE9F04F0F46002189B0044616460D4658
:1043680003AA384601F10108FFF78EFDA8B98DB1FF
:1043780026B13246082120462BF038FD0021DFF80F
:104388009090DFF890B003AA384601F1010AFFF7D0
:104398007BFD60B909B0BDE8F08F006810B1FBF78C
:1043A800F3FF80B28542414638BF0546D8E7D0F8CA
:1043B8000080B8F1000F0FD098F8003063B146685C
:1043C8004B46154A08212046CDE900582BF00EFD32
:1043D80026B96069FFF796FF5146D4E74B465A461F
:1043E800082120462BF002FDAB1DB2079BB209D174
:1043F80031680A4A914205D1324641462046FFF7C4
:1044080087FFE9E71A46314620462BF0EDFEE3E741
:104418004E3804088A2A040839380408C40BD2869E
:10442800F7B50F6805460E46EFB13846FBF7ACFF07
:1044380084B2114B0821114A284600933B462BF0C1
:10444800D5FCE31C71689BB279B18A070DD1086865
:104458000B4A904209D10A462846316803B0BDE8A4
:10446800F040FFF755BF3C46E3E71A46284603B03D
:10447800BDE8F0402BF0B8BE4A3804084C360408B2
:10448800C40BD28610B507490446FBF76BFF38B159
:1044980005492046FBF766FFB0FA80F0400910BDD9
:1044A8000120FCE7403804084338040810B5836845
:1044B8000446D3F874329B0603D5064940692BF0AD
:1044C80003FFA368502200205A871822A3681A877E
:1044D80010BD00BFE207040808B5836902491A68DD
:1044E8002AF0D4FF002008BD513804082DE9F34113
:1044F8000E4905460E4C2AF0C9FF0E4E0022DFF881
:104508003880B44202F1010703D3002002B0BDE8AD
:10451800F081636A92B2414628460093303454F8D9
:10452800283C2AF0B3FF3A46EBE700BF613804089D
:10453800040604083406040879380408024908B552
:104548002AF0CEFF002008BD412E040873B50446AA
:1045580000250D4EA2680DF106030121E06802F561
:10456800AB722BF061FFBDF80600A36840B12A4684
:1045780003F5AB733146204601352AF087FFE9E79A
:1045880083F8560102B070BD8A38040810B5044695
:104598002AF0DFFF0349024620462AF077FF002071
:1045A80010BD00BF92330408022907B50BD1536828
:1045B8000C4900930C4B12682AF084FF6FF0150029
:1045C80003B05DF804FB8368084AD3F874320849DD
:1045D80013F0020F074B18BF1A462AF057FF0020A6
:1045E800EEE700BFAD38040898380408943804088A
:1045F800B6380408542C040810B583680446D3F868
:1046080074329A0603D5074940692BF05DFEA3680A
:10461800D3F874329B0603D5034960692BF054FE26
:10462800002010BDE9070408EE0704080129F0B5C9
:10463800044685B00AD053685E4900935E4B126801
:104648002AF040FF6FF0150005B0F0BD8368D3F87D
:104658007432990603D5594940692BF035FE6FF03D
:10466800F9012046FFF784FCFA2120460025FFF7D0
:1046780095FCA0684FF48072294600F5AB708DF860
:104688000B504FF47A763BF01EF94D4960692BF0D8
:104698001BFE60692AF06BFF606801220DF10B01B7
:1046A80003681F6903ABB847039BEBB9013E4FF49E
:1046B8007A703AF0EDFDB6B2002EEDD1A368D3F8CA
:1046C80074329B0603D53F4960692BF0FDFDA36852
:1046D800502220463C495A871822A3681A872AF094
:1046E800E3FE6FF00700AFE79DF80B20A3681B2AD5
:1046F80052D093F856111B29CED1522A4CD15A19AF
:10470800002382F85631A66896F857215B2A2AD1E9
:1047180006F25710022510F8011F2A4601353B29D9
:10472800ADB223D1FF2AC9D002F5AB7216FA82F1D5
:10473800002211F8010F18BBFA2A86F85601A16861
:1047480028BFFA22FA2B4A8728BFFA23A2681387C0
:10475800A368D3F874329A0603D51A4960692BF016
:10476800B3FD002070E786F85631A7E703EB830313
:104778003039B5F5807F01EB43018BB2CBD19DE792
:10478800013502EB82023038ADB200EB4200B5F5DC
:10479800807F82B2CDD191E72B440135ADB283F849
:1047A8005621092D7FF678AFA368002283F8562199
:1047B80084E700BFAD38040898380408F4070408F3
:1047C80001390408F8070408C73804082DE9F04F30
:1047D800074689B01546894621B110462BF0D9FE07
:1047E80000285BD1032455E05C463CE029460AF5E5
:1047F800AB703BF0BFF80646002854D0FBF7C4FD69
:10480800314682B2601C08F10108013230443BF0A5
:1048180040F82246594630463BF02DF84FF0200329
:104828003355BAF8543001331C44AAF854400024D4
:1048380001994B1C03AA48460193FFF725FB06463E
:10484800E8B10022316828462CF0B0F80028EFD1F2
:10485800D6F800B0D7F808A0BBF1000FC4D058466E
:10486800FBF792FD84B2BAF854302344FF2BBDDD28
:1048780001242B460D4A032138462BF0B7FAB8F12C
:10488800000F07D0B8682A4600F1540100F5AB7054
:104898002AF0F0FF204609B0BDE8F08F4FF000087D
:1048A80002244146C5E70224E9E700BFC93D0408E0
:1048B800F8B504690B464668906A04F12401C507F7
:1048C8000BD4444803685C0703D0434A01212AF00B
:1048D80071FB6FF085052846F8BD636205234FF428
:1048E800007CA362936A98074FF0000056BF83F0DC
:1048F80004030223C3F3800323635368636340F60E
:10490800FF73C4E90E03D4E9275013696B43B3FB63
:10491800F0F3E364D3686B43B3FBF0F323651769E3
:1049280053683B44D7683B4497683B444FF400675F
:104938006B434FF40055B3FBF0F363652046136AED
:10494800A365D369E3659369236653696366936ACC
:10495800C3F3C023DB03A3664FF48053C4E91D539C
:104968004FF48063C4E91F734FF48073C4E921C313
:1049780003F0D6FC054648B116480368590703D02A
:104988002A4616492BF08CFE6D42A4E720462CF0EF
:10499800D9FF0746054648B10E4803685A0703D0B1
:1049A8003A460F492BF07CFE7D4294E7326B002A91
:1049B80091DB014620462DF0DDF8044600288AD018
:1049C800044803685B0703D0224606492BF068FEBB
:1049D800654280E7E80200241B3E04083E3E0408C6
:1049E800603E04087C3E04087FB5144612780D46E4
:1049F8000069152A35D017D8062A1BD00BD8032AE8
:104A08000BD0052A2DD028480368590747D16FF0E5
:104A1800850004B070BD132AF5D1A668E168012E9F
:104A28000B7832D1497821E0292A33D0392A24D089
:104A3800232AF1E7656902952379CDE900232A46FF
:104A480023692DF018F802462069002AE1D016489B
:104A580003685B0702D015492BF022FE6FF00400B3
:104A6800D7E7A168237909B1E16809780091294657
:104A78002CF08FFF0246A068E7E7E36801932379EB
:104A88000093A3682CF096FFF4E78CBFB1F80110EF
:104A98000021EBE7E3685D1C01951B78F0E704490A
:104AA8002BF0FEFDB3E700BFE8020024C33E040874
:104AB800A53E040873B54568064628683AF0F8FB31
:104AC80060B97F4803685A0703D07E4A01212AF05B
:104AD80071FA6FF01204204602B070BD294651F8F1
:104AE8000C0B83681B685BB19847041E0BDA74488B
:104AF80003685B07EFD0224673492BF0D1FDEAE744
:104B08006FF05704F3E7D5E901018368DB6803B167
:104B18009847756836696A6A012A0BD0022A2FD02D
:104B2800674803685E0702D068492BF0B9FD6FF04B
:104B3800850431E000232946F36006F1A00251F80C
:104B48001C0B8368DB68EBB198470446E0B9D6F8DC
:104B5800A0304FF47A722946B3FBF2F3C6F8A030BE
:104B680051F8140B8368DB68EBB101AA9847044637
:104B7800E0B15348036859070ED02246544909E06A
:104B88000123D8E76FF057044D4803685D0703D049
:104B9800224650492BF084FD494803685B079AD0A8
:104BA80022464D49A9E76FF05704E2E7D6F894206A
:104BB800019B4A49B060B3FBF2F3D6F89020534307
:104BC800D6F8982023F00043D3404FF4FA52B3FBB1
:104BD800F2F28B42C6F89C2026D9022344F62060C4
:104BE8000133092B09D13648036813F0060F0AD0A0
:104BF8003B4A02212AF0DEF905E0B2FBF3F48442D5
:104C08001946EDD8B16006F19001304603F082FAFA
:104C1800044658B12A4803685A0703D02246314946
:104C28002BF03EFD6442B7E70221EBE7F16959B189
:104C3800304603F0A7FC044630B1214803685B07FF
:104C4800F0D022462849EBE7316A59B130462CF0BA
:104C580036FE044630B11A4803685E07E2D02246A1
:104C68002249DDE7042130462CF015FE044630B118
:104C7800134803685D07D5D022461D49D0E7E96A85
:104C880059B130462CF093FF044630B10C48036804
:104C98005907C7D022461749C2E7A96A30462CF0FF
:104CA8008AFD0546044600283FF415AF044803680A
:104CB8005A0703D02A4610492BF0F2FC6C426BE7E6
:104CC800E8020024D93E0408F83E0408213F0408FD
:104CD800663F0408493F0408664004087F0E131322
:104CE800813F04089F3F0408B53F0408D83F0408E3
:104CF800F93F04081D400408414004082DE9F84321
:104D0800054600AF0C46002948D0DFF8B890D9F81E
:104D180000305A0742D06E468AB0A3686A46D1E985
:104D28000001DFF8A4C04FF00508C2E905C0C2E9D8
:104D3800071342F8108F00234FF421514846FDF71E
:104D48005BF8D9F80030B5465B0727D08AB06369AD
:104D5800D4E903016A46DFF874C0C2E90713C2E95F
:104D680005C042F8108F002348464FF42151FDF743
:104D780043F8D9F80030B54658070FD0E369012148
:104D8800134A48462AF01FF9D9F80030590705D0C8
:104D9800A369104A012148462AF015F9012D0AD1C4
:104DA800EFF3058307480268520704D00A4A103B0C
:104DB80029462AF008F92146284627F0FDF8BD467D
:104DC800BDE8F8832C030024AD400408DC40040847
:104DD8000B4104081A4104084841040830BFFFF792
:104DE800FDBF00BF2DE9F0410B4E0546DFF82C80D2
:104DF800324606EB0807CC1B094920463AF03BFD32
:104E0800A019083C424600213AF05DFD07F1080070
:104E1800C5F8B440BDE8F0810000000008000000BB
:104E280084070408054B5A699B689A4204D0044ACF
:104E3800536843F080535360704700BF605A0024A2
:104E480000ED00E0F8B5374C06460D4623685B07D1
:104E580003D0354920462BF033FC344B9B6ADF04E2
:104E680051D52368580703D031492E482BF028FC28
:104E780017202E4B9B6A190507D523685A0703D0BC
:104E88002C4928482BF01CFC1820284FBB6A9B058E
:104E980019D52368580703D0274922482BF010FC5E
:104EA800BB6BBA6A11040DD52268520704D0234A95
:104EB80001211C482AF087F826B11C4A936A23F47A
:104EC800004393621920194B9B6A5B0507D5236839
:104ED8005F0703D01A4913482BF0F2FB1A20134B33
:104EE8009A6AD60511D52368590703D015490D4884
:104EF8002BF0E6FB1B200D4A936A43F47F43936231
:104F080000232B70F8BD1620B3E79B6A9A04F2D5EC
:104F180023685B0703D00C4902482BF0D1FB1C2007
:104F2800E9E700BF2C0300245B41040800ED00E022
:104F3800714104088241040895410408AE410408FF
:104F4800C3410408DE410408F641040810B52D4C9D
:104F580023685A0703D02C4920462BF0B1FB2B4B72
:104F68009B6A9B014BD52368580703D028492548DD
:104F78002BF0A6FB1E20254B9B6AD90107D5236879
:104F88005A0703D023491F482BF09AFB1F201F4BB9
:104F98009B6A1B0307D52368580703D01E49194885
:104FA8002BF08EFB2120194B9B6A590307D52368E8
:104FB8005A0703D0194913482BF082FB2220134BC0
:104FC8009B6A9B0307D52368590703D014490D48EA
:104FD8002BF076FB23200D4B9B6ADA0307D5236859
:104FE8005B0703D00F4907482BF06AFB2420074AC8
:104FF800936A6FEA03436FEA1343936210BD1D205F
:10500800B9E700BF2C0300242542040800ED00E0A6
:105018003D420408504204086A42040888420408D1
:10502800AD420408C74204082DE9F047454D8946BA
:10503800804617462B68590703D0434928462BF06A
:105048003FFB424B9B6ADA0639D52B685B0703D0D6
:105058003F493C482BF034FB11243C4B9B6A1E070C
:1050680007D52B68580703D03A4936482BF028FB58
:105078001224DFF8D8A0DAF82830990721D52B6850
:105088005A0703D034492F482BF01AFBDAF834605A
:10509800DAF828301B0651D52B685C0705D02F4A53
:1050A80033460121274829F08EFFB9F1000F04D0BB
:1050B800264A936A23F080039362132403E01024A2
:1050C800CBE76FF01506214B9B6AD80707D52B68ED
:1050D800590703D022491B482BF0F2FA14241B4B22
:1050E8009B6A9A0607D52B685B0703D01D491548AC
:1050F8002BF0E6FA1524154B9A6AD50602D49A6A5B
:1051080090070AD55B68190507D54146304600F077
:105118002BFA10B180F3098802240C4B9A6A920684
:1051280003D55A6A22F400525A629A6A204642F01B
:10513800FF029A6200233B70BDE8F0876FF0150606
:10514800BBE700BF2C030024F242040800ED00E096
:1051580008430408824104083B43040853430408F5
:1051680069430408F64104082DE9F041744B8AB0FC
:1051780004460025D3F8048000AFC8F3080685F379
:105188001188BFF36F8F02F07F43B3F17F4F0AD1CD
:1051980002F00C03082B15D16A480368590702D09E
:1051A80069492BF08DFA00252C460023FB71F31E6C
:1051B800092B00F2A080DFE803F00A92958E9E9EEC
:1051C8009E9E9E9812074CBF0C460125EDE75D4E4A
:1051D80033685B0703D05D4930462BF071FA002332
:1051E800FB71574BDA6A900708D53368590703D023
:1051F800574954482BF064FA00233CE0DA6A002A45
:1052080004DA33685A07F7D05249F2E7DB6A5B00E1
:10521800F2D53368580703D04F494A482BF050FA63
:10522800474BA1695A6942F480725A61BFF34F8FA4
:10523800BFF36F8F5A6931F8021C22F480725A61E9
:10524800BFF34F8FBFF36F8F4DF60272914208D0B4
:105258009A6AD2B292B3FA1D01212046FFF7E4FE02
:105268003BE03368590705D023683C4A012135489B
:1052780029F0A9FE2368FA79E2B907F1080604F1D2
:10528800200C2068083454F8041C3246644503C2D4
:105298001646F6D17A6A002D4DD0C2F3080121B91D
:1052A8006FEA52226FEA42227A6207F10801184631
:1052B800FFF724FD2837BD46BDE8F0819A6A12F44D
:1052C8007F4F04D0F91D0120FFF7BCFD05E09B6A64
:1052D800B3F5803F90D3FFF739FE0346CBE7FA1DBD
:1052E8000021BAE7F91D0020EEE7164803685A07BF
:1052F80082D01B497EE7134803685B073FF47CAF05
:1053080018F4F87F174AE8468AB0174B18BF1346B7
:105318006A461649103EC2E905134FF40073D66178
:105328001384134B42F8103F00234FF41151FCF73C
:1053380063FDC54660E722F4FF7222F00102B3E77D
:1053480000ED00E02C030024B6430408E143040800
:10535800F843040819440408274404084644040888
:10536800624404089D4304088843040886440408EA
:1053780004000001044B5A6942F010025A615A694C
:1053880022F008025A61704700ED00E0EFF3088050
:10539800EFF3098101B57246FFF7E6FE01BD00BFD4
:1053A8000E4880F30888102080F311880C484FF0CD
:1053B800AA014FF4046239F0A5FF09484FF40461CB
:1053C800401880F30988EFF314800221084380F322
:1053D8001488BFF36F8F00F091F80000009100244B
:1053E80040770024084B9B6883420BD1EFF3058379
:1053F80043B1064B5A6842F080525A605A6A22F406
:1054080000425A6227F038BE605A002400ED00E0DE
:1054180015498A684FF030001044EFF3098C80E892
:10542800F01F102080F31288BFF36F8F0F4F4FF0DB
:1054380000664A698A603E60D2F8B4000C4C20606D
:10544800D2F8B8000023C2F8B83080F3118804B548
:10545800104600F051F9BDE8044002F1300090E830
:10546800F01F8CF309887047605A002404ED00E0AF
:10547800BC5500241EF0040F0CBFEFF30880EFF3B7
:105488000980816911F8021C0229FFD001B5724612
:105498002BF00BF901BD00BF00B2002807DB012388
:1054A800410900F01F00024A834042F8213070474A
:1054B80000E100E000B2013100284FEA0111C9B251
:1054C80006DB00F1604000F5614080F8001370478A
:1054D80000F00F00014B1954704700BF14ED00E0B5
:1054E800044B054A23F07F039360BFF34F8FBFF34C
:1054F8006F8F70470000000800ED00E008B5FFF767
:10550800EFFF0C4AD2F8883023F47003C2F88830D1
:10551800EFF3148323F0040383F31488BFF36F8F2E
:1055280026F04AFE27F044FF00F05CF82BF0E7F87D
:1055380026F08AFE00ED00E042F8203C203A009B6D
:1055480008495360019B21F001019360029B91611E
:10555800D3604FF08073D36100230265C0F8B83080
:10556800704700BFE11400080A4A0346906878B102
:1055780013F1160FD0F8A40005D0A0F140029A420A
:1055880005D8834203D2814228BF002070470020FB
:10559800704700BF605A002415460D4A0E4608B5EC
:1055A8000C4B9060D0F8B4201A6000F0A5F82C4697
:1055B80086F309880020044B9847204600210022E2
:1055C8000023024C20470000DF060308E11400080E
:1055D800605A0024BC550024014B10221A61704700
:1055E80000ED00E0002304481021C2180133962B77
:1055F80082F80013F9D1704700E100E008B5EFF335
:105608000583064A103B02EBC30152F83300496890
:105618008847BDE80840FFF705BC00BFF4FE030853
:10562800154A70B5536913F4803323D1C2F8843016
:10563800BFF34F8FD2F8803043F6E074C3F3C9004C
:10564800C3F34E335B0103EA0406014646EA81755B
:105658000139C2F86052F9D2203B13F1200FF2D180
:10566800BFF34F8F536943F480335361BFF34F8FB8
:10567800BFF36F8F70BD00BF00ED00E0002910DDA3
:1056880000F01F030B44BFF34F8F07490344C1F8D1
:10569800680220301A1A002AF9DCBFF34F8FBFF3D3
:1056A8006F8F0020704700BF00ED00E00B4B5A6978
:1056B80012F4003211D1BFF34F8FBFF36F8FC3F8CD
:1056C8005022BFF34F8FBFF36F8F5A6942F40032F5
:1056D8005A61BFF34F8FBFF36F8F704700ED00E043
:1056E800024B0121024A034800F092B80000082446
:1056F80000000024640D0408D0F8A4204021054BC4
:10570800403A18461A60044AC3E90112012100F020
:1057180089B800BFC055002400000B1508B5034622
:105728001148D0F89020C2F30722013A93420AD9CF
:105738000E480268520703D00D4A012129F043FCA4
:105748006FF0150008BDC0F898300A6822F01F02F3
:105758001A4342F01002C0F89C208A6842F0010205
:10576800C0F8A0201846EDE700ED00E0240300246F
:105778009D440408F0B50E4685B01F460446002532
:10578800B54210DA606828B3AFB1431E18420DD095
:10579800124803685B0704D0114A2B46012129F0FF
:1057A80012FC6FF01502104605B0F0BD1F28EFD9A6
:1057B80021680B42ECD1236801A901932AF0A0FFCC
:1057C800A3680343D0B20393FFF7A8FF10F1160FA5
:1057D800E7D0421C01350C34D2E700BF2403002473
:1057E800C3440408044B0522C3F89420BFF34F8F29
:1057F800BFF36F8F704700BF00ED00E0BFF35F8F0E
:10580800024B0022C3F89420704700BF00ED00E06F
:1058180010B5034C01232278FFF7ACFF207010BDB0
:10582800C45A00240B4A08B500231278FFF7A2FFD8
:1058380010F1160F07D0084A0021D2F89030C3F3B0
:105848000723984200DB08BDC2F898000130C2F86F
:10585800A010F2E7C45A002400ED00E05848594966
:105868002DE9F043D0F8903085B00D68C3F30723D5
:105878009D4200F2A180FFF7C1FF496800229542CE
:1058880001F10C011AD1504C6846504F2570FCF7B5
:105898006BFD00250646DFF83881DFF83891AE4207
:1058A8001FD1237800204649D1F89020C2F307225F
:1058B80093427BDB0020FFF795FF4CE0C0F898206F
:1058C80051F80C3C23F01F031343013243F010033B
:1058D800C0F89C3051F8043C43F00103C0F8A030F4
:1058E800CDE700984FEA051C00EB0511CB683B405B
:1058F800B3F5000F44D00AD8B3F5001F2ED0B3F586
:10590800800F34D0B3F5801F10D00135C7E7B3F14D
:10591800807F3ED0B3F1007FF7D150F80C30886813
:105928002AF0EEFE4A6840F4802009E050F80C3076
:1059380088682AF0E5FE40F088504A6840F4302034
:10594800039001A92078CDE90123FFF7E7FE00289D
:1059580028DA6FF0150005B0BDE8F08350F80C3078
:1059680088682AF0CDFE4A6840EA0800E8E750F85F
:105978000C3088682AF0C4FE4A6840EA0900DFE76C
:1059880050F80C3088682AF0BBFE4A6840F08270F4
:10599800D6E750F80C3088682AF0B2FE4A6840F022
:1059A8008870CDE7237801332370AEE7C1F89830CB
:1059B8000133C1F8A00077E74FF0FF30CBE700BF15
:1059C80000ED00E000080408C45A00240000F0FFBD
:1059D8000000081100000206F0B587B007460E4621
:1059E80014460021102268461D4639F06CFF022338
:1059F8002A4621468DF802306846044BCDE90476E4
:105A0800019328F0E7F807B0F0BD00BF29070308A5
:105A180008B5024B1B689847002008BDCC550024E8
:105A2800034B044A1860937843F00203937070475D
:105A3800CC550024E00000240649074821F007015E
:105A4800C1F1105208B502F5002228F0E0FD00204F
:105A580008BD00BF6F9C0124D055002408B500F094
:105A6800B7F80A4901220023416109490361C0E9E5
:105A780000220A6007490A60074A1360074A136050
:105A8800074AC0E90233136008BD00BF412E04086D
:105A98000C01002408010024E4550024E0550024EA
:105AA800DC5500242DE9F04107460E46154600F066
:105AB8008FF8C36804461BB943691A78002A41D194
:105AC8000023E3606368BB4256F8232008DB324BAF
:105AD8006361204600F062F84FF0FF30BDE8F081C6
:105AE800511C616192F80080B8F12D0FEFD1911C23
:105AF800616151782D29A16004D192786AB9013386
:105B08006360E4E749B9244B41462846636139F0AC
:105B1800F6FE0028DDD0C4F80880D4F808802846AE
:105B2800414639F0ECFEB8F13A0F636900D070B91C
:105B38001B7813B9636801336360204600F02EF8C0
:105B48003F20CBE75A1C42611B788360E5E7427827
:105B58003A2A0BD0002222611B7813B963680133FB
:105B68006360204600F01AF8A068B7E71878626802
:105B7800094928B901329742626004DD56F822309B
:105B8800C4E90431EAE7616120462D783A2DD5D180
:105B980000F004F82846A1E7412E04080268074BE4
:105BA8001A604268064B1A608268064B1A60C2681F
:105BB800054B1A600269054B1A6070470C010024F6
:105BC80008010024E4550024E0550024DC55002495
:105BD80000487047F0000024F0B5134E85B0134F0D
:105BE800134D4FF0FF334FF0FF3201A9304626F036
:105BF800FBFB0346A8B12A685207F2D00D4A0121DF
:105C0800284629F0E0F9ECE7236813B1019A93429A
:105C180003D101A8D4E9013198470C34BC42F3D32D
:105C2800DFE7054CFAE700BF8003002404060408F8
:105C38000C030024ED440408F8050408F0B585B009
:105C480017461E4601909DF828008DF809108DF81A
:105C58000800ADF80A700396DDE90C5423462C437E
:105C68002A460AD00F4939F0FBFE08580E49D1F8E8
:105C7800C010884204BF002213460C4801A939F01D
:105C880066FB041E0BDA0A48036813F0060F03D0FC
:105C9800084A022129F08EF9204605B0F0BD0024FB
:105CA800FAE700BF08000000D05000248003002459
:105CB8000C03002402450408044B03EB40000023B6
:105CC800013320F8022B9942FADC70475402002471
:105CD8002DE9F84306464FF00009114F4FF001082F
:105CE800347854FA89F5284600F038F970B1284616
