:020000040800F2
:1000000040C10024312B00084DDA01081D2B0008E7
:100010001D2B00081D2B00081D2B000800000000F0
:10002000000000000000000000000000F12B0008AC
:100030001D2B000800000000912B0008A55B0008A4
:100040006D2D00086D2D00086D2D00086D2D000828
:100050006D2D00086D2D00086D2D00086D2D000818
:100060006D2D00086D2D00086D2D00086D2D000808
:100070006D2D00086D2D00086D2D00086D2D0008F8
:100298007BB972B90029BEBF00204FF0004106E0CB
:1002A80008BF00281CBF6FF000414FF0FF3000F07E
:1002B80057B8ADF1080C6DE904CE002909DB002B15
:1002C8001ADB00F07CF8DDF804E0DDE9022304B075
:1002D8007047404261EB4101002B1BDB00F06FF8D7
:1002E800DDF804E0DDE9022304B0404261EB41019E
:1002F800524263EB43037047524263EB430300F0FF
:100308005EF8DDF804E0DDE9022304B0404261EB69
:1003180041017047524263EB430300F050F8DDF8A7
:1003280004E0DDE9022304B0524263EB4303704763
:1003380053B94AB9002908BF00281CBF4FF0FF3144
:100348004FF0FF3000F00CB8ADF1080C6DE904CEA9
:1003580000F035F8DDF804E0DDE9022304B0704769
:10036800704700BF10F8012B11F8013B012A28BF84
:100378009A42F7D0D01A7047034611F8012B03F8B8
:10038800012B002AF9D17047034613F8012B002AE4
:10039800FBD1181A01387047430803F05533C01AC7
:1003A80000F03333800800F03330184400EB1010AD
:1003B8004FF0013300F00F305843000E70472DE91D
:1003C800F04786468C460846089E154674461946E8
:1003D800002B40F0C2808542B2FA82F245D94AB178
:1003E800C2F1200300FA02FC2EFA03F3954043EA17
:1003F8000C0C94404FEA154EA8B2BCFBFEF8230C37
:100408000EFB18CC08FB00F943EA0C43994528D9A0
:10041800EB1808F1FF3704D2994502D9A8F1020771
:100428002B44A3EB0903A4B2B3FBFEFC0EFB1C3365
:100438000CFB00F044EA0344A04214D92C190CF137
:10044800FF3304D2A04202D9ACF102032C44241A8F
:1004580043EA07401EB1D440002334607360BDE80E
:10046800F0874746DDE76346F1E792BB431B01216E
:100478004FEA154EAFB2B3FBFEFC200C0EFB1C334B
:100488000CFB07F840EA0343984562D9EB180CF1D6
:10049800FF3004D2984502D9ACF102002B44A3EBFB
:1004A8000803A4B2B3FBFEFC0EFB1C330CFB07F7DE
:1004B80044EA0344A7424ED92C190CF1FF3304D265
:1004C800A74202D9ACF102032C44E41B43EA0040E2
:1004D800C0E7C2F1200320FA03F1954090402EFABC
:1004E80003F303434FEA154EAFB2B1FBFEFC0EFB1C
:1004F8001C10190C0CFB07F841EA0041884504FA66
:1005080002F422D969180CF1FF3004D2884502D9C7
:10051800ACF102002944A1EB08019BB2B1FBFEFC3F
:100528000EFB1C110CFB07F743EA01439F420ED94F
:10053800EB180CF1FF3104D29F4202D9ACF1020151
:100548002B44DB1B41EA004192E76046E3E7614642
:10055800F7E76046A3E76346B7E7834206D916B9CB
:10056800002108467BE7C6E900E0F9E7B3FA83F71C
:100578008FB9834201D3724508D8BEEB020460EB01
:10058800030301209C461EB9002168E73846FAE7B4
:10059800C6E9004CF8E7C7F1200CBB4022FA0CF47E
:1005A8001C432EFA0CF120FA0CF3B84001434FEA31
:1005B80014490EFA07F5B3FBF9F81FFA84FE09FB94
:1005C80018300B0C08FB0EFA43EA00439A4502FA6E
:1005D80007F240D9E31808F1FF3004D29A4502D94E
:1005E800A8F102002344A3EB0A0389B2B3FBF9F88C
:1005F80009FB183308FB0EFE41EA03418E452CD94E
:10060800611808F1FF3304D28E4502D9A8F102031C
:10061800214443EA0040A0FB0298A1EB0E014145AA
:10062800CE46434602D306D14D4504D2B9EB020E5D
:1006380068EB04030138002EA6D0B5EB0E0261EB7F
:10064800030101FA0CFC22FA07F34CEA0303F94010
:10065800C6E9003198E74046C5E74346D9E70000B8
:100668007FB5334D00220321286822F09BFA3148D8
:100678002C682EF0DBFAC0F307238DF80000C0F3D6
:10068800074000228DF801308DF8020020462A4CE0
:10069800009922F078FA00220321206822F082FAD9
:1006A800244826682EF0C2FAC0F307238DF8040008
:1006B800C0F3074000228DF805308DF8060030465B
:1006C800019922F060FA1D4B1E68D6B93246062100
:1006D800286822F067FA1A482C682EF0A7FAC0F3A7
:1006E80007238DF80800C0F3074032468DF809301B
:1006F8008DF80A000299204604B0BDE8704022F047
:1007080042BA00220621206822F04CFA0C482468DC
:100718002EF08CFAC0F307238DF80C00C0F30740C5
:1007280000228DF80D308DF80E000399E3E700BF25
:10073800608E0024A64E0A005C8E0024588E002489
:1007480066D1FF00094B10B51B786BB9084C012125
:1007580020681FF0E8F82068064932F0CBFC06480C
:10076800BDE810401CF01CBD10BD00BF6293002402
:10077800648E00249A8A0308B98A0308154B30B599
:100788001A7889B002F0FF040ABB012580211D7088
:10079800114B18681FF003F9104B802118681FF0DF
:1007A800FEF80F4B294618681FF0BDF800220023F9
:1007B8000C490D480494CDE9062305234FF4006243
:1007C800CDE90243CDE90044084B1BF02DF909B0EF
:1007D80030BD00BF62930024608E00245C8E00242C
:1007E800648E002480930024800500246508000896
:1007F800002307B5CDF801308DF8053009238DF8B1
:1008080000309DF8043060F304038DF80430044888
:10081800694683681B68984703B05DF804FB00BF0E
:100828006062030830B587B005460C4614220021E3
:1008380001A835F0CCFA0123AB40CDE902340223FC
:1008480004930A238DF81430034801A983685B6870
:10085800984707B030BD00BF606203082DE9F04F2C
:10086800ADF5237D6D4909A8FFF786FD00238DF8B6
:1008780084300124DFF8A8814FF0FF324FF0FF33B6
:1008880009A9684835F086F82346674A602109A80F
:100898001BF08AFE0023E5B28DF884304FF0FF325A
:1008A8004FF0FF3309A95F4835F074F85F4B01AA90
:1008B80003F108071868083353F8041C1646BB42AE
:1008C80003C63246F6D1186899889B793060B180A2
:1008D800B3718DF807503E358DF81250D8F808508E
:1008E8002B6823B122A9404698470028F8D0052054
:1008F80001AD1CF00AF90026D8F8087015F8011B9C
:1009080001367B68404698470F2EF7D114201CF01B
:10091800FCF864201CF0F9F835F0FFF90A220023EE
:100928004FF0FF35FFF704FD10F5C8792F464FF05B
:10093800000641F1000A35F0F0F90A220023FFF71A
:10094800F7FC484571EB0A014EDAB6F5007F1CD179
:100958003246214636481CF023FC2346354A60219E
:1009680009A81BF021FE01238DF884304FF0FF32D7
:100978004FF0FF3309A92B4835F00CF82E4B002215
:100988001A700DF5237DBDE8F08FD8F808301B6884
:10099800A3B10DF103014046984778B99DF80320AB
:1009A80022AB06F1010B9A5535F0B7F90A2200235C
:1009B8005E46FFF7BDFC05460F46BCE701201CF06C
:1009C800A4F8B7F1FF3F08BFB5F1FF3FB3D035F04A
:1009D800A4F90A220023FFF7ABFC401B61EB0701D7
:1009E8001E2871F10001A6DB0B2EB1DC7EB9214671
:1009F80012481CF0D5FB0134FA201CF086F8412C73
:100A08007FF442AF0E4909A8FFF7B6FCABE73246C0
:100A180021460C481CF0C4FBEDE700BFEE8A030832
:100A28002062030828050024FA8A0308986A030844
:100A38000E8B0308348B0308629300244D8B030844
:100A4800818B0308608B03082DE9F04F9FB0DFF816
:100A58003C93484634F058FF30B9CD481CF0A0FB11
:100A680001201FB0BDE8F08FCA4C204634F04CFF7F
:100A780008B9C948F2E74FF49642C84BCDE90523B7
:100A8800A368DB6823B1204605A99847044608B146
:100A9800C348E3E7C34834F037FF08B9C248DDE785
:100AA8002046FFF7A5FE0120FFF7A2FE08F03EFB57
:100AB80005F00EFDBD4A0546114620F050F92246C4
:100AC8002146284622F034F822462146284622F0BC
:100AD80036F822462146284622F01CF822462146AE
:100AE800284622F01EF8012128462CF09EFF0223FA
:100AF80028461A4619462CF0A4FF224618212846F3
:100B080022F024F8284615F0A3FF0646A84932F03B
:100B1800F1FA3046A54920F0F4F830462246022181
:100B280022F04EF82246A349304622F042F8A24E5F
:100B3800284613F0D7FC5022A049306020F00FF966
:100B480022461221306822F042F89D4837682EF07C
:100B58006DF8C0F307238DF80400C0F30740224660
:100B68008DF805308DF806003846019921F0F5FF1B
:100B7800944837682EF05AF8C0F307238DF8080018
:100B8800C0F3074022468DF809308DF80A00384630
:100B9800029921F0F8FF22460321306822F002F87A
:100BA80023460A22884930681FF01CFF306815F078
:100BB8004FFF0746854932F09DFA22467D4938465F
:100BC80021F0F7FF384620F06EFC814F284613F0DD
:100BD80089FC50227949386020F0C1F82246122158
:100BE800386821F0F4FF7B48D7F800802EF01EF813
:100BF800C0F307238DF80C00C0F3074022468DF898
:100C08000D308DF80E004046039921F0A6FF6D487F
:100C1800D7F800802EF00AF8C0F307238DF81000EB
:100C2800C0F3074022468DF811308DF81200404677
:100C3800049921F0A8FF22460321386821F0B2FF69
:100C480023460A22644938681FF0CCFE386815F03C
:100C5800FFFE8046614932F04DFA2246554940462A
:100C680021F0A7FF404620F01EFCDFF874812846DB
:100C780015F0EEFE0121C8F800001FF0A2F84B495C
:100C8800D8F8000020F03DF822460221D8F80000EC
:100C980021F096FF22464749D8F8000021F089FF45
:100CA8000321D8F8000016F087FAD9F808305B68F5
:100CB8000BB1484698470025402410F099F9A946F9
:100CC800AA460DF102010020ADF802A0ADF814A06B
:100CD800FFF7A8FD05A90120FFF7A4FDBDF8023024
:100CE80005209944BDF814301D441BF00EFF013C4B
:100CF800E7D1AD11DFF8ECA04FEAA911A1462A46C9
:100D080039481CF04DFAFFF7ABFC0022002305A977
:100D180036481AF0B5FB00286CD04FF0000B694636
:100D28005846ADF800B0ADF802B0FFF77BFD0DF105
:100D380002010120FFF776FDBDF802305B1BB9F117
:100D4800000F6FD113F15A0F7BDB5A2B00F387800A
:100D5800BDF8001040F2FE32914294BF4FF0000BF4
:100D68004FF0010B5C450AD0914240F29080204B35
:100D78001B7803F0FF00002B7FD04FF0010B10F021
:100D880037F90A205C461BF0C0FEBEE70063030883
:100D98009C8B030820620308AF8B03080101030042
:100DA800C08B030860620308D88B03086400002026
:100DB800E88B030814780308608E00245A0000208A
:100DC800D0660F00A64E0A0085070008008C0308AD
:100DD8005C8E0024635E15004D0700080E8C030826
:100DE800648E0024588E00241D8C030828050024D6
:100DF8006293002405A9D8F8000032F07BF901219C
:100E0800D8F800001EF08FFD9DF87430002B3FF4D9
:100E18007CAF306880211EF0CCFD802138681EF040
:100E2800C8FD72E7B9F1FF3F03D03B2B22DCD9465E
:100E38008EE713F13B0FACBF00230123C3F1000978
:100E480086E7DAF800304FF0FF39013303F0010389
:100E580048BF5B42CAF80030FFF702FC78E7DAF8CF
:100E68000030013303F0010348BF5B42CAF8003089
:100E7800FFF7F6FB4FF001096AE7DAF800301BB913
:100E88001846FFF77BFC78E7FFF75CFC75E74FF047
:100E9800000B74E72DE9F04F91B0840705460E4624
:100EA800009302F00403DDF868800293C2F3C203E2
:100EB800039203F10103059340F0BA81041D30B198
:100EC800072909D86FF01B0011B0BDE8F08F01F0B9
:100ED80007063444C6F10806009B4FF000094FF09E
:100EE800040A591E4FF0FF334F46CB460193534631
:100EF800CDF810900DB1009A22600598002800F3F3
:100F0800E8809848009A824203D397488242C0F00A
:100F1800E080039AA4EB050E92074FEA9E0000F1C9
:100F280003810F2F00F2B180002D00F0058107F139
:100F380040020DEB020C019A0CF8200C0CF8102C56
:100F4800049801300490E7E07A285DD84B280ED841
:100F5800472859D829282DD8252852D054D82028B0
:100F68007AD02338D0F1000B4BEB000B74E04C38EF
:100F78002E2849D8DFE800F07048484848484848D3
:100F8800484848484B484848484848484859484BC2
:100F98004B595959704B6D487048184B184848823E
:100FA8007F4B48484B487F0000204FF0000B4FF024
:100FB800040A38E02A380122C0B202FA00F010EA26
:100FC8000E0F49D110F0625C2FD110EA020B43D00A
:100FD8006046013C5444B4FBFAF40AFB04F4002DC7
:100FE80061D0A3EB050CA444B4453FF66BAF0028D1
:100FF80068D1042B47D158F8043B236004340423F8
:101008002AE0019A013A01924FF0000B24E011F80E
:10101800010C6C2834D111F8023C00206C2B83465B
:10102800C5D14FF0080A5346D3E708F1070807343B
:1010380028F0070824F00704F8E802AB35B1069851
:101048002044B0423FF63EAFC4E900AB08344FF04D
:10105800000B4FF0080A534611F8010F002878D00A
:10106800BBF1000F7FF470AF2528F5D1019B4FF03D
:10107800010B013301934FF0040AECE7584694E75B
:1010880000208346A5E7082B02D06FF015001BE768
:1010980008F1070828F00708F8E80223C4E9002344
:1010A80008340823D8E768B9042B02D108F10408EA
:1010B800A4E7082BE9D108F1070828F0070808F188
:1010C8000808EDE7059A013A059258F8042B0092B2
:1010D80010E7039A900720D5A4EB050E4FF0010CFA
:1010E8004FEA9E00BEF5007FCFD20F2FCDD8F5B1C5
:1010F80007F14002C0B20DEB020E019A0EF8200C67
:101108000EF8102CBCF1000F3FF41AAF60F07F000E
:1011180009F101090EF8200C0137C5F10802043461
:101128004FF6DA7E069297E74FF0000CDAE7BCF14B
:10113800000F01D00136EFE7029802360028EBD104
:101148000098CDE90631FFF71FF90644DDE90631BD
:10115800E2E7631BB3F5806F97D23DB9A6F10804A7
:10116800E018B1E6F05E03085C2004089B08029AC8
:1011780028602B709DF81030C2B1EB7085F8029092
:10118800B9F1000F05D008A80022C5F1010C97425B
:101198000ED1C5F101030DF120084FF0000A0DF141
:1011A800300B0193574512D1601B8DE66B70E5E754
:1011B80010F8013B190608D50CEB040E03F07F0369
:1011C800B6453FF67FAE04F8013B0132DFE7B9F1DF
:1011D800000F03D098F90020002A17DB029BD3B137
:1011E8001AF80B2004F8012B0022019B181910444F
:1011F800B0423FF667AE98F80000009904F8010B7A
:101208002046039234F0BBFD039A14440AF1010A04
:1012180008F10108C6E798F8002055F82230009335
:10122800029B009845F82230FFF7AEF8421CDCE735
:101238006FF00D0048E600BF2DE9F04F97B0044667
:10124800894600AF90F802A0D7F880B03B62CBF394
:10125800C003FA62BB6141B9457800780AEB8000A7
:1012680020444D4517D8A0EB0409E378FB61BAF197
:10127800000F02D01BF0010F16D1FB6953BBFB6AAC
:101288001BB13A6A4946204698474D4628465C377E
:10129800BD46BDE8F08F461C09F101093046FFF74D
:1012A80073F801303044DCE72378626899007A6289
:1012B800FA6A796104EB8301002A40F000814D4607
:1012C8000E4601EB0A094FF000084E454CD101EBE0
:1012D8000A0610E01BF0020FD1D023789A0004EB25
:1012E80083017A6162687A62FA6A002A77D14D4688
:1012F80001EB0A0690461BF0050F0CBF02230123E1
:10130800FB62FB6906EB430A0BF00203BB6256451E
:10131800BCD016F8021B16F8013C54F82390994BE0
:10132800994502D3984B994536D3BB69002B40D0D9
:10133800786A1BF00EFF00283BD0E9468AB06A465F
:10134800924B53617B6AC2E906314FF400731384F0
:101358008F4B42F8103F00234FF412518D48023D45
:1013680000F074FCCD46D2E716F8013BF96254F858
:101378002300FFF709F8D7F884300130F96A4BB138
:10138800D7F8883098453EBFD7F8843023F818003E
:1013980008F10108054498E7BB6923B1786A1BF096
:1013A800D8FE0028C9D11BF0010F05D1FB6AED1A40
:1013B800ADE7BB6A002BAAD04846FEF7E5FFD7F891
:1013C800843053B1D7F8883098453FBF431CD7F8CD
:1013D800842022F8183008F10108054497E7BAF18B
:1013E800000F72D01BF0040672D0D046002607F119
:1013F800480052463B61B96234F0C1FCB96A3B69A6
:1014080001EB0A02F969BA62FA695200FA60BA6A2B
:1014180002EB41023A610BF00202BA603A69B96A1A
:101428008A4257D11BF0020F62780CBF4FEA58016D
:1014380000217A621BF0010F3244D2B240F09F8043
:101448001BF0040F14BF40460020BB616270A070FF
:101458002046E1703A6A7969FB6A9847051EFFF6EB
:1014680015AFBB6941463A6A07F1480023707B6AA9
:1014780084F802A06370FB69E370FB6A9847B0F1D7
:101488000008C0F2BB807B69A9EB0A013A6AC91A55
:10149800FB68C91AD7E90A0398470028C0F2B08048
:1014A800A8444FF0000B07F1380A08EB0005B345D4
:1014B80072D300213A6AFB6A08469847E6E6564620
:1014C8004FF0000807F1380093E75646D04697E7F3
:1014D800B04695E7BA6A12F8021B12F8015CBA62C4
:1014E80054F82500274A904202D3274A90421ED337
:1014F800BA6932B1786A7B601BF02BFE7B680028E2
:101508008CD1BA6802BB08F1280207F1300C08F147
:10151800010008F10208944407F158025FFA88F8BC
:1015280052FA80F00CF8101C00F8105C76E7BA69E3
:101538003AB1786A7B601BF00CFE7B6800287FF468
:101548006DAF1BF0010F09D006F1280207F130003A
:10155800711C161806F8205CCEB25FE71BF0040F6A
:101568003FF45CAF08F1280207F1300008F10101EF
:1015780002EB000808F8105C5FFA81F84EE70020DB
:1015880063E700BFF05E03085C2004083D8C030895
:1015980004000001A46903081BF80A3054F82390DA
:1015A80087F83730D7F884302BB3D7F888309B4585
:1015B80021D2D7F8843033F81B803A6A012107F129
:1015C8003700FB6A984700281ADB0544B8F1000F7A
:1015D80006D14846FEF7D8FE00F101081FFA88F840
:1015E8003A6A41464846FB6A9847002808DB0544A2
:1015F8000BF1010B5BE74FF00008DEE7454645E6D7
:10160800054643E6014B1860704700BFF801002407
:1016180080B505460E46174698461AF057FCDFF87F
:101628002090034634F056FC0446424649F8003000
:1016380039463046A84754F8090001F08FFA00BF30
:1016480008000000054B00205A6822F002025A6088
:101658005A6822F001025A60704700BF0010005C0F
:10166800164B82B0D3F8E02042F00072C3F8E020B5
:10167800D3F8E02002F000720192019AD3F8F42026
:1016880042F00202C3F8F420D3F8F42002F0020278
:101698000092009A0A4AD2F80423D20706D503F525
:1016A8000053D3F89030002002B07047D3F8A02040
:1016B80042F00802C3F8A020F5E700BF0044025832
:1016C8000004005808B501F0A5FB01F05DFB0C4BC8
:1016D8000C4A1A600C4AD36823F03F0343F0040312
:1016E800D3600A4B1A6841F20303B3EB124F06D1D9
:1016F800074AD2F8083143F00103C2F8083108BD9F
:10170800A80300240090D003004802580010005C91
:10171800008000512DE9F047044607464FF00109C3
:10172800DFF8508014B93846BDE8F08794FAA4F57C
:10173800B5FA85F509FA05F32E0108EB05156FEAE8
:10174800030A24EA03042B7B002BEBD058F806305D
:101758001B694BB946440422284607EA0A077368FE
:1017680019681BF0E2FFDDE7284698470028D9D121
:10177800F0E700BF546A030830B5002289B00F496A
:101788000F4834F0CCFA0022002300240D4D0E49F6
:1017980028460094CDE906230E234FF44072CDE984
:1017A8000334CDE90144094B1AF03EF908492846AB
:1017B80034F080F9204609B030BD00BFDD170008BD
:1017C800880A002400060024C09B0024F91A000897
:1017D800328D0308014819F0B5BE00BF700500241A
:1017E8002DE9F047804620480F461BF076FF064655
:1017F800002832D000252846BDE8F087237B83B136
:101808002368DB680BB120469847636883F8069025
:1018180023681B69CBB963680422204619681BF04A
:1018280084FF013610345445E8D3B8F1000FE2D0F4
:10183800002DDFD02846FFF76DFF0546002FF7D0B3
:101848000021642034F0CCF9F2E7204698470028BC
:10185800E1D009FA06F31D43E3E7044C0546DFF837
:1018680010A04FF00109DEE7788E0024546A0308BF
:10187800646A0308014B53F820007047006B0308A3
:1018880008B5034608462BB1044A136000F074FCFF
:10189800002008BD6FF01500FBE700BFFC01002425
:1018A80010B5044C237813B9034819F04BFE0123F3
:1018B800237010BD639300247005002410B50446FE
:1018C8000B481BF00AFF5CB10A4BBFF35B8F53E870
:1018D800001F013943E80012002AF8D1BFF35B8FDB
:1018E800054834F028FA0548BDE8104019F02ABE2A
:1018F800708E0024748E0024880A00247005002449
:101908000020064BBFF35B8F014653E8000F43E806
:101918000012002AF9D1BFF35B8F7047708E002444
:1019280070B5FFF7EDFF084C0546084EB44200D3EA
:1019380070BD63685B792BB123685B6813B1294676
:10194800204698471034F1E7546A0308646A03088C
:1019580010B5044C044920461BF032FD034B1C60B3
:1019680010BD00BF60040024EC6A0308688E0024E0
:1019780000230D4A4FF47A710C4810B513700C4AC5
:1019880013600C4A1360FFF77BFFFFF7E1FF0A4B78
:101998000A4918468B4200D310BD1A1A5C681033E6
:1019A800121101322271F5E764930024FDD6010873
:1019B800708E0024748E0024546A0308646A030835
:1019C80001460022002301481BF01BBD60040024CF
:1019D80001481BF0B4BD00BF60040024024B01465F
:1019E80018681BF000BE00BF688E002401481BF079
:1019F80035BE00BF60040024264B70B51878002857
:101A080046D0FFF7E5FF054600283ED1224B234C80
:101A18001B68002B12DD34F080F90A220023FEF740
:101A280087FCD4E90032C01A40F2E93361EB0201C5
:101A3800984271F1000101D3FFF772FFD4E9003237
:101A480013F57A7342F10002C4E90032BDE8704030
:101A5800FFF7CCBF63685B7923B12368294620462A
:101A68001B6898471034B442F4D32846FFF7B6FFF2
:101A78000B4BBFF35B8F53E8001F013943E800129B
:101A8800002AF8D1BFF35B8FC0E7064C064EEAE7A1
:101A980070BD00BF63930024708E0024800A002468
:101AA800748E0024546A0308646A030870B50D4DE7
:101AB800297861B90C4C01200C4EFFF791FEB44215
:101AC80006D3FFF799FF0028FBD101232B7070BDC7
:101AD80063685B791BB1236820469B68984710347C
:101AE800EDE700BF64930024546A0308646A03089E
:101AF80000212DE9F0470846FFF772FE044658B367
:101B08004FF4FA784FF000091C4B34F0E3F91C4A03
:101B18001B58136033B11B4B1B68092B02DD1A4895
:101B280019F010FD0025194FDFF85CA044B12046DC
:101B3800FFF7F0FD044618B94FF0FF384FF0FF39B2
:101B4800FFF75AFF064628B9B5B942464B465046F4
:101B580019F02CFD3546E9E74FF0FF384FF0FF3913
:101B6800D2E72B689B691BB100222846114698478B
:101B78001035BD42F5D3E8E7054DFAE70800000047
:101B88006C8E0024748E002470050024646A030897
:101B9800546A030813B518481BF09FFD174B1B78B0
:101BA80073B1EFF31184102383F31288BFF36F8F9F
:101BB800FFF722FF84F31188BFF36F8F02B010BDC7
:101BC8000F4B1B68002BF9D050B9002200230D4899
:101BD800CDE9002342F2107200231AF08FFCEDE7E2
:101BE8000928EBD1074834F0A6F8074802B0BDE849
:101BF800104019F0A7BC00BF748E00246493002421
:101C08006C8E0024880A002470050024064B10B549
:101C180004461B6898472146A06004481BF070FCE6
:101C2800BDE81040FFF7B6BFFC01002460040024A3
:101C3800044A054B9B1AB1EBD30F34BF52F831005D
:101C4800002070479C690308546A03082DE9F04F87
:101C58008FB0C1F34A280D46914604AF0C0DB86009
:101C68007B60B8F1000F63D0002607F114034FF032
:101C7800040B4FF00A0AC7F80C8032467E624846C9
:101C8800C7E90766019307F11C03CDF808B0CDF842
:101C980000A0F968FFF7D0FAB0F5006F03461CD32F
:101CA8006C468AB0D9F8041004AB26481A46C3E932
:101CB800050140F2FF71D9614FF400711984224B7C
:101CC80042F8103F4FF4125133462048FFF7BEFF49
:101CD800A5462C37BD46BDE8F08FC0F30A0804F1CD
:101CE80017003B60184468F3532520F0070080086C
:101CF800FFF766FE044690B13B6800F11001144AF4
:101D08004846F961C7E9083607F11403CDF808B069
:101D1800CDE900A307F11C03F968FFF78DFA68F312
:101D280053257B68B96820462A461BF01EFDD0E77C
:101D380004F1170020F007008008FFF741FE044671
:101D4800EDE700BF478D030804000001FC690308A4
:101D580045D701082DE9F04F87B0044693469846C9
:101D68000391DDE91279DDE9105ABFB13B465246CD
:101D780010210020CDF80090CDF81490FFF78AF8D4
:101D8800B0F5006F06460AD340F2FF73174A0221E6
:101D9800174807B0BDE8F04F1BF040BD3E4604F0C1
:101DA800070405F117000BF0070BE400304444EA80
:101DB8008B1420F0070044EA4624800844EA0554BE
:101DC800FFF7FEFD054640B13FB13B46524631465E
:101DD8001030CDF80090FFF75DF84346224603998E
:101DE800284607B0BDE8F04F1BF0BFBC868D03083E
:101DF800FC690308406820B1034BC01A40F3CF00C8
:101E080070474FF0FF3070479C6903080EB403B564
:101E180003AB0146054853F8042B019301F088F9F8
:101E280002B05DF804EB03B0704700BF87D8010823
:101E3800CA0605D48B064CBF02490349FFF7E6BF23
:101E4800704700BFBF8D0308BE8D03082DE9F04F12
:101E580089B09B4604460D46149B90469DF84CA0BD
:101E68000693159B179E0593169B0493BAF1000FD2
:101E780000F09D8006F4807306F0020907931BF0BA
:101E880052FC024600283ED091492046FFF7BEFF8B
:101E98000746B9F1000F08D016F0440F35D12A468D
:101EA8008C492046FFF7B2FF074406F0010353B1FF
:101EB800894B2046894953F82A20894B002A08BFB4
:101EC8001A46FFF7A3FF06F48073002B49D006F0EB
:101ED8000803002B63D1B8F1000F66D04246814950
:101EE8002046FFF793FF0546069B3D44002B6DD126
:101EF800049B002B73D1F30700F1E48031462046A0
:101F0800FFF796FFD8E00746C3E7774B1868002825
:101F1800CAD0764B4FF47A794FF03C0C1B68B5FB6E
:101F2800F3F5B5FBF0F100FB11554FF4616309FBC4
:101F380005F5B1FBF3F2B5FBF0FE03FB121100FB54
:101F48001E55B1FBFCF309FB05F50CFB1311B5FBA2
:101F5800F0F5009120466649CDE901E5FFF756FF07
:101F6800A2E706F00803EBB1624B2046624953F83A
:101F78002A20FFF74BFF0546B8F1000F05D042466F
:101F880058492046FFF742FF0544BBF1000FABD08C
:101F98005A465A492046FFF739FF0544A4E74FF04F
:101FA800000BE1E706F00805E6E745469CE7BBF1CC
:101FB800010F069B06D1002B64D1049B002B7BD01C
:101FC80000250CE0002BF8D04D485CE04D48069BFE
:101FD80022464D491BF08CF8049B002B68D0DFF893
:101FE8002C81DFF82C91049F4FF0000B31462046DE
:101FF800102F28BF1027FFF71BFF5D4545DC059B09
:102008004FF0010B494620461A78FFF7FFFE1BF0F8
:10201800070F03D141462046FFF7F8FE5F453BD93D
:10202800059B4946204613F80B20FFF7EFFE0BF1FE
:10203800010BBBF1100FEAD14FF0000B35492046D8
:10204800FFF7E4FE5A46059B20469A5CA2F1200160
:102058005F29314928BF2E22FFF7D8FE0BF1010B6B
:10206800BBF1100F1DD01BF0070F03D141462046CE
:10207800FFF7CCFE5F455A46E5D841462046FFF7B4
:10208800C5FEEBE71F485546A1E7414620460BF140
:10209800010BFFF7BBFEB0E720492046FFF7B6FE6D
:1020A800C5E7059B3B440593049BDB1B04939AD12E
:1020B800BAF1000F7FF41FAF204609B0BDE8F04F1A
:1020C8001BF0D0BB064A20460449FFF79FFE15E7E0
:1020D800C68D0308CA8D0308106B03084F1904083E
:1020E800C18D0308EF8D0308808E00247C8E0024A8
:1020F800D38D0308246B0308F38D0308F98D0308B7
:10210800BDD8010887D8010839310008068E0308B0
:10211800FE8D0308088E03080A8E0308048E030840
:1021280042F20F73114A8B4273B5044628BF0B461F
:102138000568052168461AF037FA636806460B22D7
:1021480028465B680A491BF07FFB6368324669468C
:1021580028465B681BF078FB63681B2205495B68AF
:1021680028461BF071FB02B070BD00BF2FA003080A
:10217800298E03080D8E030800210123064A904288
:1021880006D8064A01B901231360054B1860704749
:10219800400801215B00F2E740420F007C8E0024DA
:1021A800808E0024F8B50D4604464618054FB44203
:1021B80001D12846F8BD14F8011BBB6801485B68CB
:1021C8009847F4E740620308014B03600220704718
:1021D8006C6B0308F8B504690B464668906A04F10D
:1021E8002401C50708D46FF085053B4A01213B4807
:1021F8001BF00BFB2846F8BD636205234FF4007CF7
:10220800A362936A98074FF0000056BF83F0040357
:102218000223C3F3800323635368636340F6FF73A9
:10222800C4E90E03D4E9275013696B43B3FBF0F3F9
:10223800E364D3686B43B3FBF0F323651769536812
:102248003B44D7683B4497683B444FF400676B4373
:102258004FF40055B3FBF0F363652046136AA3659A
:10226800D369E3659369236653696366936AC3F325
:10227800C023DB03A3664FF48053C4E91D534FF416
:102288008063C4E91F734FF48073C4E921C303F06A
:102298006BFE054630B10246114910486D421BF0ED
:1022A800C8FBA7E720461CF0A5FB054610B102466F
:1022B8000C49F2E7326B002A9CDB014620461CF0F1
:1022C800B1FC0446002895D00246074903486542F8
:1022D8001BF0AFFB8EE700BF8E8E0308B4690308BE
:1022E800B18E0308D38E0308EF8E03087FB514461A
:1022F80012780D460069152A32D017D8062A1BD045
:102308000BD8032A0BD0052A2AD0244824491BF0CD
:1023180090FB6FF0850004B070BD132AF5D1A66854
:10232800E168012E0B782FD149781EE0292A30D098
:10233800392A21D0232AF1E7656902952379CDE965
:1023480000232A4623691CF0EEFB02462069002A76
:10235800E1D0124813491BF06CFB6FF00400DAE778
:10236800A168237909B1E1680978009129461CF030
:1023780068FB0246A068EAE7E368019323790093C3
:10238800A3681CF06FFBF4E78CBFB1F801100021C3
:10239800EBE7E3685D1C01951B78F0E7B469030877
:1023A800188F0308368F030873B5456806462868F2
:1023B80033F0AAFA48B96FF01204654A012165485A
:1023C8001BF023FA204602B070BD294651F80C0BC9
:1023D80083681B6843B19847041E08DA22465E49A1
:1023E8005C481BF026FBEDE76FF05704F6E7D5E9EC
:1023F80001018368DB6803B19847756836696A6AC2
:10240800012A0AD0022A1BD06FF08504534951488B
:102418001BF00FFB22465249E2E700232946F360EE
:1024280006F1A00251F81C0B8368DB6853B198478A
:10243800044650B122464B4946481BF0FAFAE9E7F0
:102448000123EBE76FF05704F4E7D6F8A0304FF418
:102458007A722946B3FBF2F3C6F8A03051F8140B90
:102468008368DB6833B101AA9847044628B122463D
:102478003D49E1E76FF05704F9E7D6F89420019B4E
:102488003A49B060B3FBF2F3D6F890205343D6F83C
:10249800982023F00043D3404FF4FA52B3FBF2F2F2
:1024A8008B42C6F89C201FD9022344F620600133D2
:1024B800092B05D12E4A022126481BF0A6F905E072
:1024C800B2FBF3F484421946F1D8B16006F19001E9
:1024D800304603F043FC044640B1024625491D48F6
:1024E80064421BF0A6FA95E70221EEE7F16939B1DB
:1024F800304603F06BFE044610B102461E49EEE773
:10250800316A39B130461CF032FA044610B102463D
:102518001A49E4E7042130461CF015FA044610B1C4
:1025280002461749DBE7E96A39B130461CF097FBE8
:10253800044610B102461349D1E7A96A30461CF097
:1025480092F9044600283FF43DAF02460E49C6E71B
:102558004C8F0308B46903086B8F0308948F030832
:10256800D9900308BC8F0308D98F03087F0E131373
:10257800F48F030812900308289003084B9003086F
:102588006C90030890900308B49003082DE9F04775
:10259800064600AF0C46002936D0E9468AB0A36843
:1025A8006D46D1E9001221484FF0050AA846C5E951
:1025B8000501C5E9072348F810AF002342464FF448
:1025C80021511B48FFF742FBCD466369AD46D4E96C
:1025D80003121848C5F810A0C5E90501C5E9072385
:1025E800002342464FF421511148FFF72FFBCD46F7
:1025F800E369114A01210E481BF010F9A3690F4A3B
:1026080001210B481BF00AF9012E07D1EFF30583CE
:102618000B4A103B314606481BF000F9214630466C
:1026280018F030FDBD46BDE8F08700BF10910308E3
:10263800346A03083F9103086E9103087D910308EB
:10264800AB91030830BFFFF7FDBF00BF2DE9F04194
:102658000B4E0546DFF82C80324606EB0807CC1BEC
:102668000949204633F08BFBA019083C424600215B
:1026780033F0ADFB07F108002C67BDE8F08100BF1F
:102688000000000004000000706A0308054B5A6946
:102698009B689A4204D0044A536843F080535360BD
:1026A800704700BF2893002400ED00E070B5294C66
:1026B80006460D46284829491BF0CBF9A36AD904D8
:1026C8003CD5254826491BF0C4F91720A36A1A05EA
:1026D80004D5214823491BF0BCF918201D4CA36AD6
:1026E8009B0512D51C4820491BF0B3F9A36BA26ABD
:1026F800100409D51D4A012117481BF08FF81EB197
:10270800A36A23F40043A3621920124CA36A590553
:1027180004D5114816491BF09CF91A20A36ADA055A
:102728000ED50D4813491BF094F91B20094A936AEA
:1027380043F47F43936200232B7070BD1620C5E7D6
:10274800A36A9B04F2D504480B491BF082F91C20AC
:10275800ECE700BF00ED00E0346A0308BE9103080F
:10276800D4910308E5910308F8910308119203082E
:1027780026920308419203085992030810B5204C89
:10278800204921481BF065F9A36A990136D51E48EE
:102798001E491BF05EF91E20A36ADA0104D51A4807
:1027A8001B491BF056F91F20154CA36A1B0304D5BF
:1027B800154818491BF04DF92120A36A590304D57F
:1027C800114815491BF045F922200D4CA36A9A03BC
:1027D80004D50D4811491BF03CF92320A36ADB03FB
:1027E80004D509480E491BF034F92420044A936A99
:1027F8006FEA03436FEA1343936210BD1D20CBE7D2
:1028080000ED00E088920308346A0308A0920308E8
:10281800B3920308CD920308EB92030810930308C0
:102828002A9303082DE9F843364D804689463648F1
:10283800364917461BF00DF9AB6ADE0627D5112479
:10284800334931481BF005F9AB6A1D0704D512243A
:1028580030492D481BF0FDF82A4DAB6A980718D56A
:102868002D4929481BF0F5F86E6BAB6A190646D559
:102878002A4A3346012124481AF0D0FFB9F1000F43
:1028880003D0AB6A23F08003AB62132403E0102467
:10289800DAE76FF015061B4DAB6ADA0704D5142486
:1028A8001F4919481BF0D5F8AB6A9B0604D51524B7
:1028B8001C4915481BF0CDF8124B9A6AD50602D46C
:1028C8009A6A90070AD55B68190507D541463046CC
:1028D80000F002FA10B180F309880224094B9A6AC1
:1028E800920603D55A6A22F400525A629A6A20461E
:1028F80042F0FF029A6200233B70BDE8F8836FF054
:102908001506C2E700ED00E0346A03085593030892
:102918006B930308E59103089E930308B693030895
:10292800CC930308599203082DE9F041664B8AB00D
:1029380004460026D3F8048000AFC8F3080586F3E0
:102948001188BFF36F8F02F07F43B3F17F4F07D138
:1029580002F00C03082B12D15C495D481BF079F892
:10296800002634460023FB71EB1E092B00F28B80F6
:10297800DFE803F00A81847D8989898989871007BE
:102988004CBF0C460126EDE7524951481BF061F84F
:102998004D4D0023FB71EB6A9A0705D54E494C480B
:1029A8001BF057F8002332E0EB6A002B01DA4B49A1
:1029B800F5E7EB6A5B00F5D5494945481BF049F84E
:1029C8006B69A26943F480736B61BFF34F8FBFF3E8
:1029D8006F8F6B6932F8022C23F480736B61BFF33D
:1029E8004F8FBFF36F8F4DF602739A4208D0AB6AD0
:1029F800DBB27BB3FA1D01212046FFF713FF38E055
:102A08002368384A012132481AF008FF2368FA7906
:102A1800E2B907F1080504F1200C2068083454F8DD
:102A2800041C2A46644503C21546F6D17A6A002E6C
:102A380045D0C2F3080121B96FEA52226FEA422257
:102A48007A6207F108011846FFF7A0FD2837BD464E
:102A5800BDE8F081AB6A13F47F4F04D0F91D012063
:102A6800FFF724FE05E0AB6AB3F5803F9AD3FFF782
:102A780085FE0346CBE7FA1D0021BDE7F91D0020BE
:102A8800EEE719498BE718F4F87F184AE8468AB048
:102A9800174B18BF13466A461649103DC2E905137D
:102AA8004FF40073D5611384134B42F8103F002391
:102AB8004FF411510648FFF7C9F8C54672E722F4EA
:102AC800FF7222F00102BBE700ED00E01994030851
:102AD800346A0308449403085B9403087C9403084D
:102AE8008A940308A9940308C5940308009403086A
:102AF800EB930308E994030804000001044B5A69A6
:102B080042F010025A615A6922F008025A6170476D
:102B180000ED00E0EFF30880EFF3098101B572469C
:102B2800FFF702FF01BD00BF0A4880F308881020A4
:102B380080F3118808484FF40461401880F309882D
:102B4800EFF314800221084380F31488BFF36F8FDA
:102B580000F08EF840C1002480A70024084B9B6831
:102B680083420BD1EFF3058343B1064B5A6842F019
:102B780080525A605A6A22F400425A6219F0ACB97B
:102B88002893002400ED00E014498A684FF03000D3
:102B98001044EFF3098C80E8F01F102080F31288AE
:102BA800BFF36F8F0E4F4FF000664A698A603E6030
:102BB800106F0C4C2060506F0023536780F311880E
:102BC80004B5104600F04CF9BDE8044002F13000AD
:102BD80090E8F01F8CF309887047000028930024C0
:102BE80004ED00E0A88E00241EF0040F0CBFEFF3E4
:102BF8000880EFF30980816911F8021C0229FFD0CF
:102C080001B572461AF01AFF01BD00BF00B20028D4
:102C180007DB0123410900F01F00024A834042F804
:102C28002130704700E100E000B2013100284FEA8E
:102C38000111C9B206DB00F1604000F5614080F87F
:102C48000013704700F00F00014B1954704700BF84
:102C580014ED00E0044B054A23F07F039360BFF3B3
:102C68004F8FBFF36F8F70470000000800ED00E042
:102C780008B5FFF7EFFF0C4AD2F8883023F4700349
:102C8800C2F88830EFF3148323F0040383F3148825
:102C9800BFF36F8F18F0E2FA19F056FA00F056F801
:102CA8001AF0F6FE18F01EFB00ED00E042F8203C9A
:102CB800203A009B07495360019B21F00101936072
:102CC800029B9161D3604FF08073D361002302654A
:102CD8004367704719160008094A0346906870B19F
:102CE80013F1160F006E05D0A0F140029A4205D8E4
:102CF800834203D2814228BF0020704700207047DA
:102D08002893002415460C4A0E4608B50B4B9060D4
:102D1800026F1A6000F0A4F82C4686F30988002098
:102D2800034B98472046002100220023014C2047EE
:102D380071DA01081916000828930024A88E0024C7
:102D4800014B10221A61704700ED00E0002304488F
:102D58001021C2180133962B82F80013F9D170475D
:102D680000E100E008B5EFF30583064A103B02EBEB
:102D7800C30152F8330049688847BDE80840FFF7A7
:102D880085BC00BFA0630308154A70B5536913F4E6
:102D9800803323D1C2F88430BFF34F8FD2F880300C
:102DA80043F6E074C3F3C900C3F34E335B0103EA8F
:102DB8000406014646EA81750139C2F86052F9D223
:102DC800203B13F1200FF2D1BFF34F8F536943F427
:102DD80080335361BFF34F8FBFF36F8F70BD00BF58
:102DE80000ED00E0002910DD00F01F030B44BFF3E5
:102DF8004F8F07490344C1F8680220301A1A002A85
:102E0800F9DCBFF34F8FBFF36F8F0020704700BF0F
:102E180000ED00E00B4B5A6912F4003211D1BFF3F8
:102E28004F8FBFF36F8FC3F85022BFF34F8FBFF39D
:102E38006F8F5A6942F400325A61BFF34F8FBFF364
:102E48006F8F704700ED00E0024B0121024A0348F2
:102E580000F08AB80000082400000024C06B0308B2
:102E6800026E4021044B403A18461A60034AC3E9EF
:102E78000112012100F082B8AC8E002400000B156D
:102E880008B503461048D0F89020C2F30722013A4B
:102E9800934207D90D4801210D4A1AF0BFFC6FF083
:102EA800150008BDC0F898300A6822F01F021A43BE
:102EB80042F01002C0F89C208A6842F00102C0F873
:102EC800A0201846EDE700BF00ED00E0246A0308E3
:102ED80000950308F0B50E4685B01F460446002548
:102EE800B5420DDA606810B397B1431E18420AD094
:102EF800104A2B46012110481AF090FC6FF0150279
:102F0800104605B0F0BD1F28F2D921680B42EFD159
:102F1800236801A901931AF0BCFDA3680343D0B24A
:102F28000393FFF7ADFF10F1160FE7D0421C0135F0
:102F38000C34D5E726950308246A0308044B0522B8
:102F4800C3F89420BFF34F8FBFF36F8F704700BF54
:102F580000ED00E0BFF35F8F024B0022C3F894201E
:102F6800704700BF00ED00E010B5034C0123227844
:102F7800FFF7B0FF207010BD669300240B4A08B518
:102F880000231278FFF7A6FF10F1160F07D0084AA2
:102F98000021D2F89030C3F30723984200DB08BD24
:102FA800C2F898000130C2F8A010F2E76693002436
:102FB80000ED00E0584859492DE9F043D0F8903029
:102FC80085B00D68C3F307239D4200F2A180FFF787
:102FD800C1FF49680022954201F10C011AD1504CF9
:102FE8006846504F2570FFF7EFF800250646DFF8D2
:102FF8003881DFF83891AE421FD123780020464946
:10300800D1F89020C2F3072293427BDB0020FFF720
:1030180095FF4CE0C0F8982051F80C3C23F01F03B2
:103028001343013243F01003C0F89C3051F8043CBC
:1030380043F00103C0F8A030CDE700984FEA051C23
:1030480000EB0511CB683B40B3F5000F44D00AD81C
:10305800B3F5001F2ED0B3F5800F34D0B3F5801F21
:1030680010D00135C7E7B3F1807F3ED0B3F1007FC0
:10307800F7D150F80C3088681AF00BFD4A6840F414
:10308800802009E050F80C3088681AF002FD40F002
:1030980088504A6840F43020039001A92078CDE98F
:1030A8000123FFF7EDFE002828DA6FF0150005B0C0
:1030B800BDE8F08350F80C3088681AF0EAFC4A68DA
:1030C80040EA0800E8E750F80C3088681AF0E1FC9C
:1030D8004A6840EA0900DFE750F80C3088681AF0BF
:1030E800D8FC4A6840F08270D6E750F80C308868FF
:1030F8001AF0CFFC4A6840F08870CDE72378013396
:103108002370AEE7C1F898300133C1F8A00077E723
:103118004FF0FF30CBE700BF00ED00E0A86A0308DE
:10312800669300240000F0FF00000811000002066A
:10313800F0B587B007460E461446002110226846AF
:103148001D4632F044FE02232A4621468DF80230FD
:103158006846044BCDE90476019319F04FFA07B09D
:10316800F0BD00BFBBDA010808B5024B1B689847E1
:10317800002008BDB88E0024034B044A18609378D9
:1031880043F0020393707047B88E0024AC02002409
:103198000649074821F00701C1F1105208B502F5A8
:1031A800002219F04DFF002008BD00BFAFCF012459
:1031B800BC8E0024F0B5114D85B0114E114F4FF063
:1031C800FF334FF0FF3201A9284618F059F903469A
:1031D80090B101213A460C481AF020FBEFE723682A
:1031E80013B1019A934203D101A8D4E90131984758
:1031F8000C34B442F3D3E2E7044CFAE7D8040024D1
:10320800706A030849950308F4690308646A0308A7
:10321800F0B585B017461E4601909DF828008DF838
:1032280009108DF80800ADF80A700396DDE90C5412
:1032380023462C432A460AD00D4932F04BFED1F8DA
:1032480080400C4909588C4204BF002213460A48A2
:1032580001A932F09FFB041E07DA084A0221084838
:103268001AF0D3FA204605B0F0BD0024FAE700BFF3
:10327800188D002408000000D80400245E95030877
:10328800F4690308044B03EB40000023013320F8E2
:10329800022B9942FADC7047080400242DE9F84310
:1032A80006464FF00009114F4FF00108347854FAE0
:1032B80089F5284600F036F970B1284600F062F921
:1032C80057F8353043B14C4407EBC50504F01F04EB
:1032D800696808FA04F0984709F1010972785FFAF9
:1032E80089F39A42E2D2BDE8F88300BFC88E002471
:1032F8004FF48013094A0A4910B5D2F8A40088424D
:103308000BD0581CF9D0013BF7D183F31188BFF3D8
:103318006F8F0424204602DFEFE710BD00640258D7
:1033280000030080034680B1B0FA80F2C2F11F02A8
:10333800D2B2074931F912004FF0B042D2F88010EA
:103348000B43C2F88030FFF761BCFF22F1E700BFF2
:103358000804002438B50D460446FFF7C9FF032DBD
:103368000DD8DFE805F0021116204FF0B0431A68B7
:1033780022EA04021A605A6822EA04025A600E4BD2
:103388004FF440725A6238BD4FF0B0431A68224376
:10339800F0E74FF0B0435A6822435A601A6822EAAD
:1033A80004021A60EBE74FF0B0431A6822431A6030
:1033B8005A6814435C60E2E70064025830B5B0B163
:1033C800B0FA80F3C3F11F03DBB20B4850F8334067
:1033D8008C4204D100EBC3056D68954205D044B911
:1033E80040F8331000EBC3004260002030BDFF23DB
:1033F800EBE76FF00F00F9E7C88E002460B1B0FA70
:1034080080F3C3F11F03DBB2044A002142F83310F2
:1034180002EBC30251607047FF23F5E7C88E002412
:1034280038B500F003030F250C4604339B009D407C
:1034380045EA9005FFF75CFF05F003032A0C92FAB2
:10344800A2F29B00B2FA82F203F1B04302F01F022B
:10345800D3F8081494404FF4407221EA15410C4304
:10346800C3F80844014B5A6238BD00BF00640258D3
:1034780000F003020F23043292009340094A43EA02
:10348800900000F00303023352F82320030C93FA50
:10349800A3F3B3FA83F302EA104003F01F03D84002
:1034A800704700BF000400584FF48013094A0A49C6
:1034B80010B5D2F8A40088420BD0581CF9D0013BB3
:1034C800F7D183F31188BFF36F8F0424204602DFFE
:1034D800EFE710BD006402580003008013B50E4CDE
:1034E800204632F011FA40B90C4801210C4A1AF072
:1034F8008CF96FF0120002B010BD0223F422CDE95E
:103508000023A3681B681BB1694620469847F2E769
:103518006FF05700EFE700BF20600308BC6903089D
:10352800A49503085F2838B5054607D9124A03460B
:10353800012112481AF072F9002038BD00F01F036B
:1035480001249C40FFF7B0FF1F2D4FF0B0430AD86D
:10355800D3F888309C434FF44072094B0CBF0120CC
:1035680000205A62E9E73F2D02D8D3F89830F1E7F6
:10357800D3F8A830EEE700BFC3950308BC69030879
:103588000064025838B5012100F01F055F28044681
:1035980001FA05F507D90F4A03460F481AF03EF914
:1035A8006FF0150038BDFFF77FFF1F2C4FF0B043B9
:1035B80007D8C3F88850094B4FF4407200205A626C
:1035C800F0E73F2C02D8C3F89850F4E7C3F8A850A6
:1035D800F1E700BFC3950308BC69030800640258FB
:1035E800026800290CBF4FF080410021054B90680C
:1035F80003400B4343F0004393609368002BFCDBCC
:10360800704700BFC0FFFE3F70B5436805460469B8
:103618001E683368DA0605D510233249324833600C
:103628001AF0BFFA33685B0743D5D4F89430326C8C
:10363800991CC4F894101A8094F8A53094F8A42022
:103648000133DBB29A4284F8A53032D1002384F8E2
:10365800A530636EA3B3E36FB4F888203BB104F1DF
:10366800640128469847012811D0022822D0B4F8CE
:103678008830B4F884209A421CD90133A4F88830E1
:10368800A36F4BB92046BDE870401AF08EBAD4F843
:103698009830C4F89430F3E7BFF35B8F54E8003FE9
:1036A8005A1E44E800210029F8D1012BBFF35B8F93
:1036B800E8DC70BDA36F1BB104F1080032F03BFBDE
:1036C800D4F890305B681A684FF6FF73A4F8A630F8
:1036D800D36943F00103D36104F15000BDE87040A1
:1036E80017F030BF039603089C690308044808B51F
:1036F800FFF78AFF0348BDE80840FFF785BF00BF12
:10370800A0620308806203080148FFF77DBF00BF7D
:1037180060620308F8B50A790D46436807469106C2
:10372800186808D51B7E33B9484949481AF039FA50
:103738006FF01500F8BD02F01F0312F0200F4FF0D4
:103748000104444A40F2FF7604FA03F418BF16460F
:10375800092B03EB430244EA8364D0F8C03089BFE5
:103768001E3A44EA025444EA025444F000742340E6
:10377800C3F31303B34211D01AF05AFAD0F8C03089
:10378800C4F3130206F0180623EA0203324AF24091
:1037980022401343C0F8C0301AF02DFA2B78092BB9
:1037A80001D02E49C1E76B78042B01D02C49BCE726
:1037B8002C7968887D6804F01F042968B0B143F645
:1037C800FF7398421CD005F118060022254F36F8E1
:1037D800023F3B439BB2984209D00132082AF6D1F6
:1037E80021491B481AF0DDF920499EE7024695F960
:1037F8002A303BB1013BDBB2012B25D91C49F0E74C
:103808000722F4E7012304EB4400092C4FF00705D5
:1038180003FA04F388BF1E3843EA846301F11404F1
:103828008ABF43EA005343EA005343F00073D80DBC
:10383800C3F3045300F004009D4002FA03F3215837
:1038480021EA05010B432350002073E77C96030807
:103858009C6903080000FF47FFFF0F00BC960308A0
:10386800D196030800C0FFFFEB96030844970308AE
:103878000E97030873B546680546346820461AF063
:10388800D7F901216868FFF7ABFE337E1BB1002131
:103898006868FFF7A5FE6B68224899688368DB684B
:1038A800002B37D1204921481AF07BF9019B1BB91D
:1038B8001F491E481AF075F920461AF09CF900288D
:1038C80026DB1C4B9C422AD01B4A94420CBF082280
:1038D80010221A4B00214FF4800503EB8203D4F821
:1038E800C82005FA01F01E6802F040423243C4F8CD
:1038F800C820A26822F480320243A260104AA66857
:10390800304201D1013AFAD1013104330629E6D116
:1039180002B070BD01AA98470028C7DAC2E70022A2
:10392800D7E700BF206003085A9703089C6903087B
:1039380074970308002002400021024000ECF11FA8
:10394800710008002DE9F74FD0F804800646076992
:10395800D8F80050DFF83CB2584631F0D5FF48B9E6
:103968006FF012048C498D481AF01BF9204603B0F9
:10397800BDE8F08F4FF6FF73DBF808A0C7F890603A
:10398800A7F8A630D6F80490DAF80030D9F8004045
:10399800D9F808104BB35846984730BB804B9C4227
:1039A8003ED003F1C0537F497F4A03F586438C42DA
:1039B80008BF13469A68D9F8101022F47C120A43FB
:1039C8009A60D9F81030D9F8081023F40032B2F50B
:1039D800803F03D0B3F5003F18BF0831DAF80C3048
:1039E80003BB72496D481AF0DCF801AA0021D8F827
:1039F80014001AF014FE041E08DB019B002219793A
:103A0800186801F0ABFD041E80F29F80A21C00F034
:103A18009C80674A23460121604819F0FFFEA5E70C
:103A2800614BC7E701AA5B4898470028D9D1D9F864
:103A38001030B3F5A01F33D01AD8B3F5802F53D068
:103A48000DD8B3F5003F4FD004D833F4803304D1F8
:103A5800012326E0B3F5403F4CD05649C2E7B3F501
:103A6800402F43D0B3F5801F42D0B3F5002FF3E7C2
:103A7800B3F5101F40D00AD8B3F5E01F3ED0B3F518
:103A8800001F3DD0B3F5C01FE7D10C2309E0B3F503
:103A9800201F37D0B3F5301FDFD14FF4807300E01B
:103AA8000A23454A116841F20302B2EB114F2CBFB9
:103AB800012202225343019AB2FBF3F33F4A0193D6
:103AC800934221D93E4A934233D93E4A934233D94D
:103AD8003D4A934233D93D4A934233D93C4A022165
:103AE8002E4819F09BFE80E70223DAE70623D8E781
:103AF8000823D6E70423D4E74023D2E71023D0E7EE
:103B08002023CEE78023CCE700232B4A126802F05B
:103B18004052B2F1805FA26815BF03F4407322F4EB
:103B2800807222F4407242EA930318BF1343A360E1
:103B38005BE74FF48073E8E74FF40073E5E74FF471
:103B4800C063E2E74FF4E063DFE7AB6823F02043AC
:103B580023F03F03AB60AB6823F0104323F03F032F
:103B680043F08053AB602B68DB04FCD5D8F80430F5
:103B780003B198473046FFF77DFEEB6823F47E6378
:103B8800EB60BB6C1BB907F1400017F0DBFC0024AD
:103B9800ECE600BF206003084C8F03089C6903080B
:103BA80000200240002102400023024088970308B9
:103BB800E8970308AA9703080010005C105E5F00EE
:103BC80020BCBE00002D310140787D0180F0FA0252
:103BD800C89703082DE9F04F076987B006460D46D8
:103BE80007F1400303934FF0FF324FF0FF33039880
:103BF80017F0DCFC73683469D3F80080AB68C4F84C
:103C080094306F683846C4F8A070FCF7C5FB0023F1
:103C180084F8A40084F8A53027B9A849A84819F061
:103C2800C0FF07E010280EDD1023A64A0121A44892
:103C380019F0F4FD6FF01504039817F083FC204683
:103C480007B0BDE8F08F726810682C3292F901C095
:103C5800634502DB13D19C49E0E752F8041F95F84D
:103C680010E0BEEBD14F29D15FFA81F9C1F30427E7
:103C7800C1F3423BC1F3024AB9F1FF0F20D1736887
:103C88004FF00009326904931B68D2F8A00003F1D1
:103C9800300B68BB94F8A4202B68520013B19B89A1
:103CA80003FB0222EB6893427AD2012100928448F6
:103CB8006FF00B04854A19F0BBFDBDE70133C7E778
:103CC80050F80930FB400BEA03039A45D7D019F0A6
:103CD800AFFF73680BFA07FB0AFA07FA196851F87D
:103CE800093023EA0B0343EA0A0341F80930C6E71F
:103CF80090FAA0F10122B1FA81F1092901EB410CF6
:103D080002FA01F288BFACF11E0C059242EA816208
:103D1800049988BF42EA0C5291F92B1094BF42EAE9
:103D28000C5242F0007201292AD1C2F3130CC2F3DB
:103D3800846EBCF1000F29D101FA0EF2D9695FFA3D
:103D480089FA1F271143624AD96152F82A104FEAAB
:103D5800911C01F01F010CF00C0C8F400EFA01FEB3
:103D68005C495BF80C2051F82A1022EA070242EA63
:103D78000E024BF80C201A6B22F00F020A431A634A
:103D8800059A09F1010920EA020082E792FAA2F2F3
:103D9800B2FA82F2012102F01F0201FA02F2CDE723
:103DA80071686A7C0868002A54D1036923F4806327
:103DB80023F003030361AB7C13B13046FFF75AFDD0
:103DC800404604F1640619F016FF1023AC46C8F803
:103DD8000030D8F8043043F00403C8F80430BCE8D5
:103DE8000F000FC6DCF800303360002626662B680B
:103DF800002B5FD004F178050FCB85E80F006566CE
:103E0800A4F88860002855D0BFF35B8F54E8003FC2
:103E180044E80062002AF9D1BFF35B8FA06F6422E7
:103E28000023633046F10001FCF782FA00220023E8
:103E3800CDE9000104F1080018F060FB4FF0FF32F3
:103E48004FF0FF3304F1500017F0B0FB00B12066CB
:103E5800246EF1E60A2A2BD8036923F4806323F041
:103E6800030343F00103036191F92C30022BA2D123
:103E7800194B4FF0010953F822A009FA02F9174B20
:103E88000269134003F58033B9EB134F04D103697A
:103E980003F4F0739A458ED019F0CAFE0269104BEC
:103EA80009F1FF39134043EA0A0343EA094381E76A
:103EB8000C49B3E6204619F078FEBFE706980308D8
:103EC8009C6903081B98030844980308579803083B
:103ED800346D0308F46C0308C86C03080000FF0382
:103EE8001FFE00FC7C980308064B1B6903F038038F
:103EF800102B05D0182B044818BF00204008704725
:103F08000248FBE7004402580084D71740787D0137
:103F1800374B10B518680B88C3F30B03132B37D82E
:103F280013B96FF0850032E0013B122BF9D801A4D8
:103F380054F823F0C53F0008893F00082B3F0008CC
:103F4800E73F0008CB3F00082B3F00082B3F000845
:103F5800CF3F0008D33F0008CF3F0008D73F0008F5
:103F6800DB3F0008CB3F0008DF3F0008DF3F0008C9
:103F7800E33F00082B3F0008BD3F0008BD3F000895
:103F8800002010600B68B3F5805F2AD2002010BDB6
:103F9800D42B0FD003F62873C3F30B031C2BC0D804
:103FA800012404FA03F3134C234205D140F21114FF
:103FB8002342B6D04008E4E78008E2E7FFF794FF21
:103FC800DFE70D48DDE70D48DBE70D48D9E70D4889
:103FD800D7E70D48D5E70D48D3E70D48D1E70D4899
:103FE800CFE7C3F313330133B0FBF3F01060CDE731
:103FF800A803002400101111006CDC020084D717FC
:1040080000C2EB0B001C4E0E000E27078066AB1398
:10401800E09DA30140787D014FF48013094A0A49C5
:1040280010B5D2F88C0088420BD0581CF9D0013B4F
:10403800F7D183F31188BFF36F8F0424204602DF82
:10404800EFE710BD006402580003008010B50B882C
:104058000C4603F62C73C3F30B03202B13D8FFF77E
:10406800DBFF238861680020C3F30B0303F1B0432F
:1040780003F511331A6822EA01021A604FF44072FC
:10408800024BDA6010BD6FF08500FBE70064025850
:1040980013B50B880C4603F62C73C3F30B03202BC4
:1040A8001DD8FFF7B9FF238861680020C3F30B030D
:1040B80003F1B04303F511331A680A431A604FF449
:1040C80040722388C3F30B0303F1B04303F51133A4
:1040D8001B680193019B034BDA6002B010BD6FF0BF
:1040E8008500FAE70064025873B5A94CD4F8E030AB
:1040F80043F00073C4F8E030D4F8E03003F0007304
:104108000193019BFFF788FF236823F48023236032
:10411800236843F48033236023689803FCD523681D
:104128009B4A43F48053236013689904FCD5994B48
:104138009A6942F440429A619A699204FCD5944B78
:104148001A6902F03802182A16D11A68560706D4D6
:104158001A6842F001021A601A685507FCD58C4BA0
:104168001A6922F007021A611A6912F0380FFBD196
:104178009A6922F00F029A61854B1A6822F08072C0
:104188001A601A6822F080621A601A6822F0805257
:104198001A609A6A22F0030242F002029A629A6A4C
:1041A80022F47C7242F050029A62DA6A22F00C021F
:1041B80042F00802DA62DA6A22F00202DA621A6B64
:1041C80022F4FF7222F0010242F09F021A63DA6AB7
:1041D80022F00102DA621A6B22F47E4242F4007283
:1041E8001A63DA6A42F48032DA621A6B22F4FE0247
:1041F80042F440321A63DA6A42F40032DA621A6B25
:1042080022F0FE4242F080721A63DA6A42F4802297
:10421800DA621A6842F080721A601A689401FCD552
:104228009A6A22F47C3242F4A0429A62DA6A22F054
:10423800C00242F08002DA62DA6A22F02002DA6210
:104248009A6B22F4FF7222F0010242F05F029A6335
:10425800DA6A22F01002DA629A6B22F47E4242F4A1
:1042680000729A63DA6A42F40022DA629A6B22F4E4
:10427800FE0242F440329A63DA6A42F48012DA6249
:104288009A6B22F0FE4242F010629A63DA6A42F4B4
:104298000012DA621A6842F080621A603C4B1A68AF
:1042A8001001FCD59A6A3A4C22F07C7242F4A002C2
:1042B8009A62DA6A22F4406242F40062DA62DA6AE6
:1042C80022F40072DA621A6C22F4FF7222F0010200
:1042D80042F083021A64DA6A22F48072DA621A6C93
:1042E80022F47E4242F400721A64DA6A42F48002CE
:1042F800DA621A6C22F4FE0242F480321A64DA6A34
:1043080042F40002DA621A6C22F0FE4242F0B8521D
:104318001A64DA6A42F08072DA621A6842F08052ED
:104328001A6023689900FCD51B4EFFF7DDFD054692
:10433800B04202D8194802F01DF8A369144A23F4C0
:104348007063A361A36923F00F0343F00803A3611B
:10435800E36923F0700343F04003E361E36923F466
:10436800E06343F48063E361A36923F0700343F0DF
:104378004003A361236A23F0700343F040032362E0
:10438800236923F0070343F00303236108E000BF18
:104398000044025800480258FFC1EB0B00C2EB0B67
:1043A800136903F03803182BFAD1B54202D90E4825
:1043B80001F0E0FF0D4B9A6942F440429A619A6914
:1043C8009204FCD50A4B4FF440720020DA60094A87
:1043D800136923F40043136102F14042064BA2F52E
:1043E8002B121A6002B070BD00C2EB0B00480258D5
:1043F8000064025800440258A8030024132808D86F
:10440800054BC34013F0010F14BF00206FF0850067
:1044180070476FF08500704732FF0D0010B50888AF
:104428000C46C0F30B00FFF7E9FF002826DB4B68BA
:10443800FF2B22D0FFF7F0FD626893B2C2F38450DD
:10444800C2F3054203F1B04300FA02F203F5113357
:10445800196821EA02021A6061688BB2CA0EC1F3B8
:10446800054103F1B0438A4003F51133186802434C
:104478001A604FF44072024BDA60002010BD00BF92
:104488000064025808B5074831F03EFA38B10648CA
:10449800FEF772FE0448FDF7B5F8002008BD6FF07E
:1044A8001200FBE740620308B54400080A2838B543
:1044B8000446074D04D1AB680D2128465B68984730
:1044C800AB68E1B202485B689847204638BD00BF38
:1044D8004062030898B5406800AF046B0369DCB11B
:1044E80033BB204631F010FA034640BB21686C46C6
:1044F80088B06A461548C2E905014FF400719183F6
:10450800134942F8101F13484FF4E251FDF79EFB80
:104518006FF01200A54602E01BB96FF05700BD46C8
:1045280098BD0121103019F0C9FB00EAE070F6E7E8
:104538000121103019F0C2FB0028D2DAEFE7A36896
:104548005B68002BE9D020469847E8E7CF98030836
:1045580003000001AC6903080A4370B5049E45686E
:10456800046910D19A8829688A420CD1D888696868
:10457800884208D11B89934205D1D4F8B8309E42AD
:1045880009D1002006E012480121124A19F03DF92C
:104598006FF0850070BD04F1BC05284617F02CF8B3
:1045A80023680122C4F8B460DA632268536B43F0CD
:1045B800010353634FF0FF324FF0FF33284616F0E4
:1045C800F5FF2268536B23F001035363D9E700BF5B
:1045D800AC690308EB980308F8B54568074606690F
:1045E800AB6873B14FF4D01105F1080019F04BFB1B
:1045F800041E06DA2E4A01212E4819F006F9204633
:10460800F8BD2B694BB14FF4B01105F1100019F04A
:104618003AFB041E01DA284AEDE7284C204631F01F
:1046280073F938B9264A012122486FF0120419F0AB
:10463800ECF8E4E7A368A9691B682BB12046984702
:10464800041E04DA1F4AD6E76FF05704FAE7D5E9E3
:1046580008018368DB6803B198474FF48163A6F8C3
:10466800A8300122002106F1BC0031F09AF9EB6A6A
:1046780038469847144A3046136823F00D031360F0
:104688001AF0A1FB04460028B9D1024606F1380108
:1046980030461AF0F6FB04460028B0D13268D2F84A
:1046A800043123F00103C2F80431084B1864A6E76B
:1046B80018990308AC6903084C990308206003089B
:1046C8004C8F0308839903080040005200100050E3
:1046D80098B5406800AF046B0369DCB133BB204672
:1046E80031F012F9034640BB21686C4688B06A462F
:1046F8001548C2E905014FF400719183134942F846
:10470800101F13484FF4E251FDF7A0FA6FF01200A2
:10471800A54602E01BB96FF05700BD4698BD21467B
:10472800103019F0CBFA00EAE070F6E700211030FB
:1047380019F0C4FA0028D2DAEFE7A3681B68002B47
:10474800E9D020469847E8E7CF980308030000011E
:10475800AC69030808B5044A0121044819F055F862
:104768006FF0850008BD00BFD99903082C6A0308BB
:1047780037B50D46009313460A46817E006819F046
:1047880033F9041E09DA064A2B460121054800942C
:1047980019F04EF8204603B030BD0024FAE700BFF8
:1047A800F49903082C6A030870B505464068C36885
:1047B8002BB100210C3019F053FB044638B9002303
:1047C800686828211A46BDE87040FFF7D1BF034644
:1047D800034A0121034819F06BFB204670BD00BF56
:1047E8001A9A03082C6A030870B505464068C3681E
:1047F8002BB101210C3019F033FB044638B90023E2
:10480800686829211A46BDE87040FFF7B1BF034622
:10481800034A0121034819F04BFB204670BD00BF35
:10482800399A03082C6A03082DE9F04146680546C1
:1048380007698EB0706860B306F1040831F064F857
:1048480050B96FF01204734A0121734818F0DDFF64
:1048580020460EB0BDE8F0814FF4B011404619F083
:10486800E4FA041E06DA23466C4A01216A4819F064
:104878001FFBEDE7142019F01DFB0121404619F03C
:10488800EFFA041E02DA2346654AEEE7C82019F05B
:1048980011FBB38B002B29D1F28A7A80328BBA8034
:1048A8007B70337D03AA8DF80C3040F603030D931B
:1048B8003B78102B14BF002303230C937B880493AD
:1048C8002223CDE9053302230793BB880893962357
:1048D800CDE9093378230B933068B17E83681B6870
:1048E8009847041E1BDA23464E4ABEE75A2B05D1C9
:1048F800338B7B80F38ABB800123D1E7B42B05D1AE
:10490800F38A7B80338BBB800223C9E7B3F5877FAB
:10491800C7D1338B7B80F38ABB800323C0E76868E9
:1049280000230124DB228DF80B300DF10B03817E6F
:104938000094006819F03EF8A0420AD021466FF0B2
:1049480004040346384A344819F0B2FA2346374A71
:104958008BE79DF80B30802B09D0802201462E482A
:104968006FF015040092324A18F062FFEEE74FF438
:10497800D01106F10C0019F058FA041E02DA234689
:104988002C4A72E718222C4928462E6919F0A1FAF8
:10499800041E2EDBC82019F08DFA737803225BBB46
:1049A8002649284619F095FA0028044621DB0023F9
:1049B800112168681A46FFF7DBFE041E19DB142074
:1049C80019F078FA33780DF10B023A21102B686848
:1049D80014BF772355238DF80B300123FFF7C8FE4A
:1049E800041E06DB06221649284619F072FA044608
:1049F80020B12346134A38E71349D2E72846FFF780
:104A0800F3FE0446034608B1104A2EE7104A032174
:104A18002CE700BF579A03082C6A0308779A030803
:104A2800929A0308AE9A0308CB9A0308FB9A0308E4
:104A3800E29A0308179B0308ED9B0308D89B030819
:104A4800999B0308349B0308C39B0308539B0308E3
:104A5800759B03082DE9F843D0F804801746D0F871
:104A680010900D46D8F808001E4619F076F8B7F5EC
:104A7800001F044616D1D8F808402846FEF7F8FC6F
:104A880084420CD1294619F068F8044619F06AF8EE
:104A98002046FEF7B3FC00212046FEF75BFC002011
:104AA800BDE8F883B7F5800F20D0B6F1806F19D034
:104AB800B6F1C06F18D0B6F1007F1AD102264A4667
:104AC8000F492046FEF77AFCB0B9D8F808102846F6
:104AD800FEF7A6FC20463146FEF73CFC2046FEF7D2
:104AE80021FCDCE70126EAE70326E8E76FF085000A
:104AF800D6E76FF01500D3E76FF00F00D0E700BFDF
:104B080069E001084FF48013094A0A4910B5D2F840
:104B1800A00088420BD0581CF9D0013BF7D183F391
:104B28001188BFF36F8F0424204602DFEFE710BD22
:104B3800006402580003008038B543680C465D687D
:104B4800FFF7E0FF4FF4407200206B6963406B6130
:104B5800014B1A6238BD00BF0064025870B5436843
:104B68000D4614465E68FFF7CDFF4FF440720020F3
:104B780073695C402C405C40014B74611A6270BDE3
:104B8800006402582DE9F843164645680124884612
:104B980002F0300799468C40FFF7B4FF6A68C6F305
:104BA8008013C6F3C111C6F3412622EA040203FAB0
:104BB80008F3202F43EA020304FA08F26B6002EBC1
:104BC8004200D5F808C002FB01F102FB06F66FEAC5
:104BD80000032CEA000C41EA0C01A960E96821EA0B
:104BE800000146EA0106EE600FD1B8F1070F18D8A8
:104BF80002FA08F1286A01FA08F1C1EB011401FB75
:104C080009F120EA04000143296229683F090B40A1
:104C180057434FF440721F43094B2F601A62BDE897
:104C2800F883240A696A64436443C4EB041004FBF0
:104C380009F921EA000141EA09016962E5E700BFD3
:104C48000064025838B50369044658600A4D28467E
:104C580030F05AFE60B1AB6861681B680C3123B153
:104C68002846984700EAE07038BD6FF05700F9E72A
:104C78006FF01200F8E700BF2060030808B5044A87
:104C88000121044818F0C1FD6FF0040008BD00BF01
:104C9800339D0308DC69030898B5426800AF0369CF
:104CA800D26883F84E1029B9136823F440131360AF
:104CB800BD4698BD6C468AB003686A460848D1610B
:104CC800C2E905034FF400731384064B42F8103F02
:104CD80000234FF411510448FCF7B8FFA546E7E755
:104CE800519D030804000001DC690308F7B5044678
:104CF800436806690F461C480022DD6859688368C6
:104D08000192DB684BB96FF00404184A0121184876
:104D180018F07BFD204603B0F0BD01AA9847002893
:104D2800F1DB376206F110074FF0FF324FF0FF3327
:104D3800384616F03BFC2B68204623F001032B6015
:104D480096F84E10FFF7A8FF2046019900F004F9E5
:104D580096F84D3004461BB12B6843F001032B60D5
:104D6800384616F0EFFBD5E720600308659D030879
:104D7800DC69030870B50446466805694FF0FF32E0
:104D88000021284630F00DFE33682046984700235E
:104D980085F84C3085F84E30012205F11000114697
:104DA80030F0FFFD224830F0AFFD40B96FF012043B
:104DB800204A0121204818F028FD204670BD2046D1
:104DC80000F048F833691D4A934224D018D81C4A89
:104DD800934222D01B4A934221D001211A4A1648F5
:104DE80018F013FD0021204641F01001FFF77EFF67
:104DF800041E18DA154A01210F4818F006FDDCE7F1
:104E0800134A93420DD002F5C31202F52062934271
:104E1800E3D10A21E7E70621E5E70221E3E70421D8
:104E2800E1E70821DFE70123002485F84C30C4E7D7
:104E3800206003084C8F0308DC69030840420F0018
:104E4800A0860100801A0600939D0308AE9D030802
:104E580040E1330037B5456801AA0021686919F0B7
:104E6800DEFB041E07DB019B00221979186800F09D
:104E780075FB041E08DA0D4A234601210C4818F078
:104E8800CDFC204603B030BD0A48696883681B68BA
:104E98003BB9094A012106486FF0040418F0B5FC33
:104EA800EFE7984704460028EBD0F2E7E29D0308B5
:104EB800E469030820600308009E030830B504690C
:104EC8004068C0684568ED0107D543684A6823F41F
:104ED8007F0343EA0243436030BD246A1D4D14F04A
:104EE800010F44682AD044F40064446044682C40AC
:104EF800234343600B7A9C0728D43AB313785B07A3
:104F080024D4436843F0807343604368039A23F0D2
:104F180000734360436823F480631343436043682A
:104F28004A6823F47F0343EA02434360036843F07B
:104F380001030360436843F40053CCE724F400649E
:104F4800446044682C4044EA4303D2E7436823F0B2
:104F58008073D9E700FCFFFF2DE9F84F47680C463E
:104F6800D0F810900025D7F80C80474A474BF969CC
:104F7800A9420FD8D9F82030C3F34203012B45D0FA
:104F8800022B72D0424A4348012118F03EFC6FF0D0
:104F9800150028E00C26D7F818B03F486E430BEBF5
:104FA800060ADAF80410814226D01ED83B4881420E
:104FB80024D03B48814223D00121364818F025FCF3
:104FC8000021314A314BD9F82000C0F34200B0EB40
:104FD800510F19D15BF80610A14215D1DAF8083043
:104FE8000020C8F81030BDE8F88F2E48814209D05B
:104FF8009942E1D10A21E6E70621E4E70221E2E746
:105008000421E0E70821DEE70135B0E741F25C2C36
:105018004FF47A6740F2E2464FF4FA750221224BC8
:105028004A1EB4FBF2F2B3FBF2F2B7FBF2F001381E
:10503800FF2823D8BCFBF2FE0EF1FF3EBEF1FF0FA6
:105048001CD8B5FBF2F9B9F10F0F17D8B6FBF2F27D
:10505800013A0F2A12D802394EEA094343EA01738A
:1050680043EA025343EA0023BAE740F2145C4FF4E0
:1050780016774FF4FA7640F27715CFE70131112908
:10508800CED10A4A7FE700BF939D0308404B4C00EE
:10509800309E0308EC69030840420F00A086010017
:1050A800801A060040E1330000CA9A3BAB9E030811
:1050B8002DE9F04350F8045C87B001240227D5F8A5
:1050C80004800DF111032E690DF11202D8F80C00BD
:1050D800B8F8101000948DF8127019F0D2F9002861
:1050E8004DDB9DF8113003F00F038DF811305BB3E1
:1050F8000323D8F80C00B8F810100DF113028DF83E
:1051080013300423009305AB19F0BBF9002836DBF4
:105118009DF814109DF8162009029DF8153010020C
:1051280002F00F0201F4706100F470600F2A43EA84
:1051380001039DF8171041EA00010AD1194A0091AC
:105148003946194818F074FB96F82030D3B9002472
:1051580013E04FF0FF384FF0FF391A462846CDE9E3
:10516800008919F0C9F923464FF4A572214628464B
:105178000094CDE90289FEF74BF886F8204007B085
:10518800BDE8F0834FF0FF324FF0FF33012128468E
:10519800CDE90223009100234FF4A572FEF738F8F9
:1051A800D5E700BFDE9E0308C4690308F8B5456863
:1051B80004460669E86830F0A7FB40B93A4A6FF040
:1051C80012040121394818F020FB2046F8BD30466A
:1051D800374940F8044B30F02FFC6B6903B34FF4A8
:1051E800D01105F1140019F028F9041E05DA314A26
:1051F80001212E4818F009FBE7E70021322030F0A2
:10520800EFFC2B7E68690121994003691B681942EC
:1052180083680CBF1B69DB68984700280446D4DB09
:1052280005F11C04E86930F06FFB08B9224AC6E7AB
:1052380020464FF4803119F000F9041E01DA1F4AA4
:10524800D6E7E86995F8201082680369946984B103
:1052580001271B6807FA01F21A424FF0A07214BF27
:105268004FF000734FF08063A047041E04DA144A1D
:10527800BEE76FF05704FAE795F8203006F11401FD
:10528800104A07FA03F3C6E90623E8698368DB696D
:105298002BB13A469847041E04DA0B4AA8E76FF088
:1052A8005704FAE7002490E7FD9E0308C469030841
:1052B800B95000081D9F0308399F0308649F03081D
:1052C8008B9F030883E40108B99F03080346F0B5E0
:1052D80053F8186D85B005467268D16892685C1AF3
:1052E800154BE4105C430C236343D718D058397925
:1052F80019F0E3F8031E08DA104A01210093234647
:105308000F4818F095FA05B0F0BD15F9082C9A4227
:10531800F9D04FF0FF304FF0FF3105F8083C003B63
:105328003A8918BF0123CDE90201012130460091D5
:10533800FDF76EFFE7E700BF398EE338E69F030805
:10534800CC6903082DE9F04F85B04FF00009466895
:1053580002AFF568786018353D6073684B4505DC29
:10536800337D002B40F09F80002423E00C23D6F8E7
:1053780008A003FB09F80AEB08045AF8080030F003
:10538800C3FA0346D8B95AF808206C4688B01168A1
:1053980002AA4948C2E905014FF4007191834749BF
:1053A80042F8101F4FF4E2514548FCF74FFCA54660
:1053B8006FF0120420460C37BD46BDE8F08FE38835
:1053C8005AF80800217943F480324FF0010C04693F
:1053D80013F0010FD0F808E023680CFA01FC14BFA1
:1053E8004CEA030323EA0C032360DEF800309847F5
:1053F800044638B1334A4B4600900121304818F032
:1054080017FAD7E77B68284645F8183C316930F029
:105418003FFB337D002B42D1D6F808A00123A5F12C
:1054280014010AEB080B9BF8042003FA02F2264B3E
:1054380045E904325AF808008268D46964B1012247
:10544800A047041E0BDA214A01211D4818F0DDF996
:105458001F4A4B460094D0E76FF05704F3E79BF8D8
:1054680004105AF8080019F028F805F8080C5AF83A
:1054780008009BF8041083689C696CB14FF0C06306
:105488004FF0A072A047041E09DA124A23460121F0
:105498000B4818F0C3F9DBE76FF05704F5E709F19B
:1054A8000109483559E732680A233868A2FB032303
:1054B80016F066FA58E700BF02A0030803000001CF
:1054C800CC69030812A00308EBE40108B99F03089C
:1054D80032A0030839A0030837B5456801AA00219E
:1054E800E86819F09CF8041E07DB019B0022197973
:1054F800186800F033F8041E06DA134A234601211F
:10550800124818F08BF90BE0114C204630F0FCF9EA
:1055180048B96FF012040F4A01210C4818F075F9C8
:10552800204603B030BDA36869681B6833B12046C4
:105538009847041E05DA084A2346E0E76FF0570447
:10554800F9E70024ECE700BF66A00308146A030823
:10555800206003084C8F030884A003082DE9F04756
:10556800044600EBC10600251C4FB44201D10020BF
:1055780014E02068C30600F01F0911D4656845F0DF
:105588002005C0F3481AC0F34420192823D857F837
:105598002080B8F1000F0DD16FF01200BDE8F08740
:1055A800B9F1100F04D0B9F1110FEAD16568E8E735
:1055B8003025E6E7404630F0A7F90028ECD04B4606
:1055C8002A460AF00F01404618F060FD002804F151
:1055D8000804CADAE2E76FF01500DFE7887103080C
:1055E8002DE9F04182B080460D46436800AF02695C
:1055F8001E68002936D01068D9688368DB686BB1EB
:105608003A1D9847041E0CDA1A4A01211A4818F064
:10561800FCF820460837BD46BDE8F0816FF0570416
:10562800F2E7336823F4004333607B6803EB5503E8
:10563800B3FBF5F30F2B18D86C468AB0D8F80030B6
:105648006A460E49D561C2E905134FF40073138405
:105658000B4B42F8103F00234FF411510648FCF75A
:10566800F5FAA5466FF01504D3E79BB20024F36062
:10567800CFE700BF659D03084C6A0308F0A0030844
:1056880004000001F8B50C46036941685D68237998
:10569800012B15D09F1E7E427E41B6026279022AF6
:1056A80096BF464F4FF4005737F81270A279022A76
:1056B80009D0042A30D0003B18BF01231B0306E0A1
:1056C8004FF4C066EAE7B3FA83F35B091B07E27994
:1056D8000968012A14BF4FF0000C4FF4407CA54222
:1056E8001DD10A6822F0805222F4B05232431A4384
:1056F8000A604B6823F440533B434B6043681A6885
:10570800936823F4407343EA0C0393602968FFF716
:1057180067FF00EAE070F8BD4FF48053D7E7D1F88F
:1057280000E00EF4C06E764506D0D1F800E02EF405
:10573800C06E4EEA06060E6041680E68716801F494
:1057480040518F4204D0716821F44051394371604F
:1057580041680E68316801F010218B4204D031682D
:1057680021F010210B433360436819688B6803F4F8
:1057780040739C4505D08B6823F4407343EA0C03BF
:105788008B6043681B689968490405D5032A09D0CA
:105798009A6822F4804204E0032A03D19A6842F40A
:1057A80080429A6021682B68994205D0FFF718FF5C
:1057B8000028B0DB23682B600020ACE7BC87030817
:1057C8002DE9F04182B006464568046900AF6E488D
:1057D800206030F099F838B96C4A01216C486FF0B4
:1057E800120418F012F80BE02068E96883681B6857
:1057F8005BB96FF05704674A0121654818F005F84E
:1058080020460837BD46BDE8F08198470446E8B908
:105818003A1D0021286A18F002FF041EF0DB7B689D
:10582800002219791868FFF799FE041EE8DB7568ED
:1058380033692C68D3F80480236823F001032360BC
:10584800686830F061F848B9534AC6E7514A0121FF
:105858004F4817F0DAFF002CD2DBD9E7D5E9010170
:105868008368DB6803B1984754E8003F43F00C03B2
:1058780044E80032002AF7D141463046FFF702FFDC
:10588800002802DA6FF01504BAE72B7D1BB1A36874
:1058980043F00803A3606B7D1BB1636843F40043C6
:1058A8006360AB7D1BB1636843F480336360EB7D59
:1058B8001BB1636843F4003363602B7E002B50D028
:1058C800364B9C4233D0A3F54C439C422FD003F572
:1058D80080639C422BD003F580639C4227D003F55C
:1058E80080639C4223D003F544439C421FD0A3F518
:1058F8001C439C421BD003F580639C4217D0284B65
:105908009C4214D06C4688B033686A462549C2E97F
:1059180005134FF400739383234B42F8103F002381
:105928004FF4E2511A48FCF791F9A546AAE77368C3
:105938001A68936843F48043936023686A7E23F06F
:10594800787343EA425323602368AA7E23F4F8134A
:1059580043EA02432360EB7E1BB1A36843F4004390
:10596800A3602B7F1BB1236843F000532360236897
:1059780043F001032360E3699A02FCD5E3695B0203
:10598800FCD500243CE700BF206003084C8F0308C7
:105998004C6A030807A1030827A103080010014067
:1059A800000C005842A1030803000001F8B5436841
:1059B80002460E4691F805E01C68036908795D689F
:1059C80001288B7913D1BEF1020F6CD9022B1F4627
:1059D8004FF4C0614FF4005C7DD0042B76D00028D2
:1059E8007ED0C31E012B73D86FF08500F8BD022846
:1059F8000AD1BEF1020F62D9022B1F464FF4806113
:105A08000BD04FF4005CE8E7BEF1020F5AD9022B25
:105A18001F4659D100286ED00021C31E012BE3D99F
:105A28000020022703237345DED118F044FEB84254
:105A3800DAD1F3791BB3012B65D1344B9C421ED0CC
:105A4800A3F54C439C421AD003F580639C4216D0C0
:105A580003F580639C4212D003F580639C420ED00C
:105A680003F544439C420AD0A3F51C439C4206D04C
:105A780003F580639C4202D0254B9C42B4D1236835
:105A88003146104623F001032360FFF7FBFD002891
:105A9800AADB236843F00103236096E8030085E846
:105AA80003000020A2E74FF4C0611A4F022B37F819
:105AB8001EC01F4691D170B94FF0805010E04FF4CE
:105AC8008061F2E70021F0E700219AE700288BD1F6
:105AD8004FF4805004E0C31E012B85D90227002013
:105AE800BCF5805F0BD0BCF5405F0AD0BCF1000F5D
:105AF80098D1012397E701464FF0805092E70023A1
:105B080091E702238FE7032B97D06DE70010014040
:105B1800000C0058BC8703084FF0E0230F4910B56C
:105B28009C691A6908689B6902F480320C4934B987
:105B380093B903464AB90A681044C01A10BD002B2D
:105B480008BF03460AB9A342F5D90A6802440A60A5
:105B58004FF0E0221269EEE70446F3E79C90002438
:105B6800989000240A4B1022002083F8232049F63D
:105B78004042084B1A6049F63F42074B18604FF005
:105B8800E0235A6198611A6942F007021A61704766
:105B980000ED00E09C90002498900024684620F0D6
:105BA80007018D4619B5FFF7B7FF1149114B086872
:105BB800D3E90042001942F10002C3E900020E4A8B
:105BC80000230B6049F64043D2E90041001BB0FBBB
:105BD800F3F043431B1941F10001C2E9003116F00B
:105BE8008DFBFCF753FDBDE819408546704700BFA3
:105BF80098900024900B0024880B00242DE9F04194
:105C0800DFF8E08099B1421C0BD14FF0E022136914
:105C180023F0010313614FF07F43C8F80030BDE85B
:105C2800F081D8F80060012807DC00270BE0431C4E
:105C3800D8F80060F7D14FF4D17040F2A31398421E
:105C4800A8BF1846471EEFF31185102383F3128867
:105C5800BFF36F8FFFF760FF234C4FF0E023996984
:105C6800D4E9002380184FF0000243F10003C4E98F
:105C780000031E4B1A601E4B1A68831A2ED449F66D
:105C8800404C0CFB073303F51C433F33B3FBFCF7D5
:105C9800131A40F6C4120CFB0733934238BF13465D
:105CA800144A934228BF1346C8F800304FF0E02248
:105CB800013B90695361002381429361A1EB00038A
:105CC800D4E9001238BF9B195B1842F10002C4E9FD
:105CD800003285F31188BFF36F8FA0E740F6C41335
:105CE800E2E700BF9C900024900B002498900024C9
