:020000040800F2
:10000000404A0124AD340008DDE3010899340008BA
:100010009934000899340008993400080000000061
:100020000000000000000000000000006D35000826
:1000300099340008000000000D3500082165000813
:10004000E9360008E9360008E9360008E936000814
:10005000E9360008E9360008E9360008E936000804
:10006000E9360008E9360008E9360008E9360008F4
:10007000E9360008E9360008E9360008E9360008E4
:100298007BB972B90029BEBF00204FF0004106E0CB
:1002A80008BF00281CBF6FF000414FF0FF3000F07E
:1002B80057B8ADF1080C6DE904CE002909DB002B15
:1002C8001ADB00F07CF8DDF804E0DDE9022304B075
:1002D8007047404261EB4101002B1BDB00F06FF8D7
:1002E800DDF804E0DDE9022304B0404261EB41019E
:1002F800524263EB43037047524263EB430300F0FF
:100308005EF8DDF804E0DDE9022304B0404261EB69
:1003180041017047524263EB430300F050F8DDF8A7
:1003280004E0DDE9022304B0524263EB4303704763
:1003380053B94AB9002908BF00281CBF4FF0FF3144
:100348004FF0FF3000F00CB8ADF1080C6DE904CEA9
:1003580000F035F8DDF804E0DDE9022304B0704769
:10036800704700BF10F8012B11F8013B012A28BF84
:100378009A42F7D0D01A7047034611F8012B03F8B8
:10038800012B002AF9D17047034613F8012B002AE4
:10039800FBD1181A01387047430803F05533C01AC7
:1003A80000F03333800800F03330184400EB1010AD
:1003B8004FF0013300F00F305843000E70472DE91D
:1003C800F04786468C460846089E154674461946E8
:1003D800002B40F0C2808542B2FA82F245D94AB178
:1003E800C2F1200300FA02FC2EFA03F3954043EA17
:1003F8000C0C94404FEA154EA8B2BCFBFEF8230C37
:100408000EFB18CC08FB00F943EA0C43994528D9A0
:10041800EB1808F1FF3704D2994502D9A8F1020771
:100428002B44A3EB0903A4B2B3FBFEFC0EFB1C3365
:100438000CFB00F044EA0344A04214D92C190CF137
:10044800FF3304D2A04202D9ACF102032C44241A8F
:1004580043EA07401EB1D440002334607360BDE80E
:10046800F0874746DDE76346F1E792BB431B01216E
:100478004FEA154EAFB2B3FBFEFC200C0EFB1C334B
:100488000CFB07F840EA0343984562D9EB180CF1D6
:10049800FF3004D2984502D9ACF102002B44A3EBFB
:1004A8000803A4B2B3FBFEFC0EFB1C330CFB07F7DE
:1004B80044EA0344A7424ED92C190CF1FF3304D265
:1004C800A74202D9ACF102032C44E41B43EA0040E2
:1004D800C0E7C2F1200320FA03F1954090402EFABC
:1004E80003F303434FEA154EAFB2B1FBFEFC0EFB1C
:1004F8001C10190C0CFB07F841EA0041884504FA66
:1005080002F422D969180CF1FF3004D2884502D9C7
:10051800ACF102002944A1EB08019BB2B1FBFEFC3F
:100528000EFB1C110CFB07F743EA01439F420ED94F
:10053800EB180CF1FF3104D29F4202D9ACF1020151
:100548002B44DB1B41EA004192E76046E3E7614642
:10055800F7E76046A3E76346B7E7834206D916B9CB
:10056800002108467BE7C6E900E0F9E7B3FA83F71C
:100578008FB9834201D3724508D8BEEB020460EB01
:10058800030301209C461EB9002168E73846FAE7B4
:10059800C6E9004CF8E7C7F1200CBB4022FA0CF47E
:1005A8001C432EFA0CF120FA0CF3B84001434FEA31
:1005B80014490EFA07F5B3FBF9F81FFA84FE09FB94
:1005C80018300B0C08FB0EFA43EA00439A4502FA6E
:1005D80007F240D9E31808F1FF3004D29A4502D94E
:1005E800A8F102002344A3EB0A0389B2B3FBF9F88C
:1005F80009FB183308FB0EFE41EA03418E452CD94E
:10060800611808F1FF3304D28E4502D9A8F102031C
:10061800214443EA0040A0FB0298A1EB0E014145AA
:10062800CE46434602D306D14D4504D2B9EB020E5D
:1006380068EB04030138002EA6D0B5EB0E0261EB7F
:10064800030101FA0CFC22FA07F34CEA0303F94010
:10065800C6E9003198E74046C5E74346D9E70000B8
:100668007FB5334D00220321286822F071FF3148FD
:100678002C682EF0B1FFC0F307238DF80000C0F3FB
:10068800074000228DF801308DF8020020462A4CE0
:10069800009922F04EFF00220321206822F058FF23
:1006A800244826682EF098FFC0F307238DF804002D
:1006B800C0F3074000228DF805308DF8060030465B
:1006C800019922F036FF1D4B1E68D6B93246062125
:1006D800286822F03DFF1A482C682EF07DFFC0F3F1
:1006E80007238DF80800C0F3074032468DF809301B
:1006F8008DF80A000299204604B0BDE8704022F047
:1007080018BF00220621206822F022FF0C48246826
:100718002EF062FFC0F307238DF80C00C0F30740EA
:1007280000228DF80D308DF80E000399E3E700BF25
:10073800100F0124A64E0A000C0F0124F00E01240C
:1007480066D1FF0010B51C4B002401211C701B4B07
:100758001C701B4B1C701B4B18681FF0FAFF1A4BC0
:10076800012118681FF0F5FF184B012118681FF0C8
:10077800F0FF174B012118681FF0EBFF154B012103
:1007880018681FF0E6FF144B1449186833F088F90D
:10079800134B012118681FF08EFD124B01211868B8
:1007A8001FF089FD104B22461821186822F096FE8A
:1007B800BDE81040FFF754BF1B140124171401248F
:1007C80016140124040F0124000F0124FC0E012437
:1007D800F80E0124F40E0124140F01243A9A030898
:1007E800100F01240C0F0124180F0124074B07B523
:1007F800074A08211B6868461CF094FB054B6946AC
:10080800186833F04DF903B05DF804FB04020024C6
:10081800ACB00308FC0E012406490B685A4203F0E9
:100828003F0302F03F0258BF534201330B60FFF70A
:10083800DDBF00BF0402002406490B683E335A425C
:1008480003F03F0302F03F0258BF534201330B60ED
:10085800FFF7CCBF0402002438B5264B1B78002BC9
:1008680047D1254B1B78002B43D1244B1D78002DF5
:100878003FD10124224A1C70224B1B68A342B8BFF7
:1008880023461360FFF7B2FF1F4B2049186833F067
:1008980007F91F4B214618681FF05BFF1D4B2146C7
:1008A80018681FF056FF1C4B214618681FF051FFAF
:1008B8001A4B214618681FF0FEFC194B2146186890
:1008C8001FF0F9FC174B214618681FF0F4FC164B73
:1008D800214618681FF0EFFC144B214618681FF0DA
:1008E800EAFC134B2A4608211868BDE8384022F074
:1008F800F5BD38BD1A140124181401241B14012451
:100908000402002400020024140F0124529A030850
:10091800100F01240C0F0124080F0124040F0124D7
:10092800000F0124FC0E0124F80E0124F40E01240A
:10093800180F012408B52FF0BAF801280DD10B4B78
:100948001870FFF779FF1CF0A0FD10F5AF70084B89
:1009580041F10001C3E9000108BD20F008000328A7
:1009680002BF024B00221A70F6E700BF16140124DA
:100978001006002408B52FF09AF801280DD10B4B6A
:100988001870FFF749FF1CF080FD10F5AF70084B99
:1009980041F10001C3E9000108BD20F00800032867
:1009A80002BF024B00221A70F6E700BF1714012499
:1009B80010060024184B10B588B01C68FFF7C2FE5B
:1009C800164B80211C600124154B1A68154B1A60C0
:1009D800154B1C70154B18681FF0A9FC144B80218F
:1009E80018681FF0A4FC134B214618681FF063FC1D
:1009F8000022002310491148CDE9062300230522CF
:100A0800CDE90133CDE9032300934FF400620C4B89
:100A18001BF0C8FC08B010BD04020024F801002433
:100A280000020024FC01002418140124100F0124E2
:100A38000C0F0124080F0124401401249005002400
:100A48009D0D00080146014835F07ABC38050024A0
:100A5800002307B5CDF801308DF8053009238DF84E
:100A680000309DF8043060F304038DF80430044826
:100A7800694683681B68984703B05DF804FB00BFAC
:100A88000C6C030830B587B005460C4614220021CB
:100A980001A835F072FE0123AB40CDE902340223F0
:100AA80004930A238DF81430034801A983685B680E
:100AB800984707B030BD00BF0C6C030870B50446FA
:100AC8004518074EAC4204D11420BDE870401CF014
:100AD800E4BC14F8011BB36801485B689847F1E768
:100AE800CC6B03082DE9F04F85B0814688464FF05E
:100AF800FF341CF0CAFC10F5C87726464FF00005F5
:100B080041F1000ADFF860B01CF0BFFCB84271EB9D
:100B18000A0125DA454523DADBF808301B688BB172
:100B28000DF10F015846984760B99DF80F206B1CCE
:100B380009F8052001931CF0A8FC019B04460E4609
:100B48001D46E1E701201CF0A8FC002EDCDB1CF0B0
:100B58009CFC001B61EB06011E2871F10001D3DB30
:100B6800284605B0BDE8F08FCC6B0308194B30B5AB
:100B78001B7889B02BB9184B1A7822B1174B012270
:100B88001A7009B030BD164A127802F0FF04002A24
:100B9800F7D1012580211D70104B1C70114B18686E
:100BA8001FF0C5FB104B294618681FF084FB002274
:100BB80000230E4904940E48CDE9062305234FF47B
:100BC8000062CDE90243CDE900440A4B1BF0EAFB81
:100BD800D7E700BF1B1401241A1401241914012497
:100BE800181401240C0F0124080F0124801C01246F
:100BF80018060024B90C000837B5064CA5682B6800
:100C08002BB10DF10701204698470028F7D003B013
:100C180030BD00BFCC6B030870B5214BADF5087D26
:100C280004466A4603F108061868083353F8041C9A
:100C38001546B34203C52A46F6D1998818689B79A8
:100C4800A980AB7104F13E0328608DF80E308DF851
:100C58000340FFF7D1FF05201CF01FFC0F21684659
:100C6800FFF72CFF64201CF018FC4FF4007108A853
:100C7800FFF738FF0B280246214606DD09481CF01D
:100C880057FF01200DF5087D70BD20B906481CF0FE
:100C98004FFF0020F6E705481CF04AFFF9E700BFC0
:100CA80048740308619A0308879A03089A9A030804
:100CB8002DE9F0419AB02F4901242F4D01A82F4F5B
:100CC800FFF75AFB00234FF0FF3201A88DF864307C
:100CD8004FF0FF33FFF7B6FE2B785FFA84F803F086
:100CE800FF067BBB23463A46602101A81CF01AF98F
:100CF80001A84FF0FF324FF0FF338DF86460FFF723
:100D0800A1FE4046FFF788FFB0B11D4B60211D4A88
:100D180001A81C6023461CF005F901234FF0FF329F
:100D280001A88DF864304FF0FF33FFF78BFE164BA8
:100D38001E701AB0BDE8F0810134FA201CF0ADFB3A
:100D4800412CC9D12B7893B1104901A8FFF714FBA6
:100D580001234FF0FF3201A88DF864304FF0FF33C4
:100D6800FFF770FE0023084A2B701370E1E708496B
:100D7800EBE700BFBB9A030819140124C79A0308BC
:100D880000020024DB9A03081A140124F49A0308C9
:100D9800049B0308584BF0B51C68E5B0574B002C72
:100DA8001D6816DC56490BA8FFF7E6FA0023012454
:100DB8004FF0FF328DF88C300BA84FF0FF33FFF760
:100DC80041FE2046FFF728FF0646002869D04D4B14
:100DD8001C6023464C4A60210BA80095E6B21CF023
:100DE800A1F800234FF0FF320BA88DF88C304FF09C
:100DF800FF33FFF727FE454BEFB20DF10C0C03F163
:100E0800100E1868083353F8041C6246734503C271
:100E18009446F6D107F162038DF80D608DF81A70CB
:100E280033448DF81B30FFF7E7FE05201CF035FB37
:100E3800102103A8FFF742FE64201CF02EFB4FF49C
:100E4800807124A8FFF74EFE3A4603463146002833
:100E580040D12F481CF06CFE96201CF01EFB384633
:100E6800FFF7DAFE07463046FFF7D6FE002F39D0E7
:100E7800002833D1234B274A1D602B46009460215C
:100E88000BA81CF04FF801234FF0FF320BA88DF888
:100E98008C304FF0FF33FFF7D5FD1F4B00221A703F
:100EA80016E00134FA201CF0F8FAE4B2412C88D19B
:100EB8001A490BA8FFF760FA01234FF0FF320BA87D
:100EC8008DF88C304FF0FF33FFF7BCFD124B1E70CE
:100ED80065B0F0BD12481CF02BFEBDE72B46114A49
:100EE8000094CCE718B123460F4A0095C7E70F498D
:100EF8000BA8FFF741FAC6E7FC010024F80100241B
:100F08001F9B030800020024569B0308577403081C
:100F18006B9B0308AA9B030818140124379B03083A
:100F2800899B0308C69B0308E79B0308069C0308E4
:100F38002DE9F04FABB0144F384635F0BBF930B956
:100F480012481CF0F5FD01202BB0BDE8F08F104CC5
:100F5800204635F0AFF908B90E48F2E74FF496404D
:100F68000D4BCDE91103A368DB6823B1204611A915
:100F78009847044608B10948E3E7094835F09AF963
:100F880090B90848DDE700BFAC6C0308279C03084C
:100F9800CC6B03083A9C0308010103004B9C03082F
:100FA8000C6C0308639C03082046D24DFFF750FDE4
:100FB8000120FFF74DFD08F077FD05F047FFCE4A09
:100FC8002860114620F093FB2E68224621463046C1
:100FD80022F076FA30462246214622F078FA304648
:100FE8002246214622F05EFA22463046214622F069
:100FF80060FA28680121C14E2DF0EDF90223286816
:101008001A4619462DF0F3F922461821286822F0CD
:1010180065FA286816F0DAF9B949306032F040FD0F
:101028003068B54920F035FB30682246022122F0AD
:101038009DFA2246B349306822F091FAB24E2868E8
:1010480013F00EFF2622B149306020F050FB2246F3
:101058000C21306822F091FAAD48D6F800802EF0C5
:10106800BBFAC0F307238DF81400C0F307402246EB
:101078008DF815308DF816004046059922F043FA90
:10108800A448D6F800802EF0A7FAC0F307238DF8FD
:101098001800C0F3074022468DF819308DF81A0061
:1010A8004046069922F045FA30682246022122F08D
:1010B8004FFA23460A229849306820F05BF9224605
:1010C80030680C2122F018FA012130681FF041FB2A
:1010D800306816F07BF90646904932F0E1FC22466A
:1010E8008F49304622F03BFA304620F0A4FE8D4E60
:1010F800286813F0B5FE37228B49306020F0F7FAE4
:1011080022460E21306822F038FA8848D6F8008046
:101118002EF062FAC0F307238DF81C00C0F30740D5
:1011280022468DF81D308DF81E004046079922F0A2
:10113800EAF97F48D6F800802EF04EFAC0F307236C
:101148008DF82000C0F3074022468DF821308DF835
:1011580022004046089922F0ECF930682246032123
:1011680022F0F6F9234601227249306820F002F98C
:1011780023460B226F49306820F0FCF823460322EF
:101188006C49306820F0F6F8012130681FF0E1FA68
:10119800306816F01BF90646674932F081FC224692
:1011A8005849304622F0DBF9304620F044FE634EC1
:1011B800286816F00BF96249306032F071FC30682B
:1011C8002246504922F0CBF922463068022122F00B
:1011D800CDF9012130681FF0BCFA5A4E286813F087
:1011E8003FFE37225049306020F081FA22460E2116
:1011F800306822F0C2F94D48D6F800802EF0ECF99C
:10120800C0F307238DF82400C0F3074022468DF869
:1012180025308DF826004046099922F074F9444893
:10122800D6F800802EF0D8F9C0F307238DF82800EF
:10123800C0F3074022468DF829308DF82A00404631
:101248000A9922F076F930682246032122F080F9C3
:10125800234601223C49306820F08CF823460B22B3
:101268003949306820F086F8234603223649306829
:1012780020F080F8012130681FF06BFA306816F012
:10128800A5F80646314932F00BFC22461D49304686
:1012980022F065F9304620F0CEFD2D4E286813F077
:1012A800DFFD3C222049306020F021FA224612213D
:1012B800306822F062F92748D6F800802EF08CF9C1
:1012C800C0F307238DF82C00C0F3074022468DF8A1
:1012D8002D308DF82E0040460B9922F014F91E4847
:1012E800D6F800802EF078F9C0F307238DF8300087
:1012F80034E000BF180F012464000020140F0124FB
:101308003A9A030838870308040F012432000020A2
:1013180044444400666666008FD40108739C030841
:10132800D4810308000F0124410000204F6A2D00DA
:1013380032431B007D0900087C9C0308FC0E012435
:101348007AB80408F80E01243D090008809C0308B7
:10135800100F0124D0660F00A64E0A00C0F3074004
:1013680022468DF831308DF8320040460C9922F033
:10137800E0F830682246032122F0EAF823460A22E0
:10138800BC4930681FF0F6FF306816F01FF80646B3
:10139800B94932F085FB2246B849304622F0DFF8D9
:1013A800304620F048FDB64E286813F059FD3C221F
:1013B800B449306020F09BF922461221306822F0AF
:1013C800DCF8B148D6F800802EF006F9C0F3072300
:1013D8008DF83400C0F3074022468DF835308DF87B
:1013E800360040460D9922F08EF8A848D6F80080BD
:1013F8002EF0F2F8C0F307238DF83800C0F3074049
:1014080022468DF839308DF83A0040460E9922F080
:1014180090F830682246032122F09AF823460A22DF
:101428009B4930681FF0A6FF306815F0CFFF0646CD
:10143800984932F035FB22469049304622F08FF821
:10144800304620F0F8FC944E286813F009FD2D2250
:101458008C49306020F04BF922460E21306822F08A
:101468008CF88E48D6F800802EF0B6F8C0F3072323
:101478008DF83C00C0F3074022468DF83D308DF8CA
:101488003E0040460F9922F03EF88048D6F800808A
:101498002EF0A2F8C0F307238DF84000C0F30740F0
:1014A80022468DF841308DF842004046109922F0CE
:1014B80040F830682246032122F04AF823460A22DF
:1014C800774930681FF056FF224630680C2122F019
:1014D8000CF8012130681FF03CF9306815F076FFF0
:1014E8000646704932F0DCFA22466449304622F05A
:1014F80036F8304620F09FFC28686B4D15F066FFE3
:10150800012128601FF025F96849286820F0C1F8F2
:1015180022460221286822F029F8224664492868D0
:1015280022F01DF80321286816F004FBBB685B68ED
:101538000BB1384698470026402510F017FA374671
:10154800B0460DF112010020ADF81280ADF84480CC
:10155800FFF798FA11A90120FFF794FABDF81230A5
:1015680005201F44BDF844301E441BF096FF013D82
:10157800E7D1BB114F48A8464FF0FF3A0093B3118B
:1015880000991A4601931CF0D3FAFFF769F84A4B01
:1015980002930022002311A948481AF02FFC0028C2
:1015A80036D0002004A9ADF81000ADF81200FFF7FE
:1015B80069FA0DF112010120FFF764FA009BBDF8EA
:1015C8001020D21ABDF812300392019AA3EB020B35
:1015D8001BF05BFF07460E46BDF8100040F2FE31D7
:1015E800039A88428CBF4FF001094FF0000973D964
:1015F800002D71D1324B1B7823B32846FFF7DAF957
:10160800B246029710F0B2F90A201BF046FF0CE030
:10161800254E11A9306832F043FA012130681EF0D6
:101628004AFE9DF8A43013B9A9464D46B1E7254BAB
:10163800802118681EF085FE114B802118681EF065
:1016480080FEF1E7204B1B7863B9204B1B784BB920
:101658001F4B28461B6813B9FFF788FAD0E7FFF736
:10166800FBF8CDE7184B1B78002BC9D0194B01228A
:101678001A70C5E7750B0008849C0308D481030819
:101688000C0F012441000020635E1500A64E0A00DD
:1016980061080008529A0308F40E0124D0660F006E
:1016A800BD090008929C0308080F0124640000206B
:1016B800388703089A9C0308C0BDF0FF380500244A
:1016C8001B140124100F01241A14012418140124D6
:1016D800F00E012419140124029BFF1A66EB0A0676
:1016E800C82F76F100068DDB3CB912F15A0F43DBA7
:1016F8005A2AD4BF0024012407E0611C3AD112F110
:101708003B0FACBF002201225442B8F1000F4AD16E
:101718001BF15A0F39DBBBF15A0F57DC374B1B78DB
:1017280083B1374D1BF0B1FED5E9002390429941B2
:1017380008DBFFF771F81BF0A8FE783041F10001D3
:10174800C5E900012F4B1B78002B3FF45BAF2C4DF4
:101758001BF09BFED5E9002390429941FFF652AF5A
:10176800FFF76AF81BF091FE783041F10001C5E9F6
:10177800000147E73B2ABCE7234A127812B94FF029
:10178800FF34C2E7FEF7DEFFF9E71F4B1B785BBBB0
:101798001E4A1368013303F0010348BF5B4213601C
:1017A800FEF75EFF22E0B8F1FF3F07D11BF13B0FC8
:1017B800ACBF00230123C3F10008AFE7BBF13B0F27
:1017C800D4BF4FF000084FF00108A7E70E4B1B7875
:1017D8007BB90E4A1368013303F0010348BF5B422B
:1017E8001360FEF73DFF06E0FFF716F84FF0FF38ED
:1017F80094E7FFF721F84FF001088FE71714012449
:1018080010060024161401241B140124F00E0124D0
:101818002DE9F04F91B0840705460E46009302F07B
:101828000403DDF868800293C2F3C203039203F154
:101838000103059340F0BA81041D30B1072909D886
:101848006FF01B0011B0BDE8F08F01F007063444BB
:10185800C6F10806009B4FF000094FF0040A591E14
:101868004FF0FF334F46CB4601935346CDF81090C7
:101878000DB1009A22600598002800F3E880984886
:10188800009A824203D397488242C0F0E080039ACC
:10189800A4EB050E92074FEA9E0000F103810F2F7B
:1018A80000F2B180002D00F0058107F140020DEB38
:1018B800020C019A0CF8200C0CF8102C049801303A
:1018C8000490E7E07A285DD84B280ED8472859D8E5
:1018D80029282DD8252852D054D820287AD0233822
:1018E800D0F1000B4BEB000B74E04C382E2849D894
:1018F800DFE800F0704848484848484848484848A1
:101908004B484848484848484859484B4B59595902
:10191800704B6D487048184B184848827F4B4848B0
:101928004B487F0000204FF0000B4FF0040A38E0CE
:101938002A380122C0B202FA00F010EA0E0F49D18B
:1019480010F0625C2FD110EA020B43D06046013CD4
:101958005444B4FBFAF40AFB04F4002D61D0A3EB61
:10196800050CA444B4453FF66BAF002868D1042B9E
:1019780047D158F8043B2360043404232AE0019A31
:10198800013A01924FF0000B24E011F8010C6C2889
:1019980034D111F8023C00206C2B8346C5D14FF09E
:1019A800080A5346D3E708F10708073428F0070860
:1019B80024F00704F8E802AB35B106982044B04299
:1019C8003FF63EAFC4E900AB08344FF0000B4FF0D0
:1019D800080A534611F8010F002878D0BBF1000F10
:1019E8007FF470AF2528F5D1019B4FF0010B01332F
:1019F80001934FF0040AECE7584694E70020834629
:101A0800A5E7082B02D06FF015001BE708F10708BF
:101A180028F00708F8E80223C4E90023083408235B
:101A2800D8E768B9042B02D108F10408A4E7082B09
:101A3800E9D108F1070828F0070808F10808EDE7D8
:101A4800059A013A059258F8042B009210E7039A78
:101A5800900720D5A4EB050E4FF0010C4FEA9E002D
:101A6800BEF5007FCFD20F2FCDD8F5B107F14002D8
:101A7800C0B20DEB020E019A0EF8200C0EF8102CD5
:101A8800BCF1000F3FF41AAF60F07F0009F10109C3
:101A98000EF8200C0137C5F1080204344FF6DA7E3F
:101AA800069297E74FF0000CDAE7BCF1000F01D07F
:101AB8000136EFE7029802360028EBD10098CDE90D
:101AC8000631FEF761FC0644DDE90631E2E7631BF7
:101AD800B3F5806F97D23DB9A6F10804E018B1E6D6
:101AE8009C680308A4BC04089B08029A28602B7011
:101AF8009DF81030C2B1EB7085F80290B9F1000F73
:101B080005D008A80022C5F1010C97420ED1C5F1F5
:101B180001030DF120084FF0000A0DF1300B01937D
:101B2800574512D1601B8DE66B70E5E710F8013B55
:101B3800190608D50CEB040E03F07F03B6453FF6F3
:101B48007FAE04F8013B0132DFE7B9F1000F03D0A3
:101B580098F90020002A17DB029BD3B11AF80B2052
:101B680004F8012B0022019B18191044B0423FF6DB
:101B780067AE98F80000009904F8010B204603921C
:101B880034F0D3FD039A14440AF1010A08F101085C
:101B9800C6E798F8002055F822300093029B009879
:101BA80045F82230FEF7F0FB421CDCE76FF00D0031
:101BB80048E600BF2DE9F04F97B00446894600AFCC
:101BC80090F802A0D7F880B03B62CBF3C003FA626A
:101BD800BB6141B9457800780AEB800020444D4547
:101BE80017D8A0EB0409E378FB61BAF1000F02D023
:101BF8001BF0010F16D1FB6953BBFB6A1BB13A6A94
:101C08004946204698474D4628465C37BD46BDE8BC
:101C1800F08F461C09F101093046FEF7B5FB01308B
:101C28003044DCE72378626899007A62FA6A79615D
:101C380004EB8301002A40F000814D460E4601EB7B
:101C48000A094FF000084E454CD101EB0A0610E096
:101C58001BF0020FD1D023789A0004EB83017A613C
:101C680062687A62FA6A002A77D14D4601EB0A0661
:101C780090461BF0050F0CBF02230123FB62FB6992
:101C880006EB430A0BF00203BB625645BCD016F8BC
:101C9800021B16F8013C54F82390994B994502D33E
:101CA800984B994536D3BB69002B40D0786A1BF016
:101CB80018FF00283BD0E9468AB06A46924B536128
:101CC8007B6AC2E906314FF4007313848F4B42F8E4
:101CD800103F00234FF412518D48023D00F074FC70
:101CE800CD46D2E716F8013BF96254F82300FEF717
:101CF8004BFBD7F884300130F96A4BB1D7F88830FC
:101D080098453EBFD7F8843023F8180008F1010839
:101D1800054498E7BB6923B1786A1BF0E2FE002806
:101D2800C9D11BF0010F05D1FB6AED1AADE7BB6AFB
:101D3800002BAAD04846FEF727FBD7F8843053B1CA
:101D4800D7F8883098453FBF431CD7F8842022F83D
:101D5800183008F10108054497E7BAF1000F72D06E
:101D68001BF0040672D0D046002607F14800524600
:101D78003B61B96234F0D9FCB96A3B6901EB0A02EC
:101D8800F969BA62FA695200FA60BA6A02EB41026A
:101D98003A610BF00202BA603A69B96A8A4257D1CD
:101DA8001BF0020F62780CBF4FEA580100217A62DB
:101DB8001BF0010F3244D2B240F09F801BF0040F99
:101DC80014BF40460020BB616270A0702046E170DD
:101DD8003A6A7969FB6A9847051EFFF615AFBB6931
:101DE80041463A6A07F1480023707B6A84F802A0EA
:101DF8006370FB69E370FB6A9847B0F10008C0F2B2
:101E0800BB807B69A9EB0A013A6AC91AFB68C91A3F
:101E1800D7E90A0398470028C0F2B080A8444FF0D9
:101E2800000B07F1380A08EB0005B34572D300210F
:101E38003A6AFB6A08469847E6E656464FF00008B5
:101E480007F1380093E75646D04697E7B04695E73E
:101E5800BA6A12F8021B12F8015CBA6254F825003B
:101E6800274A904202D3274A90421ED3BA6932B118
:101E7800786A7B601BF035FE7B6800288CD1BA68D5
:101E880002BB08F1280207F1300C08F1010008F143
:101E98000208944407F158025FFA88F852FA80F071
:101EA8000CF8101C00F8105C76E7BA693AB1786A49
:101EB8007B601BF016FE7B6800287FF46DAF1BF07B
:101EC800010F09D006F1280207F13000711C16181D
:101ED80006F8205CCEB25FE71BF0040F3FF45CAF5E
:101EE80008F1280207F1300008F1010102EB0008AF
:101EF80008F8105C5FFA81F84EE7002063E700BF3E
:101F08009C680308A4BC0408BA9C030804000001E8
:101F1800547303081BF80A3054F8239087F83730B5
:101F2800D7F884302BB3D7F888309B4521D2D7F81F
:101F3800843033F81B803A6A012107F13700FB6AC5
:101F4800984700281ADB0544B8F1000F06D1484627
:101F5800FEF71AFA00F101081FFA88F83A6A4146B2
:101F68004846FB6A9847002808DB05440BF1010B3B
:101F78005BE74FF00008DEE7454645E6054643E6E1
:101F8800014B1860704700BF0802002480B5054661
:101F98000E46174698461AF057FCDFF8209003467D
:101FA80034F06EFC0446424649F800303946304663
:101FB800A84754F8090001F08FFA00BF0800000094
:101FC800054B00205A6822F002025A605A6822F033
:101FD80001025A60704700BF0010005C164B82B0C7
:101FE800D3F8E02042F00072C3F8E020D3F8E020F4
:101FF80002F000720192019AD3F8F42042F0020232
:10200800C3F8F420D3F8F42002F002020092009AF8
:102018000A4AD2F80423D20706D503F50053D3F8A9
:102028009030002002B07047D3F8A02042F0080298
:10203800C3F8A020F5E700BF004402580004005888
:1020480008B501F0A5FB01F05DFB0C4B0C4A1A60CA
:102058000C4AD36823F03F0343F00403D3600A4BD0
:102068001A6841F20303B3EB124F06D1074AD2F8BC
:10207800083143F00103C2F8083108BDB803002451
:102088000090D003004802580010005C0080005106
:102098002DE9F047044607464FF00109DFF8508064
:1020A80014B93846BDE8F08794FAA4F5B5FA85F571
:1020B80009FA05F32E0108EB05156FEA030A24EA6D
:1020C80003042B7B002BEBD058F806301B694BB967
:1020D80046440422284607EA0A07736819681BF071
:1020E800ECFFDDE7284698470028D9D1F0E700BF84
:1020F8000474030830B5002289B00F490F4834F042
:10210800E4FA0022002300240D4D0E4928460094CD
:10211800CDE906230E234FF44072CDE90334CDE90F
:102128000144094B1AF03EF90849284634F098F959
:10213800204609B030BD00BF59210008200B0024FB
:1021480098060024C024012475240008AF9D0308C4
:10215800014819F0B5BE00BF800500242DE9F047FD
:10216800804620480F461BF080FF0646002832D0E4
:1021780000252846BDE8F087237B83B12368DB6808
:102188000BB120469847636883F8069023681B695B
:10219800CBB963680422204619681BF08EFF01360C
:1021A80010345445E8D3B8F1000FE2D0002DDFD049
:1021B8002846FFF76DFF0546002FF7D00021642061
:1021C80034F0E4F9F2E7204698470028E1D009FA0C
:1021D80006F31D43E3E7044C0546DFF810A04FF073
:1021E8000109DEE72C0F01240474030814740308A2
:1021F800014B53F820007047C074030808B5034624
:1022080008462BB1044A136000F074FC002008BD96
:102218006FF01500FBE700BF0C02002410B5044C5A
:10222800237813B9034819F04BFE0123237010BD1E
:102238001C1401248005002410B504460B481BF02B
:1022480014FF5CB10A4BBFF35B8F53E8001F0139E1
:1022580043E80012002AF8D1BFF35B8F054834F039
:1022680040FA0548BDE8104019F02ABE240F0124A1
:10227800280F0124200B0024800500240020064B91
:10228800BFF35B8F014653E8000F43E80012002AB2
:10229800F9D1BFF35B8F7047240F012470B5FFF7A6
:1022A800EDFF084C0546084EB44200D370BD636884
:1022B8005B792BB123685B6813B1294620469847A0
:1022C8001034F1E7047403081474030810B5044CBF
:1022D800044920461BF03CFD034B1C6010BD00BFA9
:1022E80070040024AC7403081C0F012400230D4A59
:1022F8004FF47A710C4810B513700C4A13600C4AED
:102308001360FFF77BFFFFF7E1FF0A4B0A49184606
:102318008B4200D310BD1A1A5C68103312110132B7
:102328002271F5E71D1401248DE00108240F012412
:10233800280F0124047403081474030801460022BA
:10234800002301481BF025BD7004002401481BF040
:10235800BEBD00BF70040024024B014618681BF084
:102368000ABE00BF1C0F012401481BF03FBE00BF7E
:1023780070040024264B70B51878002846D0FFF763
:10238800E5FF054600283ED1224B234C1B68002B55
:1023980012DD34F098F90A220023FDF7C9FFD4E9C9
:1023A8000032C01A40F2E93361EB0201984271F140
:1023B800000101D3FFF772FFD4E9003213F57A73F5
:1023C80042F10002C4E90032BDE87040FFF7CCBF1B
:1023D80063685B7923B12368294620461B689847C0
:1023E8001034B442F4D32846FFF7B6FF0B4BBFF3C3
:1023F8005B8F53E8001F013943E80012002AF8D127
:10240800BFF35B8FC0E7064C064EEAE770BD00BF1E
:102418001C140124240F0124180B0024280F012464
:10242800047403081474030870B50D4D297861B954
:102438000C4C01200C4EFFF791FEB44206D3FFF777
:1024480099FF0028FBD101232B7070BD63685B796D
:102458001BB1236820469B6898471034EDE700BFFE
:102468001D140124047403081474030800212DE9C1
:10247800F0470846FFF772FE044658B34FF4FA785F
:102488004FF000091C4B34F0FBF91C4A1B58136031
:1024980033B11B4B1B68092B02DD1A4819F010FDDC
:1024A8000025194FDFF85CA044B12046FFF7F0FD86
:1024B800044618B94FF0FF384FF0FF39FFF75AFFBD
:1024C800064628B9B5B942464B46504619F02CFD88
:1024D8003546E9E74FF0FF384FF0FF39D2E72B6870
:1024E8009B691BB100222846114698471035BD420A
:1024F800F5D3E8E7054DFAE708000000200F0124AE
:10250800280F0124800500241474030804740308A8
:1025180013B518481BF0A9FD174B1B7873B1EFF3DF
:102528001184102383F31288BFF36F8FFFF722FF04
:1025380084F31188BFF36F8F02B010BD0F4B1B6877
:10254800002BF9D050B9002200230D48CDE9002313
:1025580042F2107200231AF08FFCEDE70928EBD144
:10256800074834F0BEF8074802B0BDE8104019F03B
:10257800A7BC00BF280F01241D140124200F01242B
:10258800200B002480050024064B10B504461B6868
:1025980098472146A06004481BF07AFCBDE810402B
:1025A800FFF7B6BF0C02002470040024044A054B50
:1025B8009B1AB1EBD30F34BF52F83100002070479B
:1025C8004C730308047403082DE9F04F8FB0C1F36E
:1025D8004A280D46914604AF0C0DB8607B60B8F1EF
:1025E800000F63D0002607F114034FF0040B4FF0DF
:1025F8000A0AC7F80C8032467E624846C7E9076671
:10260800019307F11C03CDF808B0CDF800A0F968D4
:10261800FFF7D0FAB0F5006F03461CD36C468AB0BA
:10262800D9F8041004AB26481A46C3E9050140F25C
:10263800FF71D9614FF400711984224B42F8103FA1
:102648004FF4125133462048FFF7BEFFA5462C37FA
:10265800BD46BDE8F08FC0F30A0804F117003B60DF
:10266800184468F3532520F007008008FFF766FE3A
:10267800044690B13B6800F11001144A4846F961DC
:10268800C7E9083607F11403CDF808B0CDE900A36F
:1026980007F11C03F968FFF78DFA68F353257B6887
:1026A800B96820462A461BF028FDD0E704F1170038
:1026B80020F007008008FFF741FE0446EDE700BF61
:1026C800C49D030804000001AC730308D5E00108A9
:1026D8002DE9F04F87B00446934698460391DDE90B
:1026E8001279DDE9105ABFB13B465246102100204D
:1026F800CDF80090CDF81490FFF78AF8B0F5006F88
:1027080006460AD340F2FF73174A0221174807B05A
:10271800BDE8F04F1BF04ABD3E4604F0070405F142
:1027280017000BF0070BE400304444EA8B1420F048
:10273800070044EA4624800844EA0554FFF7FEFDF2
:10274800054640B13FB13B46524631461030CDF8C0
:102758000090FFF75DF8434622460399284607B0E4
:10276800BDE8F04F1BF0C9BC039E0308AC73030817
:10277800406820B1034BC01A40F3CF0070474FF0B8
:10278800FF3070474C7303080EB403B503AB014622
:10279800054853F8042B019301F088F902B05DF85D
:1027A80004EB03B0704700BF17E20108CA0605D45E
:1027B8008B064CBF02490349FFF7E6BF704700BFCD
:1027C8003C9E03083B9E03082DE9F04F89B09B46C9
:1027D80004460D46149B90469DF84CA00693159B05
:1027E800179E0593169B0493BAF1000F00F09D8085
:1027F80006F4807306F0020907931BF05CFC02469E
:1028080000283ED091492046FFF7BEFF0746B9F1A0
:10281800000F08D016F0440F35D12A468C492046BF
:10282800FFF7B2FF074406F0010353B1894B204676
:10283800894953F82A20894B002A08BF1A46FFF70E
:10284800A3FF06F48073002B49D006F00803002B81
:1028580063D1B8F1000F66D0424681492046FFF7A0
:1028680093FF0546069B3D44002B6DD1049B002B2E
:1028780073D1F30700F1E48031462046FFF796FF55
:10288800D8E00746C3E7774B18680028CAD0764BCC
:102898004FF47A794FF03C0C1B68B5FBF3F5B5FBA8
:1028A800F0F100FB11554FF4616309FB05F5B1FB2D
:1028B800F3F2B5FBF0FE03FB121100FB1E55B1FB52
:1028C800FCF309FB05F50CFB1311B5FBF0F50091C2
:1028D80020466649CDE901E5FFF756FFA2E706F075
:1028E8000803EBB1624B2046624953F82A20FFF7F0
:1028F8004BFF0546B8F1000F05D04246584920461F
:10290800FFF742FF0544BBF1000FABD05A465A49C6
:102918002046FFF739FF0544A4E74FF0000BE1E735
:1029280006F00805E6E745469CE7BBF1010F069B64
:1029380006D1002B64D1049B002B7BD000250CE032
:10294800002BF8D04D485CE04D48069B22464D4987
:102958001BF096F8049B002B68D0DFF82C81DFF879
:102968002C91049F4FF0000B31462046102F28BFB2
:102978001027FFF71BFF5D4545DC059B4FF0010B5A
:10298800494620461A78FFF7FFFE1BF0070F03D1D0
:1029980041462046FFF7F8FE5F453BD9059B49466F
:1029A800204613F80B20FFF7EFFE0BF1010BBBF1EC
:1029B800100FEAD14FF0000B35492046FFF7E4FE2F
:1029C8005A46059B20469A5CA2F120015F293149AD
:1029D80028BF2E22FFF7D8FE0BF1010BBBF1100F19
:1029E8001DD01BF0070F03D141462046FFF7CCFE50
:1029F8005F455A46E5D841462046FFF7C5FEEBE756
:102A08001F485546A1E7414620460BF1010BFFF749
:102A1800BBFEB0E720492046FFF7B6FEC5E7059B99
:102A28003B440593049BDB1B04939AD1BAF1000F36
:102A38007FF41FAF204609B0BDE8F04F1BF0DABBAA
:102A4800064A20460449FFF79FFE15E7439E030800
:102A5800479E0308D074030899B504083E9E0308EE
:102A68006C9E0308340F0124300F0124509E030884
:102A7800E4740308709E0308769E03084DE201087B
:102A880017E20108B53A0008839E03087B9E0308F5
:102A9800859E0308879E0308819E030842F20F73F0
:102AA800114A8B4273B5044628BF0B4605680521B9
:102AB80068461AF037FA636806460B2228465B68B0
:102AC8000A491BF089FB63683246694628465B68F9
:102AD8001BF082FB63681B2205495B6828461BF0D4
:102AE8007BFB02B070BD00BFACB00308A69E030814
:102AF8008A9E030800210123064A904206D8064A06
:102B080001B901231360054B186070474008012183
:102B18005B00F2E740420F00300F0124340F01241C
:102B2800F8B50D4604464618054FB44201D128466B
:102B3800F8BD14F8011BBB6801485B689847F4E7C7
:102B4800EC6B0308014B0360022070472C750308E7
:102B5800F8B504690B464668906A04F12401C50774
:102B680008D46FF085053B4A01213B481BF015FB53
:102B78002846F8BD636205234FF4007CA362936A7C
:102B880098074FF0000056BF83F004030223C3F3F5
:102B9800800323635368636340F6FF73C4E90E033D
:102BA800D4E9275013696B43B3FBF0F3E364D368AC
:102BB8006B43B3FBF0F32365176953683B44D7684D
:102BC8003B4497683B444FF400676B434FF4005510
:102BD800B3FBF0F363652046136AA365D369E36525
:102BE8009369236653696366936AC3F3C023DB035F
:102BF800A3664FF48053C4E91D534FF48063C4E9BE
:102C08001F734FF48073C4E921C303F06BFE0546BC
:102C180030B10246114910486D421BF0D2FBA7E7BC
:102C280020461CF0AFFB054610B102460C49F2E7FE
:102C3800326B002A9CDB014620461CF0BBFC044694
:102C4800002895D002460749034865421BF0B9FBA6
:102C58008EE700BF0B9F0308647303082E9F0308C9
:102C6800509F03086C9F03087FB5144612780D46E1
:102C78000069152A32D017D8062A1BD00BD8032A88
:102C88000BD0052A2AD0244824491BF09AFB6FF060
:102C9800850004B070BD132AF5D1A668E168012E3D
:102CA8000B782FD149781EE0292A30D0392A21D033
:102CB800232AF1E7656902952379CDE900232A469D
:102CC80023691CF0F8FB02462069002AE1D012486B
:102CD80013491BF076FB6FF00400DAE7A16823794B
:102CE80009B1E1680978009129461CF072FB024697
:102CF800A068EAE7E368019323790093A3681CF0CE
:102D080079FBF4E78CBFB1F801100021EBE7E36829
:102D18005D1C01951B78F0E764730308959F030811
:102D2800B39F030873B545680646286833F0C2FAAE
:102D380048B96FF01204654A012165481BF02DFA65
:102D4800204602B070BD294651F80C0B83681B68F9
:102D580043B19847041E08DA22465E495C481BF0D6
:102D680030FBEDE76FF05704F6E7D5E9010183681A
:102D7800DB6803B19847756836696A6A012A0AD020
:102D8800022A1BD06FF08504534951481BF019FBE8
:102D980022465249E2E700232946F36006F1A002E1
:102DA80051F81C0B8368DB6853B19847044650B14F
:102DB80022464B4946481BF004FBE9E70123EBE7B1
:102DC8006FF05704F4E7D6F8A0304FF47A7229462A
:102DD800B3FBF2F3C6F8A03051F8140B8368DB6834
:102DE80033B101AA9847044628B122463D49E1E794
:102DF8006FF05704F9E7D6F89420019B3A49B06080
:102E0800B3FBF2F3D6F890205343D6F8982023F07A
:102E18000043D3404FF4FA52B3FBF2F28B42C6F8A8
:102E28009C201FD9022344F620600133092B05D1C9
:102E38002E4A022126481BF0B0F905E0B2FBF3F454
:102E480084421946F1D8B16006F19001304603F08A
:102E580043FC044640B1024625491D4864421BF024
:102E6800B0FA95E70221EEE7F16939B1304603F08F
:102E78006BFE044610B102461E49EEE7316A39B1CD
:102E880030461CF03CFA044610B102461A49E4E701
:102E9800042130461CF01FFA044610B102461749B7
:102EA800DBE7E96A39B130461CF0A1FB044610B1F2
:102EB80002461349D1E7A96A30461CF09CF904463A
:102EC80000283FF43DAF02460E49C6E7C99F0308F4
:102ED80064730308E89F030811A0030856A10308B8
:102EE80039A0030856A003087F0E131371A0030826
:102EF8008FA00308A5A00308C8A00308E9A0030839
:102F08000DA1030831A103082DE9F047064600AFDB
:102F18000C46002936D0E9468AB0A3686D46D1E947
:102F2800001221484FF0050AA846C5E90501C5E980
:102F3800072348F810AF002342464FF421511B489D
:102F4800FFF742FBCD466369AD46D4E90312184842
:102F5800C5F810A0C5E90501C5E9072300234246C5
:102F68004FF421511148FFF72FFBCD46E369114A71
:102F780001210E481BF01AF9A3690F4A01210B48D9
:102F88001BF014F9012E07D1EFF305830B4A103B10
:102F9800314606481BF00AF92146304618F030FD44
:102FA800BD46BDE8F08700BF8DA10308E4730308A0
:102FB800BCA10308EBA10308FAA1030828A203088F
:102FC80030BFFFF7FDBF00BF2DE9F0410B4E0546AE
:102FD800DFF82C80324606EB0807CC1B094920464F
:102FE80033F0A3FBA019083C4246002133F0C5FB8F
:102FF80007F108002C67BDE8F08100BF0000000061
:103008000400000020740308054B5A699B689A4223
:1030180004D0044A536843F080535360704700BF9C
:10302800DC13012400ED00E070B5294C06460D467E
:10303800284829491BF0D5F9A36AD9043CD5254865
:1030480026491BF0CEF91720A36A1A0504D5214892
:1030580023491BF0C6F918201D4CA36A9B0512D5FD
:103068001C4820491BF0BDF9A36BA26A100409D5BE
:103078001D4A012117481BF099F81EB1A36A23F4D1
:103088000043A3621920124CA36A590504D51148BC
:1030980016491BF0A6F91A20A36ADA050ED50D48C1
:1030A80013491BF09EF91B20094A936A43F47F4396
:1030B800936200232B7070BD1620C5E7A36A9B049A
:1030C800F2D504480B491BF08CF91C20ECE700BF33
:1030D80000ED00E0E47303083BA2030851A20308D3
:1030E80062A2030875A203088EA20308A3A203081C
:1030F800BEA20308D6A2030810B5204C20492148D7
:103108001BF06FF9A36A990136D51E481E491BF0BA
:1031180068F91E20A36ADA0104D51A481B491BF076
:1031280060F91F20154CA36A1B0304D515481849DC
:103138001BF057F92120A36A590304D511481549F2
:103148001BF04FF922200D4CA36A9A0304D50D48B1
:1031580011491BF046F92320A36ADB0304D509486B
:103168000E491BF03EF92420044A936A6FEA034390
:103178006FEA1343936210BD1D20CBE700ED00E01A
:1031880005A30308E47303081DA3030830A3030879
:103198004AA3030868A303088DA30308A7A3030889
:1031A8002DE9F843364D8046894636483649174654
:1031B8001BF017F9AB6ADE0627D5112433493148CD
:1031C8001BF00FF9AB6A1D0704D5122430492D48AE
:1031D8001BF007F92A4DAB6A980718D52D492948DD
:1031E8001BF0FFF86E6BAB6A190646D52A4A3346C0
:1031F800012124481AF0DAFFB9F1000F03D0AB6AB5
:1032080023F08003AB62132403E01024DAE76FF0A5
:1032180015061B4DAB6ADA0704D514241F49194853
:103228001BF0DFF8AB6A9B0604D515241C4915482A
:103238001BF0D7F8124B9A6AD50602D49A6A9007FF
:103248000AD55B68190507D54146304600F002FAF1
:1032580010B180F309880224094B9A6A920603D5B3
:103268005A6A22F400525A629A6A204642F0FF02D1
:103278009A6200233B70BDE8F8836FF01506C2E739
:1032880000ED00E0E4730308D2A30308E8A30308F1
:1032980062A203081BA4030833A4030849A4030873
:1032A800D6A203082DE9F041664B8AB004460026F1
:1032B800D3F8048000AFC8F3080586F31188BFF37C
:1032C8006F8F02F07F43B3F17F4F07D102F00C03F9
:1032D800082B12D15C495D481BF083F80026344660
:1032E8000023FB71EB1E092B00F28B80DFE803F053
:1032F8000A81847D89898989898710074CBF0C4692
:103308000126EDE7524951481BF06BF84D4D00235B
:10331800FB71EB6A9A0705D54E494C481BF061F8DA
:10332800002332E0EB6A002B01DA4B49F5E7EB6A40
:103338005B00F5D5494945481BF053F86B69A2690C
:1033480043F480736B61BFF34F8FBFF36F8F6B696B
:1033580032F8022C23F480736B61BFF34F8FBFF3F5
:103368006F8F4DF602739A4208D0AB6ADBB27BB31B
:10337800FA1D01212046FFF713FF38E02368384A79
:10338800012132481AF012FF2368FA79E2B907F1ED
:10339800080504F1200C2068083454F8041C2A4657
:1033A800644503C21546F6D17A6A002E45D0C2F3A9
:1033B800080121B96FEA52226FEA42227A6207F1C4
:1033C80008011846FFF7A0FD2837BD46BDE8F08183
:1033D800AB6A13F47F4F04D0F91D0120FFF724FED8
:1033E80005E0AB6AB3F5803F9AD3FFF785FE034645
:1033F800CBE7FA1D0021BDE7F91D0020EEE71949CA
:103408008BE718F4F87F184AE8468AB0174B18BFBC
:1034180013466A461649103DC2E905134FF4007376
:10342800D5611384134B42F8103F00234FF4115118
:103438000648FFF7C9F8C54672E722F4FF7222F082
:103448000102BBE700ED00E096A40308E47303085B
:10345800C1A40308D8A40308F9A4030807A503080E
:1034680026A5030842A503087DA4030868A4030849
:1034780066A5030804000001044B5A6942F01002D3
:103488005A615A6922F008025A61704700ED00E05B
:10349800EFF30880EFF3098101B57246FFF702FFE9
:1034A80001BD00BF0A4880F30888102080F3118806
:1034B80008484FF40461401880F30988EFF314803A
:1034C8000221084380F31488BFF36F8F00F08EF851
:1034D800404A012480300124084B9B6883420BD169
:1034E800EFF3058343B1064B5A6842F080525A60A5
:1034F8005A6A22F400425A6219F0ACB9DC1301246A
:1035080000ED00E014498A684FF030001044EFF3F2
:10351800098C80E8F01F102080F31288BFF36F8FAA
:103528000E4F4FF000664A698A603E60106F0C4C7F
:103538002060506F0023536780F3118804B510464C
:1035480000F04CF9BDE8044002F1300090E8F01FAB
:103558008CF3098870470000DC13012404ED00E0B7
:103568005C0F01241EF0040F0CBFEFF30880EFF38B
:103578000980816911F8021C0229FFD001B5724641
:103588001AF024FF01BD00BF00B2002807DB0123A9
:10359800410900F01F00024A834042F82130704779
:1035A80000E100E000B2013100284FEA0111C9B280
:1035B80006DB00F1604000F5614080F800137047B9
:1035C80000F00F00014B1954704700BF14ED00E0E4
:1035D800044B054A23F07F039360BFF34F8FBFF37B
:1035E8006F8F70470000000800ED00E008B5FFF796
:1035F800EFFF0C4AD2F8883023F47003C2F8883001
:10360800EFF3148323F0040383F31488BFF36F8F5D
:1036180018F0E2FA19F056FA00F056F81AF000FF1E
:1036280018F01EFB00ED00E042F8203C203A009B19
:1036380007495360019B21F001019360029B91614E
:10364800D3604FF08073D3610023026543677047EE
:10365800951F0008094A0346906870B113F1160FC8
:10366800006E05D0A0F140029A4205D8834203D2E9
:10367800814228BF0020704700207047DC130124D6
:1036880015460C4A0E4608B50B4B9060026F1A603F
:1036980000F0A4F82C4686F309880020034B9847CD
:1036A8002046002100220023014C204701E40108A4
:1036B800951F0008DC1301245C0F0124014B102224
:1036C8001A61704700ED00E0002304481021C21879
:1036D8000133962B82F80013F9D1704700E100E01E
:1036E80008B5EFF30583064A103B02EBC30152F815
:1036F800330049688847BDE80840FFF785BC00BF2C
:103708004C6D0308154A70B5536913F4803323D1FF
:10371800C2F88430BFF34F8FD2F8803043F6E0749C
:10372800C3F3C900C3F34E335B0103EA0406014641
:1037380046EA81750139C2F86052F9D2203B13F18B
:10374800200FF2D1BFF34F8F536943F48033536195
:10375800BFF34F8FBFF36F8F70BD00BF00ED00E068
:10376800002910DD00F01F030B44BFF34F8F0749FA
:103778000344C1F8680220301A1A002AF9DCBFF3A2
:103788004F8FBFF36F8F0020704700BF00ED00E040
:103798000B4B5A6912F4003211D1BFF34F8FBFF3AC
:1037A8006F8FC3F85022BFF34F8FBFF36F8F5A69E3
:1037B80042F400325A61BFF34F8FBFF36F8F7047E7
:1037C80000ED00E0024B0121024A034800F08AB8EC
:1037D800000008240000002480750308026E4021C0
:1037E800044B403A18461A60034AC3E90112012102
:1037F80000F082B8600F012400000B1508B50346DD
:103808001048D0F89020C2F30722013A934207D912
:103818000D4801210D4A1AF0C9FC6FF0150008BDCA
:10382800C0F898300A6822F01F021A4342F01002CA
:10383800C0F89C208A6842F00102C0F8A02018460F
:10384800EDE700BF00ED00E0D47303087DA5030891
:10385800F0B50E4685B01F4604460025B5420DDA80
:10386800606810B397B1431E18420AD0104A2B461D
:10387800012110481AF09AFC6FF01502104605B0A5
:10388800F0BD1F28F2D921680B42EFD1236801A9A6
:1038980001931AF0C6FDA3680343D0B20393FFF760
:1038A800ADFF10F1160FE7D0421C01350C34D5E7F7
:1038B800A3A50308D4730308044B0522C3F8942076
:1038C800BFF34F8FBFF36F8F704700BF00ED00E06D
:1038D800BFF35F8F024B0022C3F89420704700BFEC
:1038E80000ED00E010B5034C01232278FFF7B0FF8C
:1038F800207010BD1F1401240B4A08B5002312784C
:10390800FFF7A6FF10F1160F07D0084A0021D2F8DA
:103918009030C3F30723984200DB08BDC2F8980033
:103928000130C2F8A010F2E71F14012400ED00E0F6
:10393800584859492DE9F043D0F8903085B00D68C2
:10394800C3F307239D4200F2A180FFF7C1FF496836
:103958000022954201F10C011AD1504C6846504F93
:103968002570FFF7EFF800250646DFF83881DFF805
:103978003891AE421FD1237800204649D1F89020D3
:10398800C2F3072293427BDB0020FFF795FF4CE050
:10399800C0F8982051F80C3C23F01F031343013260
:1039A80043F01003C0F89C3051F8043C43F0010385
:1039B800C0F8A030CDE700984FEA051C00EB0511D0
:1039C800CB683B40B3F5000F44D00AD8B3F5001FCD
:1039D8002ED0B3F5800F34D0B3F5801F10D0013549
:1039E800C7E7B3F1807F3ED0B3F1007FF7D150F83D
:1039F8000C3088681AF015FD4A6840F4802009E008
:103A080050F80C3088681AF00CFD40F088504A686D
:103A180040F43020039001A92078CDE90123FFF775
:103A2800EDFE002828DA6FF0150005B0BDE8F08338
:103A380050F80C3088681AF0F4FC4A6840EA08002C
:103A4800E8E750F80C3088681AF0EBFC4A6840EA5E
:103A58000900DFE750F80C3088681AF0E2FC4A6881
:103A680040F08270D6E750F80C3088681AF0D9FC1C
:103A78004A6840F08870CDE7237801332370AEE7B9
:103A8800C1F898300133C1F8A00077E74FF0FF3054
:103A9800CBE700BF00ED00E0687403081F140124A1
:103AA8000000F0FF0000081100000206F0B587B022
:103AB80007460E4614460021102268461D4632F07D
:103AC8005CFE02232A4621468DF802306846044BE4
:103AD800CDE90476019319F04FFA07B0F0BD00BFA5
:103AE8004BE4010808B5024B1B689847002008BD45
:103AF8006C0F0124034B044A1860937843F00203C7
:103B0800937070476C0F0124BC02002406490748D3
:103B180021F00701C1F1105208B502F5002219F091
:103B280057FF002008BD00BFAF580224700F0124C2
:103B3800F0B5114D85B0114E114F4FF0FF334FF0D6
:103B4800FF3201A9284618F059F9034690B101211E
:103B58003A460C481AF02AFBEFE7236813B1019A9A
:103B6800934203D101A8D4E9013198470C34B442F7
:103B7800F3D3E2E7044CFAE7E804002420740308CE
:103B8800C6A50308A473030814740308F0B585B028
:103B980017461E4601909DF828008DF809108DF8EB
:103BA8000800ADF80A700396DDE90C5423462C434F
:103BB8002A460AD00D4932F063FED1F880400C49FC
:103BC80009588C4204BF002213460A4801A932F062
:103BD800B7FB041E07DA084A022108481AF0DDFA82
:103BE800204605B0F0BD0024FAE700BFB00D01245F
:103BF80008000000E8040024DBA50308A4730308F8
:103C0800044B03EB40000023013320F8022B9942B8
:103C1800FADC7047180400242DE9F84306464FF0F3
:103C28000009114F4FF00108347854FA89F52846F5
:103C380000F036F970B1284600F062F957F83530CF
:103C480043B14C4407EBC50504F01F04696808FA42
:103C580004F0984709F1010972785FFA89F39A42EA
:103C6800E2D2BDE8F88300BF7C0F01244FF4801333
:103C7800094A0A4910B5D2F8A40088420BD0581C4A
:103C8800F9D0013BF7D183F31188BFF36F8F042478
:103C9800204602DFEFE710BD0064025800030080F1
:103CA800034680B1B0FA80F2C2F11F02D2B20749CE
:103CB80031F912004FF0B042D2F880100B43C2F82D
:103CC8008030FFF761BCFF22F1E700BF1804002431
:103CD80038B50D460446FFF7C9FF032D0DD8DFE8B8
:103CE80005F0021116204FF0B0431A6822EA0402C8
:103CF8001A605A6822EA04025A600E4B4FF4407266
:103D08005A6238BD4FF0B0431A682243F0E74FF0CB
:103D1800B0435A6822435A601A6822EA04021A60B9
:103D2800EBE74FF0B0431A6822431A605A6814430D
:103D38005C60E2E70064025830B5B0B1B0FA80F3D5
:103D4800C3F11F03DBB20B4850F833408C4204D157
:103D580000EBC3056D68954205D044B940F83310AF
:103D680000EBC3004260002030BDFF23EBE76FF09B
:103D78000F00F9E77C0F012460B1B0FA80F3C3F1BA
:103D88001F03DBB2044A002142F8331002EBC302DE
:103D980051607047FF23F5E77C0F012438B500F028
:103DA80003030F250C4604339B009D4045EA90050C
:103DB800FFF75CFF05F003032A0C92FAA2F29B00BE
:103DC800B2FA82F203F1B04302F01F02D3F80814EA
:103DD80094404FF4407221EA15410C43C3F808445B
:103DE800014B5A6238BD00BF0064025800F003025C
:103DF8000F23043292009340094A43EA900000F0EE
:103E08000303023352F82320030C93FAA3F3B3FA03
:103E180083F302EA104003F01F03D840704700BF45
:103E2800000400584FF48013094A0A4910B5D2F823
:103E3800A40088420BD0581CF9D0013BF7D183F37A
:103E48001188BFF36F8F0424204602DFEFE710BD0F
:103E5800006402580003008013B50E4C204632F06F
:103E680029FA40B90C4801210C4A1AF096F96FF06A
:103E7800120002B010BD0223F422CDE90023A3688A
:103E88001B681BB1694620469847F2E76FF0570058
:103E9800EFE700BFCC6903086C73030821A6030889
:103EA8005F2838B5054607D9124A0346012112484A
:103EB8001AF07CF9002038BD00F01F0301249C4053
:103EC800FFF7B0FF1F2D4FF0B0430AD8D3F8883062
:103ED8009C434FF44072094B0CBF012000205A62EA
:103EE800E9E73F2D02D8D3F89830F1E7D3F8A830A6
:103EF800EEE700BF40A603086C730308006402588D
:103F080038B5012100F01F055F28044601FA05F5C0
:103F180007D90F4A03460F481AF048F96FF0150001
:103F280038BDFFF77FFF1F2C4FF0B04307D8C3F809
:103F38008850094B4FF4407200205A62F0E73F2C3A
:103F480002D8C3F89850F4E7C3F8A850F1E700BFC7
:103F580040A603086C73030800640258026800292D
:103F68000CBF4FF080410021054B906803400B4384
:103F780043F0004393609368002BFCDB704700BF5D
:103F8800C0FFFE3F70B54368054604691E68336884
:103F9800DA0605D510233249324833601AF0C9FAD7
:103FA80033685B0743D5D4F89430326C991CC4F855
:103FB80094101A8094F8A53094F8A4200133DBB249
:103FC8009A4284F8A53032D1002384F8A530636E74
:103FD800A3B3E36FB4F888203BB104F16401284629
:103FE8009847012811D0022822D0B4F88830B4F8B4
:103FF80084209A421CD90133A4F88830A36F4BB9A6
:104008002046BDE870401AF098BAD4F89830C4F841
:104018009430F3E7BFF35B8F54E8003F5A1E44E83F
:1040280000210029F8D1012BBFF35B8FE8DC70BDBC
:10403800A36F1BB104F1080032F053FBD4F89030A1
:104048005B681A684FF6FF73A4F8A630D36943F08B
:104058000103D36104F15000BDE8704017F030BF90
:1040680080A603084C730308044808B5FFF78AFFC5
:104078000348BDE80840FFF785BF00BF4C6C030844
:104088002C6C03080148FFF77DBF00BF0C6C0308C8
:10409800F8B50A790D46436807469106186808D5A9
:1040A8001B7E33B9484949481AF043FA6FF01500A6
:1040B800F8BD02F01F0312F0200F4FF00104444A2C
:1040C80040F2FF7604FA03F418BF1646092B03EBF7
:1040D800430244EA8364D0F8C03089BF1E3A44EAF8
:1040E800025444EA025444F000742340C3F3130317
:1040F800B34211D01AF064FAD0F8C030C4F31302F6
:1041080006F0180623EA0203324AF240224013431B
:10411800C0F8C0301AF037FA2B78092B01D02E4995
:10412800C1E76B78042B01D02C49BCE72C7968884F
:104138007D6804F01F042968B0B143F6FF73984204
:104148001CD005F118060022254F36F8023F3B43E4
:104158009BB2984209D00132082AF6D121491B485E
:104168001AF0E7F920499EE7024695F92A303BB153
:10417800013BDBB2012B25D91C49F0E70722F4E704
:10418800012304EB4400092C4FF0070503FA04F35C
:1041980088BF1E3843EA846301F114048ABF43EAE6
:1041A800005343EA005343F00073D80DC3F304539C
:1041B80000F004009D4002FA03F3215821EA0501AA
:1041C8000B432350002073E7F9A603084C73030838
:1041D8000000FF47FFFF0F0039A703084EA7030899
:1041E80000C0FFFF68A70308C1A703088BA703083F
:1041F80073B546680546346820461AF0E1F901218E
:104208006868FFF7ABFE337E1BB100216868FFF7D3
:10421800A5FE6B68224899688368DB68002B37D154
:10422800204921481AF085F9019B1BB91F491E48EE
:104238001AF07FF920461AF0A6F9002826DB1C4B55
:104248009C422AD01B4A94420CBF082210221A4BC7
:1042580000214FF4800503EB8203D4F8C82005FA47
:1042680001F01E6802F040423243C4F8C820A26838
:1042780022F480320243A260104AA668304201D17B
:10428800013AFAD1013104330629E6D102B070BDF2
:1042980001AA98470028C7DAC2E70022D7E700BF7B
:1042A800CC690308D7A703084C730308F1A70308D0
:1042B800002002400021024000ECF11F71000800BC
:1042C8002DE9F74FD0F8048006460769D8F8005062
:1042D800DFF83CB2584631F0EDFF48B96FF01204F0
:1042E8008C498D481AF025F9204603B0BDE8F08FB7
:1042F8004FF6FF73DBF808A0C7F89060A7F8A63060
:10430800D6F80490DAF80030D9F80040D9F8081047
:104318004BB35846984730BB804B9C423ED003F184
:10432800C0537F497F4A03F586438C4208BF134632
:104338009A68D9F8101022F47C120A439A60D9F8C6
:104348001030D9F8081023F40032B2F5803F03D0BA
:10435800B3F5003F18BF0831DAF80C3003BB7249D7
:104368006D481AF0E6F801AA0021D8F814001AF0EE
:104378001EFE041E08DB019B00221979186801F053
:10438800ABFD041E80F29F80A21C00F09C80674A4F
:1043980023460121604819F009FFA5E7614BC7E7EB
:1043A80001AA5B4898470028D9D1D9F81030B3F54D
:1043B800A01F33D01AD8B3F5802F53D00DD8B3F53A
:1043C800003F4FD004D833F4803304D1012326E0D2
:1043D800B3F5403F4CD05649C2E7B3F5402F43D020
:1043E800B3F5801F42D0B3F5002FF3E7B3F5101FE4
:1043F80040D00AD8B3F5E01F3ED0B3F5001F3DD03A
:10440800B3F5C01FE7D10C2309E0B3F5201F37D05F
:10441800B3F5301FDFD14FF4807300E00A23454A1B
:10442800116841F20302B2EB114F2CBF01220222A4
:104438005343019AB2FBF3F33F4A0193934221D9C4
:104448003E4A934233D93E4A934233D93D4A934236
:1044580033D93D4A934233D93C4A02212E4819F0B8
:10446800A5FE80E70223DAE70623D8E70823D6E784
:104478000423D4E74023D2E71023D0E72023CEE754
:104488008023CCE700232B4A126802F04052B2F195
:10449800805FA26815BF03F4407322F4807222F48F
:1044A800407242EA930318BF1343A3605BE74FF4DB
:1044B8008073E8E74FF40073E5E74FF4C063E2E781
:1044C8004FF4E063DFE7AB6823F0204323F03F03BA
:1044D800AB60AB6823F0104323F03F0343F08053F5
:1044E800AB602B68DB04FCD5D8F8043003B19847DF
:1044F8003046FFF77DFEEB6823F47E63EB60BB6C10
:104508001BB907F1400017F0DBFC0024ECE600BF04
:10451800CC690308C99F03084C73030800200240B4
:10452800002102400023024005A8030865A80308EB
:1045380027A803080010005C105E5F0020BCBE00C6
:10454800002D310140787D0180F0FA0245A803086A
:104558002DE9F04F076987B006460D4607F140037D
:1045680003934FF0FF324FF0FF33039817F0DCFC52
:1045780073683469D3F80080AB68C4F894306F6806
:104588003846C4F8A070FBF707FF002384F8A4009E
:1045980084F8A53027B9A849A84819F0CAFF07E048
:1045A80010280EDD1023A64A0121A44819F0FEFDAB
:1045B8006FF01504039817F083FC204607B0BDE898
:1045C800F08F726810682C3292F901C0634502DBE3
:1045D80013D19C49E0E752F8041F95F810E0BEEBB0
:1045E800D14F29D15FFA81F9C1F30427C1F3423BC6
:1045F800C1F3024AB9F1FF0F20D173684FF00009E7
:10460800326904931B68D2F8A00003F1300B68BB31
:1046180094F8A4202B68520013B19B8903FB022253
:10462800EB6893427AD20121009284486FF00B0420
:10463800854A19F0C5FDBDE70133C7E750F80930D1
:10464800FB400BEA03039A45D7D019F0B9FF73680A
:104658000BFA07FB0AFA07FA196851F8093023EA36
:104668000B0343EA0A0341F80930C6E790FAA0F1C0
:104678000122B1FA81F1092901EB410C02FA01F298
:1046880088BFACF11E0C059242EA8162049988BF8A
:1046980042EA0C5291F92B1094BF42EA0C5242F0B4
:1046A800007201292AD1C2F3130CC2F3846EBCF143
:1046B800000F29D101FA0EF2D9695FFA89FA1F278A
:1046C8001143624AD96152F82A104FEA911C01F04D
:1046D8001F010CF00C0C8F400EFA01FE5C495BF8D0
:1046E8000C2051F82A1022EA070242EA0E024BF87F
:1046F8000C201A6B22F00F020A431A63059A09F17B
:10470800010920EA020082E792FAA2F2B2FA82F2E2
:10471800012102F01F0201FA02F2CDE771686A7CFA
:104728000868002A54D1036923F4806323F0030343
:104738000361AB7C13B13046FFF75AFD404604F1E4
:10474800640619F020FF1023AC46C8F80030D8F8EA
:10475800043043F00403C8F80430BCE80F000FC667
:10476800DCF800303360002626662B68002B5FD00B
:1047780004F178050FCB85E80F006566A4F888601A
:10478800002855D0BFF35B8F54E8003F44E800622F
:10479800002AF9D1BFF35B8FA06F64220023633036
:1047A80046F10001FBF7C4FD00220023CDE900011A
:1047B80004F1080018F060FB4FF0FF324FF0FF33B0
:1047C80004F1500017F0B0FB00B12066246EF1E64A
:1047D8000A2A2BD8036923F4806323F0030343F0E8
:1047E8000103036191F92C30022BA2D1194B4FF030
:1047F800010953F822A009FA02F9174B026913407C
:1048080003F58033B9EB134F04D1036903F4F07354
:104818009A458ED019F0D4FE0269104B09F1FF3980
:10482800134043EA0A0343EA094381E70C49B3E624
:10483800204619F082FEBFE783A803084C730308DB
:1048480098A80308C1A80308D4A80308F4760308A5
:10485800B4760308887603080000FF031FFE00FCF7
:10486800F9A80308064B1B6903F03803102B05D081
:10487800182B044818BF0020400870470248FBE77F
:10488800004402580084D71740787D01374B10B593
:1048980018680B88C3F30B03132B37D813B96FF0C1
:1048A800850032E0013B122BF9D801A454F823F01B
:1048B8004149000805490008A7480008634900085D
:1048C80047490008A7480008A74800084B490008BE
:1048D8004F4900084B490008534900085749000848
:1048E800474900085B4900085B4900085F49000820
:1048F800A748000839490008394900080020106015
:104908000B68B3F5805F2AD2002010BDD42B0FD0DE
:1049180003F62873C3F30B031C2BC0D8012404FA35
:1049280003F3134C234205D140F211142342B6D0AD
:104938004008E4E78008E2E7FFF794FFDFE70D4867
:10494800DDE70D48DBE70D48D9E70D48D7E70D4807
:10495800D5E70D48D3E70D48D1E70D48CFE7C3F3B6
:1049680013330133B0FBF3F01060CDE7B803002434
:1049780000101111006CDC020084D71700C2EB0B89
:10498800001C4E0E000E27078066AB13E09DA301A6
:1049980040787D014FF48013094A0A4910B5D2F8CE
:1049A8008C0088420BD0581CF9D0013BF7D183F317
:1049B8001188BFF36F8F0424204602DFEFE710BD94
:1049C800006402580003008010B50B880C4603F6FB
:1049D8002C73C3F30B03202B13D8FFF7DBFF2388BB
:1049E80061680020C3F30B0303F1B04303F51133EF
:1049F8001A6822EA01021A604FF44072024BDA6028
:104A080010BD6FF08500FBE70064025813B50B88F2
:104A18000C4603F62C73C3F30B03202B1DD8FFF7AA
:104A2800B9FF238861680020C3F30B0303F1B04387
:104A380003F511331A680A431A604FF44072238849
:104A4800C3F30B0303F1B04303F511331B68019360
:104A5800019B034BDA6002B010BD6FF08500FAE7E6
:104A68000064025873B5A94CD4F8E03043F00073E1
:104A7800C4F8E030D4F8E03003F000730193019BF0
:104A8800FFF788FF236823F480232360236843F417
:104A98008033236023689803FCD523689B4A43F43A
:104AA8008053236013689904FCD5994B9A6942F4A2
:104AB80040429A619A699204FCD5944B1A6902F0B3
:104AC8003802182A16D11A68560706D41A6842F00E
:104AD80001021A601A685507FCD58C4B1A6922F036
:104AE80007021A611A6912F0380FFBD19A6922F08D
:104AF8000F029A61854B1A6822F080721A601A6850
:104B080022F080621A601A6822F080521A609A6A4B
:104B180022F0030242F002029A629A6A22F47C723C
:104B280042F050029A62DA6A22F00C0242F008025D
:104B3800DA62DA6A22F00202DA621A6B22F4FF728F
:104B480022F0010242F09F021A63DA6A22F001029F
:104B5800DA621A6B22F47E4242F400721A63DA6A4D
:104B680042F48032DA621A6B22F4FE0242F44032D6
:104B78001A63DA6A42F40032DA621A6B22F0FE42F1
:104B880042F080721A63DA6A42F48022DA621A68A2
:104B980042F080721A601A689401FCD59A6A22F46D
:104BA8007C3242F4A0429A62DA6A22F0C00242F0F1
:104BB8008002DA62DA6A22F02002DA629A6B22F460
:104BC800FF7222F0010242F05F029A63DA6A22F071
:104BD8001002DA629A6B22F47E4242F400729A63FF
:104BE800DA6A42F40022DA629A6B22F4FE0242F494
:104BF80040329A63DA6A42F48012DA629A6B22F0DF
:104C0800FE4242F010629A63DA6A42F40012DA62F3
:104C18001A6842F080621A603C4B1A681001FCD591
:104C28009A6A3A4C22F07C7242F4A0029A62DA6ADA
:104C380022F4406242F40062DA62DA6A22F4007214
:104C4800DA621A6C22F4FF7222F0010242F0830247
:104C58001A64DA6A22F48072DA621A6C22F47E42EA
:104C680042F400721A64DA6A42F48002DA621A6C58
:104C780022F4FE0242F480321A64DA6A42F4000234
:104C8800DA621A6C22F0FE4242F0B8521A64DA6A0A
:104C980042F08072DA621A6842F080521A60236821
:104CA8009900FCD51B4EFFF7DDFD0546B04202D842
:104CB800194802F01DF8A369144A23F47063A3612C
:104CC800A36923F00F0343F00803A361E36923F00A
:104CD800700343F04003E361E36923F4E06343F4C2
:104CE8008063E361A36923F0700343F04003A36189
:104CF800236A23F0700343F040032362236923F0FF
:104D0800070343F00303236108E000BF004402588F
:104D180000480258FFC1EB0B00C2EB0B136903F00C
:104D28003803182BFAD1B54202D90E4801F0E0FF3A
:104D38000D4B9A6942F440429A619A699204FCD5F3
:104D48000A4B4FF440720020DA60094A136923F4D1
:104D58000043136102F14042064BA2F52B121A6080
:104D680002B070BD00C2EB0B004802580064025844
:104D780000440258B8030024132808D8054BC34040
:104D880013F0010F14BF00206FF0850070476FF01B
:104D98008500704732FF0D0010B508880C46C0F337
:104DA8000B00FFF7E9FF002826DB4B68FF2B22D01A
:104DB800FFF7F0FD626893B2C2F38450C2F3054274
:104DC80003F1B04300FA02F203F51133196821EA3E
:104DD80002021A6061688BB2CA0EC1F3054103F181
:104DE800B0438A4003F51133186802431A604FF440
:104DF8004072024BDA60002010BD00BF0064025808
:104E080008B5074831F056FA38B10648FEF772FE81
:104E18000448FDF7B5F8002008BD6FF01200FBE765
:104E2800EC6B0308314E00080A2838B50446074DD4
:104E380004D1AB680D2128465B689847AB68E1B29E
:104E480002485B689847204638BD00BFEC6B0308F2
:104E580098B5406800AF046B0369DCB133BB2046EA
:104E680031F028FA034640BB21686C4688B06A4690
:104E78001548C2E905014FF400719183134942F8BE
:104E8800101F13484FF4E251FDF79EFB6FF012001C
:104E9800A54602E01BB96FF05700BD4698BD012139
:104EA800103019F0D3FB00EAE070F6E7012110306A
:104EB80019F0CCFB0028D2DAEFE7A3685B68002B77
:104EC800E9D020469847E8E74CA903080300000109
:104ED8005C7303080A4370B5049E4568046910D1E1
:104EE8009A8829688A420CD1D8886968884208D18A
:104EF8001B89934205D1D4F8B8309E4209D10020CD
:104F080006E012480121124A19F047F96FF08500AE
:104F180070BD04F1BC05284617F02CF8236801225F
:104F2800C4F8B460DA632268536B43F00103536337
:104F38004FF0FF324FF0FF33284616F0F5FF226896
:104F4800536B23F001035363D9E700BF5C73030875
:104F580068A90308F8B5456807460669AB6873B1E0
:104F68004FF4D01105F1080019F055FB041E06DABC
:104F78002E4A01212E4819F010F92046F8BD2B6958
:104F88004BB14FF4B01105F1100019F044FB041EA9
:104F980001DA284AEDE7284C204631F08BF938B978
:104FA800264A012122486FF0120419F0F6F8E4E7C6
:104FB800A368A9691B682BB120469847041E04DA28
:104FC8001F4AD6E76FF05704FAE7D5E90801836866
:104FD800DB6803B198474FF48163A6F8A830012233
:104FE800002106F1BC0031F0B2F9EB6A3846984767
:104FF800144A3046136823F00D0313601AF0ABFB14
:1050080004460028B9D1024606F1380130461AF0A4
:1050180000FC04460028B0D13268D2F8043123F0ED
:105028000103C2F80431084B1864A6E795A90308E0
:105038005C730308C9A90308CC690308C99F03085E
:1050480000AA0308004000520010005098B54068BC
:1050580000AF046B0369DCB133BB204631F02AF999
:10506800034640BB21686C4688B06A461548C2E9C9
:1050780005014FF400719183134942F8101F13483A
:105088004FF4E251FDF7A0FA6FF01200A54602E0D6
:105098001BB96FF05700BD4698BD2146103019F076
:1050A800D5FA00EAE070F6E70021103019F0CEFAE0
:1050B8000028D2DAEFE7A3681B68002BE9D0204666
:1050C8009847E8E74CA90308030000015C7303084C
:1050D80008B5044A0121044819F05FF86FF085000B
:1050E80008BD00BF56AA0308DC73030837B50D4690
:1050F800009313460A46817E006819F03DF9041EA4
:1051080009DA064A2B4601210548009419F058F897
:10511800204603B030BD0024FAE700BF71AA030897
:10512800DC73030870B505464068C3682BB10021DD
:105138000C3019F05DFB044638B900236868282153
:105148001A46BDE87040FFF7D1BF0346034A012164
:10515800034819F075FB204670BD00BF97AA0308E5
:10516800DC73030870B505464068C3682BB101219C
:105178000C3019F03DFB044638B900236868292132
:105188001A46BDE87040FFF7B1BF0346034A012144
:10519800034819F055FB204670BD00BFB6AA0308A6
:1051A800DC7303082DE9F0414668054607698EB0AF
:1051B800706860B306F1040831F07CF850B96FF0FC
:1051C8001204734A0121734818F0E7FF20460EB015
:1051D800BDE8F0814FF4B011404619F0EEFA041E14
:1051E80006DA23466C4A01216A4819F029FBEDE7E3
:1051F800142019F027FB0121404619F0F9FA041E82
:1052080002DA2346654AEEE7C82019F01BFBB38B88
:10521800002B29D1F28A7A80328BBA807B70337D59
:1052280003AA8DF80C3040F603030D933B78102B3E
:1052380014BF002303230C937B8804932223CDE916
:10524800053302230793BB8808939623CDE90933D6
:1052580078230B933068B17E83681B689847041ED7
:105268001BDA23464E4ABEE75A2B05D1338B7B8087
:10527800F38ABB800123D1E7B42B05D1F38A7B8065
:10528800338BBB800223C9E7B3F5877FC7D1338B44
:105298007B80F38ABB800323C0E76868002301246E
:1052A800DB228DF80B300DF10B03817E0094006832
:1052B80019F048F8A0420AD021466FF004040346CA
:1052C800384A344819F0BCFA2346374A8BE79DF828
:1052D8000B30802B09D0802201462E486FF0150430
:1052E8000092324A18F06CFFEEE74FF4D01106F145
:1052F8000C0019F062FA041E02DA23462C4A72E7FF
:1053080018222C4928462E6919F0ABFA041E2EDB08
:10531800C82019F097FA737803225BBB2649284600
:1053280019F09FFA0028044621DB00231121686840
:105338001A46FFF7DBFE041E19DB142019F082FA67
:1053480033780DF10B023A21102B686814BF7723CC
:1053580055238DF80B300123FFF7C8FE041E06DB2A
:1053680006221649284619F07CFA044620B123463D
:10537800134A38E71349D2E72846FFF7F3FE0446F5
:10538800034608B1104A2EE7104A03212CE700BF54
:10539800D4AA0308DC730308F4AA03080FAB0308B4
:1053A8002BAB030848AB030878AB03085FAB0308D3
:1053B80094AB03086AAC030855AC030816AC0308A1
:1053C800B1AB030840AC0308D0AB0308F2AB030849
:1053D8002DE9F843D0F804801746D0F810900D4610
:1053E800D8F808001E4619F080F8B7F5001F0446E3
:1053F80016D1D8F808402846FEF7F8FC84420CD1AC
:10540800294619F072F8044619F074F82046FEF798
:10541800B3FC00212046FEF75BFC0020BDE8F883C2
:10542800B7F5800F20D0B6F1806F19D0B6F1C06FF4
:1054380018D0B6F1007F1AD102264A460F492046F5
:10544800FEF77AFCB0B9D8F808102846FEF7A6FC93
:1054580020463146FEF73CFC2046FEF721FCDCE7FF
:105468000126EAE70326E8E76FF08500D6E76FF044
:105478001500D3E76FF00F00D0E700BFF9E9010886
:105488004FF48013094A0A4910B5D2F8A00088429F
:105498000BD0581CF9D0013BF7D183F31188BFF327
:1054A8006F8F0424204602DFEFE710BD0064025826
:1054B8000003008038B543680C465D68FFF7E0FFDD
:1054C8004FF4407200206B6963406B61014B1A62B4
:1054D80038BD00BF0064025870B543680D461446D5
:1054E8005E68FFF7CDFF4FF44072002073695C409F
:1054F8002C405C40014B74611A6270BD0064025814
:105508002DE9F843164645680124884602F030071D
:1055180099468C40FFF7B4FF6A68C6F38013C6F358
:10552800C111C6F3412622EA040203FA08F3202F28
:1055380043EA020304FA08F26B6002EB4200D5F872
:1055480008C002FB01F102FB06F66FEA00032CEA31
:10555800000C41EA0C01A960E96821EA000146EA69
:105568000106EE600FD1B8F1070F18D802FA08F15A
:10557800286A01FA08F1C1EB011401FB09F120EADC
:1055880004000143296229683F090B4057434FF43F
:1055980040721F43094B2F601A62BDE8F883240A42
:1055A800696A64436443C4EB041004FB09F921EA03
:1055B800000141EA09016962E5E700BF0064025899
:1055C80038B50369044658600A4D284630F072FE23
:1055D80060B1AB6861681B680C3123B128469847F5
:1055E80000EAE07038BD6FF05700F9E76FF012007D
:1055F800F8E700BFCC69030808B5044A012104484C
:1056080018F0CBFD6FF0040008BD00BFB0AD030873
:105618008C73030898B5426800AF0369D26883F8B1
:105628004E1029B9136823F440131360BD4698BD82
:105638006C468AB003686A460848D161C2E9050326
:105648004FF400731384064B42F8103F00234FF4C5
:1056580011510448FCF7B8FFA546E7E7CEAD0308AB
:10566800040000018C730308F7B504464368066913
:105678000F461C480022DD68596883680192DB6880
:105688004BB96FF00404184A0121184818F085FD39
:10569800204603B0F0BD01AA98470028F1DB376225
:1056A80006F110074FF0FF324FF0FF33384616F07F
:1056B8003BFC2B68204623F001032B6096F84E1024
:1056C800FFF7A8FF2046019900F004F996F84D303D
:1056D80004461BB12B6843F001032B60384616F0D3
:1056E800EFFBD5E7CC690308E2AD03088C73030828
:1056F80070B50446466805694FF0FF320021284618
:1057080030F025FE336820469847002385F84C3052
:1057180085F84E30012205F11000114630F017FED1
:10572800224830F0C7FD40B96FF01204204A012129
:10573800204818F032FD204670BD204600F048F899
:1057480033691D4A934224D018D81C4A934222D068
:105758001B4A934221D001211A4A164818F01DFD10
:105768000021204641F01001FFF77EFF041E18DAE1
:10577800154A01210F4818F010FDDCE7134A93423F
:105788000DD002F5C31202F520629342E3D10A213B
:10579800E7E70621E5E70221E3E70421E1E708213D
:1057A800DFE70123002485F84C30C4E7CC690308FF
:1057B800C99F03088C73030840420F00A0860100AC
:1057C800801A060010AE03082BAE030840E1330030
:1057D80037B5456801AA0021686919F0E8FB041E7D
:1057E80007DB019B00221979186800F075FB041E7D
:1057F80008DA0D4A234601210C4818F0D7FC204648
:1058080003B030BD0A48696883681B683BB9094A18
:10581800012106486FF0040418F0BFFCEFE7984731
:1058280004460028EBD0F2E75FAE03089473030840
:10583800CC6903087DAE030830B504694068C068C8
:105848004568ED0107D543684A6823F47F0343EAB6
:105858000243436030BD246A1D4D14F0010F4468B3
:105868002AD044F40064446044682C4023434360D5
:105878000B7A9C0728D43AB313785B0724D443687F
:1058880043F0807343604368039A23F000734360D6
:10589800436823F480631343436043684A6823F4EE
:1058A8007F0343EA02434360036843F00103036054
:1058B800436843F40053CCE724F40064446044682C
:1058C8002C4044EA4303D2E7436823F08073D9E7C6
:1058D80000FCFFFF2DE9F84F47680C46D0F8109000
:1058E8000025D7F80C80474A474BF969A9420FD8D9
:1058F800D9F82030C3F34203012B45D0022B72D0D4
:10590800424A4348012118F048FC6FF0150028E08E
:105918000C26D7F818B03F486E430BEB060ADAF8A6
:105928000410814226D01ED83B48814224D03B48EF
:10593800814223D00121364818F02FFC0021314A3A
:10594800314BD9F82000C0F34200B0EB510F19D108
:105958005BF80610A14215D1DAF808300020C8F823
:105968001030BDE8F88F2E48814209D09942E1D124
:105978000A21E6E70621E4E70221E2E70421E0E75D
:105988000821DEE70135B0E741F25C2C4FF47A6775
:1059980040F2E2464FF4FA750221224B4A1EB4FB4C
:1059A800F2F2B3FBF2F2B7FBF2F00138FF2823D88A
:1059B800BCFBF2FE0EF1FF3EBEF1FF0F1CD8B5FB9B
:1059C800F2F9B9F10F0F17D8B6FBF2F2013A0F2A24
:1059D80012D802394EEA094343EA017343EA0253F3
:1059E80043EA0023BAE740F2145C4FF416774FF409
:1059F800FA7640F27715CFE701311129CED10A4A5C
:105A08007FE700BF10AE0308404B4C00ADAE030863
:105A18009C73030840420F00A0860100801A06000C
:105A280040E1330000CA9A3B28AF03082DE9F04350
:105A380050F8045C87B001240227D5F804800DF1E2
:105A480011032E690DF11202D8F80C00B8F81010E5
:105A580000948DF8127019F0DCF900284DDB9DF8E0
:105A6800113003F00F038DF811305BB30323D8F81E
:105A78000C00B8F810100DF113028DF81330042340
:105A8800009305AB19F0C5F9002836DB9DF8141012
:105A98009DF8162009029DF81530100202F00F0239
:105AA80001F4706100F470600F2A43EA01039DF865
:105AB800171041EA00010AD1194A009139461948DC
:105AC80018F07EFB96F82030D3B9002413E04FF08D
:105AD800FF384FF0FF391A462846CDE9008919F0FA
:105AE800D3F923464FF4A572214628460094CDE900
:105AF8000289FEF74BF886F8204007B0BDE8F0832E
:105B08004FF0FF324FF0FF3301212846CDE9022341
:105B1800009100234FF4A572FEF738F8D5E700BFCF
:105B28005BAF030874730308F8B545680446066953
:105B3800E86830F0BFFB40B93A4A6FF0120401211F
:105B4800394818F02AFB2046F8BD3046374940F856
:105B5800044B30F047FC6B6903B34FF4D01105F1E7
:105B6800140019F032F9041E05DA314A01212E48D1
:105B780018F013FBE7E70021322030F007FD2B7EF9
:105B880068690121994003691B68194283680CBF41
:105B98001B69DB68984700280446D4DB05F11C0420
:105BA800E86930F087FB08B9224AC6E720464FF477
:105BB800803119F00AF9041E01DA1F4AD6E7E869AC
:105BC80095F8201082680369946984B101271B68DD
:105BD80007FA01F21A424FF0A07214BF4FF0007397
:105BE8004FF08063A047041E04DA144ABEE76FF042
:105BF8005704FAE795F8203006F11401104A07FA1D
:105C080003F3C6E90623E8698368DB692BB13A46E2
:105C18009847041E04DA0B4AA8E76FF05704FAE71E
:105C2800002490E77AAF030874730308355A000814
:105C38009AAF0308B6AF0308E1AF030808B003083A
:105C480013EE010836B003080346F0B553F8186D93
:105C580085B005467268D16892685C1A154BE410E5
:105C68005C430C236343D718D058397919F0EDF801
:105C7800031E08DA104A0121009323460F4818F042
:105C88009FFA05B0F0BD15F9082C9A42F9D04FF0EB
:105C9800FF304FF0FF3105F8083C003B3A8918BF48
:105CA8000123CDE90201012130460091FDF76EFF85
:105CB800E7E700BF398EE33863B003087C73030855
:105CC8002DE9F04F85B04FF00009466802AFF5683E
:105CD800786018353D6073684B4505DC337D002BD3
:105CE80040F09F80002423E00C23D6F808A003FB93
